:1000000028C042C041C040C03FC03EC03DC03CC00F
:100010003BC03AC039C0F1C112C236C035C034C08D
:1000200033C032C031C049C455C441C440C43FC4C8
:100030005CC462C46CC43BC43AC439C438C437C459
:1000400036C435C434C433C46DC477C481C42FC42A
:100050008CC411241FBECFE5D4E0DEBFCDBF12E0BB
:10006000A0E6B0E0E4E0FAE002C005900D92A6340C
:10007000B107D9F712E0A6E4B2E001C01D92A63B99
:10008000B107E1F78BD0BDC4BBCFCF93DF93EC01B9
:1000900080E690E035D319861A861B862A893B892B
:1000A0002115310539F48E818B838F818C8388856E
:1000B0008D8371C08E81682F77278B81681B7109B2
:1000C000161617060CF041C081E0898780E091E0A8
:1000D00071D4629FC001639F900D729F900D112497
:1000E0009D878C8705D28F81682F77278C81681B2D
:1000F0007109161617060CF041C081E08A8780E06E
:1001000091E058D42A893B89629FC001639F900D7A
:10011000729F900D11249F878E878885682F77277F
:100120008D81681B710916161706E4F481E08B8730
:1001300080E091E03FD4629FC001639F900D729F69
:10014000900D1124998B888B26C06115710539F0AB
:100150008FEF8987709561957F4F09F0B7CF60E089
:1001600070E0B7CF6115710531F08FEF8B87709517
:1001700061957F4FE9F660E070E0DDCF61157105B4
:1001800039F08FEF8A87709561957F4F09F0B7CF6F
:1001900060E070E0B7CFDF91CF910895CF92DF920A
:1001A000EF92FF921F93CF93DF9382EF81BB8BE09F
:1001B00090E011D17894B89AB99ABA9ABB9A8EE61F
:1001C00090E09ED2EDD38093A3028091A302992761
:1001D0008FD18BE890E094D210928D0210928E0213
:1001E00010928F021092900210929102109292023D
:1001F00010929302109294021092950210929A0219
:100200001092990210929C0210929B0210929E02F0
:1002100010929D02109296021092970210929802EC
:100220001092A00210929F021092A2021092A102BC
:100230001092A402CC24DD24EE24FF24C0E0D0E000
:100240001FE00CC018BB109247021092460280912A
:100250004602909147028F3F91054CF015D18823BB
:1002600089F31ED18AD2882369F3ABD2EBCFE09118
:1002700090022091460230914702FF27E356FF4F3C
:1002800080819927281739070CF0C198E0919102D5
:100290002091460230914702FF27E356FF4F8081AD
:1002A0009927281739070CF0C298E0919202209103
:1002B000460230914702FF27E356FF4F808199277E
:1002C000281739070CF0C39880919602882389F08B
:1002D0009091900280919302981759F08091990221
:1002E00090919A02C816D90608F04CC00894C11C17
:1002F000D11C80919702882389F09091910280917E
:100300009402981759F080919B0290919C02E816F4
:10031000F90608F047C00894E11CF11C809198028E
:10032000882371F09091920280919502981741F084
:1003300080919D0290919E02C817D90798F421964A
:1003400080914602909147020196909347028093D4
:10035000460280914602909147028F3F91050CF032
:100360007DCF85CF8091920290919802890F8093E2
:1003700092029091920280919502981719F1C0E033
:10038000D0E0DECF8091900290919602890F809309
:10039000900290919002809193029817B1F0CC2432
:1003A000DD24A7CF8091910290919702890F8093CD
:1003B00091029091910280919402981749F0EE2455
:1003C000FF24ACCF10929802DACF10929602E7CFBA
:1003D00010929702F4CF292F332720BD89B988E1E5
:1003E0008AB98EE880BD109269021092680210925C
:1003F0008B0210928A02579A08951F920F920FB69D
:100400000F9211242F938F939F93EF93FF939CB19F
:10041000809168028F5F8F718093680220916902DA
:10042000E8E4F2E0E80FF11D9083FF91EF919F91D6
:100430008F912F910F900FBE0F901F9018951F92C4
:100440000F920FB60F9211248F939F93EF93FF9308
:1004500090918A0280918B02981761F0E0918B0253
:10046000EF5FEF71E0938B02FF27E659FD4F80812C
:100470008CB901C05598FF91EF919F918F910F908A
:100480000FBE0F901F90189590916802809169029D
:1004900020E030E0981711F021E030E0C901089524
:1004A00090916802809169029817D1F3E0916902F6
:1004B000EF5FEF71E0936902FF27E85BFD4F8081FA
:1004C00099270895282F80919C00882381F090918E
:1004D0008A029F5F9F7180918B029817E1F3E92F49
:1004E000FF27E659FD4F208390938A02559A08957D
:1004F000DF92EF92FF920F931F93CF93DF93EC0164
:1005000097FD38C06BE2D62E27E2C031D207DCF16E
:1005100080E0C051D7428F5F37E2C031D307CCF7BC
:1005200030E3E32EE80E83E0C83ED80794F180E084
:10053000C85ED3408F5F93E0C83ED907CCF790E305
:10054000F92EF80EC436D1054CF180E0C456D040E7
:100550008F5FC436D105D4F7082F005DCA30D105AE
:100560000CF180E02A978F5FCA30D105DCF7182F95
:10057000105D19C0D095C195DF4F4DE2D42E27E212
:10058000C031D2072CF650E3E52E83E0C83ED807F1
:1005900074F620E3F22EC436D105BCF600E3CA306F
:1005A000D105FCF610E380E28DDF8D2D8BDF8E2DE3
:1005B00089DF8F2D87DF802F85DF812F83DF9E01ED
:1005C000205D822F7FDFDF91CF911F910F91FF90F0
:1005D000EF90DF900895EF92FF920F931F93CF93C8
:1005E000DF93EC018051974294F180E0C051D742F3
:1005F0008F5F37E2C031D307CCF7F0E3EF2EE80E80
:1006000083E0C83ED8074CF180E0C85ED3408F5FDE
:1006100093E0C83ED907CCF770E3F72EF80EC43646
:10062000D10504F180E0C456D0408F5FC436D105B7
:10063000D4F7082F005DCA30D105C4F080E02A97B6
:100640008F5FCA30D105DCF7182F105D10C0A0E312
:10065000EA2E83E0C83ED807BCF6E0E3FE2EC4369F
:10066000D10504F700E3CA30D10544F710E380E276
:1006700029DF8E2D27DF8F2D25DF802F23DF812F90
:1006800021DF9E01205D822F1DDFDF91CF911F9121
:100690000F91FF90EF900895FF920F931F93182FE3
:1006A000282F332724363105C4F080E014568F5F9D
:1006B000212F332724363105CCF7B0E3FB2EF80E7B
:1006C0002A3031057CF020E01A502F5F812F9927C6
:1006D0000A97D4F7022F005D06C000E3F02E2A30FF
:1006E00031058CF700E380E2EDDE8F2DEBDE802F0D
:1006F000E9DE812F805DE6DE1F910F91FF90089566
:10070000CF93DF93EC018881882329F0DBDE2196EB
:1007100088818823D9F7DF91CF910895482FE82F5A
:10072000FF27EA55FD4F8081282F3327C901C09745
:100730000A97F8F4642F40E050E0CA01880F991F2F
:10074000880F991F880F991F440F551F480F591F75
:10075000420F531F405350406F5FE62FFF27EA556B
:10076000FD4F8081282F3327C901C0970A9728F3AE
:1007700002C040E050E0CA010895282F8C33B1F048
:1007800090918C02992379F0903140F4E92FFF2762
:10079000EA55FD4F80839F5F90938C0280E090E04C
:1007A0002E3361F0089580E090E008958093A602D2
:1007B00081E080938C0280E090E0089581E090E0F9
:1007C00008951F93CF93DF938091A7028C3421F07B
:1007D0008DE991E095DFD3C01091A802212F332736
:1007E000205330402A303105A0F48091A30299278C
:1007F0002817390709F455C080EB91E081DF812F7C
:1008000061DE83EC91E07CDF8091A302992770DEAA
:10081000B6C0E2E0A2E0B0E0C3E0D0E0CA55DD4FF0
:1008200088819927C0970A9790F0C0E0D0E0AA5538
:10083000BD4F1C91812F9927AA27BB27FC01E154AA
:10084000F040E631F10598F5ED5EFF4F09944E2F2B
:100850004F5FE42FFF27EA55FD4F8081282F332774
:10086000C901C0970A9708F7C0E0D0E0CE01880F11
:10087000991F880F991F880F991FCC0FDD1FC80F74
:10088000D91FC20FD31FE0974F5FE42FFF27EA5510
:10089000FD4F8081282F3327C901C0970A9730F375
:1008A000C6CFE3E0A3E0B0E0C4E0D0E0B7CF85E39B
:1008B00092E026DF812F06DE62C087E292E020DF31
:1008C000CE0116DE86EE91E01BDFC093A3028C2FD3
:1008D0005AD055C083EF91E013DFCE0109DE86EEDA
:1008E00091E00EDFC09395024AC088EC91E008DFEA
:1008F0008DE892E0CADB43C089EE91E001DFCE01D2
:10090000F7DD86EE91E0FCDEC093940238C08EEFF6
:1009100091E0F6DECE01ECDD86EE91E0F1DEC093F3
:100920008D022DC08CED91E0EBDECE01E1DD86EE97
:1009300091E0E6DEC093930222C088E092E0E0DE20
:10094000CE01D6DD86EE91E0DBDEC0938E0217C0CD
:100950008CE192E0D5DECE01CBDD86EE91E0D0DEFB
:10096000D093A002C0939F020AC082E192E0C8DE49
:10097000CE01BEDD86EE91E0C3DEC0938F02DF9133
:10098000CF911F910895282FE199FECF81E090E04B
:100990009FBB8EBB2DBBF894E29AE19A78940895A0
:1009A000E199FECF81E090E09FBB8EBBE09A8DB3D2
:1009B0009927089597FB092E07260AD077FD04D0C2
:1009C0000CD006D000201AF4709561957F4F0895E1
:1009D000F6F7909581959F4F0895AA1BBB1B51E197
:1009E00007C0AA1FBB1FA617B70710F0A61BB70B9F
:1009F000881F991F5A95A9F780959095BC01CD0144
:040A00000895FFCF87
:100A0400646F466164652072636F756E74000D0ACD
:100A14002E2E2E496C6C756D696E61746F72206137
:100A24007420616464726573732000207361797348
:100A34002068656C6C6F2E2E2E0D0A0001000000DC
:100A44000000000000010101010101010202020293
:100A5400020303030304040404050505060606074C
:100A64000708080809090A0A0A0B0B0C0C0D0D0EDD
:100A74000E0F0F1010111112121313141515161650
:100A8400171818191A1A1B1C1C1D1E1E1F202021A2
:100A940022232324252626272829292A2B2C2D2ED8
:100AA4002E2F30313233343535363738393A3B3CF2
:100AB4003D3E3F404142434445464748494A4B4CEA
:100AC4004D4E4F5051525354565758595A5B5C5DD2
:100AD4005F6061626364666768696B6C6D6E6F7199
:100AE4007273747677787A7B7C7E7F808183848648
:100AF40087888A8B8C8E8F919293959698999A9CDD
:100B04009D9FA0A2A3A5A6A8A9ABACAEAFB1B2B459
:100B1400B5B7B8BABCBDBFC0C2C3C5C7C8CACCCDBF
:100B2400CFD0D2D4D5D7D9DADCDEE0E1E3E5E6E80C
:100B3400EAECEDEFF1F3F4F6F8FAFBFDFF0D0A2011
:100B44006E6F204C20636F6D6D616E640D0A200022
:100B54000D0A77726F6E6720616464726573733A0D
:100B640020200020213D2000476F742066616465C9
:100B740020636F6D6D616E64200D0A00476F7420F1
:100B84007265643A20000D0A00476F742067726E24
:100B94003A2000476F7420626C75653A2000476FF5
:100BA40074206875653A2000476F74207361743A45
:100BB4002000476F742076616C3A2000476F7420E0
:100BC40074696D653A2000476F74206164647265CE
:100BD40073733A2000756E7265636F672063686192
:060BE400723A0A20000035
:00000001FF
