:1000000028C041C040C03FC03EC03DC03CC03BC016
:100010003AC039C038C0F2C113C235C034C033C091
:1000200032C031C030C046C452C43EC43DC43CC4DA
:1000300059C45FC469C438C437C436C435C434C471
:1000400033C432C431C430C46AC474C47EC42CC442
:1000500089C411241FBECFE5D4E0DEBFCDBF12E0BE
:10006000A0E6B0E0ECEFF9E002C005900D92A434F8
:10007000B107D9F712E0A4E4B2E001C01D92A43B9D
:10008000B107E1F78AC0BCCFCF93DF93EC0180E6E4
:1000900090E033D319861A861B862A893B8921155D
:1000A000310539F48E818B838F818C8388858D8394
:1000B00071C08E81682F77278B81681B7109161696
:1000C00017060CF041C081E0898780E091E06FD491
:1000D000629FC001639F900D729F900D11249D87B8
:1000E0008C8703D28F81682F77278C81681B7109D9
:1000F000161617060CF041C081E08A8780E091E077
:1001000056D42A893B89629FC001639F900D729FDC
:10011000900D11249F878E878885682F77278D8182
:10012000681B710916161706E4F481E08B8780E0DE
:1001300091E03DD4629FC001639F900D729F900D2E
:100140001124998B888B26C06115710539F08FEFCA
:100150008987709561957F4F09F0B7CF60E070E0B7
:10016000B7CF6115710531F08FEF8B877095619571
:100170007F4FE9F660E070E0DDCF6115710539F081
:100180008FEF8A87709561957F4F09F0B7CF60E058
:1001900070E0B7CFDF91CF910895CF92DF92EF92C9
:1001A000FF921F93CF93DF9382EF81BB8BE090E0B0
:1001B00013D17894B89AB99ABA9ABB9A8EE690E01D
:1001C0009CD2EBD38093A1028091A10299278DD17B
:1001D0008BE890E092D21092A10210928B021092C2
:1001E0008C0210928D0210928E0210928F02109249
:1001F0009002109291021092920210929302109229
:1002000098021092970210929A02109299021092FC
:100210009C0210929B0210929402109295021092EE
:10022000960210929E0210929D021092A0021092CD
:100230009F021092A202CC24DD24EE24FF24C0E011
:10024000D0E01FE00CC018BB10924502109244028F
:1002500080914402909145028F3F91054CF015D159
:10026000882389F31ED186D2882369F3A7D2EBCFE6
:10027000E0918E022091440230914502FF27E4561E
:10028000FF4F80819927281739070CF0C198E0911A
:100290008F022091440230914502FF27E456FF4F20
:1002A00080819927281739070CF0C298E0919002B5
:1002B0002091440230914502FF27E456FF4F808190
:1002C0009927281739070CF0C39880919402882346
:1002D00089F090918E0280919102981759F0809147
:1002E000970290919802C816D90608F04CC008945D
:1002F000C11CD11C80919502882389F090918F02B6
:1003000080919202981759F08091990290919A02E7
:10031000E816F90608F047C00894E11CF11C80912A
:100320009602882371F09091900280919302981721
:1003300041F080919B0290919C02C817D90798F4D4
:100340002196809144029091450201969093450236
:100350008093440280914402909145028F3F910521
:100360000CF07DCF85CF8091900290919602890FFD
:10037000809390029091900280919302981719F1C6
:10038000C0E0D0E0DECF80918E0290919402890F80
:1003900080938E0290918E02809191029817B1F015
:1003A000CC24DD24A7CF80918F0290919502890FF4
:1003B00080938F0290918F0280919202981749F05A
:1003C000EE24FF24ACCF10929602DACF1092940262
:1003D000E7CF10929502F4CF292F332720BD89B99A
:1003E00088E18AB98EE880BD109267021092660299
:1003F0001092890210928802579A08951F920F92C4
:100400000FB60F9211242F938F939F93EF93FF9327
:100410009CB1809166028F5F8F71809366022091FC
:100420006702E6E4F2E0E80FF11D9083FF91EF919F
:100430009F918F912F910F900FBE0F901F90189545
:100440001F920F920FB60F9211248F939F93EF93E9
:10045000FF939091880280918902981761F0E09152
:100460008902EF5FEF71E0938902FF27E859FD4FA2
:1004700080818CB901C05598FF91EF919F918F9128
:100480000F900FBE0F901F9018959091660280916B
:10049000670220E030E0981711F021E030E0C90158
:1004A000089590916602809167029817D1F3E091C8
:1004B0006702EF5FEF71E0936702FF27EA5BFD4F92
:1004C000808199270895282F909188029F5F9F71BE
:1004D000809189029817E1F3E92FFF27E859FD4F32
:1004E000208390938802559A0895DF92EF92FF92AD
:1004F0000F931F93CF93DF93EC0197FD38C06BE20E
:10050000D62E27E2C031D207DCF180E0C051D742BD
:100510008F5F37E2C031D307CCF730E3E32EE80E2C
:1005200083E0C83ED80794F180E0C85ED3408F5F77
:1005300093E0C83ED907CCF790E3F92EF80EC43605
:10054000D1054CF180E0C456D0408F5FC436D10550
:10055000D4F7082F005DCA30D1050CF180E02A974E
:100560008F5FCA30D105DCF7182F105D19C0D09508
:10057000C195DF4F4DE2D42E27E2C031D2072CF6D1
:1005800050E3E52E83E0C83ED80774F620E3F22E50
:10059000C436D105BCF600E3CA30D105FCF610E341
:1005A00080E291DF8D2D8FDF8E2D8DDF8F2D8BDF04
:1005B000802F89DF812F87DF9E01205D822F83DFDF
:1005C000DF91CF911F910F91FF90EF90DF900895F1
:1005D000EF92FF920F931F93CF93DF93EC01805123
:1005E000974294F180E0C051D7428F5F37E2C0312B
:1005F000D307CCF7F0E3EF2EE80E83E0C83ED80730
:100600004CF180E0C85ED3408F5F93E0C83ED907CD
:10061000CCF770E3F72EF80EC436D10504F180E074
:10062000C456D0408F5FC436D105D4F7082F005D83
:10063000CA30D105C4F080E02A978F5FCA30D10557
:10064000DCF7182F105D10C0A0E3EA2E83E0C83E4F
:10065000D807BCF6E0E3FE2EC436D10504F700E36C
:10066000CA30D10544F710E380E22DDF8E2D2BDF59
:100670008F2D29DF802F27DF812F25DF9E01205D31
:10068000822F21DFDF91CF911F910F91FF90EF908B
:100690000895FF920F931F93182F282F3327243686
:1006A0003105C4F080E014568F5F212F33272436A4
:1006B0003105CCF7B0E3FB2EF80E2A3031057CF083
:1006C00020E01A502F5F812F99270A97D4F7022F25
:1006D000005D06C000E3F02E2A3031058CF700E300
:1006E00080E2F1DE8F2DEFDE802FEDDE812F805D49
:1006F000EADE1F910F91FF900895CF93DF93EC01F5
:100700008881882329F0DFDE219688818823D9F724
:10071000DF91CF910895482FE82FFF27EC55FD4F2B
:100720008081282F3327C901C0970A97F8F4642FD6
:1007300040E050E0CA01880F991F880F991F880F69
:10074000991F440F551F480F591F420F531F405305
:1007500050406F5FE62FFF27EC55FD4F8081282F1B
:100760003327C901C0970A9728F302C040E050E040
:10077000CA010895282F8C33B1F090918A029923F1
:1007800079F0903140F4E92FFF27EC55FD4F80833D
:100790009F5F90938A0280E090E02E3361F008958D
:1007A00080E090E008958093A40281E080938A0223
:1007B00080E090E0089581E090E008951F93CF934A
:1007C000DF938091A5028C3421F08CE991E095DFD4
:1007D000D3C01091A602212F3327205330402A3056
:1007E0003105A0F48091A10299272817390709F44F
:1007F00055C08FEA91E081DF812F65DE82EC91E0C8
:100800007CDF8091A102992770DEB6C0E2E0A2E011
:10081000B0E0C3E0D0E0CC55DD4F88819927C09788
:100820000A9790F0C0E0D0E0AC55BD4F1C91812FED
:100830009927AA27BB27FC01E154F040E631F105D6
:1008400098F5ED5EFF4F09944E2F4F5FE42FFF2781
:10085000EC55FD4F8081282F3327C901C0970A9797
:1008600008F7C0E0D0E0CE01880F991F880F991FCC
:10087000880F991FCC0FDD1FC80FD91FC20FD31FC0
:10088000E0974F5FE42FFF27EC55FD4F8081282F25
:100890003327C901C0970A9730F3C6CFE3E0A3E03E
:1008A000B0E0C4E0D0E0B7CF84E392E026DF812F50
:1008B0000ADE62C086E292E020DFCE0116DE85EE1F
:1008C00091E01BDFC093A1028C2F5AD055C082EF5C
:1008D00091E013DFCE0109DE85EE91E00EDFC093DB
:1008E00093024AC087EC91E008DF8BE892E0CCDB12
:1008F00043C088EE91E001DFCE01F7DD85EE91E0A7
:10090000FCDEC093920238C08DEF91E0F6DECE019E
:10091000ECDD85EE91E0F1DEC0938B022DC08BED16
:1009200091E0EBDECE01E1DD85EE91E0E6DEC09305
:10093000910222C087E092E0E0DECE01D6DD85EEB6
:1009400091E0DBDEC0938C0217C08BE192E0D5DE34
:10095000CE01CBDD85EE91E0D0DED0939E02C09338
:100960009D020AC081E192E0C8DECE01BEDD85EEC7
:1009700091E0C3DEC0938D02DF91CF911F91089566
:10098000282FE199FECF81E090E09FBB8EBB2DBB6D
:10099000F894E29AE19A78940895E199FECF81E083
:1009A00090E09FBB8EBBE09A8DB39927089597FB8B
:1009B000092E07260AD077FD04D00CD006D00020DF
:1009C0001AF4709561957F4F0895F6F7909581958B
:1009D0009F4F0895AA1BBB1B51E107C0AA1FBB1F55
:1009E000A617B70710F0A61BB70B881F991F5A95BB
:0C09F000A9F780959095BC01CD010895F9
:1009FC00646F466164652072636F756E74000D0AD6
:100A0C002E2E2E496C6C756D696E61746F7220613F
:100A1C007420616464726573732000207361797350
:100A2C002068656C6C6F2E2E2E0D0A0000000000E5
:100A3C000000000001010101010101020202020299
:100A4C00030303030404040405050506060607074F
:100A5C0008080809090A0A0A0B0B0C0C0D0D0E0EDE
:100A6C000F0F10101111121213131415151616174F
:100A7C001818191A1A1B1C1C1D1E1E1F202021229F
:100A8C00232324252626272829292A2B2C2D2E2ED4
:100A9C002F30313233343535363738393A3B3C3DEB
:100AAC003E3F404142434445464748494A4B4C4DE2
:100ABC004E4F5051525354565758595A5B5C5D5FC8
:100ACC006061626364666768696B6C6D6E6F71728E
:100ADC0073747677787A7B7C7E7F8081838486873B
:100AEC00888A8B8C8E8F919293959698999A9C9DCF
:100AFC009FA0A2A3A5A6A8A9ABACAEAFB1B2B4B54A
:100B0C00B7B8BABCBDBFC0C2C3C5C7C8CACCCDCFAD
:100B1C00D0D2D4D5D7D9DADCDEE0E1E3E5E6E8EAF9
:100B2C00ECEDEFF1F3F4F6F8FAFBFDFF0D0A206E95
:100B3C006F204C20636F6D6D616E640D0A20000D8B
:100B4C000A77726F6E6720616464726573733A2002
:100B5C00200020213D2000476F74206661646520D1
:100B6C00636F6D6D616E64200D0A00476F742072A7
:100B7C0065643A20000D0A00476F742067726E3A64
:100B8C002000476F7420626C75653A2000476F74C3
:100B9C00206875653A2000476F74207361743A20A1
:100BAC0000476F742076616C3A2000476F74207494
:100BBC00696D653A2000476F7420616464726573D7
:100BCC00733A2000756E7265636F6720636861729B
:040BDC003A0A2000B1
:00000001FF
