:1000000066C00AC37FC07EC0D0C27CC07BC07AC03D
:1000100079C077C277C098C0B9C074C073C072C0CD
:1000200071C070C06FC02ECC07CC06CC05CC04CC00
:1000300003CC02CC01CC00CCFFCBFECBFDCBFCCB68
:10004000FBCBFACBF9CBF8CBF7CBF6CBF5CBF4CB9C
:10005000F3CBF2CBF1CBF0CBEFCBEECBEDCBECCBCC
:10006000EBCB16CCE9CBE8CBE7CBE6CBE5CBE4CBCF
:10007000DBCBE2CBE1CBE0CBDFCB0DCC24CCDCCBBC
:10008000DBCBDACBD9CB2ECCD7CB40CCD5CBD4CB9A
:10009000D3CB53CCD1CBD0CBCFCBCECBCDCBCCCB0A
:1000A000CBCBCACBC9CBC8CBC7CBC6CBC5CBC4CBBC
:1000B000C3CBC2CBC1CBC0CBBFCBBECBBDCBBCCBEC
:1000C000BBCBBACB46CCB8CB4CCC51CCCACB112491
:1000D0001FBECFE5D4E0DEBFCDBF12E0A0E6B0E0AA
:1000E000E6EEFBE102C005900D92A83FB107D9F7FB
:1000F00013E0A8EFB2E001C01D92A23AB107E1F708
:10010000CEDC6FCD7DCFE199FECF9FBB8EBB6DBBAB
:10011000F894E29AE19A78940895E199FECF9FBB12
:100120008EBBE09A8DB3089590BD89B988E18AB9F4
:100130008EE880BD109219031092180310923B03B1
:1001400010923A03579A08951F920F920FB60F928A
:1001500011242F938F939F93EF93FF939CB18091E2
:1001600018038F5F8F718093180320911903E8EFB4
:10017000F2E0E80FF11D9083FF91EF919F918F9135
:100180002F910F900FBE0F901F9018951F920F92F6
:100190000FB60F9211248F939F93EF93FF9390913B
:1001A0003A0380913B039817A1F0E0913B03EF5F86
:1001B000EF71E0933B03F0E0E65EFC4F80818CB989
:1001C000FF91EF919F918F910F900FBE0F901F9015
:1001D00018955598F5CF909118038091190320E058
:1001E000981321E0822F08959091180380911903AC
:1001F0009817D1F3E0911903EF5FEF71E0931903C2
:10020000F0E0E850FD4F80810895282F90913A0347
:100210009F5F9F7180913B039817E1F3E92FF0E016
:10022000E65EFC4F208390933A03559A0895DF923F
:10023000EF92FF920F931F93CF93DF93EC0197FD03
:1002400081C0BBE2DB2E27E2C031D2070CF482C0B2
:10025000FE01E051F742CF0160E177E29BDC20EF45
:1002600038ED629FE001639FD00D729FD00D112485
:10027000CE0FDF1FE1E3EE2EE60E33E0C83ED307DC
:100280000CF46BC0FE01E85EF340CF0168EE73E052
:1002900081DCCB0128E13CEF629FE001639FD00D40
:1002A000729FD00D1124CE0FDF1F61E3F62EF80EE2
:1002B000C436D1050CF454C0FE01E456F040CF0121
:1002C00064E670E067DC2CE93FEF629FE001639F2A
:1002D000D00D729FD00D1124CE0FDF1F062F0F5CA3
:1002E000CA30D105ACF1FE013A97CF016AE070E067
:1002F00051DCCB019B01220F331F220F331F220F32
:10030000331F880F991F280F391FEF01C21BD30B12
:10031000162F1F5C80E279DF8D2D77DF8E2D75DF44
:100320008F2D73DF802F71DF812F6FDF9E01205DA6
:10033000822F6BDFDF91CF911F910F91FF90EF9094
:10034000DF900895D095C195DF4FFDE2DF2E7BCF82
:1003500010E3E0CFA0E3EA2E90CF70E3F72EA8CF12
:1003600000E3BECFEF92FF920F931F93CF93DF93E3
:10037000EC0127E2803192070CF477C0FC01E051D8
:10038000F742CF0160E177E205DCCB0120EF38EDE9
:10039000629FE001639FD00D729FD00D1124CE0F9C
:1003A000DF1F71E3E72EE80E33E0C83ED3070CF4FD
:1003B0005FC0FE01E85EF340CF0168EE73E0EADB68
:1003C00028E13CEF629FE001639FD00D729FD00D4A
:1003D0001124CE0FDF1F51E3F52EF60EC436D105E2
:1003E0000CF449C0FE01E456F040CF0164E670E031
:1003F000D1DB2CE93FEF629FE001639FD00D729F3C
:10040000D00D1124CE0FDF1F062F0F5CCA30D1058F
:10041000A4F1FE013A97CF016AE070E0BBDBCB01AB
:100420009B01220F331F220F331F220F331F880F10
:10043000991F280F391FEF01C21BD30B162F1F5C0A
:1004400080E2E3DE8E2DE1DE8F2DDFDE802FDDDE2C
:10045000812FDBDE9E01205D822FD7DEDF91CF91E1
:100460001F910F91FF90EF900895E0E3EE2E9CCF47
:1004700060E3F62EB3CF00E3C9CF10E3E1CFFF92E4
:100480000F931F93182F282F30E02436310534F1B5
:1004900091E01456892F212F30E09F5F24363105DB
:1004A000C4F7F0E3FF2EF80E2A303105D4F021E036
:1004B0001A50322F2F5F812F90E00A97CCF7032F2D
:1004C000005D80E2A2DE8F2DA0DE802F9EDE812FD8
:1004D000805D9BDE1F910F91FF900895A0E3FA2E9F
:1004E000E3CF00E3EECFCF93DF93EC018881882345
:1004F00029F08BDE219688818823D9F7DF91CF916F
:1005000008951F920F920FB60F9211242F938F937D
:100510009F938091910390919203019690939203FF
:10052000809391038091910390919203849718F0A6
:1005300081E08093930380919403909195030196B9
:1005400090939503809394038091940390919503E5
:1005500089569140B0F080919C0390919D039093B7
:1005600097038093960380919E0390919F03892B1C
:1005700081F410929D0310929C03109295031092A7
:1005800094039F918F912F910F900FBE0F901F900A
:1005900018958091960390919703909581959F4F20
:1005A0009093970380939603E4CF1F920F920FB618
:1005B0000F9211240F900FBE0F901F90189510925C
:1005C0009203109291031092930313BE83B782603B
:1005D00083BF12BE89B7816089BF089589B78E7FB6
:1005E00089BF109292031092910389B7816089BFED
:1005F000089589B7816089BF089589B78E7F89BFC3
:10060000089589B78E7F89BF109295031092940345
:1006100089B7816089BF08951F920F920FB60F921C
:1006200011248F939F93AF93BF9380B390E0887012
:10063000907090939F0380939E0380919C03909170
:100640009D03019690939D0380939C038091980352
:1006500090919903A0919A03B0919B030196A11DDB
:10066000B11D8093980390939903A0939A03B0933C
:100670009B03BF91AF919F918F910F900FBE0F90F1
:100680001F90189510929D0310929C03109297034F
:100690001092960310929F0310929E03109298035B
:1006A0001092990310929A0310929B0385B783606E
:1006B00085BF8BB78F778BBF1BBE8BB780648BBF1B
:1006C0000895FC0181E087831482138216821582CB
:1006D00010861486138689E1808384E081832AE072
:1006E000228383E090E09287818784E68687218B4E
:1006F00086E9828B80EA9FE0908B878784E190E097
:10070000948B838B089519BC88BD08951BBC8ABD4A
:10071000089590934203809341030895982F609326
:10072000450380934603882351F0613061F0949A29
:100730008FB580638FBD19BC98BD95980895959A23
:1007400019BC18BC089594988FB58F7E8FBD8FB556
:1007500080628FBD19BC98BD95980895982F882305
:1007600051F0613061F0969A8FB5806C8FBD1BBCE3
:100770009ABD97980895979A1BBC1ABC08959698AD
:100780008FB58F7B8FBD8FB580688FBD1BBC9ABD29
:100790009798089590934E0380934D030895809306
:1007A0004F030895809350030895909348038093D6
:1007B0004703089590933D0380933C0308958093ED
:1007C0003E03089580933F03089580934003089566
:1007D000FC0180819181861797074CF0BC01461778
:1007E00057071CF451834083BA01CB0108957183EC
:1007F0006083F5CFDF92EF92FF920F931F9381E01A
:1008000090E08BDCD82E82E090E087DCE82E83E05D
:1008100090E083DCF82E84E090E07FDC082F80E617
:1008200090E061DE8E2D992787FD90952D2D332741
:1008300027FD3095820F931F2F2D332727FD3095ED
:10084000820F931F112707FD10958017910761F004
:100850008FE690E048DE83E890E045DE1F910F913F
:10086000FF90EF90DF900895D0923E03E0923F0317
:10087000F0924003F0CF1F9360913E0310913F032D
:10088000160F80914003180F81E090E03CDC6091EE
:100890003F0382E090E037DC6091400383E090E02A
:1008A00032DC612F84E090E02EDC1F91089586E811
:1008B00090E019DE8091410390914203B8DC809171
:1008C000960390919703B3DC8091460390E0AFDCF0
:1008D0008DE990E008DE8091980390919903A091B2
:1008E0009A03B0919B03A3DC83EA90E0FCDD809146
:1008F0003E03992787FD90959ADC80913F039927C5
:1009000087FD909594DC80914003992787FD909511
:100910008EDC8AEA90E0E7DD80E0A0D488DC85EB1D
:1009200090E0E1DD809147039091480380DC809165
:100930004F0390E07CDC8091500390E078DC809164
:100940004C0390E074DC83E890E0CDDD089581ED08
:1009500090E0C9DD809141039091420368DC8BED0A
:1009600090E0C1DD809196039091970360DC88EE62
:1009700090E0B9DD8091460390E059DC83EF90E090
:10098000B2DD8091980390919903A0919A03B09160
:100990009B034DDC8BEF90E0A6DD80E05FD447DC6D
:1009A00083E890E0A0DD0895109242031092410385
:1009B000109244031092430310924A031092490389
:1009C00089E180933E0384E080933F032AE02093F3
:1009D000400383E090E0909348038093470384E6CC
:1009E00080934C0320934F0386E98093500380EA61
:1009F0009FE090934E0380934D0384E190E09093A9
:100A000052038093510387B3866087BB81B3806FA5
:100A100081BB959A979A8FB5806C8FBD8FB5806397
:100A20008FBD8FB581608FBD8EB588608EBD8EB550
:100A300081608EBD81E08093450310924603959AB4
:100A400019BC18BC979A1BBC1ABC0895CF92DF92B0
:100A5000EF92FF920F931F93CF93DF932091410367
:100A6000309142036091470370914803C90137FDFB
:100A7000F1C068177907ACF010924203109241035D
:100A800081E08093450310924603959A19BC18BCE7
:100A9000DF91CF911F910F91FF90EF90DF90CF905A
:100AA00008958091960390919703909344038093C7
:100AB0004303A901481B590BCA0157FDDEC0861725
:100AC000970744F48091A003813011F785E091E00D
:100AD0000ADDDECF80913E03992787FD9095849FA4
:100AE0006001859FD00C949FD00C11242091490364
:100AF00030914A03241B350B80914003992787FDD1
:100B00009095289F7001299FF00C389FF00C1124BC
:100B100050934A034093490320913C0330913D0395
:100B2000240F351F30933D0320933C0340914D0328
:100B300050914E0388279927841B950B2817390756
:100B40002CF490933D0380933C039C014217530780
:100B50000CF489C080913F03992787FD9095829F6F
:100B6000A001839F500D929F500D112457FD93C0FB
:100B7000EA01D595C795D595C795D595C795C70170
:100B80008C0F9D1F8C0D9D1D97FD83C08C011595AD
:100B9000079515950795159507951595079515953D
:100BA0000795009346038091A003813009F476C035
:100BB00017FD68C081E08093450380914F03C82FE3
:100BC000D0E00C171D070CF04AC08091A0038823C9
:100BD00009F446C085E491E086DC209150038091C1
:100BE0004F03682F70E0C617D7070CF0BE01822FA5
:100BF00090E09C01A901621773070CF4AB012091EE
:100C00004B0330E080914C0390E0BC01620F731FF6
:100C1000F901E81BF90B9A014E175F070CF49F01CD
:100C200080914503621773070CF49B01922F809308
:100C30004503209346032223E1F0813009F455C097
:100C4000949A8FB580638FBD19BC28BD95989093F9
:100C50004B031ECF88279927821B930B0ACFE801ED
:100C600020915003C3CF50933D0340933C039A011E
:100C700071CF959A19BC18BCEACF88279927841B95
:100C8000950B1DCF8FEF80934503109501951F4F56
:100C900094CF4F967BCF495F5F4F6ACF85E191E05C
:100CA00022DC8091410390914203C1DA8091430399
:100CB00090914403BCDA89E291E015DCC801B7DA0F
:100CC00085E391E010DCC601B2DACE01B0DAC701EB
:100CD000AEDA8FE391E007DC80913C0390913D0315
:100CE000A6DA83E890E0FFDB63CF94988FB58F7E20
:100CF0008FBD8FB580628FBD19BC28BDA7CF109264
:100D00005A031092590388E090E090936003809317
:100D10005F031092620310926103109264031092B9
:100D200063038AE090E090935E0380935D038CE31D
:100D300090E0909366038093650388EC90E0909335
:100D40006803809367038FEF90E090936A0380932A
:100D5000690310926C0310926B031092540310926B
:100D6000530384EF91E090935603809355031092C0
:100D70005C0310925B03089590935A038093590388
:100D8000089590935E0380935D03089590935603B6
:100D90008093550308959093600380935F030895B3
:100DA000909362038093610308959093640380930A
:100DB0006303089590936603809365030895909369
:100DC000680380936703089590936A03809369038F
:100DD00008959093540380935303089586E591E01A
:100DE00082DB8091590390915A0321DA8091570355
:100DF000909158031CDA8CE691E075DB80915F03DB
:100E00009091600314DA80916303909164030FDA88
:100E100080916103909162030ADA8DE791E063DBD0
:100E2000809165039091660302DA80916703909147
:100E30006803FDD98091690390916A03F8D9809184
:100E40005D0390915E03F3D988E991E04CDB08954E
:100E50008BE991E048DB8091590390915A03E7D9DF
:100E600089EA91E040DB8091570390915803DFD9E4
:100E700089EB91E038DB80916B0390916C03D7D9BB
:100E800080EC91E030DB8091530390915403CFD9F3
:100E900087EC91E028DB089581E0E0D120E032E0AA
:100EA000281B390B3093580320935703C901089529
:100EB000FF920F931F93DF93CF93CDB7DEB72897A1
:100EC0000FB6F894DEBF0FBECDBF8AE090E025D903
:100ED000182F89838BE090E020D98A83180F8CE04B
:100EE00090E01BD98B83180F8DE090E016D98C838E
:100EF000180F8EE090E011D98D83180F8FE090E0ED
:100F00000CD98E83180F80E190E007D9F82E8F83DB
:100F1000180F81E190E001D9082F8AEC91E0E3DA23
:100F2000101791F08CED91E0DEDA88E991E0DBDAE0
:100F300028960FB6F894DEBF0FBECDBFCF91DF91DC
:100F40001F910F91FF900895898180935F03109204
:100F500060038A8180936103109262038B81809386
:100F60006303109264038C8180935D0310925E038F
:100F70008D8180936503109266038E818093670351
:100F800010926803F092690310926A03CECF1F9308
:100F900060915F0310916103160F80916303180F36
:100FA00080915D03180F80916503180F809167038E
:100FB000180F80916903180F8AE090E0A4D860911F
:100FC00061038BE090E09FD8609163038CE090E038
:100FD0009AD860915D038DE090E095D860916503AB
:100FE0008EE090E090D8609167038FE090E08BD81E
:100FF0006091690380E190E086D8612F81E190E003
:1010000082D81F910895CF92DF92EF92FF920F93B3
:101010001F93DF93CF9300D0CDB7DEB781E01ED111
:1010200020E032E0281B390B3093580320935703FC
:101030004091590350915A03421B530B9A0157FD9B
:1010400090C080915D0390915E0328173907B4F436
:1010500061E080E083DB10926C0310926B031092CE
:101060005403109253030F900F90CF91DF911F9173
:101070000F91FF90EF90DF90CF90089580915F03E4
:1010800090916003489F6001499FD00C589FD00CFD
:10109000112480915B0390915C03841B950B20913C
:1010A000630330916403829F7001839FF00C929FD1
:1010B000F00C112450935C0340935B038091530325
:1010C00090915403840F951F90935403809353037E
:1010D000409155035091560366277727641B750B83
:1010E00083E593E075DB20915303309154038091A5
:1010F000610390916203289F8001299F100D389F02
:10110000100D11241595079515950795C601800FAB
:10111000911F8E0D9F1D97FD3EC0959587959595C6
:1011200087959595879589839A8380936B03909390
:101130006C038091A103813081F129813A811216DB
:101140001306A4F44091670350916803609165030E
:1011500070916603CE0101963BDB61E08981FEDA86
:1011600082CF22273327241B350B6BCF8827992763
:10117000821B930B9A838983409167035091680384
:101180006091650370916603CE01019621DB6FEFDC
:101190008981E4DA68CF0796C0CF80EF91E0A3D9C8
:1011A0008091590390915A0342D8809157039091AE
:1011B00058033DD886E092E096D989819A8137D844
:1011C0008FE092E090D9C60132D8C80130D8C7016B
:1011D0002ED882E292E087D98091530390915403F4
:1011E00026D888E991E07FD9A8CF10926E0310929B
:1011F0006D031092700310926F031092720310929D
:10120000710310927403109273031092760310927C
:101210007503109278031092770310927A0310925C
:10122000790310927C0310927B0386E086B917B88D
:10123000379A369A0895369910C087B1877024B1CD
:1012400035B1E82FF0E0EE0FFF1FE359FC4F31837B
:1012500020838F5F877087B9369A0895883058F455
:10126000E82FF0E0EE0FFF1FE359FC4F0190F081F3
:10127000E02DCF010895E0E0F0E0CF010895DC011A
:10128000FB018081882339F09C9198279C933196AB
:1012900080818823D1F70895DF93CF93CDB7DEB750
:1012A00061970FB6F894DEBF0FBECDBF982FAB018C
:1012B0009E012F5F3F4FD901EFE2F2E081E1019003
:1012C0000D928150E1F7892F82958F70F901E80F17
:1012D000F11D8081FA0180839F70290F311DF90172
:1012E0008081FA018183128261960FB6F894DEBF85
:1012F0000FBECDBFCF91DF910895BF92CF92DF9205
:10130000EF92FF920F931F93CF93DF937B012CE219
:10131000FB01208397FD51C0CC24C394DC2CA8EEA4
:10132000B3E080E094E023E0B22EBC0C87010D0D09
:10133000111DF8011082EC01CA1BDB0BD7FD3AC06E
:10134000EE27FF27EA1BFB0BAE014A1B5B0B60E09D
:1013500001C0E9016F5F9F012C0F3D1F4E0F5F1F02
:10136000CA018A0F9B1F97FFF4CFF8016083605D6D
:10137000F8016083D394CD016AE070E01FD4DB01F3
:10138000DB1411F0CE01D2CFF701ED0DF11D9E015E
:10139000205D208334E0C30EEC0CF11CF7011082B9
:1013A000DF91CF911F910F91FF90EF90DF90CF9041
:1013B000BF900895EC0160E0DACF8DE2FB018183FC
:1013C00032E0C32EABCFEF92FF920F931F9380E4D6
:1013D00092E089D886E042DF2AD747E4E42E42E053
:1013E000F42EC70180D88AE492E07DD887E036DF0A
:1013F0000FEF13E09801281B390BC90118D7C7015B
:1014000072D881E592E06FD883E028DF9801281B2D
:10141000390BC9010CD7C70166D887E592E063D8BC
:1014200084E01CDF9801281B390BC90100D7C701D4
:101430005AD88DE592E057D882E010DFF8D6C70180
:1014400052D883E692E04FD880919603909197030B
:10145000EED6C70148D81F910F91FF90EF900895E5
:101460005F926F927F928F929F92AF92BF92CF9234
:10147000DF92EF92FF920F931F93DF93CF93CDB73D
:10148000DEB76A970FB6F894DEBF0FBECDBF5E0120
:101490000894A11CB11CD501E0E7F2E089E00190BD
:1014A0000D928150E1F78981882309F4ABC0F501E1
:1014B000CC24C826319680818823D9F7C50113D85A
:1014C000F2E07F2EECE26E2E7DE2572E872DC6DEF7
:1014D000698297FD93C099249394D92CA8EEB3E028
:1014E00080E094E053E0852E890C7501ED0CF11C31
:1014F000F70110828C010A1B1B0B17FD7CC0EE2725
:10150000FF27EA1BFB0BA8014A1B5B0B61E001C034
:101510008901762F9F01200F311F6F5F4E0F5F1FD4
:10152000CA018A0F9B1F97FFF3CFF7017083705D8D
:10153000F7017083D394CD016AE070E03FD3DB0103
:10154000D81411F0C801D1CFF501ED0DF11D802F98
:10155000805D8083F4E09F0EF501E90DF11D10829E
:101560008981882331F0F501C8263196808188234E
:10157000D9F7C501B8D7739488E0781609F0A6CFDB
:10158000DE011A969D014FE252E081E1FA010190DD
:10159000AF01F90101929F018150C1F78C2D829515
:1015A0008F70FD01E80FF11D80818983FFE0CF225C
:1015B000AC0DB11D8C918A831B828EE692E093D78D
:1015C000C50191D787E492E08ED76A960FB6F8945A
:1015D000DEBF0FBECDBFCF91DF911F910F91FF9066
:1015E000EF90DF90CF90BF90AF909F908F907F90C3
:1015F0006F905F9008958C0170E099CF5A8262E0FD
:10160000962E6BCFCC245ACF282F8432A1F0909104
:101610008203992371F09C3040F4E92FF0E0EB57FE
:10162000FC4F80839F5F9093820380E02A3251F0C9
:10163000089580E008958093850381E0809382037C
:1016400080E0089581E008951F93CF93DF93A82F42
:10165000B0E0FD01EB57FC4FE081ED32B1F1682FB6
:10166000AD0110E0C0E0D0E0EA32D9F120E030E096
:10167000C901880F991F880F991F880F991F220F82
:10168000331F280F391F2E0F311D205330406F5F3D
:10169000462F50E0FA01EB57FC4FE081EA3241F768
:1016A000B901112321F066277727621B730B4C1BAE
:1016B0005D0B4A1B5B0B1416150614F060E070E01E
:1016C000CB01DF91CF911F910895682F6F5F462F57
:1016D00050E0FA01EB57FC4FE08111E0C1E0D0E0AF
:1016E000C3CF20E030E060E070E0DBCF382F613026
:1016F00059F028B381E090E002C0880F991F3A9515
:10170000E2F7282B28BB089528B381E090E002C0BF
:10171000880F991F3A95E2F78095822388BB089538
:101720005DD7809191039091920380519E40C8F3C0
:1017300055D7089580917E03833370F080917F03A5
:101740008823F1F0C09A10927F0310927E0380915B
:101750008003882341F408958F5F80937E038091F6
:1017600080038823C1F3809181038739A0F361E06E
:1017700080E0D4D710927D0389E792E0B4D6089533
:10178000C09881E080937F03E0CF1F93CF93DF93D6
:1017900010918703103209F45BC0E12F22E062E070
:1017A00070E043E083E090E0ED3209F449C0422F5D
:1017B000CB0150E0A0E0B0E0EA3209F4DEC020E066
:1017C00030E0C901880F991F880F991F880F991F52
:1017D000220F331F280F391F2E0F311D2053304089
:1017E0004F5F842F90E0FC01EB57FC4FE081EA3221
:1017F00041F7E901552321F0CC27DD27C21BD30B8C
:101800008A1B9B0B861B970B1816190614F0C0E059
:10181000D0E08091860390E0FC01B197E435F105BA
:1018200058F4ED5EFF4F0994219709F4DDC0109242
:10183000800385EC92E057D6DF91CF911F910895F8
:10184000FC01EB57FC4FE08151E0A1E0B0E0B4CFE8
:10185000E091880323E063E070E044E084E090E0FE
:10186000A3CF8AE892E03FD6CE01E1D487E992E0A7
:101870003AD680E090E09ED7CE014BD781E08093AE
:101880007D03DACF61E080E049D710927D03D4CFA9
:101890000ED8A4DAD1CF80918803803209F49CC09D
:1018A00083E0D2DE1C3609F4B9C01D3608F46AC0E4
:1018B000103709F4ADC0183709F4A7C01D3609F474
:1018C0007DC0F5D7B9CF1092A1031092A003C0FF3D
:1018D00003C081E08093A003C1FFAECF81E080937D
:1018E000A103AACF193481F01A3408F062C014346D
:1018F00009F481C0153408F09FCF112319F01A3272
:1019000009F09ACF24D8A4DA5EDD96CF80918803BF
:10191000803209F459C083E097DE193609F47BC0A0
:101920001A36E0F1103709F48BC0183709F485C076
:101930001D3609F446C052DA7FCF143409F45DC075
:10194000133509F079CF88EA92E0CDD520DB46DA6D
:1019500073CF10927D03D7FD39C061E08C2FDED6A6
:101960006BCFD7FD3BC061E08C2FF8D665CF80E010
:1019700090E02FDACE0100DA5FCF20E030E0C0E067
:10198000D0E038CF143609F44FC0193609F449C0F5
:10199000123609F096CF09D78AD74ECF123609F4FE
:1019A00049C0143609F443C0113629F60DDA16DAA7
:1019B00043CF133509F040CF4BDA3ECFF0D677D77F
:1019C0003BCFF8D90BDA38CF84E0A6CF6FEF9E017A
:1019D0002195822FA3D630CF84E063CF6FEF9E0195
:1019E0002195822FBBD628CF81E08093800386EBA0
:1019F00092E079D521CFABD71FCF8AE992E073D59A
:101A00003AD755D7109187039BCFCCD650D714CF58
:101A1000D6D64DD711CFC4D9E1D90ECFBBD647D733
:101A20000BCFD0D644D708CFD0D641D705CFBDD91C
:101A3000D5D902CFA6D9D2D9FFCEC1D9CFD9FCCE24
:101A4000AAD9CCD9F9CE8FEF87BB14BA82EF81BB6C
:101A5000929A939A8BE090E067D3A6D7C6DBAFD576
:101A60004ED910D6789485ED92E03DD582EF92E084
:101A70003AD587E992E037D5B1D58091910390911D
:101A8000920380519E40C8F3A9D5C09A1092A10339
:101A90001092A003109281031092800308951F9367
:101AA000D2DFA8D605DA109283031092840311E0E6
:101AB00004C0809193038823E9F4BDDB8CD3882391
:101AC000C1F392D3843209F456C0909182039923D2
:101AD00081F39C3040F4E92FF0E0EB57FC4F80831A
:101AE0009F5F909382038A3221F74FDE80919303A8
:101AF000882319F373D580917E03833308F440C0A3
:101B000080917F03882309F03FC0C09810937F0322
:101B100010927E0380918003882351F1809181038C
:101B20008739F0F4109293038F5F80938103809143
:101B300083038F5F809383038A3030F080917D032D
:101B4000882331F510928303809184038F5F809303
:101B50008403853008F4B1CF56DA10928403ADCFF8
:101B600061E080E0DBD510927D0389E792E0BBD491
:101B700080918103D7CF809385031093820399CFFF
:101B80008F5F80937E03C6CFC09A10927F03C0CF31
:101B90005DD7D8CFAA1BBB1B51E107C0AA1FBB1F33
:101BA000A617B70710F0A61BB70B881F991F5A95E9
:101BB000A9F780959095BC01CD01089597FB092E5A
:101BC00007260AD077FD04D0E5DF06D000201AF4FE
:101BD000709561957F4F0895F6F7909581959F4F89
:061BE0000895F894FFCF08
:101BE600496E697420447269766520504944002024
:101BF6006E6F20636B73756D2C2064656661756C02
:101C06007473000D0A0044726976653A202874617F
:101C16007267206375722050574D292000206F642B
:101C26006F200020205049443A0020204953656E19
:101C360073653A20000A2020202020202064656158
:101C460064206D696E50206D6178502064656C412A
:101C560000445461726765743A20000D0A2044639B
:101C6600757272656E743A000D0A2063757250576C
:101C76004D20000D0A206F646F20000D0A49736520
:101C86006E73653A00445249564520737065656423
:101C9600204F4B20004452495645737064207461AE
:101CA60072672063757272200020447269766550EF
:101CB600574D3A20002020502C492C443A20002031
:101CC600696E742000445249564520756E646572EB
:101CD600206D696E0A0053746565723A20746172EC
:101CE6006765742063757272656E7400204761695A
:101CF6006E3A204B70204B64204B6920000D0A2061
:101D06006D696E6472206D61786472206D617861B0
:101D160020646561643A20000D0A0053746565729B
:101D26005461726765743A20000A205374656572BF
:101D360041637475616C3A20000A2050574D2000AB
:101D46000A20696E7420000A2000496E69742053C7
:101D560074656572696E672050494400206E6F2075
:101D6600636B73756D2C2064656661756C747300A6
:101D7600535445455220504944207461726720638C
:101D86007572723A20002044726976653A20000D19
:101D96000A20535445455220502C20492C20443AC1
:101DA600200020696E7465677261746F722000305E
:101DB60031323334353637383941424344454600AB
:101DC60052415445583D000D0A00524154455A3D72
:101DD60000414343583D00414343593D004143437D
:101DE6005A3D00454E435F53504545443D002A0049
:101DF60024494D5500000000004661696C2D536171
:101E060066652D53544F500D0A005365745F546F29
:101E1600727175653A20000D0A0044726976652D67
:101E26003E454550524F4D0053746565722D3E45F3
:101E36004550524F4D004661696C205361666520DE
:101E46004F4E0D0A004661696C2053616665204F4E
:101E560046460D0A000D0A2D2D2D204F7262206474
:101E660061756768746572626F617264204D43556F
:081E760020007632302E30000E
:00000001FF
