:1000000066C0BDC27EC07DC083C27BC07AC079C0DD
:1000100078C029C276C09AC0BBC073C072C071C01C
:1000200070C06FC06EC0E7CB59CD58CD57CD56CDFF
:1000300055CD54CD53CD52CD51CD50CD4FCD4ECDCC
:100040004DCD4CCD4BCD4ACD49CD48CD47CD46CDFC
:1000500045CD44CD43CD42CD41CD40CD3FCD3ECD2C
:100060003DCDCFCB3BCD3ACD39CD38CD37CD36CDCB
:10007000CBCB34CD33CD32CD31CDCFCB98CB2ECDF4
:100080002DCD2CCD2BCD1ACC29CD2CCC27CD26CDCA
:1000900025CD78CC23CD22CD21CD20CD1FCD1ECD99
:1000A0001DCD1CCD1BCD1ACD19CD18CD17CD16CD1C
:1000B00015CD14CD13CD12CD11CD10CD0FCD0ECD4C
:1000C0000DCD0CCD6BCC0ACD71CC76CC7BCC112474
:1000D0001FBECFE5D4E0DEBFCDBF13E0A0E6B0E0A9
:1000E000ECE7FCE102C005900D92AA30B107D9F708
:1000F00013E0AAE0B3E001C01D92A43BB107E1F711
:100100001DCD7ECFE199FECF9FBB8EBB6DBBF8941A
:10011000E29AE19A78940895E199FECF9FBB8EBB55
:10012000E09A8DB399270895292F332720BD89B9E7
:1001300088E18AB98EE880BD10922B0310922A03C1
:1001400010924D0310924C03579A08951F920F92EC
:100150000FB60F9211242F938F939F93EF93FF93DA
:100160009CB180912A038F5F8F7180932A03209125
:100170002B03EAE0F3E0E80FF11D9083FF91EF918C
:100180009F918F912F910F900FBE0F901F901895F8
:100190001F920F920FB60F9211248F939F93EF939C
:1001A000FF9390914C0380914D03981761F0E0917B
:1001B0004D03EF5FEF71E0934D03FF27E45DFC4FCC
:1001C00080818CB901C05598FF91EF919F918F91DB
:1001D0000F900FBE0F901F90189590912A03809159
:1001E0002B0320E030E0981711F021E030E0C90146
:1001F000089590912A0380912B039817D1F3E091F1
:100200002B03EF5FEF71E0932B03FF27E65FFC4FBB
:10021000808199270895282F90914C039F5F9F71AB
:1002200080914D039817E1F3E92FFF27E45DFC4F20
:10023000208390934C03559A0895DF92EF92FF929A
:100240000F931F93CF93DF93EC0197FD38C06BE2C0
:10025000D62E27E2C031D207DCF180E0C051D74270
:100260008F5F37E2C031D307CCF730E3E32EE80EDF
:1002700083E0C83ED80794F180E0C85ED3408F5F2A
:1002800093E0C83ED907CCF790E3F92EF80EC436B8
:10029000D1054CF180E0C456D0408F5FC436D10503
:1002A000D4F7082F005DCA30D1050CF180E02A9701
:1002B0008F5FCA30D105DCF7182F105D19C0D095BB
:1002C000C195DF4F4DE2D42E27E2C031D2072CF684
:1002D00050E3E52E83E0C83ED80774F620E3F22E03
:1002E000C436D105BCF600E3CA30D105FCF610E3F4
:1002F00080E291DF8D2D8FDF8E2D8DDF8F2D8BDFB7
:10030000802F89DF812F87DF9E01205D822F83DF91
:10031000DF91CF911F910F91FF90EF90DF900895A3
:10032000EF92FF920F931F93CF93DF93EC018051D5
:10033000974294F180E0C051D7428F5F37E2C031DD
:10034000D307CCF7F0E3EF2EE80E83E0C83ED807E2
:100350004CF180E0C85ED3408F5F93E0C83ED90780
:10036000CCF770E3F72EF80EC436D10504F180E027
:10037000C456D0408F5FC436D105D4F7082F005D36
:10038000CA30D105C4F080E02A978F5FCA30D1050A
:10039000DCF7182F105D10C0A0E3EA2E83E0C83E02
:1003A000D807BCF6E0E3FE2EC436D10504F700E31F
:1003B000CA30D10544F710E380E22DDF8E2D2BDF0C
:1003C0008F2D29DF802F27DF812F25DF9E01205DE4
:1003D000822F21DFDF91CF911F910F91FF90EF903E
:1003E0000895FF920F931F93182F282F3327243639
:1003F0003105C4F080E014568F5F212F3327243657
:100400003105CCF7B0E3FB2EF80E2A3031057CF035
:1004100020E01A502F5F812F99270A97D4F7022FD7
:10042000005D06C000E3F02E2A3031058CF700E3B2
:1004300080E2F1DE8F2DEFDE802FEDDE812F805DFB
:10044000EADE1F910F91FF900895CF93DF93EC01A7
:100450008881882329F0DFDE219688818823D9F7D7
:10046000DF91CF9108951F920F920FB60F92112432
:100470002F938F939F938091A3039091A403019650
:100480009093A4038093A3038091A3039091A4036A
:10049000849718F081E08093A5038091A603909142
:1004A000A70301969093A7038093A6038091A603C8
:1004B0009091A7038956914018F18091AE039091D5
:1004C000AF039093A9038093A8038091B003909108
:1004D000B103892B49F41092AF031092AE0310922E
:1004E000A7031092A6030CC08091A8039091A903C2
:1004F000909581959F4F9093A9038093A803EBCF8C
:100500009F918F912F910F900FBE0F901F90189574
:100510001F920F920FB60F9211240F900FBE0F90E3
:100520001F9018951092A4031092A3031092A50394
:1005300013BE83B7826083BF12BE89B7816089BF53
:10054000089589B78E7F89BF1092A4031092A303E8
:1005500089B7816089BF089589B7816089BF08958F
:1005600089B78E7F89BF089589B78E7F89BF109222
:10057000A7031092A60389B7816089BF08951F92CF
:100580000F920FB60F9211248F939F93AF93BF9347
:1005900080B39927887090709093B1038093B003D3
:1005A0008091AE039091AF0301969093AF03809337
:1005B000AE038091AA039091AB03A091AC03B091DC
:1005C000AD030196A11DB11D8093AA039093AB03C7
:1005D000A093AC03B093AD03BF91AF919F918F9166
:1005E0000F900FBE0F901F9018951092AF031092AE
:1005F000AE031092A9031092A8031092B1031092B7
:10060000B0031092AA031092AB031092AC031092A5
:10061000AD0385B7836085BF8BB78F778BBF1BBE5C
:100620008BB780648BBF0895FC0181E087831482BF
:1006300013821682158210861486138689E18083C0
:1006400084E081832AE0228383E090E0928781879F
:1006500084E68687218B86E9828B80EA9FE0908BF7
:10066000878784E190E0948B838B089519BC88BDC3
:1006700008951BBC8ABD089590935403809353033F
:100680000895982F6093570380935803882321F48B
:10069000959A19BC18BC0895613041F0949A8FB5B1
:1006A00080638FBD19BC98BD9598089594988FB5B7
:1006B0008F7E8FBD8FB580628FBD19BC98BD959818
:1006C0000895982F882321F4979A1BBC1ABC08958B
:1006D000613041F0969A8FB5806C8FBD1BBC9ABD7E
:1006E0009798089596988FB58F7B8FBD8FB580684A
:1006F0008FBD1BBC9ABD979808959093600380931B
:100700005F030895809361030895809362030895C1
:1007100090935A0380935903089590934F038093C5
:100720004E030895809350030895809351030895D4
:10073000809352030895FC01808191818617970769
:100740001CF4CB0171836083481759071CF4CA015C
:10075000518340830895DF92EF92FF920F931F938E
:1007600081E090E0D9DCD82E82E090E0D5DCE82E64
:1007700083E090E0D1DCF82E84E090E0CDDC082F1F
:1007800080E690E062DE8D2D992787FD90952E2DD5
:10079000332727FD3095820F931F2F2D332727FDF9
:1007A0003095820F931F112707FD10958017910731
:1007B00021F08FE690E049DE06C0D0925003E0922F
:1007C0005103F092520383E890E03FDE1F910F91B6
:1007D000FF90EF90DF9008951F9360915003109168
:1007E0005103160F80915203180F81E090E08ADCCC
:1007F0006091510382E090E085DC6091520383E0D8
:1008000090E080DC612F84E090E07CDC1F91089513
:1008100086E890E01ADE80915303909154030DDD39
:100820008091A8039091A90308DD8091580399272E
:1008300004DD8DE990E009DE8091AA039091AB037D
:10084000A091AC03B091AD03F8DC83EA90E0FDDD4C
:1008500080915003992787FD9095EFDC809151039B
:10086000992787FD9095E9DC80915203992787FDB0
:100870009095E3DC8AEA90E0E8DD80E0D5D4DDDC29
:1008800085EB90E0E2DD8091590390915A03D5DC2D
:10089000809161039927D1DC809162039927CDDC97
:1008A00080915E039927C9DC83E890E0CEDD08954E
:1008B00081ED90E0CADD8091530390915403BDDC3B
:1008C0008BED90E0C2DD8091A8039091A903B5DC87
:1008D00088EE90E0BADD809158039927AEDC83EF73
:1008E00090E0B3DD8091AA039091AB03A091AC039B
:1008F000B091AD03A2DC8BEF90E0A7DD80E094D453
:100900009CDC83E890E0A1DD0895109254031092DE
:100910005303109256031092550310925C031092E9
:100920005B0389E18093500384E0809351032AE0C4
:100930002093520383E090E090935A0380935903ED
:1009400084E680935E032093610386E980936203CB
:1009500080EA9FE09093600380935F0384E190E0DE
:10096000909364038093630387B3866087BB81B3EE
:10097000806F81BB959A979A8FB5806C8FBD8FB52C
:1009800080638FBD8FB581608FBD8EB588608EBD51
:100990008EB581608EBD81E080935703109258031D
:1009A000959A19BC18BC979A1BBC1ABC0895CF9293
:1009B000DF92EF92FF920F931F93CF93DF932091DB
:1009C0005303309154036091590370915A03C90144
:1009D00037FDD8C0681779076CF010925403109255
:1009E000530381E08093570310925803959A19BCE2
:1009F00018BC40C18091A8039091A903909356031D
:100A000080935503A901481B590BCA0157FDCFC05C
:100A1000861797070CF4ADC080915003992787FD86
:100A20009095489F6001499FD00C589FD00C11248D
:100A300020915203332727FD309580915B039091DD
:100A40005C03841B950B289F7001299FF00C389F35
:100A5000F00C112450935C0340935B0320914E03F0
:100A600030914F03240F351F30934F0320934E03D3
:100A700080915F039091600344275527481B590BD1
:100A8000241735070CF489C0821793070CF47FC034
:100A900080915103992787FD9095AC01429FC00139
:100AA000439F900D529F900D112497FD93C08C0190
:100AB000159507951595079515950795C6018E0D02
:100AC0009F1D800F911F97FD83C0EC01D595C795A1
:100AD000D595C795D595C795D595C795D595C795FE
:100AE000C09358038091B203813009F491C0D7FDBF
:100AF00067C081E080935703AE0190916103292F75
:100B00003327421753070CF06DC0E9018091B203FF
:100B1000882309F061C080916203282F3327AE013A
:100B20002C173D070CF4A90180915D03682F7727EE
:100B300080915E0399279B01281B390B24173507E9
:100B40000CF49A01E0915703AB01480F591F241789
:100B500035070CF4A901942FE093570340935803F1
:100B6000442309F04BC0959A19BC18BC90935D03BF
:100B700081C08091B203813009F07CC085E091E0B2
:100B800064DC78C088279927821B930B23CF9C01B4
:100B900090934F0380934E037BCF9A0150934F0362
:100BA00040934E03821793070CF072CFF0CF882743
:100BB0009927841B950B861797070CF02DCFD9CF5B
:100BC0008FEF80935703442755274C1B5D0B95CF20
:100BD0004F967BCF07966BCF85E491E036DCAE0174
:100BE0009091610380916203282F3327C92FDD275D
:100BF0004C175D070CF493CFEA0191CFE13079F106
:100C0000949A8FB580638FBD19BC48BD9598AECFBF
:100C100085E191E01ADC80915303909154030DDB40
:100C2000809155039091560308DB89E291E00DDC39
:100C3000CE0103DB85E391E008DCC601FEDAC801E2
:100C4000FCDAC701FADA8FE391E0FFDB80914E0313
:100C500090914F03F2DA83E890E0F7DB48CF949865
:100C60008FB58F7E8FBD8FB580628FBD19BC48BD9B
:100C700095987CCFDF91CF911F910F91FF90EF90CE
:100C8000DF90CF90089510926C0310926B0388E070
:100C900090E090937203809371031092740310920A
:100CA000730310927603109275038AE090E090939C
:100CB000700380936F038CE390E0909378038093AC
:100CC000770388EC90E090937A03809379038FEF19
:100CD00090E090937C0380937B0310927E031092AC
:100CE0007D03109266031092650384EF91E0909368
:100CF00068038093670310926E0310926D0308954A
:100D000090936C0380936B0308959093700380938A
:100D10006F030895909368038093670308959093F9
:100D20007203809371030895909374038093730307
:100D300008959093760380937503089590937803B4
:100D400080937703089590937A03809379030895AD
:100D500090937C0380937B03089590936603809324
:100D60006503089586E591E070DB80916B039091B7
:100D70006C0363DA8091690390916A035EDA8CE612
:100D800091E063DB809171039091720356DA809158
:100D900075039091760351DA8091730390917403F7
:100DA0004CDA8DE791E051DB8091770390917803E5
:100DB00044DA8091790390917A033FDA80917B0342
:100DC00090917C033ADA80916F039091700335DA49
:100DD00088E991E03ADB08958BE991E036DB809178
:100DE0006B0390916C0329DA89EA91E02EDB809104
:100DF000690390916A0321DA89EB91E026DB809107
:100E00007D0390917E0319DA80EC91E01EDB8091E6
:100E100065039091660311DA87EC91E016DB089583
:100E200081E002D220E032E0281B390B30936A03C4
:100E300020936903C9010895AF92BF92CF92DF92C8
:100E4000EF92FF920F931F93CF93DF93CDB7DEB74F
:100E500028970FB6F894DEBF0FBECDBF8AE090E0B2
:100E60005BD9B82E89838BE090E056D9D82E8A833F
:100E70008CE090E051D9E82E8B838DE090E04CD946
:100E8000F82E8C838EE090E047D9082F8D838FE079
:100E900090E042D9182F8E8380E190E03DD9A82EB2
:100EA0008F8381E190E038D9C82E8AEC91E0CDDAC9
:100EB000DB0CED0CFE0C0F0D100F1A0DC11621F0FE
:100EC0008CED91E0C2DA2AC0898199279093720350
:100ED000809371038A81992790937403809373039D
:100EE0008B81992790937603809375038C81992742
:100EF0009093700380936F038D819927909378036B
:100F0000809377038E81992790937A038093790356
:100F10008A2D992790937C0380937B0388E991E045
:100F200094DA28960FB6F894DEBF0FBECDBFDF91DE
:100F3000CF911F910F91FF90EF90DF90CF90BF90D6
:100F4000AF9008951F936091710370917203109197
:100F5000750380916F03180F80917903180F8091AA
:100F60007303860F90917703890F90917B03890F0C
:100F7000180F8AE090E0C6D8609173038BE090E090
:100F8000C1D8609175038CE090E0BCD860916F038C
:100F90008DE090E0B7D8609177038EE090E0B2D812
:100FA000609179038FE090E0ADD860917B0380E1A0
:100FB00090E0A8D8612F81E190E0A4D81F91089516
:100FC000CF92DF92EF92FF920F931F93CF93DF9315
:100FD000CDB7DEB722970FB6F894DEBF0FBECDBFF8
:100FE00081E022D120E032E0281B390B30936A03E4
:100FF0002093690340916B0350916C03421B530B88
:101000009A0157FD86C080916F0390917003281755
:10101000390764F461E080E054DB10927E031092A3
:101020007D031092660310926503B6C08091710330
:1010300090917203489F6001499FD00C589FD00C3B
:10104000112480916D0390916E03841B950B209168
:10105000750330917603829F7001839FF00C929FFD
:10106000F00C112450936E0340936D03809165033F
:1010700090916603840F951F909366038093650398
:10108000409167035091680366277727641B750BAF
:1010900085E693E050DB20917303309174038091D7
:1010A000650390916603289F8001299F100D389F4A
:1010B000100D11241595079515950795C601800FFC
:1010C000911F8E0D9F1D97FD3DC095958795959518
:1010D0008795959587959A83898390937E038093CE
:1010E0007D038091B303813079F189819A8118164B
:1010F0001906A4F44091790350917A036091770323
:1011000070917803CE01019616DB61E08981D9DA0E
:1011100043C022273327241B350B75CF909581952B
:101120009F4F9A8389834091790350917A0360910C
:10113000770370917803CE010196FDDA6FEF898114
:10114000C0DA2AC00796C1CF80EF91E07ED98091A6
:101150006B0390916C0371D88091690390916A033D
:101160006CD886E092E071D989819A8166D88FE047
:1011700092E06BD9C60161D8C8015FD8C7015DD8BC
:1011800082E292E062D9809165039091660355D81E
:1011900088E991E05AD9A9CF22960FB6F894DEBF1C
:1011A0000FBECDBFDF91CF911F910F91FF90EF90B8
:1011B000DF90CF9008951092800310927F031092D9
:1011C0008203109281031092840310928303109281
:1011D0008603109285031092880310928703109261
:1011E0008A031092890310928C0310928B03109241
:1011F0008E0310928D0386E086B917B8379A369A17
:101200000895369910C087B1877024B135B1E82FA1
:10121000FF27EE0FFF1FE158FC4F318320838F5FC4
:10122000877087B9369A0895883048F4E82FFF27E9
:10123000EE0FFF1FE158FC4F80819181089580E0FF
:1012400090E00895DC01FB018081882341F09C91AE
:101250008927982F8C93319680818823C9F7089528
:10126000CF93DF93CDB7DEB761970FB6F894DEBFAB
:101270000FBECDBF982F9B01AE014F5F5F4FDA01CC
:10128000EFE2F2E081E101900D928150E1F7892FC8
:1012900082958F70FA01E80FF11D8081F90180833A
:1012A0009F70490F511DFA018081F90181831282DB
:1012B00061960FB6F894DEBF0FBECDBFDF91CF9120
:1012C0000895FF920F931F93CF93DF939C018B019F
:1012D0008CE2FB01808337FD40C091E0F92EE1E014
:1012E000F0E08FEF2A3E38070CF442C0EF01C00F48
:1012F000D11F188288E190E068EE73E0AA27BB272F
:10130000A61BB70BAC019C01261B370BE8814A0FCB
:101310005B1F2A0F3B1FEF5FC901860F971F97FFC7
:10132000F6CF9A01260F371FE8838881805D888376
:10133000F394CB016AE070E07AD46230710554F026
:10134000E801CF0DD11D1882C901861B970B97FDAF
:10135000ECCFD4CFEF2DFF270BC08DE2FB018183B3
:10136000309521953F4F82E0F82EE2E0F0E0B9CFD2
:10137000E00FF11F822F805D8083F3940F0D111D0C
:10138000F8011082DF91CF911F910F91FF90089586
:10139000EF92FF920F931F93CF93DF93C0E0D0E0C3
:1013A0002BE7E22E22E0F22E8C2F3EDF8C01F7019C
:1013B000819191917F0149D880E492E046D8C8019B
:1013C0003CD782E492E041D82196C830D10561F73C
:1013D000DF91CF911F910F91FF90EF9008956F9241
:1013E0007F928F929F92BF92CF92DF92EF92FF9265
:1013F0000F931F93CF93DF93CDB7DEB76A970FB6E6
:10140000F894DEBF0FBECDBF6E010894C11CD11C85
:10141000D601E7E4F2E089E001900D928150E1F716
:101420008981882309F487C0F601EE24E8263196E5
:1014300080818823D9F7C60108D872E0B72E6AE008
:10144000862E912C8C0E9D1E8B2DEEDE9C018CE247
:10145000898337FD66C051E0F52EE1E0F0E08FEFC3
:101460002A3E3807DCF186010E0F1F1FF80110829B
:1014700088E190E068EE73E066247724661A770AC4
:10148000AC019C01261B370BD801EC91460D571D72
:10149000260D371DEF5FC901860F971F97FFF6CF07
:1014A0009A01260F371FD801EC93F8018081805DE7
:1014B0008083F394CB016AE070E0B9D362307105A8
:1014C0005CF086010F0D111DD8011C92C901861B0D
:1014D000970B97FDEACFD0CFEF2DFF27EC0DFD1D29
:1014E000822F805D8083F394F601EF0DF11D108251
:1014F0008981882331F0F601E8263196808188239E
:10150000D9F7C601A2D7B394F8E0BF1609F09CCF73
:10151000D401EFE2F2E081E101900D928150E1F718
:101520000CC08DE28A83309521953F4F42E0F42E26
:10153000E2E0F0E094CFEE247ECF8E2D82958F7086
:10154000F401E80FF11D808189838FE0E8228E0C81
:10155000911CD4018C918A831B8285E492E075D71B
:10156000C60173D782E492E070D76A960FB6F894FA
:10157000DEBF0FBECDBFDF91CF911F910F91FF90C6
:10158000EF90DF90CF90BF909F908F907F906F9063
:101590000895282F8432B1F090919403992379F023
:1015A0009C3040F4E92FFF27E956FC4F80839F5F72
:1015B0009093940380E090E02A3261F0089580E0F7
:1015C00090E008958093970381E08093940380E0F6
:1015D00090E0089581E090E00895982F682F772794
:1015E000FB01E956FC4F80818D3289F1492FCB01F7
:1015F00050E0FC01E956FC4FE081EA3299F120E02D
:1016000030E0C901880F991F880F991F880F991F13
:10161000220F331F280F391F2E0F311D205330404A
:101620004F5F842F9927FC01E956FC4FE081EA3295
:1016300041F7552319F0309521953F4F851B9109AE
:10164000861B970B1816190684F4C9010895492FB3
:101650004F5F842F992751E0FC01E956FC4FE08150
:10166000EA3269F620E030E0E4CF80E090E00895CF
:10167000382F613059F028B381E090E002C0880F24
:10168000991F3A95E2F7282B28BB089528B381E0EB
:1016900090E002C0880F991F3A95E2F780952823C1
:1016A00028BB08954ED78091A3039091A403805145
:1016B0009E40C8F346D7089580919003833378F015
:1016C000809191038823F9F4C09881E0809391037D
:1016D0001092900380919203882341F408958F5FC4
:1016E00080939003809192038823C1F380919303A8
:1016F0008739A0F361E080E0C4D710928F038BE8B4
:1017000092E0A3D60895C09A10929103E1CF1F935F
:10171000CF93DF9310919903103209F465C042E032
:1017200062E070E0FB01E956FC4F80818D3209F4E4
:101730004DC0CB0150E0FC01E956FC4FE081EA329C
:1017400009F44FC020E030E0C901880F991F880FCD
:10175000991F880F991F220F331F280F391F2E0F33
:10176000311D205330404F5F842F9927FC01E956EB
:10177000FC4FE081EA3241F7552319F0309521956D
:101780003F4F851B9109861B970B1816190684F588
:10179000E901809198039927AA27BB27FC01B197FB
:1017A000E435F10508F09AC1ED5EFF4F09941092FF
:1017B000B3031092B203C0FF03C081E08093B20371
:1017C000C1FF8CC181E08093B30388C14F5F842F38
:1017D000992751E0FC01E956FC4FE081EA3209F01B
:1017E000B1CF20E030E0C8CF43E063E070E09ACFB3
:1017F000C0E0D0E0CECF61E080E043D710928F030D
:101800006DC106D8AFDA6AC1219709F427C11092D9
:10181000920387ED92E019D661C180919A038032DC
:1018200009F40FC143E063E070E0FB01E956FC4FAF
:1018300080818D3209F400C1CB0150E0FC01E956F2
:10184000FC4FE081EA3209F42AC120E030E0C9010E
:10185000880F991F880F991F880F991F220F331F18
:10186000280F391F2E0F311D205330404F5F842F1A
:101870009927FC01E956FC4FE081EA3241F75523F4
:1018800019F0309521953F4F851B9109861B970BC9
:10189000181619060CF0E9C0C9011C3609F4C9C0B4
:1018A0001D3608F0B2C0143609F407C1193609F420
:1018B00013C1123609F49AC0ABD710C1193481F0A4
:1018C0001A3408F0AEC0143409F4F2C0153408F02C
:1018D00005C1112319F01A3209F000C1E9D77CDAE9
:1018E00057DDFCC080919A03803209F4B3C043E015
:1018F00063E070E0FB01E956FC4F80818D3209F412
:10190000A4C0CB0150E0FC01E956FC4FE081EA3273
:1019100009F4CBC020E030E0C901880F991F880F7F
:10192000991F880F991F220F331F280F391F2E0F61
:10193000311D205330404F5F842F9927FC01E95619
:10194000FC4FE081EA3241F7552319F0309521959B
:101950003F4F851B9109861B970B181619060CF033
:1019600087C0C901193609F461C01A3608F041C0B0
:10197000123609F49FC0143609F4ABC0113699F140
:10198000F1D9ACC0143409F482C0133509F0A6C0F3
:101990008AEB92E05AD5D6DAE5D9A0C010928F032F
:1019A000D7FD69C061E08C2F6CD698C0D7FD69C0A7
:1019B00061E08C2F86D692C080E090E0CED9CE0137
:1019C0009FD98CC08CE992E040D5CE0136D489EA0B
:1019D00092E03BD580E090E0A0D6CE014DD681E0EC
:1019E00080938F037BC0B4D9BDD978C091D610D76E
:1019F00075C0103709F464C0183709F467C01D3684
:101A000009F0BECF9BD9AED969C0103709F44AC0DE
:101A1000183709F458C01D3609F04ECF73D6F8D6E2
:101A20005DC0133509F05AC0D7D958C07DD99AD9AD
:101A300055C063D6EDD652C04F5F842F992751E031
:101A4000FDCE44E064E070E0F0CE4F5F842F992734
:101A500051E059CF44E064E070E04CCF81E08093E6
:101A6000920388EC92E0F1D439C080E090E015CF89
:101A700080E090E077CF6FEF9E012195822F01D615
:101A80002DC06FEF9E012195822F1BD627C08CEAB7
:101A900092E0DBD4A1D6BCD61091990376CF20E09A
:101AA00030E0EDCE3FD6B4D619C020E030E04CCFC8
:101AB000FFD614C02AD956D911C03AD6A9D60EC01D
:101AC0002ED950D90BC021D6A3D608C03CD94AD9AB
:101AD00005C02FD947D902C028D69AD6DF91CF9119
:101AE0001F9108958FEF87BB14BA82EF81BB929A42
:101AF000939A8BE090E018D308D75DDB13D5C3D859
:101B000074D5789487EE92E0A0D484E093E09DD4DD
:101B100089EA92E09AD415D58091A3039091A40309
:101B200080519E40C8F30DD5C09A1092B303109215
:101B3000B203109293031092920308951F93D2DF81
:101B40000AD67AD9109295031092960311E059DBC8
:101B500044D38823A9F04DD3843209F450C0909126
:101B60009403992369F09C3040F4E92FFF27E9564C
:101B7000FC4F80839F5F909394038A3209F448C09E
:101B80008091A503882319F3DCD4809190038333DB
:101B900090F1809191038823B9F5C0981093910337
:101BA0001092900380919203882311F18091930306
:101BB000873980F51092A5038F5F809393038091FE
:101BC00095038F5F809395038A3030F080918F0367
:101BD000882359F510929503809196038F5F809327
:101BE0009603853008F4B3CFEBD910929603AFCFAC
:101BF00080919303DFCF8F5F80939003D3CF809347
:101C0000970310939403BCCFC09A10929103C8CF4E
:101C10007EDDB6CF61E080E034D510928F038BE893
:101C200092E013D480919303C5CFC1D6D3CF97FB55
:101C3000092E07260AD077FD04D00CD006D000204C
:101C40001AF4709561957F4F0895F6F790958195F8
:101C50009F4F0895AA1BBB1B51E107C0AA1FBB1FC2
:101C6000A617B70710F0A61BB70B881F991F5A9528
:0C1C7000A9F780959095BC01CD01089566
:101C7C00496E69742044726976652050494400208D
:101C8C006E6F20636B73756D2C2064656661756C6B
:101C9C007473000D0A0044726976653A20287461E9
:101CAC007267206375722050574D292000206F6495
:101CBC006F200020205049443A0020204953656E83
:101CCC0073653A20000A20202020202020646561C2
:101CDC0064206D696E50206D6178502064656C4194
:101CEC0000445461726765743A20000D0A20446305
:101CFC00757272656E743A000D0A206375725057D6
:101D0C004D20000D0A206F646F20000D0A49736589
:101D1C006E73653A0044524956452073706565648C
:101D2C00204F4B2000445249564573706420746117
:101D3C007267206375727220002044726976655058
:101D4C00574D3A20002020502C492C443A2000209A
:101D5C00696E742000445249564520756E64657254
:101D6C00206D696E0A0053746565723A2074617255
:101D7C006765742063757272656E740020476169C3
:101D8C006E3A204B70204B64204B6920000D0A20CA
:101D9C006D696E6472206D61786472206D6178611A
:101DAC0020646561643A20000D0A00537465657205
:101DBC005461726765743A20000A20537465657229
:101DCC0041637475616C3A20000A2050574D200015
:101DDC000A20696E7420000A2000496E6974205331
:101DEC0074656572696E672050494400206E6F20DF
:101DFC00636B73756D2C2064656661756C74730010
:101E0C0053544545522050494420746172672063F5
:101E1C007572723A20002044726976653A20000D82
:101E2C000A20535445455220502C20492C20443A2A
:101E3C00200020696E7465677261746F72200030C7
:101E4C003132333435363738394142434445460014
:101E5C003D000D0A002A0024494D550000000000E9
:101E6C0041444330004144433100524154455800F1
:101E7C005241544559004143435A00414343580091
:101E8C005350415245004143435900500255025AA8
:101E9C0002600266026B02700276024661696C2D6A
:101EAC00536166652D53544F500D0A005365745F92
:101EBC00546F727175653A20000D0A004472697690
:101ECC00652D3E454550524F4D0053746565722D3E
:101EDC003E454550524F4D004661696C205361663A
:101EEC0065204F4E0D0A004661696C205361666592
:101EFC00204F46460D0A000D0A2D2D2D204F7262E3
:101F0C00206461756768746572626F617264204DDC
:0A1F1C00435520007632302E3000CD
:00000001FF
