:1000000066C0BDC27EC07DC083C27BC07AC079C0DD
:1000100078C029C276C09AC0BBC073C072C071C01C
:1000200070C06FC06EC0E7CB6FCD6ECD6DCD6CCDA7
:100030006BCD6ACD69CD68CD67CD66CD65CD64CD1C
:1000400063CD62CD61CD60CD5FCD5ECD5DCD5CCD4C
:100050005BCD5ACD59CD58CD57CD56CD55CD54CD7C
:1000600053CDD2CB51CD50CD4FCD4ECD4DCD4CCD2E
:10007000CECB4ACD49CD48CD47CDD2CB98CB44CD80
:1000800043CD42CD41CD1DCC3FCD2FCC3DCD3CCD40
:100090003BCD7CCC39CD38CD37CD36CD35CD34CDFB
:1000A00033CD32CD31CD30CD2FCD2ECD2DCD2CCD6C
:1000B0002BCD2ACD29CD28CD27CD26CD25CD24CD9C
:1000C00023CD22CD6FCC20CD7ACC84CC91CC112401
:1000D0001FBECFE5D4E0DEBFCDBF13E0A0E6B0E0A9
:1000E000E8EAFCE102C005900D92A233B107D9F70E
:1000F00013E0A2E3B3E001C01D92AC3DB107E1F70C
:1001000033CD7ECFE199FECF9FBB8EBB6DBBF89404
:10011000E29AE19A78940895E199FECF9FBB8EBB55
:10012000E09A8DB399270895292F332720BD89B9E7
:1001300088E18AB98EE880BD109253031092520371
:100140001092750310927403579A08951F920F929C
:100150000FB60F9211242F938F939F93EF93FF93DA
:100160009CB1809152038F5F8F71809352032091D5
:100170005303E2E3F3E0E80FF11D9083FF91EF9169
:100180009F918F912F910F900FBE0F901F901895F8
:100190001F920F920FB60F9211248F939F93EF939C
:1001A000FF939091740380917503981761F0E0912B
:1001B0007503EF5FEF71E0937503FF27EC5AFC4F77
:1001C00080818CB901C05598FF91EF919F918F91DB
:1001D0000F900FBE0F901F90189590915203809131
:1001E000530320E030E0981711F021E030E0C9011E
:1001F000089590915203809153039817D1F3E091A1
:100200005303EF5FEF71E0935303FF27EE5CFC4F66
:10021000808199270895282F909174039F5F9F7183
:10022000809175039817E1F3E92FFF27EC5AFC4FF3
:10023000208390937403559A0895DF92EF92FF9272
:100240000F931F93CF93DF93EC0197FD38C06BE2C0
:10025000D62E27E2C031D207DCF180E0C051D74270
:100260008F5F37E2C031D307CCF730E3E32EE80EDF
:1002700083E0C83ED80794F180E0C85ED3408F5F2A
:1002800093E0C83ED907CCF790E3F92EF80EC436B8
:10029000D1054CF180E0C456D0408F5FC436D10503
:1002A000D4F7082F005DCA30D1050CF180E02A9701
:1002B0008F5FCA30D105DCF7182F105D19C0D095BB
:1002C000C195DF4F4DE2D42E27E2C031D2072CF684
:1002D00050E3E52E83E0C83ED80774F620E3F22E03
:1002E000C436D105BCF600E3CA30D105FCF610E3F4
:1002F00080E291DF8D2D8FDF8E2D8DDF8F2D8BDFB7
:10030000802F89DF812F87DF9E01205D822F83DF91
:10031000DF91CF911F910F91FF90EF90DF900895A3
:10032000EF92FF920F931F93CF93DF93EC018051D5
:10033000974294F180E0C051D7428F5F37E2C031DD
:10034000D307CCF7F0E3EF2EE80E83E0C83ED807E2
:100350004CF180E0C85ED3408F5F93E0C83ED90780
:10036000CCF770E3F72EF80EC436D10504F180E027
:10037000C456D0408F5FC436D105D4F7082F005D36
:10038000CA30D105C4F080E02A978F5FCA30D1050A
:10039000DCF7182F105D10C0A0E3EA2E83E0C83E02
:1003A000D807BCF6E0E3FE2EC436D10504F700E31F
:1003B000CA30D10544F710E380E22DDF8E2D2BDF0C
:1003C0008F2D29DF802F27DF812F25DF9E01205DE4
:1003D000822F21DFDF91CF911F910F91FF90EF903E
:1003E0000895FF920F931F93182F282F3327243639
:1003F0003105C4F080E014568F5F212F3327243657
:100400003105CCF7B0E3FB2EF80E2A3031057CF035
:1004100020E01A502F5F812F99270A97D4F7022FD7
:10042000005D06C000E3F02E2A3031058CF700E3B2
:1004300080E2F1DE8F2DEFDE802FEDDE812F805DFB
:10044000EADE1F910F91FF900895CF93DF93EC01A7
:100450008881882329F0DFDE219688818823D9F7D7
:10046000DF91CF9108951F920F920FB60F92112432
:100470002F938F939F938091CB039091CC03019600
:100480009093CC038093CB038091CB039091CC03CA
:10049000849718F081E08093CD038091CE039091F2
:1004A000CF0301969093CF038093CE038091CE0328
:1004B0009091CF038956914018F18091D603909185
:1004C000D7039093D1038093D0038091D803909168
:1004D000D903892B49F41092D7031092D6031092B6
:1004E000CF031092CE030CC08091D0039091D10322
:1004F000909581959F4F9093D1038093D003EBCF3C
:100500009F918F912F910F900FBE0F901F90189574
:100510001F920F920FB60F9211240F900FBE0F90E3
:100520001F9018951092CC031092CB031092CD031C
:1005300013BE83B7826083BF12BE89B7816089BF53
:10054000089589B78E7F89BF1092CC031092CB0398
:1005500089B7816089BF089589B7816089BF08958F
:1005600089B78E7F89BF089589B78E7F89BF109222
:10057000CF031092CE0389B7816089BF08951F927F
:100580000F920FB60F9211248F939F93AF93BF9347
:1005900080B39927887090709093D9038093D80383
:1005A0008091D6039091D70301969093D7038093BF
:1005B000D6038091D2039091D303A091D403B0913C
:1005C000D5030196A11DB11D8093D2039093D3034F
:1005D000A093D403B093D503BF91AF919F918F9116
:1005E0000F900FBE0F901F9018951092D703109286
:1005F000D6031092D1031092D0031092D903109217
:10060000D8031092D2031092D3031092D403109205
:10061000D50385B7836085BF8BB78F778BBF1BBE34
:100620008BB780648BBF0895FC0181E087831482BF
:1006300013821682158210861486138689E18083C0
:1006400084E081832AE0228383E090E0928781879F
:1006500084E68687218B86E9828B80EA9FE0908BF7
:10066000878784E190E0948B838B089519BC88BDC3
:1006700008951BBC8ABD089590937C0380937B03EF
:100680000895982F60937F0380938003882321F43B
:10069000959A19BC18BC0895613041F0949A8FB5B1
:1006A00080638FBD19BC98BD9598089594988FB5B7
:1006B0008F7E8FBD8FB580628FBD19BC98BD959818
:1006C0000895982F882321F4979A1BBC1ABC08958B
:1006D000613041F0969A8FB5806C8FBD1BBC9ABD7E
:1006E0009798089596988FB58F7B8FBD8FB580684A
:1006F0008FBD1BBC9ABD97980895909388038093F3
:100700008703089580938903089580938A03089549
:10071000909382038093810308959093770380934D
:10072000760308958093780308958093790308955C
:1007300080937A030895FC01808191818617970741
:100740001CF4CB0171836083481759071CF4CA015C
:10075000518340830895DF92EF92FF920F931F938E
:1007600081E090E0D9DCD82E82E090E0D5DCE82E64
:1007700083E090E0D1DCF82E84E090E0CDDC082F1F
:1007800080E690E062DE8D2D992787FD90952E2DD5
:10079000332727FD3095820F931F2F2D332727FDF9
:1007A0003095820F931F112707FD10958017910731
:1007B00021F08FE690E049DE06C0D0927803E09207
:1007C0007903F0927A0383E890E03FDE1F910F9166
:1007D000FF90EF90DF9008951F9360917803109140
:1007E0007903160F80917A03180F81E090E08ADC7C
:1007F0006091790382E090E085DC60917A0383E088
:1008000090E080DC612F84E090E07CDC1F91089513
:1008100086E890E01ADE80917B0390917C030DDDE9
:100820008091D0039091D10308DD809180039927B6
:1008300004DD8DE990E009DE8091D2039091D3032D
:10084000A091D403B091D503F8DC83EA90E0FDDDFC
:1008500080917803992787FD9095EFDC809179034B
:10086000992787FD9095E9DC80917A03992787FD88
:100870009095E3DC8AEA90E0E8DD80E0D5D4DDDC29
:1008800085EB90E0E2DD8091810390918203D5DCDD
:10089000809189039927D1DC80918A039927CDDC47
:1008A000809186039927C9DC83E890E0CEDD089526
:1008B00081ED90E0CADD80917B0390917C03BDDCEB
:1008C0008BED90E0C2DD8091D0039091D103B5DC37
:1008D00088EE90E0BADD809180039927AEDC83EF4B
:1008E00090E0B3DD8091D2039091D303A091D40323
:1008F000B091D503A2DC8BEF90E0A7DD80E094D42B
:100900009CDC83E890E0A1DD089510927C031092B6
:100910007B0310927E0310927D0310928403109249
:10092000830389E18093780384E0809379032AE04C
:1009300020937A0383E090E0909382038093810375
:1009400084E6809386032093890386E980938A0353
:1009500080EA9FE0909388038093870384E190E08E
:1009600090938C0380938B0387B3866087BB81B39E
:10097000806F81BB959A979A8FB5806C8FBD8FB52C
:1009800080638FBD8FB581608FBD8EB588608EBD51
:100990008EB581608EBD81E080937F0310928003CD
:1009A000959A19BC18BC979A1BBC1ABC0895CF9293
:1009B000DF92EF92FF920F931F93CF93DF932091DB
:1009C0007B0330917C036091810370918203C901A4
:1009D00037FDD8C0681779076CF010927C0310922D
:1009E0007B0381E080937F0310928003959A19BC6A
:1009F00018BC40C18091D0039091D10390937E03A5
:100A000080937D03A901481B590BCA0157FDCFC034
:100A1000861797070CF4ADC080917803992787FD5E
:100A20009095489F6001499FD00C589FD00C11248D
:100A300020917A03332727FD30958091830390918D
:100A40008403841B950B289F7001299FF00C389F0D
:100A5000F00C112450938403409383032091760378
:100A600030917703240F351F30937703209376035B
:100A7000809187039091880344275527481B590B81
:100A8000241735070CF489C0821793070CF47FC034
:100A900080917903992787FD9095AC01429FC00111
:100AA000439F900D529F900D112497FD93C08C0190
:100AB000159507951595079515950795C6018E0D02
:100AC0009F1D800F911F97FD83C0EC01D595C795A1
:100AD000D595C795D595C795D595C795D595C795FE
:100AE000C09380038091DA03813009F491C0D7FD6F
:100AF00067C081E080937F03AE0190918903292F25
:100B00003327421753070CF06DC0E9018091DA03D7
:100B1000882309F061C080918A03282F3327AE0112
:100B20002C173D070CF4A90180918503682F7727C6
:100B30008091860399279B01281B390B24173507C1
:100B40000CF49A01E0917F03AB01480F591F241761
:100B500035070CF4A901942FE0937F0340938003A1
:100B6000442309F04BC0959A19BC18BC9093850397
:100B700081C08091DA03813009F07CC085E091E08A
:100B800064DC78C088279927821B930B23CF9C01B4
:100B900090937703809376037BCF9A0150937703EA
:100BA00040937603821793070CF072CFF0CF88271B
:100BB0009927841B950B861797070CF02DCFD9CF5B
:100BC0008FEF80937F03442755274C1B5D0B95CFF8
:100BD0004F967BCF07966BCF85E491E036DCAE0174
:100BE0009091890380918A03282F3327C92FDD270D
:100BF0004C175D070CF493CFEA0191CFE13079F106
:100C0000949A8FB580638FBD19BC48BD9598AECFBF
:100C100085E191E01ADC80917B0390917C030DDBF0
:100C200080917D0390917E0308DB89E291E00DDCE9
:100C3000CE0103DB85E391E008DCC601FEDAC801E2
:100C4000FCDAC701FADA8FE391E0FFDB80917603EB
:100C500090917703F2DA83E890E0F7DB48CF94983D
:100C60008FB58F7E8FBD8FB580628FBD19BC48BD9B
:100C700095987CCFDF91CF911F910F91FF90EF90CE
:100C8000DF90CF900895109294031092930388E020
:100C900090E090939A038093990310929C03109292
:100CA0009B0310929E0310929D038AE090E0909324
:100CB0009803809397038CE390E09093A003809334
:100CC0009F0388EC90E09093A2038093A1038FEFA1
:100CD00090E09093A4038093A3031092A603109234
:100CE000A50310928E0310928D0384EF91E09093F0
:100CF000900380938F0310929603109295030895AA
:100D00009093940380939303089590939803809312
:100D1000970308959093900380938F030895909381
:100D20009A0380939903089590939C0380939B0367
:100D3000089590939E0380939D0308959093A0033C
:100D400080939F0308959093A2038093A103089535
:100D50009093A4038093A303089590938E038093AC
:100D60008D03089586E591E070DB80919303909167
:100D7000940363DA80919103909192035EDA8CE69A
:100D800091E063DB8091990390919A0356DA809108
:100D90009D0390919E0351DA80919B0390919C0357
:100DA0004CDA8DE791E051DB80919F039091A00395
:100DB00044DA8091A1039091A2033FDA8091A303CA
:100DC0009091A4033ADA809197039091980335DAD1
:100DD00088E991E03ADB08958BE991E036DB809178
:100DE00093039091940329DA89EA91E02EDB8091B4
:100DF00091039091920321DA89EB91E026DB8091B7
:100E0000A5039091A60319DA80EC91E01EDB809196
:100E10008D0390918E0311DA87EC91E016DB089533
:100E200081E002D220E032E0281B390B309392039C
:100E300020939103C9010895AF92BF92CF92DF92A0
:100E4000EF92FF920F931F93CF93DF93CDB7DEB74F
:100E500028970FB6F894DEBF0FBECDBF8AE090E0B2
:100E60005BD9B82E89838BE090E056D9D82E8A833F
:100E70008CE090E051D9E82E8B838DE090E04CD946
:100E8000F82E8C838EE090E047D9082F8D838FE079
:100E900090E042D9182F8E8380E190E03DD9A82EB2
:100EA0008F8381E190E038D9C82E8AEC91E0CDDAC9
:100EB000DB0CED0CFE0C0F0D100F1A0DC11621F0FE
:100EC0008CED91E0C2DA2AC08981992790939A0328
:100ED000809399038A81992790939C0380939B0325
:100EE0008B81992790939E0380939D038C819927F2
:100EF00090939803809397038D8199279093A003F3
:100F000080939F038E8199279093A2038093A103DE
:100F10008A2D99279093A4038093A30388E991E0F5
:100F200094DA28960FB6F894DEBF0FBECDBFDF91DE
:100F3000CF911F910F91FF90EF90DF90CF90BF90D6
:100F4000AF9008951F936091990370919A03109147
:100F50009D0380919703180F8091A103180F809132
:100F60009B03860F90919F03890F9091A303890F94
:100F7000180F8AE090E0C6D860919B038BE090E068
:100F8000C1D860919D038CE090E0BCD8609197033C
:100F90008DE090E0B7D860919F038EE090E0B2D8EA
:100FA0006091A1038FE090E0ADD86091A30380E150
:100FB00090E0A8D8612F81E190E0A4D81F91089516
:100FC000CF92DF92EF92FF920F931F93CF93DF9315
:100FD000CDB7DEB722970FB6F894DEBF0FBECDBFF8
:100FE00081E022D120E032E0281B390B30939203BC
:100FF000209391034091930350919403421B530B10
:101000009A0157FD86C08091970390919803281705
:10101000390764F461E080E054DB1092A60310927B
:10102000A50310928E0310928D03B6C08091990390
:1010300090919A03489F6001499FD00C589FD00C13
:1010400011248091950390919603841B950B209118
:101050009D0330919E03829F7001839FF00C929FAD
:10106000F00C1124509396034093950380918D03C7
:1010700090918E03840F951F90938E0380938D0320
:1010800040918F035091900366277727641B750B5F
:101090008DE893E050DB20919B0330919C0380917D
:1010A0008D0390918E03289F8001299F100D389FFA
:1010B000100D11241595079515950795C601800FFC
:1010C000911F8E0D9F1D97FD3DC095958795959518
:1010D0008795959587959A8389839093A6038093A6
:1010E000A5038091DB03813079F189819A811816FB
:1010F0001906A4F44091A1035091A20360919F03AB
:101100007091A003CE01019616DB61E08981D9DAE6
:1011100043C022273327241B350B75CF909581952B
:101120009F4F9A8389834091A1035091A2036091BC
:101130009F037091A003CE010196FDDA6FEF8981C4
:10114000C0DA2AC00796C1CF80EF91E07ED98091A6
:1011500093039091940371D880919103909192039D
:101160006CD886E092E071D989819A8166D88FE047
:1011700092E06BD9C60161D8C8015FD8C7015DD8BC
:1011800082E292E062D980918D0390918E0355D8CE
:1011900088E991E05AD9A9CF22960FB6F894DEBF1C
:1011A0000FBECDBFDF91CF911F910F91FF90EF90B8
:1011B000DF90CF9008951092A8031092A703109289
:1011C000AA031092A9031092AC031092AB031092E1
:1011D000AE031092AD031092B0031092AF031092C1
:1011E000B2031092B1031092B4031092B3031092A1
:1011F000B6031092B50386E086B917B8379A369AC7
:101200000895369910C087B1877024B135B1E82FA1
:10121000FF27EE0FFF1FE955FC4F318320838F5FBF
:10122000877087B9369A0895883048F4E82FFF27E9
:10123000EE0FFF1FE955FC4F80819181089580E0FA
:1012400090E00895DC01FB018081882341F09C91AE
:101250008927982F8C93319680818823C9F7089528
:10126000CF93DF93CDB7DEB761970FB6F894DEBFAB
:101270000FBECDBF982F9B01AE014F5F5F4FDA01CC
:10128000EFE2F2E081E101900D928150E1F7892FC8
:1012900082958F70FA01E80FF11D8081F90180833A
:1012A0009F70490F511DFA018081F90181831282DB
:1012B00061960FB6F894DEBF0FBECDBFDF91CF9120
:1012C0000895FF920F931F93CF93DF939C018B019F
:1012D0008CE2FB01808337FD40C091E0F92EE1E014
:1012E000F0E08FEF2A3E38070CF442C0EF01C00F48
:1012F000D11F188288E190E068EE73E0AA27BB272F
:10130000A61BB70BAC019C01261B370BE8814A0FCB
:101310005B1F2A0F3B1FEF5FC901860F971F97FFC7
:10132000F6CF9A01260F371FE8838881805D888376
:10133000F394CB016AE070E090D46230710554F010
:10134000E801CF0DD11D1882C901861B970B97FDAF
:10135000ECCFD4CFEF2DFF270BC08DE2FB018183B3
:10136000309521953F4F82E0F82EE2E0F0E0B9CFD2
:10137000E00FF11F822F805D8083F3940F0D111D0C
:10138000F8011082DF91CF911F910F91FF90089586
:10139000EF92FF920F931F93CF93DF93C0E0D0E0C3
:1013A0002BE7E22E22E0F22E8C2F3EDF8C01F7019C
:1013B000819191917F0149D880E492E046D8C8019B
:1013C0003CD782E492E041D82196C830D10561F73C
:1013D000DF91CF911F910F91FF90EF9008956F9241
:1013E0007F928F929F92BF92CF92DF92EF92FF9265
:1013F0000F931F93CF93DF93CDB7DEB76A970FB6E6
:10140000F894DEBF0FBECDBF6E010894C11CD11C85
:10141000D601E7E4F2E089E001900D928150E1F716
:101420008981882309F487C0F601EE24E8263196E5
:1014300080818823D9F7C60108D872E0B72E6AE008
:10144000862E912C8C0E9D1E8B2DEEDE9C018CE247
:10145000898337FD66C051E0F52EE1E0F0E08FEFC3
:101460002A3E3807DCF186010E0F1F1FF80110829B
:1014700088E190E068EE73E066247724661A770AC4
:10148000AC019C01261B370BD801EC91460D571D72
:10149000260D371DEF5FC901860F971F97FFF6CF07
:1014A0009A01260F371FD801EC93F8018081805DE7
:1014B0008083F394CB016AE070E0CFD36230710592
:1014C0005CF086010F0D111DD8011C92C901861B0D
:1014D000970B97FDEACFD0CFEF2DFF27EC0DFD1D29
:1014E000822F805D8083F394F601EF0DF11D108251
:1014F0008981882331F0F601E8263196808188239E
:10150000D9F7C601A2D7B394F8E0BF1609F09CCF73
:10151000D401EFE2F2E081E101900D928150E1F718
:101520000CC08DE28A83309521953F4F42E0F42E26
:10153000E2E0F0E094CFEE247ECF8E2D82958F7086
:10154000F401E80FF11D808189838FE0E8228E0C81
:10155000911CD4018C918A831B8285E492E075D71B
:10156000C60173D782E492E070D76A960FB6F894FA
:10157000DEBF0FBECDBFDF91CF911F910F91FF90C6
:10158000EF90DF90CF90BF909F908F907F906F9063
:101590000895282F8432B1F09091BC03992379F0FB
:1015A0009C3040F4E92FFF27E154FC4F80839F5F7C
:1015B0009093BC0380E090E02A3261F0089580E0CF
:1015C00090E008958093BF0381E08093BC0380E0A6
:1015D00090E0089581E090E00895982F682F772794
:1015E000FB01E154FC4F80818D3289F1492FCB0101
:1015F00050E0FC01E154FC4FE081EA3299F120E037
:1016000030E0C901880F991F880F991F880F991F13
:10161000220F331F280F391F2E0F311D205330404A
:101620004F5F842F9927FC01E154FC4FE081EA329F
:1016300041F7552319F0309521953F4F851B9109AE
:10164000861B970B1816190684F4C9010895492FB3
:101650004F5F842F992751E0FC01E154FC4FE0815A
:10166000EA3269F620E030E0E4CF80E090E00895CF
:10167000382F613059F028B381E090E002C0880F24
:10168000991F3A95E2F7282B28BB089528B381E0EB
:1016900090E002C0880F991F3A95E2F780952823C1
:1016A00028BB08954ED78091CB039091CC038051F5
:1016B0009E40C8F346D708958091B803833378F0ED
:1016C0008091B9038823F9F4C09881E08093B9032D
:1016D0001092B8038091BA03882341F408958F5F74
:1016E0008093B8038091BA038823C1F38091BB0330
:1016F0008739A0F361E080E0C4D71092B7038BE88C
:1017000092E0A3D60895C09A1092B903E1CF1F9337
:10171000CF93DF931091C103103209F465C042E00A
:1017200062E070E0FB01E154FC4F80818D3209F4EE
:101730004DC0CB0150E0FC01E154FC4FE081EA32A6
:1017400009F44FC020E030E0C901880F991F880FCD
:10175000991F880F991F220F331F280F391F2E0F33
:10176000311D205330404F5F842F9927FC01E154F5
:10177000FC4FE081EA3241F7552319F0309521956D
:101780003F4F851B9109861B970B1816190684F588
:10179000E9018091C0039927AA27BB27FC01B197D3
:1017A000E435F10508F0B0C1ED5EFF4F09941092E9
:1017B000DB031092DA03C0FF03C081E08093DA03F9
:1017C000C1FFA2C181E08093DB039EC14F5F842FE4
:1017D000992751E0FC01E154FC4FE081EA3209F025
:1017E000B1CF20E030E0C8CF43E063E070E09ACFB3
:1017F000C0E0D0E0CECF61E080E043D71092B703E5
:101800008CEC92E022D680C103D8ACDA7DC121975E
:1018100009F43AC11092BA038EEF92E016D674C161
:101820008091C203803209F422C143E063E070E09A
:10183000FB01E154FC4F80818D3209F413C1CB01CF
:1018400050E0FC01E154FC4FE081EA3209F43DC173
:1018500020E030E0C901880F991F880F991F880F79
:10186000991F220F331F280F391F2E0F311D2053B0
:1018700030404F5F842F9927FC01E154FC4FE081F9
:10188000EA3241F7552319F0309521953F4F851BDA
:101890009109861B970B181619060CF0FCC0C9019C
:1018A0001C3609F4DCC01D3608F0C5C0143609F436
:1018B0001AC1193609F426C1123609F4ADC0A8D7E9
:1018C00023C1193481F01A3408F0C1C0143409F46A
:1018D00005C1153408F018C1112319F01A3209F0A6
:1018E00013C1E6D779DA54DD0FC18091C20380328B
:1018F00009F4C6C043E063E070E0FB01E154FC4F33
:1019000080818D3209F4B7C0CB0150E0FC01E15475
:10191000FC4FE081EA3209F4DEC020E030E0C9018A
:10192000880F991F880F991F880F991F220F331F47
:10193000280F391F2E0F311D205330404F5F842F49
:101940009927FC01E154FC4FE081EA3241F755232D
:1019500019F0309521953F4F851B9109861B970BF8
:10196000181619060CF09AC0C901193609F474C08A
:101970001A3608F054C0123609F4B2C0143609F40D
:10198000BEC0113609F445C0EDD9BEC0143409F407
:1019900094C0133509F0B8C081EE92E056D5D2DA82
:1019A000E1D9B2C08CEA92E050D5CE0146D4109273
:1019B000B703D7FD76C061E08C2F63D6A5C086EB58
:1019C00092E043D5CE0139D4D7FD71C061E08C2FB0
:1019D00078D69AC084EC92E038D5CE012ED489EA2C
:1019E00092E033D580E090E0B8D9CE0189D98CC09F
:1019F0008CE992E02AD5CE0120D489EA92E025D55F
:101A000080E090E08AD6CE0137D681E08093B7039C
:101A10007BC09ED9A7D978C07BD6FAD675C01037BF
:101A200009F464C0183709F467C01D3609F0ACCF5B
:101A300085D998D969C0103709F44AC0183709F414
:101A400058C01D3609F03BCF5DD6E2D65DC01335D8
:101A500009F05AC0C1D958C067D984D955C04DD6EC
:101A6000D7D652C04F5F842F992751E0EACE44E089
:101A700064E070E0DDCE4F5F842F992751E046CFC0
:101A800044E064E070E039CF81E08093BA038FEEE8
:101A900092E0DBD439C080E090E002CF80E090E0BB
:101AA00064CF6FEF9E012195822FEBD52DC06FEF94
:101AB0009E012195822F05D627C083ED92E0C5D4E3
:101AC0008BD6A6D61091C10364CF20E030E0DACEE9
:101AD00029D69ED619C020E030E039CFE9D614C00F
:101AE00014D940D911C024D693D60EC018D93AD9EA
:101AF0000BC00BD68DD608C026D934D905C019D94C
:101B000031D902C012D684D6DF91CF911F910895AA
:101B10008FEF87BB14BA82EF81BB929A939A8BE0C6
:101B200090E002D3F2D647DBFDD4ADD85ED57894F1
:101B30008EE093E08AD48BE293E087D489EA92E046
:101B400084D4FFD48091CB039091CC0380519E40EC
:101B5000C8F3F7D4C09A1092DB031092DA03109204
:101B6000BB031092BA0308951F93D2DFF4D564D952
:101B70001092BD031092BE0311E043DB2ED38823E5
:101B8000A9F037D3843209F450C09091BC03992353
:101B900069F09C3040F4E92FFF27E154FC4F80832B
:101BA0009F5F9093BC038A3209F448C08091CD03B3
:101BB000882319F3C6D48091B803833390F18091C0
:101BC000B9038823B9F5C0981093B9031092B803EC
:101BD0008091BA03882311F18091BB03873980F586
:101BE0001092CD038F5F8093BB038091BD038F5F05
:101BF0008093BD038A3030F08091B703882359F574
:101C00001092BD038091BE038F5F8093BE03853029
:101C100008F4B3CFD5D91092BE03AFCF8091BB03E8
:101C2000DFCF8F5F8093B803D3CF8093BF03109330
:101C3000BC03BCCFC09A1092B903C8CF68DDB6CF41
:101C400061E080E01ED51092B7038BE892E0FDD3EF
:101C50008091BB03C5CFABD6D3CF97FB092E072608
:101C60000AD077FD04D00CD006D000201AF470956D
:101C700061957F4F0895F6F7909581959F4F089550
:101C8000AA1BBB1B51E107C0AA1FBB1FA617B707A2
:101C900010F0A61BB70B881F991F5A95A9F78095BE
:081CA0009095BC01CD010895EF
:101CA800496E697420447269766520504944002061
:101CB8006E6F20636B73756D2C2064656661756C3F
:101CC8007473000D0A0044726976653A20287461BD
:101CD8007267206375722050574D292000206F6469
:101CE8006F200020205049443A0020204953656E57
:101CF80073653A20000A2020202020202064656196
:101D080064206D696E50206D6178502064656C4167
:101D180000445461726765743A20000D0A204463D8
:101D2800757272656E743A000D0A206375725057A9
:101D38004D20000D0A206F646F20000D0A4973655D
:101D48006E73653A00445249564520737065656460
:101D5800204F4B20004452495645737064207461EB
:101D6800726720637572722000204472697665502C
:101D7800574D3A20002020502C492C443A2000206E
:101D8800696E742000445249564520756E64657228
:101D9800206D696E0A0053746565723A2074617229
:101DA8006765742063757272656E74002047616997
:101DB8006E3A204B70204B64204B6920000D0A209E
:101DC8006D696E6472206D61786472206D617861EE
:101DD80020646561643A20000D0A005374656572D9
:101DE8005461726765743A20000A205374656572FD
:101DF80041637475616C3A20000A2050574D2000E9
:101E08000A20696E7420000A2000496E6974205304
:101E180074656572696E672050494400206E6F20B2
:101E2800636B73756D2C2064656661756C747300E3
:101E380053544545522050494420746172672063C9
:101E48007572723A20002044726976653A20000D56
:101E58000A20535445455220502C20492C20443AFE
:101E6800200020696E7465677261746F722000309B
:101E780031323334353637383941424344454600E8
:101E88003D000D0A002A0024494D550000000000BD
:101E980041444330004144433100524154455800C5
:101EA8005241544559004143435A00414343580065
:101EB8005350415245004143435900500255025A7C
:101EC80002600266026B02700276024661696C2D3E
:101ED800536166652D53544F500D0A005365745F66
:101EE800546F727175653A20000D0A005365745F6E
:101EF80050574D3A2000212121737465657250575F
:101F08004D3A200053746565723A200053544F507F
:101F18000D0A0044726976652D3E454550524F4D75
:101F28000053746565722D3E454550524F4D00462D
:101F380061696C2053616665204F4E0D0A00466149
:101F4800696C2053616665204F46460D0A000D0AEC
:101F58002D2D2D204F72622064617567687465723B
:101F6800626F617264204D435520007632302E3006
:021F7800000067
:00000001FF
