:100000000C9472000C948F000C948F000C948F0051
:100010000C948F000C948F000C948F000C948F0024
:100020000C948F000C948F000C948F000C948F0014
:100030000C948F000C948F000C948F000C948F0004
:100040000C948F000C948F000C948F000C948F00F4
:100050000C948F000C948F000C948F000C94BF09AB
:100060000C948F000C94CB020C947A030C948F00A8
:100070000C948F000C948F000C948F000C948F00C4
:100080000C948F000C948F000C948F000C948F00B4
:100090000C9407030C948F000C948F000C948F0029
:1000A0000C948F000C948F000C948F000C948F0094
:1000B0000C948F000C948F000C948F000C948F0084
:1000C0000C948F000C948F000C948F000C948F0074
:1000D0000C948F000C948F000C948F020C944303AB
:1000E0000C948F0011241FBECFEFD1E2DEBFCDBF35
:1000F00014E0A0E0B2E0E8E7F5E202C005900D925E
:10010000A033B107D9F712E1A0E3B4E001C01D921A
:10011000A03BB107E1F70E9443010C94BB120C9481
:100120000000089585B190E4892785B9089585B1C7
:10013000805885B9089580E090E008950895CF92A1
:10014000DF92EF92FF920F931F93CF93DF93CDB780
:10015000DEB7C456D4400FB6F894DEBF0FBECDBF95
:1001600080E092E00E94600480ED97E00E94290AFE
:1001700060E070E08E010F5F1F4FC8010E948C0A83
:100180001F930F939DE1C92E92E0D92EDF92CF925B
:1001900085E6E82EF12CEC0EFD1EFF92EF920E94F8
:1001A000500FC7010E94600486E292E00E94600442
:1001B00084E392E00E94B10380ED97E00E94290A57
:1001C00060E070E0C8010E948C0A1F930F93DF92D9
:1001D000CF92FF92EF920E94500FC7010E946004DD
:1001E00084E492E00E94600482E592E00E94B10300
:1001F00080ED97E00E94290A60E070E0C8010E944B
:100200008C0A1F930F93DF92CF92FF92EF920E947E
:10021000500FC7010E94600482E692E00E946004D1
:1002200082E792E00E94B10380ED97E00E94290AE4
:1002300060E070E0C8010E948C0A1F930F93DF9268
:10024000CF92FF92EF920E94500FC7010E9460046C
:100250008DB79EB748960FB6F8949EBF0FBE8DBF60
:10026000CC59DB4F0FB6F894DEBF0FBECDBFDF9188
:10027000CF911F910F91FF90EF90DF90CF90089555
:100280000E94600408952F923F924F925F926F9266
:100290007F928F929F92AF92BF92CF92DF92EF9216
:1002A000FF920F931F93CF93DF93CDB7DEB7C95063
:1002B000D5400FB6F894DEBF0FBECDBF00E916E003
:1002C0002AE336E04CE95AE06DEC7DE08EE49CE0F8
:1002D0000E94290485B199279F938F9380E892E02B
:1002E0009F938F937AE0672E71E0772E6C0E7D1EC0
:1002F0007F926F920E94500FC3010E94600441E9F7
:1003000050E062E970E082EA98E00E94410C61E905
:1003100070E087E990E00E94520A41E950E060E015
:1003200070E082EA98E00E94AD0D8CE892E00E94B5
:10033000600478940E949F008FEF84B988EC90E06D
:100340000E940B0A8DB79EB706960FB6F8949EBF13
:100350000FBE8DBF5E010894A11CB11C62E0862E09
:10036000912C8C0E9D1E55E0452E512C4C0E5D1E81
:1003700044E9242E42E0342E36EAE32EF12CEC0E32
:10038000FD1E22E4C22ED12CCC0EDD1E60E070E0FA
:10039000C5010E94E6068981813009F47EC0823061
:1003A00009F487C00E94060A892B81F30E941F046A
:1003B000892BE1F760E070E089EB92E00E94A604EF
:1003C00060E070E0C7010E94C40B8601F801119241
:1003D0008F01EE15FF05D1F7F7013196DF010D9082
:1003E0000020E9F71197AE1BBF0B01C01197F70171
:1003F000EA0FFB1F81818C32C9F7B7016F5F7F4F16
:10040000AD01C6010E94410F60E070E0C6010E948C
:10041000A60460E070E08CEB92E00E94A6040E94CB
:10042000F50360E070E0C7010E945B0AF6011192DB
:10043000E017F107E1F7F7013196DF010D90002099
:10044000E9F71197AE1BBF0B01C01197F701EA0F37
:10045000FB1F81818C32C9F7B7016F5F7F4FAD0100
:10046000C6010E94410F60E070E0C6010E94A60430
:1004700060E070E08EEB92E00E94A6040E94F5031B
:1004800088EC90E00E940B0A60E070E0C5010E94D9
:10049000E6068981813009F082CF0E941F04892BF2
:1004A000E1F760E070E0C4010E94A6040E94F50339
:1004B00079CF8A818B3709F075CFF4010190002044
:1004C000E9F73197E819F909EA0DFB1D81818D37AC
:1004D00009F068CF0E941F04892BE1F75F924F92C9
:1004E0003F922F927F926F920E94500F60E070E0D7
:1004F000C2010E944A050E94CB03EDB7FEB73696B3
:100500000FB6F894FEBF0FBEEDBF4CCF85B190E49F
:10051000892785B9089585B1805885B908951F92B6
:100520000F920FB60F9211242F933F934F935F9327
:100530006F937F938F939F93AF93BF93EF93FF93AB
:100540008091300184FF03C061E070E00CC08091B5
:100550003001682F7727769567957695679576951C
:10056000679561707070E0913404F091350480916A
:1005700036010995FF91EF91BF91AF919F918F91B6
:100580007F916F915F914F913F912F910F900FBE8F
:100590000F901F9018951F920F920FB60F92112473
:1005A0002F933F934F935F936F937F938F939F937B
:1005B000AF93BF93EF93FF938091C00084FF03C07C
:1005C00061E070E00CC08091C000682F77277695BD
:1005D0006795769567957695679561707070E091EF
:1005E0003604F09137048091C6000995FF91EF9190
:1005F000BF91AF919F918F917F916F915F914F913B
:100600003F912F910F900FBE0F901F9018951F9242
:100610000F920FB60F9211242F933F934F935F9336
:100620006F937F938F939F93AF93BF93EF93FF93BA
:100630008091C80084FF03C061E070E00CC080912D
:10064000C800682F77277695679576956795769594
:10065000679561707070E0913804F0913904809171
:10066000CE000995FF91EF91BF91AF919F918F912E
:100670007F916F915F914F913F912F910F900FBE9E
:100680000F901F9018951F920F920FB60F92112482
:100690002F933F934F935F936F937F938F939F938A
:1006A000AF93BF93EF93FF93E0913A04F0913B0433
:1006B00081E090E00995882319F08093360109C004
:1006C000809131018F7D809331011092310410921D
:1006D0003004FF91EF91BF91AF919F918F917F91E6
:1006E0006F915F914F913F912F910F900FBE0F909F
:1006F0001F9018951F920F920FB60F9211242F93EF
:100700003F934F935F936F937F938F939F93AF9399
:10071000BF93EF93FF93E0913C04F0913D0481E09F
:1007200090E00995882319F08093C60009C0809154
:10073000C1008F7D8093C100109233041092320467
:10074000FF91EF91BF91AF919F918F917F916F91A9
:100750005F914F913F912F910F900FBE0F901F907F
:100760001895FC0107C08093CE008091C80085FFDA
:10077000FCCF319680818823B1F70895FC0107C032
:100780008093C6008091C00085FFFCCF31968081A8
:100790008823B1F708958091300490913104892B1A
:1007A00079F48091300185FFFCCF80913101806226
:1007B0008093310181E090E0909331048093300484
:1007C00008958091300490913104892B69F08091D3
:1007D00031018F7D809331018091300185FFFCCF05
:1007E0001092310410923004089580913204909157
:1007F0003304892B79F48091C00085FFFCCF809170
:10080000C10080628093C10081E090E09093330446
:100810008093320408958091320490913304892B9F
:1008200069F08091C1008F7D8093C1008091C000EC
:1008300085FFFCCF1092330410923204089580910A
:1008400032049091330408958091300490913104E2
:1008500008950F931F93B8E9B0933101A6E0A093D8
:100860003201EBE0F0E0F0933501E0933401909336
:1008700035048093340430933B0420933A04B093BE
:10088000C100A093C200F093C500E093C400709330
:1008900037046093360410933D0400933C04B093F6
:1008A000C900A093CA00F093CD00E093CC00509310
:1008B00039044093380480E090E01F910F9108952F
:1008C000FC0120913204309133042115310531F0BF
:1008D0008091320490913304892B29F580818823FB
:1008E00051F08093C6008091C00085FFFCCF319607
:1008F00080818823B1F7232BA9F080913204909155
:100900003304892B79F48091C00085FFFCCF80915E
:10091000C10080628093C10081E090E09093330435
:100920008093320408958091C1008F7D8093C1002F
:100930008091C00085FFFCCF1092330410923204E6
:10094000CDCF90934B0480934A040895CF93DF93C7
:10095000EC01CB016881662309F499C0892B91F4DD
:1009600044C0F901E45AFB4F608320935404309350
:10097000550440935604509357042196688166238A
:1009800009F485C0209154043091550440915604D7
:10099000509157042F5F3F4F4F4F5F4F3370407060
:1009A00050708091580490915904A0915A04B091CC
:1009B0005B04281739074A075B0799F680915804AA
:1009C00090915904A0915A04B0915B040196A11D25
:1009D000B11D9370A070B070809358049093590427
:1009E000A0935A04B0935B04BCCFF89420915404B4
:1009F0003091550440915604509157042F5F3F4F5A
:100A00004F4F5F4F337040705070809158049091F9
:100A10005904A0915A04B0915B04281739074A077A
:100A20005B0791F0F901E45AFB4F60832093540473
:100A3000309355044093560450935704789421966C
:100A40006881662391F623C08091580490915904DF
:100A5000A0915A04B0915B040196A11DB11D937041
:100A6000A070B0708093580490935904A0935A04D6
:100A7000B0935B04F901E45AFB4F60832093540464
:100A8000309355044093560450935704D7CFDF91C9
:100A9000CF910895EF92FF920F931F93CF93DF931F
:100AA000EC012881222309F4DEC0672B91F46FC08A
:100AB000F701E45AF74F2083E0924C04F0924D0482
:100AC00000934E0410934F0421962881222309F4A9
:100AD000CAC0E0904C04F0904D0400914E04109177
:100AE0004F040894E11CF11C011D111D8FEF93E0D0
:100AF000A0E0B0E0E822F9220A231B2380915004F1
:100B000090915104A0915204B0915304E816F90653
:100B10000A071B0769F680914A0490914B04892BC0
:100B200069F080914A0490914B04892B39F0E0914F
:100B30004A04F0914B0481EC92E0099580915004B5
:100B400090915104A0915204B09153040196A11DBB
:100B5000B11D9370A070B0708093500490935104B5
:100B6000A0935204B09353048881F701E45AF74FDD
:100B70008083E0924C04F0924D0400934E04109355
:100B80004F0421962881222309F0A3CF6CC0F8944A
:100B9000E0904C04F0904D0400914E0410914F04ED
:100BA0000894E11CF11C011D111D8FEF93E0A0E0E2
:100BB000B0E0E822F9220A231B238091500490918F
:100BC0005104A0915204B0915304E816F9060A07A3
:100BD0001B0791F0F701E45AF74F2083E0924C0491
:100BE000F0924D0400934E0410934F047894219694
:100BF0002881222361F637C080914A0490914B04EA
:100C0000892B69F080914A0490914B04892B39F02B
:100C1000E0914A04F0914B0481EC92E009958091B7
:100C2000500490915104A0915204B0915304019644
:100C3000A11DB11D9370A070B0708093500490936B
:100C40005104A0935204B09353048881F701E45AED
:100C5000F74F8083E0924C04F0924D0400934E04D1
:100C600010934F04C3CFDF91CF911F910F91FF904D
:100C7000EF900895CF93DF93EC01892B09F4F8945A
:100C800020914C0430914D0440914E0450914F04FA
:100C90008091500490915104A0915204B09153045A
:100CA000281739074A075B07F9F0809150049091A3
:100CB0005104A0915204B09153040196A11DB11D9D
:100CC0009370A070B0708093500490935104A093DF
:100CD0005204B0935304845A974FFC0180819927A2
:100CE000CD2BD9F4789419C080914A0490914B048B
:100CF000892B81F080914A0490914B04892B51F00B
:100D0000E0914A04F0914B0480ED92E0099580E077
:100D100090E0E6CF80E090E0E3CFDF91CF910895BF
:100D2000CF93DF93EC01892B09F4F89420915404BC
:100D300030915504409156045091570480915804C5
:100D400090915904A0915A04B0915B042817390777
:100D50004A075B07F9F08091580490915904A091DB
:100D60005A04B0915B040196A11DB11D9370A0704F
:100D7000B0708093580490935904A0935A04B09390
:100D80005B04845A9B4FFC0180819927CD2BD9F4B9
:100D9000789419C080914A0490914B04892B81F07A
:100DA00080914A0490914B04892B51F0E0914A04C0
:100DB000F0914B0480EE92E0099580E090E0E6CF60
:100DC00080E090E0E3CFDF91CF9108952F923F92A2
:100DD0004F925F926F927F928F929F92AF92BF924B
:100DE000CF92DF92EF92FF920F931F93CF93DF93F7
:100DF000CDB7DEB7C650D4400FB6F894DEBF0FBEF5
:100E0000CDBF1C012B0180914A0490914B04892B8A
:100E100069F080914A0490914B04892B39F0E0915C
:100E20004A04F0914B048FEE92E00995CB5FDB4FC3
:100E300019821882C550D4404114510409F405C1E7
:100E400040913E0450913F046091400470914104F0
:100E5000CF5FDB4F488359836A837B83C150D44083
:100E6000E0904204F0904304009144041091450442
:100E70006090460470904704809048049090490424
:100E800080914A0490914B04892B41F19F928F925B
:100E90007F926F921F930F93FF92EF9285E193E001
:100EA0009F938F936E010894C11CD11CDF92CF9247
:100EB0000E94500F80914A0490914B04ADB7BEB789
:100EC0001C960FB6F894BEBF0FBEADBF892B31F094
:100ED000E0914A04F0914B04C6010995E614F70429
:100EE0000805190509F4D4C00894E11CF11C011D82
:100EF000111D3FE0A32EB12CC12CD12CAE20BF2060
:100F0000C022D1220894E108F10801091109809159
:100F10004A0490914B04892B59F19F928F927F92B2
:100F20006F92DF92CF92BF92AF921F930F93FF9277
:100F3000EF9282E393E09F938F938E010F5F1F4F99
:100F40001F930F930E94500F80914A0490914B047D
:100F5000EDB7FEB770960FB6F894FEBF0FBEEDBFAB
:100F6000892B31F0E0914A04F0914B04C8010995B6
:100F7000F5010024F695E7950794F695E795079413
:100F8000FE2FE02DEA0DFB1DD101E45AF34F81E461
:100F900001900D928150E1F7D1012C9186017501EC
:100FA0004114510409F4F89480913E0490913F0457
:100FB000A0914004B0914104CF5FDB4F488159813B
:100FC0006A817B81C150D44084179507A607B70773
:100FD00009F475C0CB5FDB4F68817981C550D4407F
:100FE0006F5F7F4FCB5FDB4F79836883C550D44001
:100FF00080914A0490914B04892B11F17F936F9358
:1010000085E693E09F938F938E010F5F1F4F1F9391
:101010000F930E94500F80914A0490914B044DB75A
:101020005EB74A5F5F4F0FB6F8945EBF0FBE4DBF0D
:10103000892B31F0E0914A04F0914B04C8010995E5
:101040004114510409F0F8CE7894F89420913E04AC
:1010500030913F044091400450914104CF5FDB4FF9
:10106000288339834A835B83C150D440E090420493
:10107000F0904304009144041091450460904604AC
:101080007090470480904804909049047894F8CE7A
:1010900080914A0490914B04892B79F080914A0405
:1010A00090914B04892B49F0E0914A04F0914B0454
:1010B00084E093E0099520E073CF20E071CFE092C7
:1010C0004204F09243040093440410934504609258
:1010D000460470924704809248049092490480919B
:1010E0003E0490913F04A0914004B09141040196C8
:1010F000A11DB11D80933E0490933F04A093400432
:10110000B0934104452809F47894D1012C93C1018E
:10111000CA5FDB4F0FB6F894DEBF0FBECDBFDF91C5
:10112000CF911F910F91FF90EF90DF90CF90BF90E4
:10113000AF909F908F907F906F905F904F903F9077
:101140002F900895AF92BF92CF92DF92EF92FF92CD
:101150000F931F93CF93DF93CDB7DEB7C050D4402A
:101160000FB6F894DEBF0FBECDBFFE01E25BFB4FB2
:10117000A080B18080914A0490914B04892B69F042
:1011800080914A0490914B04892B39F0E0914A04F4
:10119000F0914B0488E893E00995A114B10409F497
:1011A000F894E0904604F0904704009148041091B0
:1011B00049040894E11CF11C011D111D8FE090E011
:1011C000A0E0B0E0E822F9220A231B238091420428
:1011D00090914304A0914404B0914504E816F906A7
:1011E0000A071B0709F478C080914A0490914B04C8
:1011F000892BE1F18091420490914304A091440431
:10120000B091450420914604309147044091480430
:1012100050914904BF93AF939F938F931F930F9364
:10122000FF92EF925F934F933F932F938DEA93E05A
:101230009F938F936E010894C11CD11CDF92CF92B3
:101240000E94500F80914A0490914B04ADB7BEB7F5
:1012500050960FB6F894BEBF0FBEADBF892B31F0CC
:10126000E0914A04F0914B04C6010995F70100246E
:10127000F695E7950794F695E7950794FE2FE02DF0
:10128000EE0DFF1DE45AF34FDE01A35FBB4F81E477
:101290000D9001928150E1F7E0924604F0924704EC
:1012A000009348041093490480913E0490913F04B8
:1012B000A0914004B09141040196A11DB11D8093FD
:1012C0003E0490933F04A0934004B0934104AB28A4
:1012D00009F043C0789441C080914A0490914B0436
:1012E000892B69F080914A0490914B04892B39F045
:1012F000E0914A04F0914B048EE993E009958091C6
:10130000420490914304A0914404B0914504019695
:10131000A11DB11D8F709070A070B07080934204B9
:1013200090934304A0934404B0934504F701002430
:10133000F695E7950794F695E7950794FE2FE02D2F
:10134000EE0DFF1DE45AF34FDE01A35FBB4F81E4B6
:101350000D9001928150E1F79FCFC050DC4F0FB646
:10136000F894DEBF0FBECDBFDF91CF911F910F91DB
:10137000FF90EF90DF90CF90BF90AF9008951F92B5
:101380000F920FB60F9211242F933F938F939F9339
:1013900086E086BD809170109091711001969093B7
:1013A000711080937010809170109091711004975B
:1013B00021F580916E1090916F10019690936F10AF
:1013C00080936E1020916E1030916F1080916C1090
:1013D00090916D102817390729F010927110109212
:1013E00070100BC081E090E09093731080937210A6
:1013F00080916E008E7F80936E009F918F913F91C0
:101400002F910F900FBE0F901F9018958091721022
:10141000909173100895EEE6F0E020812E7F2083F6
:1014200010926F1010926E10109271101092701036
:1014300090936D1080936C1086E086BD85B58260B8
:1014400085BD10927310109272108081816080832C
:10145000089520916E002E7F20936E0010926F10E1
:1014600010926E10109271101092701090936D1077
:1014700080936C1086E086BD85B5826085BD8091C5
:101480006E00816080936E0020916E1030916F101D
:1014900080916C1090916D1028173907A8F380E0A7
:1014A00090E0089590937F1080937E107093811048
:1014B0006093801008950F931F93CF93DF93EC01F7
:1014C000672B89F000917C1010917D106AE471E126
:1014D000CE010E942C0F80917C1090917D100817F6
:1014E000190781F714C0F89400917C1010917D10B9
:1014F00078946AE471E1CE010E942C0FF8948091F7
:101500007C1090917D1078940817190761F7DF918E
:10151000CF911F910F9108956EEA71E10E942C0FF7
:101520008091AE11882339F0EEEAF1E110828181D9
:1015300031968823D9F70895282F672B69F188E021
:1015400090E0909375108093741080917E1090912C
:101550007F10892B01F1E0917E10F0917F100995A9
:1015600008952432C1F410927610109277101092E0
:101570007810109279108091761090917710A09148
:101580007810B09179108E579F4EFC0120831092F5
:1015900075101092741008958091741090917510C8
:1015A0008130910571F188309105D9F2892B99F735
:1015B000243209F457C08091761090917710A09151
:1015C0007810B09179100196A11DB11D809376100D
:1015D00090937710A0937810B09379108091761043
:1015E00090917710A0917810B09179108E579F4EFE
:1015F000FC01208381E090E090937510809374103B
:101600000895243209F443C08091761090917710A8
:10161000A0917810B09179100196A11DB11D809311
:10162000761090937710A0937810B09379108091F2
:10163000761090917710A0917810B091791085363E
:101640009105A105B10508F0A6CF80917610909183
:101650007710A0917810B09179108E579F4EFC01B1
:1016600020830895109276101092771010927810BF
:10167000109279108091761090917710A091781047
:10168000B09179108E579F4EFC0120830895809170
:10169000761090917710A0917810B0917910019602
:1016A000A11DB11D8093761090937710A0937810B0
:1016B000B09379108091761090917710A091781066
:1016C000B09179108E579F4EFC01108246E050E099
:1016D00061EE73E082E890E10E94330F892B49F5B7
:1016E00062E870E186EE90E10E942C0F80917A1002
:1016F00090917B10019690937B1080937A101092BA
:1017000076101092771010927810109279108091C4
:10171000761090917710A0917810B09179108E5733
:101720009F4E24E2FC0120831092751010927410D9
:10173000089546E050E068EE73E082E890E10E9490
:10174000330F892B81F462E870E18AE491E10E9411
:101750002C0F80917C1090917D10019690937D10BC
:1017600080937C10CCCF46E050E06FEE73E082E8CF
:1017700090E10E94330F892B11F662E870E18EEA46
:1017800091E10E942C0FBBCF0F931F93CF93DF9358
:101790008C01672BA9F112C080918010909181106B
:1017A000892B39F0E0918010F091811083E094E072
:1017B000099580E090E0892B09F05EC0C0917A1015
:1017C000D0917B1066EE70E1C8010E942C0F8091D1
:1017D0007A1090917B108C179D07F1F68091801004
:1017E00090918110892B39F0E0918010F091811057
:1017F00085EF93E0099581E090E0892BF9F23CC0F8
:10180000F894C0917A10D0917B10789466EE70E1D4
:10181000C8010E942C0FF89480917A1090917B104F
:101820008C179D0799F08091801090918110892BE1
:10183000E9F0E0918010F091811083E094E0099547
:1018400080E090E07894892BD9F216C080918010C6
:1018500090918110892B69F0E0918010F0918110B6
:1018600085EF93E0099581E090E0ECCF80E090E097
:10187000E9CF81E090E0E6CFDF91CF911F910F910A
:10188000089570931D1260931C1250931F12409381
:101890001E1290931B1280931A120895482F6115FF
:1018A000710509F441C07093131260931212809174
:1018B0001C1290911D12892BB1F1E0911C12F09134
:1018C0001D12099508958B37E9F18D3709F4B6C0DB
:1018D0008091161290911712A0911812B0911912BE
:1018E0000196A11DB11D8093161290931712A0931B
:1018F0001812B09319128091161290911712A0919C
:101900001812B0911912CE97A105B10560F480911B
:10191000161290911712A0911812B0911912805EB0
:101920009D4EFC01418308952091141230911512AF
:101930002130310549F12230310529F2232B99F765
:101940008B3789F781E090E0909315128093141201
:101950001092161210921712109218121092191259
:10196000109213121092121281E080932012809133
:10197000161290911712A0911812B0911912805E50
:101980009D4EFC01418308958B3741F18D3759F10C
:1019900082E090E0909315128093141280911612B9
:1019A00090911712A0911812B09119120196A11DD1
:1019B000B11D8093161290931712A0931812B09332
:1019C00019128091161290911712A0911812B091CD
:1019D0001912805E9D4EFC014183089530931512CB
:1019E00020931412B5CF8091161290911712A091E6
:1019F0001812B09119120196A11DB11D80931612F3
:101A000090931712A0931812B09319128091161286
:101A100090911712A0911812B0911912805E9D4EEC
:101A2000FC0141838091121290911312892B09F4C9
:101A300060C010921512109214120895809116121F
:101A400090911712A0911812B09119120196A11D30
:101A5000B11D8093161290931712A0931812B09391
:101A600019128091161290911712A0911812B0912C
:101A70001912805E9D4EFC0141838091121290915B
:101A80001312892BB1F68091161290911712A09122
:101A90001812B09119120196A11DB11D805E9D4EC4
:101AA000FC01118220911A1230911B1281E090E00A
:101AB0009F938F938DB79EB7815490400FB6F89443
:101AC0009EBF0FBE8DBFEDB7FEB73196A0E2B2E16B
:101AD00081E40D9001928150E1F7F9010995EDB78C
:101AE000FEB7ED5BFF4F0FB6F894FEBF0FBEEDBF24
:101AF000A0CF8091161290911712A0911812B09158
:101B000019120196A11DB11D805E9D4EFC0111822E
:101B100040911A1250911B123F932F938DB79EB78D
:101B2000815490400FB6F8949EBF0FBE8DBFEDB7A5
:101B3000FEB73196A0E2B2E181E40D9001928150AE
:101B4000E1F7FA010995EDB7FEB7ED5BFF4F0FB670
:101B5000F894FEBF0FBEEDBF6CCFCF92DF92EF9235
:101B6000FF920F931F936C017B018A018FE194E038
:101B7000FA010995F0926A12E092691210936C12C0
:101B800000936B12D092AF12C092AE121F910F91C0
:101B9000FF90EF90DF90CF900895482F6115710569
:101BA00009F441C0709362126093611280916912CE
:101BB00090916A12892BB1F1E0916912F0916A1249
:101BC000099508958B37E9F18D3709F4B6C08091F6
:101BD000651290916612A0916712B09168120196F9
:101BE000A11DB11D8093651290936612A093671298
:101BF000B09368128091651290916612A09167125D
:101C0000B0916812CF97A105B10560F4809165127B
:101C100090916612A0916712B091681283599D4EFF
:101C2000FC014183089520916312309164122130A8
:101C3000310549F12230310529F2232B99F78B37F1
:101C400089F781E090E09093641280936312109280
:101C5000651210926612109267121092681210921A
:101C600062121092611282E080936D12809165126F
:101C700090916612A0916712B091681283599D4E9F
:101C8000FC01418308958B3741F18D3759F182E092
:101C900090E090936412809363128091651290910A
:101CA0006612A0916712B09168120196A11DB11D34
:101CB0008093651290936612A0936712B093681296
:101CC0008091651290916612A0916712B09168128E
:101CD00083599D4EFC0141830895309364122093F3
:101CE0006312B5CF8091651290916612A091671230
:101CF000B09168120196A11DB11D80936512909359
:101D00006612A0936712B093681280916512909149
:101D10006612A0916712B091681283599D4EFC0122
:101D200041838091611290916212892B09F460C005
:101D3000109264121092631208958091651290912E
:101D40006612A0916712B09168120196A11DB11D93
:101D50008093651290936612A0936712B0936812F5
:101D60008091651290916612A0916712B0916812ED
:101D700083599D4EFC0141838091611290916212C2
:101D8000892BB1F68091651290916612A09167122D
:101D9000B09168120196A11DB11D83599D4EFC01A1
:101DA00011822091AE123091AF1281E090E09F93AA
:101DB0008F938DB79EB7815490400FB6F8949EBF15
:101DC0000FBE8DBFEDB7FEB73196ADE6B2E181E44F
:101DD0000D9001928150E1F7F9010995EDB7FEB739
:101DE000ED5BFF4F0FB6F894FEBF0FBEEDBFA0CF67
:101DF0008091651290916612A0916712B09168125D
:101E00000196A11DB11D83599D4EFC011182409187
:101E1000AE125091AF123F932F938DB79EB781545E
:101E200090400FB6F8949EBF0FBE8DBFEDB7FEB7C2
:101E30003196ADE6B2E181E40D9001928150E1F777
:101E4000FA010995EDB7FEB7ED5BFF4F0FB6F894B9
:101E5000FEBF0FBEEDBF6CCFFB01DC0101900D9208
:101E60000020E1F70895FB01DC014150504030F0C3
:101E70008D910190801919F40020B9F7881B990BF6
:101E80000895FB01DC014150504048F001900D9253
:101E90000020C9F701C01D9241505040E0F708955D
:101EA0000F931F93CF93DF93CDB7DEB760970FB635
:101EB000F894DEBF0FBECDBF0F89188D86E08E83EC
:101EC0001C830B838FEF9FE798878F83AE01455E5E
:101ED0005F4F5A834983698D7A8DCE0103960E94A4
:101EE000820F29853A85020F131FF8011082609630
:101EF0000FB6F894DEBF0FBECDBFDF91CF911F911B
:101F00000F9108952F923F924F925F926F927F921E
:101F10008F929F92AF92BF92CF92DF92EF92FF92F9
:101F20000F931F93CF93DF93CDB7DEB764970FB6B0
:101F3000F894DEBF0FBECDBFCC24DD2476011C019A
:101F40007C8B6B8B2A01FC0117821682838181FDB9
:101F500003C08FEF9FEF88C2AA24BB2472C2A0FEE9
:101F600057C28A8980538A30E8F4FA89F03341F401
:101F70002D85222329F4A3FC03C080E091E06FC0EB
:101F80008AE0ED85E802C0011124FA89F80FF053C8
:101F9000FD87F7FF02C02FE72D87A3FC4CC23D85CC
:101FA0003E8749C2C50188709070A3FE05C0ED85CB
:101FB000EE2311F4F1E0FD872A89283624F5253631
:101FC0000CF05BC0233509F480C024358CF42B322F
:101FD000C1F12C3234F42032C1F1233209F00DC2A8
:101FE0003CC03A893D32B1F13E3209F006C23AC0F6
:101FF0008A89833609F449C084360CF081C088355B
:1020000009F0FBC11BC0EA89E03709F4A3C0E1373E
:1020100044F4EC3669F1EF3671F0E93609F0EDC1C0
:102020006FC0FA89F53709F49DC0F83739F0F337F6
:1020300009F0E3C134C028E0298B94C030E1398B2A
:1020400091C080E190E0A82AB92AE0E2F0E0AE2A4F
:10205000BF2AF1C120E830E00DC080E490E0A82A5A
:10206000B92AE9C1E8E0F0E0AE2ABF2A1D86E3C143
:1020700024E030E0A22AB32ADEC14FE3C42E3E851D
:1020800031503E8783E68A8B44C1F201C080FE85D1
:10209000F150FE8722E030E0420E531E3AC1F201B9
:1020A000C080D180892B49F0FD856F2F772767FD90
:1020B0007095C6010E94611219C0F60101900020BE
:1020C000E9F73197EC19E98B12C0F201C080D18099
:1020D000892B49F0FD856F2F772767FD7095C60125
:1020E0000E94561203C0C6010E944D12898B22E045
:1020F00030E0420E531E3E858989381B3E8709C158
:10210000A2FE08C0F20180819181A281B38124E006
:1021100030E009C0F20180819181AA2797FDA09546
:10212000BA2F22E030E0420E531E6C017D01B7FF52
:102130000CC082E090E0A82AB92AF094E094D094F0
:10214000C094C11CD11CE11CF11CEFEBFFEFAE22CF
:10215000BF2221C020E430E0A22AB32A38E73A8B1C
:1021600080E1898BA2FE08C0F20180819181A28169
:10217000B38124E030E007C0F20180819181AA2779
:10218000BB2722E030E0420E531E6C017D018FEC34
:102190009FEFA822B92287017601FE013196F88BC4
:1021A000EF87F9896F2E772488249924C801B70115
:1021B000A40193010E9499126A3024F02A89620FC7
:1021C000615201C0605DEF85F8896193F88BEF87FC
:1021D000C801B701A40193010E94991279018A01F3
:1021E000211531054105510509F7CC24DD2476017F
:1021F000CE010196CF84C81AC50182739070892BD5
:1022000019F0FE85F150FE87A6FE09C0298920310C
:1022100011F482E001C081E03E85381B3E8738E042
:10222000832E912C8A209B20A3FE1BC08D85282FF6
:10223000332727FD30958C2D99278217930754F06B
:10224000E7EFFFEFAE22BF2228E0822E912C8A20FA
:102250009B2007C0FD85FC19FD872E852F1B2E872F
:1022600003C03E853C193E87C50180789170892B5B
:1022700069F48E8506C0B10180E290E00E946C1284
:10228000812F182F11501816B4F31E87A1FE04C019
:10229000B1018DE290E00BC0A4FE04C0B1018BE25D
:1022A00090E005C0A5FE05C0B10180E290E00E946B
:1022B0006C12A6FE10C0B10180E390E00E946C1287
:1022C0008989803141F4B101EA898E2F992787FDF0
:1022D00090950E946C12B0FE0DC08E8506C0B101B3
:1022E00080E390E00E946C12812F182F1150181675
:1022F000B4F31E87892869F02D8506C0B10180E3FB
:1023000090E00E946C12212F122F11501216B4F37C
:102310001D8790E8692E712C6A207B20A7FC0DC0D8
:102320008E8506C0B10180E290E00E946C12812F80
:10233000182F11501816B4F31E87FA89F33641F49A
:10234000B1018C2D992787FD90950E946C1245C094
:102350002A892337B1F446015601198909C0F501CC
:1023600081915F01B101992787FD90950E946C12C0
:102370001150A8F76401F989CF0ED11C2FEF298BDA
:102380002CC03A89333519F00F8518891FC04601D2
:102390008601B98808C0F8018491B10199270E948B
:1023A0006C120F5F1F4FBA94FFEFBF16A1F76401C5
:1023B0002989C20ED11CF98B10C0F80182918F01BE
:1023C000B101992787FD90950E946C12CE0101966C
:1023D0000817190791F7188B0F876728B1F08E85BA
:1023E00006C0B10180E290E00E946C12812F182F8C
:1023F00011501816B4F31E8708C0B101FA898F2F47
:10240000992787FD90950E946C12AA24BB2413C0C3
:102410002A89253241F43AE0398B1E861D8681E0F7
:10242000A82EB12C08C0B101EA898E2F992787FD0B
:1024300090950E946C122B893C892F5F3F4F3C8BFB
:102440002B8BF101838183FF04C0EB89FC89F4911C
:1024500003C0EB89FC89F081FA8B2A89222309F0D9
:102460007ECDF1018681978164960FB6F894DEBF28
:102470000FBECDBFDF91CF911F910F91FF90EF90D5
:10248000DF90CF90BF90AF909F908F907F906F9094
:102490005F904F903F902F900895FC010590002091
:1024A000E9F7809590958E0F9F1F0895FC01059088
:1024B000615070400110D8F7809590958E0F9F1F46
:1024C0000895FC016150704001900110D8F780958B
:1024D00090958E0F9F1F08950F931F93CF93DF93B7
:1024E0008C01EB018B81992781FF1BC082FF0DC0FE
:1024F0002E813F818C819D812817390764F4E88102
:10250000F9810193F983E88306C0E885F985802F76
:102510000995892B31F48E819F8101969F838E834B
:1025200002C00FEF1FEFC801DF91CF911F910F91F4
:102530000895A1E21A2EAA1BBB1BFD010DC0AA1F04
:10254000BB1FEE1FFF1FA217B307E407F50720F01C
:10255000A21BB30BE40BF50B661F771F881F991F97
:102560001A9469F760957095809590959B01AC01E0
:08257000BD01CF010895FFCF6A
:102578000D0A52656164696E6720696E697420701E
:102588006172616D7320696620616E79000D0A6160
:10259800636B3D2573000D0A73656E64696E672071
:1025A8003331330024504D544B3331332C312A32DC
:1025B800450D0A000D0A73656E64696E6720333035
:1025C800310024504D544B3330312C322A32440DD3
:1025D8000A000D0A73656E64696E6720717565720D
:1025E800790024504D544B3430312A33370D0A00CA
:1025F8000D0A20504F5254423D2578000D0A696E4D
:10260800697420000D0A73747265616D696E6720C4
:1026180064617461207468726F7567682078626598
:1026280065206D73673D2573007B28003B00297D7D
:10263800005842454520512069732066756C6C002E
:1026480058424545205120697320656D70747900A2
:10265800535055205120697320656D70747900704E
:102668006F70537761726D4D73674275733A535447
:10267800415254000D0A706F702051206973206513
:102688006D707479000D0A207461696C5F696478F3
:102698003D256C642C20686561645F69783D256C14
:1026A80064000D0A206F6C64207461696C20696491
:1026B800783D256C642C206E6577207461696C20E8
:1026C8006964783D256C642C686561642069647868
:1026D8003D256C64000D0A64697363617264696EF8
:1026E80067207374616C65206D6573736167652C11
:1026F800207472792025640070757368537761724D
:102708006D4D73674275733A5354415254000D0A24
:10271800205055534820512046554C4C000D0A2056
:102728006F6C642068656164206964783D256C6419
:102738002C206E65772068656164206964783D2582
:102748006C642C207461696C206964783D256C6424
:102758000024475047474100244750565447002417
:10276800504D544B000D0A676F74206D657373618B
:102778006765000D0A2064697363617264696E6736
:10278800207374616C65206D657373616765000DF6
:102798000A696E69745370754D6F64756C650000D5
:00000001FF
