:100000000C9472000C948F000C948F000C948F0051
:100010000C948F000C948F000C948F000C948F0024
:100020000C948F000C948F000C948F000C948F0014
:100030000C948F000C948F000C948F000C948F0004
:100040000C948F000C948F000C948F000C948F00F4
:100050000C948F000C948F000C948F000C940D0A5C
:100060000C948F000C94D7020C9486030C948F0090
:100070000C948F000C948F000C948F000C948F00C4
:100080000C948F000C948F000C948F000C948F00B4
:100090000C9413030C948F000C948F000C948F001D
:1000A0000C948F000C948F000C948F000C948F0094
:1000B0000C948F000C948F000C948F000C948F0084
:1000C0000C948F000C948F000C948F000C948F0074
:1000D0000C948F000C948F000C949B020C944F0393
:1000E0000C948F0011241FBECFEFD1E2DEBFCDBF35
:1000F00014E0A0E0B2E0E4E7F7E202C005900D9260
:10010000AA3CB107D9F715E1AAECB4E001C01D92F1
:10011000AE3AB107E1F70E94E7000C94B9130C94D2
:100120000000089585B190E4892785B9089585B1C7
:10013000805885B9089580E090E008950895FC0105
:10014000DC010D900020E9F71197A81BB90B90E096
:1001500020E030E004C090812F5F3F4F31962A1796
:100160003B0731F021153105B1F380819827F4CF99
:10017000892F99270895CF93DF93CDB7DEB72E97B8
:100180000FB6F894DEBF0FBECDBF88EB9BE00E9498
:10019000770A80E092E00E948204CE010196DC01A1
:1001A000E0EFF2E02EE001900D922150E1F76EE0D9
:1001B00070E00E94CA032E960FB6F894DEBF0FBE01
:1001C000CDBFDF91CF9108950E9482040895C6ECBF
:1001D000DCE1DEBFCDBF0DEB16E027E636E041E007
:1001E0005BE062ED7EE089E59DE00E944B0485B115
:1001F00099279F938F9385E292E09F938F935AE381
:10020000C52E51E0D52ECC0EDD1EDF92CF920E947E
:100210005710C6010E94820440E050E067E970E098
:1002200086EF98E00E944C0D60E070E082E990E07B
:100230000E94A00A40E050E060E070E086EF98E0A5
:100240000E94C50E81E392E00E948204789488EBBC
:100250009BE00E94770A80E092E00E948204CE0137
:100260000196FC01A0EFB2E02EE00D90019221502A
:10027000E1F76EE070E00E94CA038FEF84B988EC6A
:1002800090E00E94590A8DB79EB706960FB6F89473
:100290009EBF0FBE8DBF4FE0A42EB12CAC0EBD1E75
:1002A00030E1832E912C8C0E9D1E8E010E581F4F17
:1002B00026EDE22EF12CEC0EFD1E93EB492E92E082
:1002C000592E8DEE282E82E0382E38010894611CBC
:1002D000711C60E070E0C5010E9413078F858130BA
:1002E00009F481C0823009F4DCC00E94540A892BD1
:1002F00081F30E944104892BE1F760E070E088E718
:1003000092E00E94C80460E070E0C8010E94860C80
:100310001F930F93F80101900020E9F73197E01B3C
:10032000F10BFF93EF938DE792E09F938F93DF9212
:10033000CF920E945710F80101900020E9F7319701
:10034000E01BF10B8DB79EB708960FB6F8949EBFD1
:100350000FBE8DBFE730F10508F07AC060E070E0B5
:10036000C2010E94C8040E94170460E070E0C80146
:100370000E94B30A1F930F93F80101900020E9F740
:100380003197E01BF10BFF93EF9387EB92E09F9384
:100390008F93DF92CF920E945710F80101900020B6
:1003A000E9F73197E01BF10B8DB79EB708960FB6B2
:1003B000F8949EBF0FBE8DBFE730F10500F560E0F9
:1003C00070E0C1010E94C8040E94170488EC90E00C
:1003D0000E94590A60E070E0C5010E9413078F85F2
:1003E000813009F07FCF0E944104892BE1F760E062
:1003F00070E0C4010E94C8040E94170476CF3697AB
:10040000AF01B301C7010E944810F801019000201C
:10041000E9F73197E01BF10BEE0DFF1D36971082C7
:10042000FF92EF9287ED92E09F938F93DF92CF92AE
:100430000E94571060E070E0C7010E94C8048DB7A9
:100440009EB706960FB6F8949EBF0FBE8DBFB7CF6E
:100450003697AF01B301C7010E944810F80101901F
:100460000020E9F73197E01BF10BEE0DFF1D3697E9
:100470001082FF92EF928DE992E09F938F93DF922B
:10048000CF920E94571060E070E0C7010E94C8043C
:100490008DB79EB706960FB6F8949EBF0FBE8DBF60
:1004A0005DCF9F928F9289E392E09F938F93DF922B
:1004B000CF920E9457108DB79EB706960FB6F8944C
:1004C0009EBF0FBE8DBF88898B3709F00ECFF40118
:1004D00001900020E9F73197E819F909EA0DFB1DB1
:1004E00080818D3709F001CF0E944104892BE1F70B
:1004F0009F928F9283E592E09F938F93DF92CF92AA
:100500000E94571060E070E0C4010E946C050E94D8
:10051000ED038DB79EB706960FB6F8949EBF0FBE3B
:100520008DBFE3CE85B190E4892785B9089585B163
:10053000805885B908951F920F920FB60F9211241B
:100540002F933F934F935F936F937F938F939F93DB
:10055000AF93BF93EF93FF938091300184FF03C06B
:1005600061E070E00CC080913001682F77277695AC
:100570006795769567957695679561707070E0914F
:10058000CE04F091CF04809136010995FF91EF914F
:10059000BF91AF919F918F917F916F915F914F919B
:1005A0003F912F910F900FBE0F901F9018951F92A3
:1005B0000F920FB60F9211242F933F934F935F9397
:1005C0006F937F938F939F93AF93BF93EF93FF931B
:1005D0008091C00084FF03C061E070E00CC0809196
:1005E000C000682F772776956795769567957695FD
:1005F000679561707070E091D004F091D1048091A2
:10060000C6000995FF91EF91BF91AF919F918F9196
:100610007F916F915F914F913F912F910F900FBEFE
:100620000F901F9018951F920F920FB60F921124E2
:100630002F933F934F935F936F937F938F939F93EA
:10064000AF93BF93EF93FF938091C80084FF03C0E3
:1006500061E070E00CC08091C800682F7727769524
:100660006795769567957695679561707070E0915E
:10067000D204F091D3048091CE000995FF91EF91BF
:10068000BF91AF919F918F917F916F915F914F91AA
:100690003F912F910F900FBE0F901F9018951F92B2
:1006A0000F920FB60F9211242F933F934F935F93A6
:1006B0006F937F938F939F93AF93BF93EF93FF932A
:1006C000E091D404F091D50481E090E0099588236D
:1006D00019F08093360109C0809131018F7D80939C
:1006E00031011092CB041092CA04FF91EF91BF9197
:1006F000AF919F918F917F916F915F914F913F91BA
:100700002F910F900FBE0F901F9018951F920F9270
:100710000FB60F9211242F933F934F935F936F93D4
:100720007F938F939F93AF93BF93EF93FF93E0914A
:10073000D604F091D70481E090E00995882319F060
:100740008093C60009C08091C1008F7D8093C10055
:100750001092CD041092CC04FF91EF91BF91AF9114
:100760009F918F917F916F915F914F913F912F91C9
:100770000F900FBE0F901F901895FC0107C080933B
:10078000CE008091C80085FFFCCF31968081882300
:10079000B1F70895AC01161617068CF420E030E08E
:1007A000F901E40FF51F80818093CE008091C8008D
:1007B00085FFFCCF2F5F3F4F2617370789F7089536
:1007C000FC0107C08093C6008091C00085FFFCCF6C
:1007D000319680818823B1F708958091CA04909161
:1007E000CB04892B79F48091300185FFFCCF809177
:1007F000310180628093310181E090E09093CB04DD
:100800008093CA0408958091CA049091CB04892BE7
:1008100069F0809131018F7D8093310180913001A9
:1008200085FFFCCF1092CB041092CA0408958091EA
:10083000CC049091CD04892B79F48091C00085FF80
:10084000FCCF8091C10080628093C10081E090E084
:100850009093CD048093CC0408958091CC04909122
:10086000CD04892B69F08091C1008F7D8093C100F8
:100870008091C00085FFFCCF1092CD041092CC0473
:1008800008958091CC049091CD0408958091CA047C
:100890009091CB0408950F931F93B8E9B093310161
:1008A000A6E0A0933201EBE0F0E0F0933501E09395
:1008B00034019093CF048093CE043093D5042093D9
:1008C000D404B093C100A093C200F093C500E0939C
:1008D000C4007093D1046093D0041093D7040093A4
:1008E000D604B093C900A093CA00F093CD00E09362
:1008F000CC005093D3044093D20480E090E01F9149
:100900000F910895FC012091CC043091CD04211564
:10091000310531F08091CC049091CD04892B29F5DB
:100920008081882351F08093C6008091C00085FFAC
:10093000FCCF319680818823B1F7232BA9F08091D9
:10094000CC049091CD04892B79F48091C00085FF6F
:10095000FCCF8091C10080628093C10081E090E073
:100960009093CD048093CC0408958091C1008F7D35
:100970008093C1008091C00085FFFCCF1092CD0410
:100980001092CC04CDCF9093E5048093E4040895B5
:10099000CF93DF93EC01CB016881662309F499C002
:1009A000892B91F444C0F901EA50FB4F60832093F6
:1009B000EE043093EF044093F0045093F104219639
:1009C0006881662309F485C02091EE043091EF041C
:1009D0004091F0045091F1042F5F3F4F4F4F5F4F14
:1009E0003370407050708091F2049091F304A091A4
:1009F000F404B091F504281739074A075B0799F604
:100A00008091F2049091F304A091F404B091F50464
:100A10000196A11DB11D9370A070B0708093F20477
:100A20009093F304A093F404B093F504BCCFF8942E
:100A30002091EE043091EF044091F0045091F104C4
:100A40002F5F3F4F4F4F5F4F33704070507080911A
:100A5000F2049091F304A091F404B091F5042817E6
:100A600039074A075B0791F0F901EA50FB4F6083B1
:100A70002093EE043093EF044093F0045093F1047C
:100A8000789421966881662391F623C08091F204C0
:100A90009091F304A091F404B091F5040196A11D86
:100AA000B11D9370A070B0708093F2049093F30422
:100AB000A093F404B093F504F901EA50FB4F60836E
:100AC0002093EE043093EF044093F0045093F1042C
:100AD000D7CFDF91CF910895CF92DF92EF92FF921F
:100AE0000F931F93CF93DF93EC012881222309F406
:100AF000E5C0672B09F473C09EEFC92E92E0D92E92
:100B000011C0F701EA50F74F2083E092E604F0921B
:100B1000E7040093E8041093E90421962881222336
:100B200009F4CCC0E090E604F090E7040091E804FA
:100B30001091E9040894E11CF11C011D111D8FEFB7
:100B400093E0A0E0B0E0E822F9220A231B23809181
:100B5000EA049091EB04A091EC04B091ED04E81646
:100B6000F9060A071B0769F68091E4049091E504F1
:100B7000892B61F08091E4049091E504892B31F098
:100B8000E091E404F091E504C60109958091EA043E
:100B90009091EB04A091EC04B091ED040196A11D9D
:100BA000B11D9370A070B0708093EA049093EB0431
:100BB000A093EC04B093ED048881F701EA50F74F5D
:100BC0008083E092E604F092E7040093E804109337
:100BD000E90421962881222309F0A4CF6FC08EEF6B
:100BE000C82E82E0D82EF894E090E604F090E70456
:100BF0000091E8041091E9040894E11CF11C011D26
:100C0000111D8FEF93E0A0E0B0E0E822F9220A2363
:100C10001B238091EA049091EB04A091EC04B09125
:100C2000ED04E816F9060A071B0791F0F701EA50F0
:100C3000F74F2083E092E604F092E7040093E80483
:100C40001093E904789421962881222361F636C016
:100C50008091E4049091E504892B61F08091E40493
:100C60009091E504892B31F0E091E404F091E504E2
:100C7000C60109958091EA049091EB04A091EC04DF
:100C8000B091ED040196A11DB11D9370A070B070DC
:100C90008093EA049093EB04A093EC04B093ED04EA
:100CA0008881F701EA50F74F8083E092E604F092E2
:100CB000E7040093E8041093E904C4CFDF91CF91D7
:100CC0001F910F91FF90EF90DF90CF900895CF93F9
:100CD000DF93EC01892B09F4F8942091E60430911C
:100CE000E7044091E8045091E9048091EA0490916E
:100CF000EB04A091EC04B091ED04281739074A07E2
:100D00005B07F9F08091EA049091EB04A091EC0468
:100D1000B091ED040196A11DB11D9370A070B0704B
:100D20008093EA049093EB04A093EC04B093ED0459
:100D30008A50974FFC0180819927CD2BD9F4789464
:100D400019C08091E4049091E504892B81F0809191
:100D5000E4049091E504892B51F0E091E404F091D2
:100D6000E5048DE093E0099580E090E0E6CF80E037
:100D700090E0E3CFDF91CF910895CF93DF93EC0123
:100D8000892B09F4F8942091EE043091EF044091FE
:100D9000F0045091F1048091F2049091F304A09139
:100DA000F404B091F504281739074A075B07F9F0F6
:100DB0008091F2049091F304A091F404B091F504B1
:100DC0000196A11DB11D9370A070B0708093F204C4
:100DD0009093F304A093F404B093F5048A509B4FCE
:100DE000FC0180819927CD2BD9F4789419C080918A
:100DF000E4049091E504892B81F08091E4049091C2
:100E0000E504892B51F0E091E404F091E5048DE1D3
:100E100093E0099580E090E0E6CF80E090E0E3CFBA
:100E2000DF91CF9108952F923F924F925F926F92F0
:100E30007F928F929F92AF92BF92CF92DF92EF926A
:100E4000FF920F931F93CF93DF93CDB7DEB7C956B1
:100E5000D4400FB6F894DEBF0FBECDBFCA59DB4FEA
:100E600099838883C656D440C859DB4F79836883F9
:100E7000C856D4408091E4049091E504892B69F030
:100E80008091E4049091E504892B39F0E091E40429
:100E9000F091E5048CE293E00995CC59DB4F19827F
:100EA0001882C456D440C859DB4F28813981C856AE
:100EB000D440232B09F0B7C0F8942090D804309088
:100EC000D9044090DA045090DB04E090DC04F09008
:100ED000DD040091DE041091DF046090E004709066
:100EE000E1048090E2049090E30478948091E4041B
:100EF0009091E504892B51F19F928F927F926F928E
:100F00001F930F93FF92EF92E2E5F3E0FF93EF93CD
:100F100024E630E02C0F3D1F3F932F930E94571083
:100F20008091E4049091E504EDB7FEB73C960FB6CE
:100F3000F894FEBF0FBEEDBF892B41F0E091E404B1
:100F4000F091E504CE018C599F4F09956E147F04F2
:100F50008006910609F480C00894E11CF11C011D73
:100F6000111D2FE0A22EB12CC12CD12CAE20BF2000
:100F7000C022D1220894E108F108010911098091E9
:100F8000E4049091E504892B71F19F928F927F92F6
:100F90006F92DF92CF92BF92AF921F930F93FF9207
:100FA000EF922FE633E03F932F9384E690E08C0F8F
:100FB0009D1F9F938F930E9457108091E4049091FE
:100FC000E504EDB7FEB770960FB6F894FEBF0FBEFE
:100FD000EDBF892B41F0E091E404F091E504CE01EE
:100FE0008C599F4F099583E690E0A89EF001A99E39
:100FF000F00DB89EF00D1124CA59DB4FA881B981BC
:10100000C656D440EA50F34F83E601900D928150CA
:10101000E1F7CA59DB4FE881F981C656D4406081B7
:10102000A601950131C02090D8043090D904409099
:10103000DA045090DB04E090DC04F090DD040091D1
:10104000DE041091DF046090E0047090E104809071
:10105000E2049090E3044ACF8091E4049091E50487
:10106000892B09F46CC08091E4049091E504892BEC
:1010700009F465C0E091E404F091E50481E493E0B3
:101080000995A801970160E0C859DB4F88819981D3
:10109000C856D440892B09F4F8948091D8049091D3
:1010A000D904A091DA04B091DB0482159305A4055C
:1010B000B50509F448C0CC59DB4F28813981C456A5
:1010C000D4402F5F3F4FCC59DB4F39832883C45620
:1010D000D4408091E4049091E504892B29F13F9359
:1010E0002F9382EA93E09F938F93E4E6F0E0EC0F76
:1010F000FD1FFF93EF930E9457108091E40490919D
:10110000E5042DB73EB72A5F3F4F0FB6F8943EBFB8
:101110000FBE2DBF892B41F0E091E404F091E5046E
:10112000CE018C599F4F0995C859DB4F8881998111
:10113000C856D440892B09F0B6CE7894BDCEA40110
:10114000930160E0A1CF2093DC043093DD04409351
:10115000DE045093DF046092E0047092E104809218
:10116000E2049092E3048091D8049091D904A09174
:10117000DA04B091DB040196A11DB11D8093D8045F
:101180009093D904A093DA04B093DB04C859DB4FE1
:10119000E881F981C856D440EF2B09F47894CA59F4
:1011A000DB4FE881F981C656D4406083CA59DB4FD2
:1011B00088819981C656D440C759DB4F0FB6F89441
:1011C000DEBF0FBECDBFDF91CF911F910F91FF907A
:1011D000EF90DF90CF90BF90AF909F908F907F90D7
:1011E0006F905F904F903F902F900895AF92BF9275
:1011F000CF92DF92EF92FF920F931F93CF93DF93E3
:10120000CDB7DEB7C050D4400FB6F894DEBF0FBEE6
:10121000CDBFFE01E059FB4FA080B1808091E40476
:101220009091E504892B69F08091E4049091E504A4
:10123000892B39F0E091E404F091E50485EC93E02A
:101240000995A114B10409F4F894E090E004F09039
:10125000E1040091E2041091E3040894E11CF11C04
:10126000011D111D8FE090E0A0E0B0E0E822F9221E
:101270000A231B238091DC049091DD04A091DE04FD
:10128000B091DF04E816F9060A071B0709F475C0D8
:101290008091E4049091E504892BE1F18091DC04D4
:1012A0009091DD04A091DE04B091DF042091E00470
:1012B0003091E1044091E2045091E304BF93AF9375
:1012C0009F938F931F930F93FF92EF925F934F9390
:1012D0003F932F938AEE93E09F938F936E01089430
:1012E000C11CD11CDF92CF920E9457108091E40460
:1012F0009091E504ADB7BEB750960FB6F894BEBF57
:101300000FBEADBF892B31F0E091E404F091E5040C
:10131000C601099583E690E0E89EF001E99EF00D94
:10132000F89EF00D1124EA50F34FDE01A35FBB4F8E
:1013300083E60D9001928150E1F7E092E004F09293
:10134000E1040093E2041093E3048091D8049091A7
:10135000D904A091DA04B091DB040196A11DB11D5E
:101360008093D8049093D904A093DA04B093DB045B
:10137000AB2809F040C078943EC08091E40490917D
:10138000E504892B69F08091E4049091E504892BB0
:1013900039F0E091E404F091E5048BED93E00995D8
:1013A0008091DC049091DD04A091DE04B091DF0413
:1013B0000196A11DB11D8F709070A070B0708093C8
:1013C000DC049093DD04A093DE04B093DF0483E695
:1013D00090E0E89EF001E99EF00DF89EF00D1124DA
:1013E000EA50F34FDE01A35FBB4F83E60D900192FD
:1013F0008150E1F7A2CFC050DC4F0FB6F894DEBFAA
:101400000FBECDBFDF91CF911F910F91FF90EF9055
:10141000DF90CF90BF90AF9008951F920F920FB6BC
:101420000F9211242F933F938F939F9386E086BD55
:1014300080912A1390912B13019690932B138093F4
:101440002A1380912A1390912B13049721F58091F0
:1014500028139091291301969093291380932813B0
:1014600020912813309129138091261390912713EE
:101470002817390729F010922B1310922A130BC04A
:1014800081E090E090932D1380932C1380916E0057
:101490008E7F80936E009F918F913F912F910F903F
:1014A0000FBE0F901F90189580912C1390912D13C3
:1014B0000895EEE6F0E020812E7F2083109229131C
:1014C0001092281310922B1310922A139093271323
:1014D0008093261386E086BD85B5826085BD109217
:1014E0002D1310922C1380818160808308952091A8
:1014F0006E002E7F20936E001092291310922813F5
:1015000010922B1310922A13909327138093261373
:1015100086E086BD85B5826085BD80916E00816064
:1015200080936E0020912813309129138091261307
:101530009091271328173907A8F380E090E00895C9
:10154000909339138093381370933B1360933A133D
:10155000109268148091681480930414809104148C
:101560008093A0130895EF92FF920F931F93CF9350
:10157000DF937C01672B91F0C4E0D4E10091361336
:1015800010913713BE01C7010E94331080913613AA
:10159000909137138017910789F715C0C4E0D4E103
:1015A000F89400913613109137137894BE01C70157
:1015B0000E943310F89480913613909137137894E9
:1015C0000817190769F7DF91CF911F910F91FF90CD
:1015D000EF90089568E674E10E94331080916814DA
:1015E000882371F020E030E0F901E859FB4E1082C9
:1015F000F901E759FB4E80812F5F3F4F8823A1F708
:1016000008951F93CF93DF93182FEB018091381328
:1016100090913913892B29F0E0913813F091391307
:101620000995CD2B39F088E090E090932F138093AB
:101630002E1368C180912E1390912F138130910544
:1016400081F18830910509F45DC0892B09F05AC1F8
:10165000143209F473C08091301390913113A0912A
:101660003213B09133130196A11DB11D8093301335
:1016700090933113A0933213B093331380913013AE
:1016800090913113A0913213B0913313845C9C4E2E
:10169000FC01108381E090E090932F1380932E1330
:1016A00031C1143209F45FC080913013909131132D
:1016B000A0913213B09133130196A11DB11D8093F7
:1016C000301390933113A0933213B093331380915E
:1016D000301390913113A0913213B09133138536AA
:1016E0009105A105B10508F00DC1809130139091CD
:1016F0003113A0913213B0913313845C9C4EFC01E2
:10170000108300C1143209F0FDC010923013109202
:101710003113109232131092331380913013909141
:101720003113A0913213B0913313845C9C4EFC01B1
:10173000108310922F1310922E13E4C010923013C6
:101740001092311310923213109233138091301390
:1017500090913113A0913213B0913313845C9C4E5D
:10176000FC011083CFC08091301390913113A09170
:101770003213B09133130196A11DB11D8093301324
:1017800090933113A0933213B0933313809130139D
:1017900090913113A0913213B0913313845C9C4E1D
:1017A000FC01108246E050E06EE174E08CE393E1CE
:1017B0000E943A10892B09F043C06CE373E180EA80
:1017C00093E10E9433108091341390913513019668
:1017D000909335138093341380913A1390913B1377
:1017E000892B39F0E0913A13F0913B1385E294E0B4
:1017F000099580913A1390913B13892B39F0E09130
:101800003A13F0913B1380EA93E10995109230135B
:1018100010923113109232131092331380913013BF
:1018200090913113A0913213B0913313845C9C4E8C
:1018300024E2FC01208310922F1310922E1362C019
:1018400046E050E06EE374E08CE393E10E943A10CE
:10185000892B59F56CE373E184E094E10E94331025
:10186000809136139091371301969093371380939C
:10187000361380913A1390913B13892B39F0E09104
:101880003A13F0913B1385E494E0099580913A1363
:1018900090913B13892B09F4B9CFE0913A13F09161
:1018A0003B1384E094E10995B1CF46E050E06EE54A
:1018B00074E08CE393E10E943A10892B09F0A6CFE3
:1018C0006CE373E188E694E10E94331080913A134F
:1018D00090913B13892B39F0E0913A13F0913B132F
:1018E00084E694E0099580913A1390913B13892BFB
:1018F00009F48CCFE0913A13F0913B1388E694E120
:10190000099584CFDF91CF911F9108958F929F9277
:10191000AF92BF92CF92DF92EF92FF920F931F93FD
:10192000CF93DF937C012FE7C22E24E0D22E00EA72
:1019300013E19EEAA92E94E0B92E80EA882E84E075
:10194000982E672B09F44AC011C080913A139091E8
:101950003B13892B31F0E0913A13F0913B13C50111
:10196000099580E090E0892B09F089C0C09134137B
:10197000D091351380913A1390913B13892B31F01C
:10198000E0913A13F0913B13C601099580913A1307
:1019900090913B13892B31F0E0913A13F0913B1376
:1019A000C8010995B801C7010E9433108091341312
:1019B000909135138C179D0741F680913A139091C1
:1019C0003B13892B31F0E0913A13F0913B13C401A2
:1019D000099581E090E0892B49F251C0F894C091BB
:1019E0003413D0913513789480913A1390913B132E
:1019F000892B31F0E0913A13F0913B13C601099520
:101A000080913A1390913B13892B31F0E0913A1376
:101A1000F0913B13C8010995B801C7010E9433102A
:101A2000F89480913413909135138C179D0791F0A1
:101A300080913A1390913B13892BD9F0E0913A139E
:101A4000F0913B13C501099580E090E07894892BD3
:101A500029F215C080913A1390913B13892B61F0C4
:101A6000E0913A13F0913B13C401099581E090E0B5
:101A7000EDCF80E090E0EACF81E090E0E7CFDF912A
:101A8000CF911F910F91FF90EF90DF90CF90BF907B
:101A9000AF909F908F9008957093D7146093D61451
:101AA0005093D9144093D8149093D5148093D414A0
:101AB00008951F93CF93DF93182FEB018091D614D5
:101AC0009091D714892B29F0E091D614F091D71476
:101AD0000995209729F0D093CD14C093CC1451C10F
:101AE0002091CE143091CF142130310561F1223094
:101AF000310509F454C0232B09F043C11B3709F009
:101B000040C181E090E09093CF148093CE14109266
:101B1000D0141092D1141092D2141092D3141092A7
:101B2000CD141092CC1481E08093DA148091D014FB
:101B30009091D114A091D214B091D31486529B4E9F
:101B4000FC0111831EC11B3709F45CC01D3709F469
:101B500089C082E090E09093CF148093CE1480915E
:101B6000D0149091D114A091D214B091D3140196B5
:101B7000A11DB11D8093D0149093D114A093D214C1
:101B8000B093D3148091D0149091D114A091D21419
:101B9000B091D31486529B4EFC011183F2C01B37C7
:101BA00009F4AFCF1D3799F18091D0149091D114E1
:101BB000A091D214B091D3140196A11DB11D8093B0
:101BC000D0149093D114A093D214B093D3148091D5
:101BD000D0149091D114A091D214B091D314803626
:101BE0009105A105B10508F0CCC08091D014909169
:101BF000D114A091D214B091D31486529B4EFC0103
:101C00001183BFC03093CF142093CE1480CF809126
:101C1000D0149091D114A091D214B091D314019604
:101C2000A11DB11D8093D0149093D114A093D21410
:101C3000B093D3148091D0149091D114A091D21468
:101C4000B091D31486529B4EFC0111838091CC1429
:101C50009091CD14892B09F45EC01092CF1410928C
:101C6000CE148FC08091D0149091D114A091D21431
:101C7000B091D3140196A11DB11D8093D0149093FF
:101C8000D114A093D214B093D3148091D014909116
:101C9000D114A091D214B091D31486529B4EFC0162
:101CA00011838091CC149091CD14892BB1F6809141
:101CB000D0149091D114A091D214B091D314019664
:101CC000A11DB11D86529B4EFC0111824091D4147E
:101CD0005091D5143F932F938DB79EB78356904064
:101CE0000FB6F8949EBF0FBE8DBFEDB7FEB731960D
:101CF000AAEDB4E183E60D9001928150E1F7FA017B
:101D00000995EDB7FEB7EB59FF4F0FB6F894FEBF3C
:101D10000FBEEDBFA2CF8091D0149091D114A091AD
:101D2000D214B091D3140196A11DB11D86529B4EC1
:101D3000FC0111822091D4143091D51481E090E0FF
:101D40009F938F938DB79EB7835690400FB6F894AC
:101D50009EBF0FBE8DBFEDB7FEB73196AAEDB4E1C1
:101D600083E60D9001928150E1F7F9010995EDB7F5
:101D7000FEB7EB59FF4F0FB6F894FEBF0FBEEDBF95
:101D80006CCFDF91CF911F910895709346156093AA
:101D9000451550934815409347159093AD15809382
:101DA000AC150895482F6115710509F442C0709370
:101DB0003E1560933D158091451590914615892BF0
:101DC000B9F1E0914515F0914615099508958B37C5
:101DD000F1F18D3709F48DC0809141159091421534
:101DE000A0914315B09144150196A11DB11D80939A
:101DF000411590934215A0934315B09344158091DB
:101E0000411590914215A0914315B091441581362A
:101E10009105A105B10560F480914115909142159D
:101E2000A0914315B0914415875B9A4EFC01418304
:101E3000089520913F15309140152130310549F129
:101E40002230310521F2232B99F78B3789F781E076
:101E500090E09093401580933F1510924115109299
:101E60004215109243151092441510923E1510928F
:101E70003D1582E08093491580914115909142155E
:101E8000A0914315B0914415875B9A4EFC014183A4
:101E900008958B3749F18D3709F456C082E090E000
:101EA0009093401580933F15809141159091421574
:101EB000A0914315B09144150196A11DB11D8093C9
:101EC000411590934215A0934315B093441580910A
:101ED000411590914215A0914315B0914415875B2F
:101EE0009A4EFC01418308953093401520933F158D
:101EF000B4CF8091411590914215A0914315B091B6
:101F000044150196A11DB11D809341159093421572
:101F1000A0934315B09344158091411590914215BB
:101F2000A0914315B0914415875B9A4EFC01418303
:101F300080913D1590913E15892B09F45EC0109259
:101F4000401510923F1508958091411590914215CA
:101F5000A0914315B09144150196A11DB11D809328
:101F6000411590934215A0934315B0934415809169
:101F7000411590914215A0914315B0914415875B8E
:101F80009A4EFC01418380913D1590913E15892B1D
:101F9000B1F68091411590914215A0914315B091F1
:101FA00044150196A11DB11D875B9A4EFC0111825B
:101FB0004091AC155091AD153F932F938DB79EB7BF
:101FC000835690400FB6F8949EBF0FBE8DBFEDB7FD
:101FD000FEB73196A9E4B5E183E60D9001928150F8
:101FE000E1F7FA010995EDB7FEB7EB59FF4F0FB6D0
:101FF000F894FEBF0FBEEDBFA2CF80914115909126
:102000004215A0914315B09144150196A11DB11D33
:10201000875B9A4EFC0111822091AC153091AD1571
:1020200081E090E09F938F938DB79EB78356904049
:102030000FB6F8949EBF0FBE8DBFEDB7FEB73196B9
:10204000A9E4B5E183E60D9001928150E1F7F90131
:102050000995EDB7FEB7EB59FF4F0FB6F894FEBFE9
:102060000FBEEDBF6CCFFB01DC0101900D92002093
:10207000E1F70895FB01DC014150504030F08D91B3
:102080000190801919F40020B9F7881B990B089565
:10209000FB01DC014150504048F001900D920020BE
:1020A000C9F701C01D9241505040E0F70895A0E1EA
:1020B000B0E0EDE5F0E10C9490130F89188D86E007
:1020C0008E831C830B838FEF9FE798878F83AE01EE
:1020D000455E5F4F5A834983698D7A8DCE010396A1
:1020E0000E947C1029853A85020F131FF801108287
:1020F000E4E060960C94AC13A7E1B0E0E2E8F0E114
:102100000C9482138824992454012C017C8B6B8BB2
:102110003A01FC0117821682838181FD03C08FEF93
:102120009FEF7EC2CC24DD249E012F5F3F4F3F8B6B
:102130002E8B65C2C0FE48C2832D80538A30D8F4EE
:1021400030E3331641F48D85882329F4C3FC03C0A2
:10215000E0E0F1E073C08AE0FD85F802C0011124DF
:102160008053830D8D8787FF02C02FE72D87C3FC27
:1021700040C22D843EC2960128703070C3FE05C057
:102180008D85882311F491E09D87E7E6E3156CF1D6
:10219000F5E63F160CF068C083E5381609F489C0EF
:1021A0008315BCF09BE2391609F442C093154CF03C
:1021B000E0E23E1609F440C0F3E23F1609F0FCC12C
:1021C00043C02DE23216E9F13EE2331609F0F4C1C4
:1021D00040C083E6381609F44DC083150CF481C065
:1021E00098E5391609F0E8C120C0E0E73E1609F489
:1021F000A2C0E3155CF0FCE63F1689F12FE632162B
:1022000089F039E6331609F0D7C16BC085E7381677
:1022100009F499C098E7391641F0E3E73E1609F052
:10222000CBC130C0F8E0F88B8EC020E1288B8BC08A
:1022300080E190E0C82AD92AE0E2F0E0CE2ADF2A45
:10224000D8C120E830E00DC080E490E0C82AD92A47
:10225000D0C1E8E0F0E0CE2ADF2A1D86CAC124E022
:1022600030E0C22AD32AC5C13FE3832E2A9423E655
:10227000322E30C1F30180802A9422E030E0620ED9
:10228000731E28C1F301A081B1814D01232B49F0B8
:10229000FD856F2F772767FD7095CD010E9428136C
:1022A00018C0FD0101900020E9F73197EA1BE88B87
:1022B00011C0F301808191814C01232B41F0FD85F8
:1022C0006F2F772767FD70950E941D1302C00E9433
:1022D0001413888B22E030E0620E731E3889231AB3
:1022E000F9C0C2FE08C0F30180819181A281B3814F
:1022F00024E030E009C0F30180819181AA2797FD95
:10230000A095BA2F22E030E0620E731E4C015D01F1
:10231000B7FF0CC082E090E0C82AD92AB094A094FC
:1023200090948094811C911CA11CB11CEFEBFFEFD9
:10233000CE22DF2221C020E430E0C22AD32A98E74F
:10234000392E30E1388BC2FE08C0F30180819181C3
:10235000A281B38124E030E007C0F3018081918144
:10236000AA27BB2722E030E0620E731E4C015D01FC
:102370008FEC9FEFC822D92285017401FE013196AE
:10238000FF87EE87F8898F2E9924AA24BB24232D5A
:1023900021522D8BC801B701A50194010E94601341
:1023A0006A301CF03D89630F01C0605DEE85FF85DA
:1023B0006193FF87EE87C801B701A50194010E94D0
:1023C000601379018A01211531054105510511F785
:1023D0008824992454014E85FE894F1B842EC60102
:1023E00082739070892B09F02A94C6FE07C0288951
:1023F000203111F482E001C081E0281AC3FE12C02E
:102400008D85282F332727FD3095842F9927821714
:1024100093072CF0E7EFFFEFCE22DF2203C0FD850C
:10242000F41BFD87860108701070C3FE03C02D8564
:10243000221A01C0241AC60180789170892B31F0CC
:102440000AC0B20180E290E00E9433132A94822DE8
:102450008F5F1816B4F3C1FE04C0B2018DE290E0A4
:102460000BC0C4FE04C0B2018BE290E005C0C5FE03
:1024700005C0B20180E290E00E943313C6FE0FC097
:10248000B20180E390E00E9433133889303139F48F
:10249000B201832D992787FD90950E943313D0FCBC
:1024A00006C00AC0B20180E390E00E9433132A9470
:1024B000822D8F5F1816B4F3012B31F40BC0B201DB
:1024C00080E390E00E9433138D8581508D878F5F6C
:1024D0001816ACF3F601E078F070FA8BE98BC7FEC2
:1024E00006C00AC0B20180E290E00E9433132A9431
:1024F000822D8F5F1816B4F3F3E63F1641F4B20154
:10250000882D992787FD90950E94331345C023E7B6
:102510003216B1F464017401188909C0F701819180
:102520007F01B201992787FD90950E9433131150C6
:10253000A8F74601F8898F0E911C2FEF288B2CC02D
:1025400033E5331619F00E851F851FC06401840121
:10255000F88808C0F8018491B20199270E943313CA
:102560000F5F1F4FFA94FFEFFF16A1F7460128896E
:10257000820E911CF88B10C0F80182918F01B2017C
:10258000992787FD90950E9433132E893F89021762
:10259000130791F71F870E8789899A89892B31F450
:1025A00026C0B20180E290E00E9433132A94822D6B
:1025B0008F5F1816B4F31BC0B201832D992787FDD6
:1025C00090950E94331313C095E2391641F4EAE066
:1025D000E88B22241D8681E0C82ED12C0AC0B201CE
:1025E000832D992787FD90950E94331302C0CC2438
:1025F000DD242B893C892F5F3F4F3C8B2B8BF201D5
:10260000838183FF04C0EB89FC89349003C0EB898C
:10261000FC893080332009F08DCDF20186819781CD
:10262000E2E167960C949E13FC0105900020E9F707
:10263000809590958E0F9F1F0895FC010590615025
:1026400070400110D8F7809590958E0F9F1F0895C8
:10265000FC016150704001900110D8F78095909571
:102660008E0F9F1F08950F931F93CF93DF938C01BD
:10267000EB018B81992781FF1BC082FF0DC02E814A
:102680003F818C819D812817390764F4E881F981A5
:102690000193F983E88306C0E885F985802F0995C1
:1026A000892B31F48E819F8101969F838E8302C096
:1026B0000FEF1FEFC801DF91CF911F910F91089588
:1026C000A1E21A2EAA1BBB1BFD010DC0AA1FBB1F36
:1026D000EE1FFF1FA217B307E407F50720F0A21BA8
:1026E000B30BE40BF50B661F771F881F991F1A9415
:1026F00069F760957095809590959B01AC01BD013F
:10270000CF0108952F923F924F925F926F927F92E6
:102710008F929F92AF92BF92CF92DF92EF92FF92F1
:102720000F931F93CF93DF93CDB7DEB7CA1BDB0B9D
:102730000FB6F894DEBF0FBECDBF09942A88398842
:1027400048885F846E847D848C849B84AA84B98449
:10275000C884DF80EE80FD800C811B81AA81B98155
:10276000CE0FD11D0FB6F894DEBF0FBECDBFED0169
:042770000895FFCFFA
:102774000D0A73656E64696E672055425820726154
:102784007465206D736720746F2073657420746F93
:102794002034487A000D0A20504F5254423D257887
:1027A400000D0A696E697420000D0A676F74206D4C
:1027B4006573736167652066726F6D207370753D14
:1027C4002573000D0A73747265616D696E67206408
:1027D400617461207468726F7567682078626565DA
:1027E400206D73673D2573000D0A7B28000D0A20B8
:1027F4005B6C656E3D256420756E2073616E746933
:10280400697A6564206767613D25735D000D0A2060
:102814005B73616E7469697A6564206767613D25DD
:10282400735D003B0D0A000D0A205B6C656E3D254F
:102834006420756E2073616E7469697A65642076AC
:1028440074673D25735D000D0A205B73616E7469C6
:10285400697A6564207674673D25735D00297D007F
:10286400B56206080600FA000100010010965842FD
:10287400454520512069732066756C6C00584245AB
:1028840045205120697320656D707479005350554B
:10289400205120697320656D70747900706F7053D6
:1028A4007761726D4D73674275733A535441525454
:1028B400000D0A706F70205120697320656D70746B
:1028C40079000D0A207461696C5F6964783D256C38
:1028D400642C20686561645F69783D256C64000D33
:1028E4000A206F6C64207461696C206964783D25EA
:1028F4006C642C206E6577207461696C206964783F
:102904003D256C642C68656164206964783D256CA0
:1029140064000D0A64697363617264696E6720738D
:1029240074616C65206D6573736167652C207472C6
:10293400792025640070757368537761726D4D73E7
:10294400674275733A5354415254000D0A2050554E
:10295400534820512046554C4C000D0A206F6C649E
:102964002068656164206964783D256C642C206E60
:1029740065772068656164206964783D256C642C02
:10298400207461696C206964783D256C6400244777
:1029940050474741000D0A20474741206D65737336
:1029A40061676520636F6D706C6574653D002447D5
:1029B40050565447000D0A20565447206D657373D2
:1029C40061676520636F6D706C6574653D002450AC
:1029D4004D544B000D0A20504D544B2072657370BA
:1029E4006F6E736520636F6D706C6574653D000D6B
:1029F4000A20636F7079696E6720696E746F207244
:102A0400657475726E2062756666206D73673D002D
:102A14000D0A676F74206D657373616765000D0A35
:102A24002064697363617264696E67207374616C96
:0A2A340065206D657373616765002E
:00000001FF
