:100000000C9472000C948F000C948F000C948F0051
:100010000C948F000C948F000C948F000C948F0024
:100020000C948F000C948F000C948F000C948F0014
:100030000C948F000C948F000C948F000C948F0004
:100040000C948F000C948F000C948F000C948F00F4
:100050000C948F000C948F000C948F000C945B090F
:100060000C948F000C9467020C9416030C948F0070
:100070000C948F000C948F000C948F000C948F00C4
:100080000C948F000C948F000C948F000C948F00B4
:100090000C94A3020C948F000C948F000C948F008E
:1000A0000C948F000C948F000C948F000C948F0094
:1000B0000C948F000C948F000C948F000C948F0084
:1000C0000C948F000C948F000C948F000C948F0074
:1000D0000C948F000C948F000C942B020C94DF0274
:1000E0000C948F0011241FBECFEFD1E2DEBFCDBF35
:1000F00014E0A0E0B2E0E8ECF2E202C005900D925C
:10010000A833B107D9F712E1A8E3B4E001C01D920A
:10011000A63BB107E1F70E9443010C9463110C94D4
:100120000000089585B190E4892785B9089585B1C7
:10013000805885B9089580E090E008950895CF92A1
:10014000DF92EF92FF920F931F93CF93DF93CDB780
:10015000DEB7C456D4400FB6F894DEBF0FBECDBF95
:1001600080E092E00E94FC0380ED97E00E949C09F1
:1001700060E070E08E010F5F1F4FC8010E94FF0911
:100180001F930F939DE1C92E92E0D92EDF92CF925B
:1001900085E6E82EF12CEC0EFD1EFF92EF920E94F8
:1001A000F80DC7010E94FC0386E292E00E94FC0366
:1001B00084E392E00E944D0380ED97E00E949C0949
:1001C00060E070E0C8010E94FF091F930F93DF9267
:1001D000CF92FF92EF920E94F80DC7010E94FC039C
:1001E00084E492E00E94FC0382E592E00E944D03C9
:1001F00080ED97E00E949C0960E070E0C8010E94D9
:10020000FF091F930F93DF92CF92FF92EF920E940C
:10021000F80DC7010E94FC0382E692E00E94FC03F5
:1002200082E792E00E944D0380ED97E00E949C09D6
:1002300060E070E0C8010E94FF091F930F93DF92F6
:10024000CF92FF92EF920E94F80DC7010E94FC032B
:100250008DB79EB748960FB6F8949EBF0FBE8DBF60
:10026000CC59DB4F0FB6F894DEBF0FBECDBFDF9188
:10027000CF911F910F91FF90EF90DF90CF90089555
:100280000E94FC0308956F927F928F929F92AF928B
:10029000BF92CF92DF92EF92FF920F931F93CF9373
:1002A000DF93CDB7DEB7C55AD4400FB6F894DEBFA2
:1002B0000FBECDBF0CE216E026ED35E04FE05AE070
:1002C00068EE7CE08AEC9BE00E94C50385B199272B
:1002D0009F938F9380E892E09F938F9356EA852EA9
:1002E000912C8C0E9D1E9F928F920E94F80DC4013E
:1002F0000E94FC0341E950E060E070E08EE398E08A
:100300000E94BD0B60E070E080E090E00E94C509B3
:1003100041E950E060E070E08EE398E00E94C80C94
:100320008CE892E00E94FC0378940E949F008FEF7B
:1003300084B98DB79EB706960FB6F8949EBF0FBED0
:100340008DBF7E010894E11CF11C8E010E5F1F4FD2
:1003500042E4C42ED12CCC0EDD1E35E0A32EB12CF0
:10036000AC0EBD1E24EA622E22E0722E60E070E028
:10037000C7010E94820689818130B9F18230B1F7CC
:1003800044E050E064E972E0C8010E94EA0D892B64
:10039000C1F143E050E060EA72E0C8010E94EA0D5A
:1003A000892B21F70E94BB03892BE1F7BF92AF9203
:1003B0007F926F929F928F920E94F80D60E070E0A2
:1003C000C5010E94E6040E9467038DB79EB706969A
:1003D0000FB6F8949EBF0FBE8DBF60E070E0C701FE
:1003E0000E9482068981813049F60E94BB03892BD5
:1003F000E1F760E070E0C8010E9442040E949103AE
:10040000B5CF0E94BB03892BE1F789E992E00E94F6
:100410005A0360E070E0C6010E94400BC6010E94D2
:100420005A038BE992E00E945A0360E070E0C60133
:100430000E94CE09C6010E945A038DE992E00E94F3
:100440005A0394CF85B190E4892785B9089585B181
:10045000805885B908951F920F920FB60F921124FC
:100460002F933F934F935F936F937F938F939F93BC
:10047000AF93BF93EF93FF938091300184FF03C04C
:1004800061E070E00CC080913001682F772776958D
:100490006795769567957695679561707070E09130
:1004A0003C04F0913D04809136010995FF91EF9154
:1004B000BF91AF919F918F917F916F915F914F917C
:1004C0003F912F910F900FBE0F901F9018951F9284
:1004D0000F920FB60F9211242F933F934F935F9378
:1004E0006F937F938F939F93AF93BF93EF93FF93FC
:1004F0008091C00084FF03C061E070E00CC0809177
:10050000C000682F772776956795769567957695DD
:10051000679561707070E0913E04F0913F048091A6
:10052000C6000995FF91EF91BF91AF919F918F9177
:100530007F916F915F914F913F912F910F900FBEDF
:100540000F901F9018951F920F920FB60F921124C3
:100550002F933F934F935F936F937F938F939F93CB
:10056000AF93BF93EF93FF938091C80084FF03C0C4
:1005700061E070E00CC08091C800682F7727769505
:100580006795769567957695679561707070E0913F
:100590004004F09141048091CE000995FF91EF91C4
:1005A000BF91AF919F918F917F916F915F914F918B
:1005B0003F912F910F900FBE0F901F9018951F9293
:1005C0000F920FB60F9211242F933F934F935F9387
:1005D0006F937F938F939F93AF93BF93EF93FF930B
:1005E000E0914204F091430481E090E00995882372
:1005F00019F08093360109C0809131018F7D80937D
:1006000031011092390410923804FF91EF91BF919B
:10061000AF919F918F917F916F915F914F913F919A
:100620002F910F900FBE0F901F9018951F920F9251
:100630000FB60F9211242F933F934F935F936F93B5
:100640007F938F939F93AF93BF93EF93FF93E0912B
:100650004404F091450481E090E00995882319F065
:100660008093C60009C08091C1008F7D8093C10036
:1006700010923B0410923A04FF91EF91BF91AF9119
:100680009F918F917F916F915F914F913F912F91AA
:100690000F900FBE0F901F901895FC0107C080931C
:1006A000CE008091C80085FFFCCF319680818823E1
:1006B000B1F70895FC0107C08093C6008091C00087
:1006C00085FFFCCF319680818823B1F70895809112
:1006D000380490913904892B79F48091300185FF99
:1006E000FCCF8091310180628093310181E090E004
:1006F0009093390480933804089580913804909140
:100700003904892B69F0809131018F7D809331010B
:100710008091300185FFFCCF10923904109238048B
:10072000089580913A0490913B04892B79F480914B
:10073000C00085FFFCCF8091C10080628093C10022
:1007400081E090E090933B0480933A040895809177
:100750003A0490913B04892B69F08091C1008F7D10
:100760008093C1008091C00085FFFCCF10923B04B4
:1007700010923A04089580913A0490913B040895B0
:10078000809138049091390408950F931F93B8E92C
:10079000B0933101A6E0A0933201EBE0F0E0F093DA
:1007A0003501E093340190933D0480933C043093F1
:1007B000430420934204B093C100A093C200F0937D
:1007C000C500E093C40070933F0460933E0410930F
:1007D000450400934404B093C900A093CA00F09369
:1007E000CD00E093CC00509341044093400480E05E
:1007F00090E01F910F910895FC0120913A043091EF
:100800003B042115310531F080913A0490913B046D
:10081000892B29F58081882351F08093C60080912F
:10082000C00085FFFCCF319680818823B1F7232B50
:10083000A9F080913A0490913B04892B79F480913E
:10084000C00085FFFCCF8091C10080628093C10011
:1008500081E090E090933B0480933A040895809166
:10086000C1008F7D8093C1008091C00085FFFCCFC7
:1008700010923B0410923A04CDCF9093530480938E
:1008800052040895CF93DF93EC01CB016881662376
:1008900009F499C0892B91F444C0F901EC59FB4F3C
:1008A000608320935C0430935D0440935E04509316
:1008B0005F0421966881662309F485C020915C0459
:1008C00030915D0440915E0450915F042F5F3F4F73
:1008D0004F4F5F4F33704070507080916004909123
:1008E0006104A0916204B0916304281739074A0794
:1008F0005B0799F68091600490916104A091620475
:10090000B09163040196A11DB11D9370A070B070E9
:100910008093600490936104A0936204B093630495
:10092000BCCFF89420915C0430915D0440915E044A
:1009300050915F042F5F3F4F4F4F5F4F33704070B8
:1009400050708091600490916104A0916204B09114
:100950006304281739074A075B0791F0F901EC593E
:10096000FB4F608320935C0430935D0440935E04EE
:1009700050935F04789421966881662391F623C092
:100980008091600490916104A0916204B09163042D
:100990000196A11DB11D9370A070B070809360048A
:1009A00090936104A0936204B0936304F901EC593D
:1009B000FB4F608320935C0430935D0440935E049E
:1009C00050935F04D7CFDF91CF910895EF92FF92BC
:1009D0000F931F93CF93DF93EC012881222309F417
:1009E000DEC0672B91F46FC0F701EC59F74F2083FD
:1009F000E0925404F0925504009356041093570467
:100A000021962881222309F4CAC0E0905404F09072
:100A1000550400915604109157040894E11CF11CF0
:100A2000011D111D8FEF93E0A0E0B0E0E822F92254
:100A30000A231B238091580490915904A0915A04D1
:100A4000B0915B04E816F9060A071B0769F6809166
:100A5000520490915304892B69F080915204909133
:100A60005304892B39F0E0915204F091530489EC3E
:100A700092E009958091580490915904A0915A04EC
:100A8000B0915B040196A11DB11D9370A070B07070
:100A90008093580490935904A0935A04B0935B0434
:100AA0008881F701EC59F74F8083E0925404F0926B
:100AB000550400935604109357042196288122234D
:100AC00009F0A3CF6CC0F894E0905404F090550462
:100AD00000915604109157040894E11CF11C011D6B
:100AE000111D8FEF93E0A0E0B0E0E822F9220A2385
:100AF0001B238091580490915904A0915A04B091FD
:100B00005B04E816F9060A071B0791F0F701EC5998
:100B1000F74F2083E0925404F0925504009356045A
:100B200010935704789421962881222361F637C0C8
:100B30008091520490915304892B69F08091520462
:100B400090915304892B39F0E0915204F0915304B1
:100B500089EC92E009958091580490915904A091F4
:100B60005A04B0915B040196A11DB11D9370A07051
:100B7000B0708093580490935904A0935A04B09392
:100B80005B048881F701EC59F74F8083E0925404AD
:100B9000F09255040093560410935704C3CFDF918D
:100BA000CF911F910F91FF90EF900895CF93DF9316
:100BB000EC01892B09F4F8942091540430915504E8
:100BC00040915604509157048091580490915904D3
:100BD000A0915A04B0915B04281739074A075B07B4
:100BE000F9F08091580490915904A0915A04B09161
:100BF0005B040196A11DB11D9370A070B07080932D
:100C0000580490935904A0935A04B0935B048C59F0
:100C1000974FFC0180819927CD2BD9F4789419C086
:100C20008091520490915304892B81F08091520459
:100C300090915304892B51F0E0915204F0915304A8
:100C400088ED92E0099580E090E0E6CF80E090E0CA
:100C5000E3CFDF91CF910895CF93DF93EC01892B00
:100C600009F4F89420915C0430915D0440915E0495
:100C700050915F048091600490916104A09162049E
:100C8000B0916304281739074A075B07F9F0809190
:100C9000600490916104A0916204B0916304019694
:100CA000A11DB11D9370A070B070809360049093EB
:100CB0006104A0936204B09363048C599B4FFC01C0
:100CC00080819927CD2BD9F4789419C08091520452
:100CD00090915304892B81F0809152049091530498
:100CE000892B51F0E0915204F091530488EE92E088
:100CF000099580E090E0E6CF80E090E0E3CFDF91DF
:100D0000CF9108952F923F924F925F926F927F9270
:100D10008F929F92AF92BF92CF92DF92EF92FF920B
:100D20000F931F93CF93DF93CDB7DEB7C650D44058
:100D30000FB6F894DEBF0FBECDBF1C012B01809112
:100D4000520490915304892B69F080915204909140
:100D50005304892B39F0E0915204F091530487EF4A
:100D600092E00995CB5FDB4F19821882C550D440C1
:100D70004114510409F405C14091460450914704BF
:100D80006091480470914904CF5FDB4F48835983D9
:100D90006A837B83C150D440E0904A04F0904B04B6
:100DA00000914C0410914D0460904E0470904F04DB
:100DB000809050049090510480915204909153047B
:100DC000892B41F19F928F927F926F921F930F9385
:100DD000FF92EF928DE193E09F938F936E010894C1
:100DE000C11CD11CDF92CF920E94F80D8091520459
:100DF00090915304ADB7BEB71C960FB6F894BEBF22
:100E00000FBEADBF892B31F0E0915204F091530435
:100E1000C6010995E614F7040805190509F4D4C0BC
:100E20000894E11CF11C011D111D3FE0A32EB12C03
:100E3000C12CD12CAE20BF20C022D1220894E108C1
:100E4000F108010911098091520490915304892BF2
:100E500059F19F928F927F926F92DF92CF92BF92C1
:100E6000AF921F930F93FF92EF928AE393E09F93C9
:100E70008F938E010F5F1F4F1F930F930E94F80DEA
:100E80008091520490915304EDB7FEB770960FB65F
:100E9000F894FEBF0FBEEDBF892B31F0E0915204F4
:100EA000F0915304C8010995F5010024F695E795E2
:100EB0000794F695E7950794FE2FE02DEA0DFB1DAC
:100EC000D101EC59F34F81E401900D928150E1F78B
:100ED000D1012C91860175014114510409F4F89453
:100EE0008091460490914704A0914804B091490430
:100EF000CF5FDB4F488159816A817B81C150D440EB
:100F000084179507A607B70709F475C0CB5FDB4FB9
:100F100068817981C550D4406F5F7F4FCB5FDB4FD5
:100F200079836883C550D4408091520490915304D2
:100F3000892B11F17F936F938DE693E09F938F93AD
:100F40008E010F5F1F4F1F930F930E94F80D80912A
:100F50005204909153044DB75EB74A5F5F4F0FB68E
:100F6000F8945EBF0FBE4DBF892B31F0E091520463
:100F7000F0915304C80109954114510409F0F8CEC9
:100F80007894F894209146043091470440914804A5
:100F900050914904CF5FDB4F288339834A835B83B9
:100FA000C150D440E0904A04F0904B0400914C04AE
:100FB00010914D0460904E0470904F048090500446
:100FC000909051047894F8CE8091520490915304FB
:100FD000892B79F08091520490915304892B49F028
:100FE000E0915204F09153048CE093E0099520E0E5
:100FF00073CF20E071CFE0924A04F0924B0400934B
:101000004C0410934D0460924E0470924F048092F1
:101010005004909251048091460490914704A0910D
:101020004804B09149040196A11DB11D8093460466
:1010300090934704A0934804B0934904452809F4C9
:101040007894D1012C93C101CA5FDB4F0FB6F8949D
:10105000DEBF0FBECDBFDF91CF911F910F91FF90EB
:10106000EF90DF90CF90BF90AF909F908F907F9048
:101070006F905F904F903F902F900895AF92BF92E6
:10108000CF92DF92EF92FF920F931F93CF93DF9354
:10109000CDB7DEB7C050D4400FB6F894DEBF0FBE58
:1010A000CDBFFE01E25BFB4FA080B1808091520476
:1010B00090915304892B69F08091520490915304CC
:1010C000892B39F0E0915204F091530480E993E0C8
:1010D0000995A114B10409F4F894E0904E04F0903D
:1010E0004F0400915004109151040894E11CF11C2C
:1010F000011D111D8FE090E0A0E0B0E0E822F92290
:101100000A231B2380914A0490914B04A0914C0424
:10111000B0914D04E816F9060A071B0709F478C0D8
:101120008091520490915304892BE1F180914A04FB
:1011300090914B04A0914C04B0914D0420914E0429
:1011400030914F044091500450915104BF93AF939C
:101150009F938F931F930F93FF92EF925F934F9301
:101160003F932F9385EB93E09F938F936E010894A9
:10117000C11CD11CDF92CF920E94F80D80915204C5
:1011800090915304ADB7BEB750960FB6F894BEBF5A
:101190000FBEADBF892B31F0E0915204F0915304A2
:1011A000C6010995F7010024F695E7950794F69591
:1011B000E7950794FE2FE02DEE0DFF1DEC59F34F40
:1011C000DE01A35FBB4F81E40D9001928150E1F7F6
:1011D000E0924E04F0924F04009350041093510497
:1011E0008091460490914704A0914804B09149042D
:1011F0000196A11DB11D8093460490934704A093CE
:101200004804B0934904AB2809F043C0789441C026
:101210008091520490915304892B69F0809152047B
:1012200090915304892B39F0E0915204F0915304CA
:1012300086EA93E0099580914A0490914B04A0912D
:101240004C04B0914D040196A11DB11D8F7090709A
:10125000A070B07080934A0490934B04A0934C0408
:10126000B0934D04F7010024F695E7950794F695A1
:10127000E7950794FE2FE02DEE0DFF1DEC59F34F7F
:10128000DE01A35FBB4F81E40D9001928150E1F735
:101290009FCFC050DC4F0FB6F894DEBF0FBECDBF5E
:1012A000DF91CF911F910F91FF90EF90DF90CF9042
:1012B000BF90AF9008951F920F920FB60F92112416
:1012C0002F933F938F939F9386E086BD80917810F4
:1012D0009091791001969093791080937810809175
:1012E0007810909179100497F1F480917610909194
:1012F0007710019690937710809376102091761056
:1013000030917710809174109091751028173907DB
:1013100029F0109279101092781005C080916E001B
:101320008E7F80936E009F918F913F912F910F90B0
:101330000FBE0F901F90189520916E002E7F209366
:101340006E00109277101092761010927910109211
:101350007810909375108093741086E086BD85B5E3
:10136000826085BD80916E00816080936E002091C7
:101370007610309177108091741090917510281725
:101380003907A8F380E090E008959093851080934A
:101390008410709387106093861008950F931F93A5
:1013A000CF93DF93EC01672B89F0009182101091AD
:1013B000831060E571E1CE010E94E30D80918210FF
:1013C000909183100817190781F714C0F8940091C1
:1013D000821010918310789460E571E1CE010E9433
:1013E000E30DF894809182109091831078940817FF
:1013F000190761F7DF91CF911F910F91089564EB69
:1014000071E10E94E30D8091B411882339F0E4EB7F
:10141000F1E11082818131968823D9F70895282F30
:10142000672B69F188E090E090937B1080937A10AD
:101430008091841090918510892B01F1E0918410A6
:10144000F0918510099508952432C1F410927C1012
:1014500010927D1010927E1010927F1080917C105F
:1014600090917D10A0917E10B0917F1088579F4E73
:10147000FC01208310927B1010927A1008958091C5
:101480007A1090917B108130910571F1883091052F
:10149000D9F2892B99F7243209F457C080917C1036
:1014A00090917D10A0917E10B0917F100196A11DAA
:1014B000B11D80937C1090937D10A0937E10B0930B
:1014C0007F1080917C1090917D10A0917E10B09142
:1014D0007F1088579F4EFC01208381E090E090931D
:1014E0007B1080937A100895243209F443C08091D0
:1014F0007C1090917D10A0917E10B0917F1001968C
:10150000A11DB11D80937C1090937D10A0937E103F
:10151000B0937F1080917C1090917D10A0917E10EF
:10152000B0917F1085369105A105B10508F0A6CFD1
:1015300080917C1090917D10A0917E10B0917F10D1
:1015400088579F4EFC012083089510927C101092C2
:101550007D1010927E1010927F1080917C109091DF
:101560007D10A0917E10B0917F1088579F4EFC0196
:101570002083089580917C1090917D10A0917E1021
:10158000B0917F100196A11DB11D80937C109093A6
:101590007D10A0937E10B0937F1080917C1090916D
:1015A0007D10A0917E10B0917F1088579F4EFC0156
:1015B000108246E050E069EE73E088E890E10E9416
:1015C000EA0D892B49F568E870E18CEE90E10E9404
:1015D000E30D80918010909181100196909381107D
:1015E0008093801010927C1010927D1010927E10CB
:1015F00010927F1080917C1090917D10A0917E10B0
:10160000B0917F1088579F4E24E2FC0120831092F6
:101610007B1010927A10089546E050E060EF73E07E
:1016200088E890E10E94EA0D892B81F468E870E176
:1016300080E591E10E94E30D8091821090918310EA
:1016400001969093831080938210CCCF46E050E0B7
:1016500067EF73E088E890E10E94EA0D892B11F6AC
:1016600068E870E184EB91E10E94E30D80918210C3
:101670009091831001969093831080938210B2CF43
:101680000F931F93CF93DF938C01672BA9F112C0A7
:101690008091861090918710892B39F0E091861007
:1016A000F09187108BE094E0099580E090E0892B21
:1016B00009F05EC0C0918010D09181106CEE70E195
:1016C000C8010E94E30D80918010909181108C17C9
:1016D0009D07F1F68091861090918710892B39F043
:1016E000E0918610F09187108DEF93E0099581E0ED
:1016F00090E0892BF9F23CC0F894C0918010D09111
:10170000811078946CEE70E1C8010E94E30DF894AA
:1017100080918010909181108C179D0799F0809195
:10172000861090918710892BE9F0E0918610F09156
:1017300087108BE094E0099580E090E07894892B05
:10174000D9F216C08091861090918710892B69F08C
:10175000E0918610F09187108DEF93E0099581E07C
:1017600090E0ECCF80E090E0E9CF81E090E0E6CF40
:10177000DF91CF911F910F91089570932312609381
:101780002212509325124093241290932112809399
:1017900020120895282F6115710509F441C0709336
:1017A0001912609318128091221290912312892BA2
:1017B000B1F1E0912212F0912312099508952B378F
:1017C000E9F12D3709F484C080911C1290911D120B
:1017D000A0911E12B0911F120196A11DB11D809300
:1017E0001C1290931D12A0931E12B0931F12809191
:1017F0001C1290911D12A0911E12B0911F12CE9733
:10180000A105B10560F480911C1290911D12A09168
:101810001E12B0911F128A5D9D4EFC012183089516
:1018200080911A1290911B128130910549F18230FA
:10183000910529F2892B99F72B3789F781E090E000
:1018400090931B1280931A1210921C1210921D1268
:1018500010921E1210921F1210921912109218124A
:1018600081E08093261280911C1290911D12A0910C
:101870001E12B0911F128A5D9D4EFC0121830895B6
:101880002B37F1F282E090E090931B1280931A12B2
:1018900080911C1290911D12A0911E12B0911F12E6
:1018A0000196A11DB11D80931C1290931D12A0934F
:1018B0001E12B0931F1280911C1290911D12A091C4
:1018C0001E12B0911F128A5D9D4EFC012183089566
:1018D00080911C1290911D12A0911E12B0911F12A6
:1018E0000196A11DB11D80931C1290931D12A0930F
:1018F0001E12B0931F1280911C1290911D12A09184
:101900001E12B0911F128A5D9D4EFC0121838091B1
:10191000181290911912892B29F010921B12109213
:101920001A12089580911C1290911D12A0911E12FE
:10193000B0911F120196A11DB11D8A5D9D4EFC0143
:101940001182209120123091211281E090E09F932A
:101950008F938DB79EB7815490400FB6F8949EBF79
:101960000FBE8DBFEDB7FEB73196A6E2B2E181E4BE
:101970000D9001928150E1F7F9010995EDB7FEB79D
:10198000ED5BFF4F0FB6F894FEBF0FBEEDBFC5CFA6
:10199000CF92DF92EF92FF920F931F936C017B0126
:1019A0008A0187E294E0FA010995F0927012E092C0
:1019B0006F121093721200937112D092B512C092EE
:1019C000B4121F910F91FF90EF90DF90CF90089588
:1019D000282F6115710509F43FC070936812609358
:1019E000671280916F1290917012892BA1F1E09192
:1019F0006F12F091701209950895243209F484C091
:101A000080916B1290916C12A0916D12B0916E1238
:101A10000196A11DB11D80936B1290936C12A0933F
:101A20006D12B0936E1280916B1290916C12A09116
:101A30006D12B0916E12CF97A105B10560F480913F
:101A40006B1290916C12A0916D12B0916E128D5824
:101A50009D4EFC01218308958091691290916A1234
:101A60008130910549F18230910539F2892B99F73E
:101A7000243289F781E090E090936A128093691292
:101A800010926B1210926C1210926D1210926E12D4
:101A9000109268121092671282E080937312809104
:101AA0006B1290916C12A0916D12B0916E128D58C4
:101AB0009D4EFC01218308952432F1F282E090E0F2
:101AC00090936A128093691280916B1290916C12BC
:101AD000A0916D12B0916E120196A11DB11D80935F
:101AE0006B1290936C12A0936D12B0936E12809152
:101AF0006B1290916C12A0916D12B0916E128D5874
:101B00009D4EFC0121830895809167129091681287
:101B1000892B19F181E090E090936A128093691209
:101B200010926B1210926C1210926D1210926E1233
:101B3000109268121092671282E080937312809163
:101B40006B1290916C12A0916D12B0916E128D5823
:101B50009D4E24E2FC012183089580916B129091A7
:101B60006C12A0916D12B0916E120196A11DB11D63
:101B70008D589D4EFC0111822091B4123091B51206
:101B800081E090E09F938F938DB79EB781549040F2
:101B90000FB6F8949EBF0FBE8DBFEDB7FEB731965E
:101BA000A3E7B2E181E40D9001928150E1F7F901E0
:101BB0000995EDB7FEB7ED5BFF4F0FB6F894FEBF8A
:101BC0000FBEEDBFA7CFFB01DC0101900D920020FD
:101BD000E1F70895FB01DC014150504030F08D9158
:101BE0000190801919F40020B9F7881B990B08950A
:101BF0000F931F93CF93DF93CDB7DEB760970FB6E8
:101C0000F894DEBF0FBECDBF0F89188D86E08E839E
:101C10001C830B838FEF9FE798878F83AE01455E10
:101C20005F4F5A834983698D7A8DCE0103960E9456
:101C30002A0E29853A85020F131FF801108260963B
:101C40000FB6F894DEBF0FBECDBFDF91CF911F91CD
:101C50000F9108952F923F924F925F926F927F92D1
:101C60008F929F92AF92BF92CF92DF92EF92FF92AC
:101C70000F931F93CF93DF93CDB7DEB764970FB663
:101C8000F894DEBF0FBECDBFCC24DD2476011C014D
:101C90007C8B6B8B2A01FC0117821682838181FD6C
:101CA00003C08FEF9FEF88C2AA24BB2472C2A0FE9C
:101CB00057C28A8980538A30E8F4FA89F03341F4B4
:101CC0002D85222329F4A3FC03C080E091E06FC09E
:101CD0008AE0ED85E802C0011124FA89F80FF0537B
:101CE000FD87F7FF02C02FE72D87A3FC4CC23D857F
:101CF0003E8749C2C50188709070A3FE05C0ED857E
:101D0000EE2311F4F1E0FD872A89283624F52536E3
:101D10000CF05BC0233509F480C024358CF42B32E1
:101D2000C1F12C3234F42032C1F1233209F00DC25A
:101D30003CC03A893D32B1F13E3209F006C23AC0A8
:101D40008A89833609F449C084360CF081C088350D
:101D500009F0FBC11BC0EA89E03709F4A3C0E137F1
:101D600044F4EC3669F1EF3671F0E93609F0EDC173
:101D70006FC0FA89F53709F49DC0F83739F0F337A9
:101D800009F0E3C134C028E0298B94C030E1398BDD
:101D900091C080E190E0A82AB92AE0E2F0E0AE2A02
:101DA000BF2AF1C120E830E00DC080E490E0A82A0D
:101DB000B92AE9C1E8E0F0E0AE2ABF2A1D86E3C1F6
:101DC00024E030E0A22AB32ADEC14FE3C42E3E85D0
:101DD00031503E8783E68A8B44C1F201C080FE8584
:101DE000F150FE8722E030E0420E531E3AC1F2016C
:101DF000C080D180892B49F0FD856F2F772767FD43
:101E00007095C6010E94091119C0F60101900020C9
:101E1000E9F73197EC19E98B12C0F201C080D1804B
:101E2000892B49F0FD856F2F772767FD7095C601D7
:101E30000E94FE1003C0C6010E94F510898B22E0AB
:101E400030E0420E531E3E858989381B3E8709C10A
:101E5000A2FE08C0F20180819181A281B38124E0B9
:101E600030E009C0F20180819181AA2797FDA095F9
:101E7000BA2F22E030E0420E531E6C017D01B7FF05
:101E80000CC082E090E0A82AB92AF094E094D094A3
:101E9000C094C11CD11CE11CF11CEFEBFFEFAE2282
:101EA000BF2221C020E430E0A22AB32A38E73A8BCF
:101EB00080E1898BA2FE08C0F20180819181A2811C
:101EC000B38124E030E007C0F20180819181AA272C
:101ED000BB2722E030E0420E531E6C017D018FECE7
:101EE0009FEFA822B92287017601FE013196F88B77
:101EF000EF87F9896F2E772488249924C801B701C8
:101F0000A40193010E9441116A3024F02A89620FD2
:101F1000615201C0605DEF85F8896193F88BEF87AE
:101F2000C801B701A40193010E94411179018A01FE
:101F3000211531054105510509F7CC24DD24760131
:101F4000CE010196CF84C81AC50182739070892B87
:101F500019F0FE85F150FE87A6FE09C029892031BF
:101F600011F482E001C081E03E85381B3E8738E0F5
:101F7000832E912C8A209B20A3FE1BC08D85282FA9
:101F8000332727FD30958C2D99278217930754F01E
:101F9000E7EFFFEFAE22BF2228E0822E912C8A20AD
:101FA0009B2007C0FD85FC19FD872E852F1B2E87E2
:101FB00003C03E853C193E87C50180789170892B0E
:101FC00069F48E8506C0B10180E290E00E94141190
:101FD000812F182F11501816B4F31E87A1FE04C0CC
:101FE000B1018DE290E00BC0A4FE04C0B1018BE210
:101FF00090E005C0A5FE05C0B10180E290E00E941E
:102000001411A6FE10C0B10180E390E00E941411EB
:102010008989803141F4B101EA898E2F992787FDA2
:1020200090950E941411B0FE0DC08E8506C0B101BE
:1020300080E390E00E941411812F182F1150181680
:10204000B4F31E87892869F02D8506C0B10180E3AD
:1020500090E00E941411212F122F11501216B4F388
:102060001D8790E8692E712C6A207B20A7FC0DC08B
:102070008E8506C0B10180E290E00E941411812F8C
:10208000182F11501816B4F31E87FA89F33641F44D
:10209000B1018C2D992787FD90950E94141145C0A0
:1020A0002A892337B1F446015601198909C0F5017F
:1020B00081915F01B101992787FD90950E941411CC
:1020C0001150A8F76401F989CF0ED11C2FEF298B8D
:1020D0002CC03A89333519F00F8518891FC0460185
:1020E0008601B98808C0F8018491B10199270E943E
:1020F00014110F5F1F4FBA94FFEFBF16A1F76401D1
:102100002989C20ED11CF98B10C0F80182918F0170
:10211000B101992787FD90950E941411CE01019677
:102120000817190791F7188B0F876728B1F08E856C
:1021300006C0B10180E290E00E941411812F182F97
:1021400011501816B4F31E8708C0B101FA898F2FF9
:10215000992787FD90950E941411AA24BB2413C0CF
:102160002A89253241F43AE0398B1E861D8681E0AA
:10217000A82EB12C08C0B101EA898E2F992787FDBE
:1021800090950E9414112B893C892F5F3F4F3C8B07
:102190002B8BF101838183FF04C0EB89FC89F491CF
:1021A00003C0EB89FC89F081FA8B2A89222309F08C
:1021B0007ECDF1018681978164960FB6F894DEBFDB
:1021C0000FBECDBFDF91CF911F910F91FF90EF9088
:1021D000DF90CF90BF90AF909F908F907F906F9047
:1021E0005F904F903F902F900895FC010590002044
:1021F000E9F7809590958E0F9F1F0895FC0105903B
:10220000615070400110D8F7809590958E0F9F1FF8
:102210000895FC016150704001900110D8F780953D
:1022200090958E0F9F1F08950F931F93CF93DF9369
:102230008C01EB018B81992781FF1BC082FF0DC0B0
:102240002E813F818C819D812817390764F4E881B4
:10225000F9810193F983E88306C0E885F985802F29
:102260000995892B31F48E819F8101969F838E83FE
:1022700002C00FEF1FEFC801DF91CF911F910F91A7
:102280000895A1E21A2EAA1BBB1BFD010DC0AA1FB7
:10229000BB1FEE1FFF1FA217B307E407F50720F0CF
:1022A000A21BB30BE40BF50B661F771F881F991F4A
:1022B0001A9469F760957095809590959B01AC0193
:0822C000BD01CF010895FFCF1D
:1022C8000D0A52656164696E6720696E69742070D1
:1022D8006172616D7320696620616E79000D0A6113
:1022E800636B3D2573000D0A73656E64696E672024
:1022F8003331330024504D544B3331332C312A328F
:10230800450D0A000D0A73656E64696E67203330E7
:10231800310024504D544B3330312C322A32440D85
:102328000A000D0A73656E64696E672071756572BF
:10233800790024504D544B3430312A33370D0A007C
:102348000D0A20504F5254423D2578000D0A696EFF
:10235800697420002441672A0021003B003B2100CA
:10236800244173000D0A73747265616D696E67208C
:1023780064617461207468726F756768207862653B
:1023880065206D73673D25730058424545205120EF
:1023980069732066756C6C00584245452051206968
:1023A8007320656D707479005350552051206973FE
:1023B80020656D70747900706F70537761726D4D20
:1023C80073674275733A5354415254000D0A706F43
:1023D80070205120697320656D707479000D0A2092
:1023E8007461696C5F6964783D256C642C2068654C
:1023F80061645F69783D256C64000D0A206F6C6428
:10240800207461696C206964783D256C642C206EA9
:102418006577207461696C206964783D256C642C4B
:1024280068656164206964783D256C64000D0A6400
:10243800697363617264696E67207374616C652087
:102448006D6573736167652C20747279202564004B
:1024580070757368537761726D4D73674275733A1F
:102468005354415254000D0A2050555348205120CE
:1024780046554C4C000D0A206F6C642068656164F9
:10248800206964783D256C642C206E65772068652A
:102498006164206964783D256C642C207461696CE2
:1024A800206964783D256C64002447504747410003
:1024B8002447505654470024504D544B000D0A678A
:1024C8006F74206D657373616765000D0A20646918
:1024D8007363617264696E67207374616C65206DE3
:1024E800657373616765000D0A696E697453707569
:0824F8004D6F64756C65000076
:00000001FF
