:100000000C9472000C948F000C948F000C948F0051
:100010000C948F000C948F000C948F000C948F0024
:100020000C948F000C948F000C948F000C948F0014
:100030000C948F000C948F000C948F000C948F0004
:100040000C948F000C948F000C948F000C948F00F4
:100050000C948F000C948F000C948F000C94E50985
:100060000C948F000C94F1020C94A0030C948F005C
:100070000C948F000C948F000C948F000C948F00C4
:100080000C948F000C948F000C948F000C948F00B4
:100090000C942D030C948F000C948F000C948F0003
:1000A0000C948F000C948F000C948F000C948F0094
:1000B0000C948F000C948F000C948F000C948F0084
:1000C0000C948F000C948F000C948F000C948F0074
:1000D0000C948F000C948F000C94B5020C9469035F
:1000E0000C948F0011241FBECFEFD1E2DEBFCDBF35
:1000F00014E0A0E0B2E0EAE3F4E202C005900D9261
:10010000AE33B107D9F712E1AEE3B4E001C01D92FE
:10011000AE3BB107E1F70E9443010C941C120C9412
:100120000000089585B190E4892785B9089585B1C7
:10013000805885B9089580E090E008950895CF92A1
:10014000DF92EF92FF920F931F93CF93DF93CDB780
:10015000DEB7C456D4400FB6F894DEBF0FBECDBF95
:1001600080E092E00E94860480ED97E00E944F0AB2
:1001700060E070E08E010F5F1F4FC8010E94B20A5D
:100180001F930F939DE1C92E92E0D92EDF92CF925B
:1001900085E6E82EF12CEC0EFD1EFF92EF920E94F8
:1001A000B10EC7010E94860486E292E00E94860496
:1001B00084E392E00E94D70380ED97E00E944F0A0B
:1001C00060E070E0C8010E94B20A1F930F93DF92B3
:1001D000CF92FF92EF920E94B10EC7010E94860457
:1001E00084E492E00E94860482E592E00E94D703B4
:1001F00080ED97E00E944F0A60E070E0C8010E9425
:10020000B20A1F930F93DF92CF92FF92EF920E9458
:10021000B10EC7010E94860482E692E00E94860425
:1002200082E792E00E94D70380ED97E00E944F0A98
:1002300060E070E0C8010E94B20A1F930F93DF9242
:10024000CF92FF92EF920E94B10EC7010E948604E6
:100250008DB79EB748960FB6F8949EBF0FBE8DBF60
:10026000CC59DB4F0FB6F894DEBF0FBECDBFDF9188
:10027000CF911F910F91FF90EF90DF90CF90089555
:100280000E94860408952F923F924F925F926F9240
:100290007F928F929F92AF92BF92CF92DF92EF9216
:1002A000FF920F931F93CF93DF93CDB7DEB7C95063
:1002B000D5400FB6F894DEBF0FBECDBF06EB16E0FB
:1002C00020E636E042EC5AE062E97DE084E79CE01B
:1002D0000E944F0485B199279F938F9380E892E005
:1002E0009F938F937AE0272E71E0372E2C0E3D1EC0
:1002F0003F922F920E94B10EC1010E94860441E9F3
:1003000050E062E970E088EC98E00E94670C61E9D7
:1003100070E087E990E00E94780A41E950E060E0EF
:1003200070E088EC98E00E94720D8CE892E00E94E8
:10033000860478940E949F008FEF84B988EC90E047
:100340000E94310A8DB79EB706960FB6F8949EBFED
:100350000FBE8DBF5E010894A11CB11C62E0862E09
:10036000912C8C0E9D1E56EAE52EF12CEC0EFD1EF6
:1003700045E0442E512C4C0E5D1E34EA632E32E0D3
:10038000732E22E4C22ED12CCC0EDD1E60E070E074
:10039000C5010E940C078981813009F47EC082303A
:1003A00009F487C00E942C0A892B81F30E9445041E
:1003B000892BE1F760E070E089EC92E00E94CC04C8
:1003C00060E070E0C7010E94EA0BF7013196DF019F
:1003D0000D900020E9F71197AE1BBF0BF701EA0F54
:1003E000FB1F81818C3229F03196119782918C32DA
:1003F000E1F7119787010F5F1F4FAD01B801C601EB
:100400000E94A20E60E070E0C6010E94CC0460E091
:1004100070E08BE992E00E94CC040E941B0460E033
:1004200070E0C7010E94810AF80101900020E9F7FD
:100430009F0121503040201B310BD701A20FB31F69
:10044000FD0181818C3231F01196215030408E9126
:100450008C32D9F721503040B7016F5F7F4FA9012F
:10046000C6010E94A20E60E070E0C6010E94CC04AA
:1004700060E070E08CEC92E00E94CC040E941B04CF
:1004800088EC90E00E94310A60E070E0C5010E94B3
:100490000C078981813009F082CF0E944504892BA5
:1004A000E1F760E070E0C4010E94CC040E941B04EC
:1004B00079CF44E050E064E972E0C4010E94940EF8
:1004C000892B21F50E944504892BE1F789E992E007
:1004D0000E94E40360E070E0C7010E94EA0B87011C
:1004E0000F5F1F4FC8010E94E4038BE992E00E9456
:1004F000E40360E070E0C7010E94810AC8010E9425
:10050000E4038DE992E00E94E4034CCF43E050E025
:1005100060EA72E0C4010E94940E892B09F042CF78
:100520000E944504892BE1F75F924F927F926F9270
:100530003F922F920E94B10E60E070E0C2010E94D3
:1005400070050E94F103EDB7FEB736960FB6F8942A
:10055000FEBF0FBEEDBF26CF85B190E4892785B9D8
:10056000089585B1805885B908951F920F920FB6EE
:100570000F9211242F933F934F935F936F937F9329
:100580008F939F93AF93BF93EF93FF93809130012D
:1005900084FF03C061E070E00CC080913001682FDF
:1005A00077277695679576956795769567956170C7
:1005B0007070E0914204F0914304809136010995F6
:1005C000FF91EF91BF91AF919F918F917F916F912B
:1005D0005F914F913F912F910F900FBE0F901F9001
:1005E00018951F920F920FB60F9211242F933F93DD
:1005F0004F935F936F937F938F939F93AF93BF932B
:10060000EF93FF938091C00084FF03C061E070E02E
:100610000CC08091C000682F7727769567957695F6
:1006200067957695679561707070E0914404F091DC
:1006300045048091C6000995FF91EF91BF91AF915C
:100640009F918F917F916F915F914F913F912F91EA
:100650000F900FBE0F901F9018951F920F920FB61C
:100660000F9211242F933F934F935F936F937F9338
:100670008F939F93AF93BF93EF93FF938091C800A5
:1006800084FF03C061E070E00CC08091C800682F57
:1006900077277695679576956795769567956170D6
:1006A0007070E0914604F09147048091CE00099566
:1006B000FF91EF91BF91AF919F918F917F916F913A
:1006C0005F914F913F912F910F900FBE0F901F9010
:1006D00018951F920F920FB60F9211242F933F93EC
:1006E0004F935F936F937F938F939F93AF93BF933A
:1006F000EF93FF93E0914804F091490481E090E08A
:100700000995882319F08093360109C08091310141
:100710008F7D8093310110923F0410923E04FF912F
:10072000EF91BF91AF919F918F917F916F915F9169
:100730004F913F912F910F900FBE0F901F901895E2
:100740001F920F920FB60F9211242F933F934F9346
:100750005F936F937F938F939F93AF93BF93EF9329
:10076000FF93E0914A04F0914B0481E090E00995F9
:10077000882319F08093C60009C08091C1008F7D45
:100780008093C1001092410410924004FF91EF91B8
:10079000BF91AF919F918F917F916F915F914F9199
:1007A0003F912F910F900FBE0F901F901895FC0155
:1007B00007C08093CE008091C80085FFFCCF3196A2
:1007C00080818823B1F70895FC0107C08093C6009B
:1007D0008091C00085FFFCCF319680818823B1F7DE
:1007E000089580913E0490913F04892B79F4809183
:1007F000300185FFFCCF809131018062809331010F
:1008000081E090E090933F0480933E0408958091AE
:100810003E0490913F04892B69F0809131018F7DD6
:10082000809331018091300185FFFCCF10923F040D
:1008300010923E0408958091400490914104892BC8
:1008400079F48091C00085FFFCCF8091C100806267
:100850008093C10081E090E0909341048093400434
:1008600008958091400490914104892B69F0809112
:10087000C1008F7D8093C1008091C00085FFFCCFB7
:100880001092410410924004089580914004909188
:100890004104089580913E0490913F0408950F9380
:1008A0001F93B8E9B0933101A6E0A0933201EBE0C9
:1008B000F0E0F0933501E09334019093430480938A
:1008C00042043093490420934804B093C100A0939C
:1008D000C200F093C500E093C40070934504609398
:1008E000440410934B0400934A04B093C900A093AE
:1008F000CA00F093CD00E093CC005093470440939E
:10090000460480E090E01F910F910895FC01209132
:100910004004309141042115310531F080914004AB
:1009200090914104892B29F58081882351F080938F
:10093000C6008091C00085FFFCCF3196808188235E
:10094000B1F7232BA9F08091400490914104892BA9
:1009500079F48091C00085FFFCCF8091C100806256
:100960008093C10081E090E0909341048093400423
:1009700008958091C1008F7D8093C1008091C00057
:1009800085FFFCCF1092410410924004CDCF90938C
:100990005904809358040895CF93DF93EC01CB0161
:1009A0006881662309F499C0892B91F444C0F90148
:1009B000E659FB4F608320936204309363044093B5
:1009C00064045093650421966881662309F485C008
:1009D0002091620430916304409164045091650455
:1009E0002F5F3F4F4F4F5F4F33704070507080917B
:1009F000660490916704A0916804B0916904281777
:100A000039074A075B0799F680916604909167045D
:100A1000A0916804B09169040196A11DB11D937065
:100A2000A070B0708093660490936704A0936804EC
:100A3000B0936904BCCFF8942091620430916304B0
:100A400040916404509165042F5F3F4F4F4F5F4FBB
:100A50003370407050708091660490916704A0914B
:100A60006804B0916904281739074A075B0791F0B9
:100A7000F901E659FB4F60832093620430936304CD
:100A800040936404509365047894219668816623AA
:100A900091F623C08091660490916704A091680448
:100AA000B09169040196A11DB11D9370A070B07042
:100AB0008093660490936704A0936804B0936904DC
:100AC000F901E659FB4F608320936204309363047D
:100AD0004093640450936504D7CFDF91CF9108957C
:100AE000EF92FF920F931F93CF93DF93EC01288136
:100AF000222309F4DEC0672B91F46FC0F701E65999
:100B0000F74F2083E0925A04F0925B0400935C0458
:100B100010935D0421962881222309F4CAC0E09035
:100B20005A04F0905B0400915C0410915D040894F9
:100B3000E11CF11C011D111D8FEF93E0A0E0B0E05E
:100B4000E822F9220A231B2380915E0490915F041E
:100B5000A0916004B0916104E816F9060A071B072A
:100B600069F68091580490915904892B69F080911D
:100B7000580490915904892B39F0E0915804F09170
:100B800059048FEC92E0099580915E0490915F0486
:100B9000A0916004B09161040196A11DB11D9370F4
:100BA000A070B07080935E0490935F04A093600483
:100BB000B09361048881F701E659F74F8083E09292
:100BC0005A04F0925B0400935C0410935D04219638
:100BD0002881222309F0A3CF6CC0F894E0905A0436
:100BE000F0905B0400915C0410915D040894E11C9A
:100BF000F11C011D111D8FEF93E0A0E0B0E0E82291
:100C0000F9220A231B2380915E0490915F04A09136
:100C10006004B0916104E816F9060A071B0791F019
:100C2000F701E659F74F2083E0925A04F0925B04F3
:100C300000935C0410935D0478942196288122230C
:100C400061F637C08091580490915904892B69F05E
:100C50008091580490915904892B39F0E0915804FF
:100C6000F09159048FEC92E0099580915E04909187
:100C70005F04A0916004B09161040196A11DB11DB3
:100C80009370A070B07080935E0490935F04A09303
:100C90006004B09361048881F701E659F74F8083BF
:100CA000E0925A04F0925B0400935C0410935D049C
:100CB000C3CFDF91CF911F910F91FF90EF900895D7
:100CC000CF93DF93EC01892B09F4F89420915A0417
:100CD00030915B0440915C0450915D0480915E040E
:100CE00090915F04A0916004B091610428173907C6
:100CF0004A075B07F9F080915E0490915F04A09130
:100D00006004B09161040196A11DB11D9370A070A3
:100D1000B07080935E0490935F04A0936004B093DE
:100D200061048659974FFC0180819927CD2BD9F416
:100D3000789419C08091580490915904892B81F0BE
:100D40008091580490915904892B51F0E0915804F6
:100D5000F09159048EED92E0099580E090E0E6CFA5
:100D600080E090E0E3CFDF91CF910895CF93DF93C0
:100D7000EC01892B09F4F89420916204309163040A
:100D800040916404509165048091660490916704D9
:100D9000A0916804B0916904281739074A075B07D6
:100DA000F9F08091660490916704A0916804B09175
:100DB00069040196A11DB11D9370A070B07080935D
:100DC000660490936704A0936804B09369048659FD
:100DD0009B4FFC0180819927CD2BD9F4789419C0C1
:100DE0008091580490915904892B81F08091580486
:100DF00090915904892B51F0E0915804F0915904D5
:100E00008EEE92E0099580E090E0E6CF80E090E001
:100E1000E3CFDF91CF9108952F923F924F925F924F
:100E20006F927F928F929F92AF92BF92CF92DF92FA
:100E3000EF92FF920F931F93CF93DF93CDB7DEB75F
:100E4000C650D4400FB6F894DEBF0FBECDBF1C0114
:100E50002B018091580490915904892B69F080915D
:100E6000580490915904892B39F0E0915804F0917D
:100E700059048DEF92E00995CB5FDB4F1982188200
:100E8000C550D4404114510409F405C140914C04AB
:100E900050914D0460914E0470914F04CF5FDB4F31
:100EA000488359836A837B83C150D440E0905004C7
:100EB000F090510400915204109153046090540436
:100EC0007090550480905604909057048091580477
:100ED00090915904892B41F19F928F927F926F924A
:100EE0001F930F93FF92EF9283E293E09F938F9370
:100EF0006E010894C11CD11CDF92CF920E94B10EEA
:100F00008091580490915904ADB7BEB71C960FB6A6
:100F1000F894BEBF0FBEADBF892B31F0E0915804ED
:100F2000F0915904C6010995E614F704080519055E
:100F300009F4D4C00894E11CF11C011D111D3FE00F
:100F4000A32EB12CC12CD12CAE20BF20C022D12287
:100F50000894E108F1080109110980915804909161
:100F60005904892B59F19F928F927F926F92DF9251
:100F7000CF92BF92AF921F930F93FF92EF9280E4B4
:100F800093E09F938F938E010F5F1F4F1F930F93DB
:100F90000E94B10E8091580490915904EDB7FEB7AC
:100FA00070960FB6F894FEBF0FBEEDBF892B31F0DF
:100FB000E0915804F0915904C8010995F501002405
:100FC000F695E7950794F695E7950794FE2FE02DA3
:100FD000EA0DFB1DD101E659F34F81E401900D921A
:100FE0008150E1F7D1012C91860175014114510422
:100FF00009F4F89480914C0490914D04A0914E0412
:10100000B0914F04CF5FDB4F488159816A817B816A
:10101000C150D44084179507A607B70709F475C0D7
:10102000CB5FDB4F68817981C550D4406F5F7F4FC4
:10103000CB5FDB4F79836883C550D44080915804DF
:1010400090915904892B11F17F936F9383E793E07B
:101050009F938F938E010F5F1F4F1F930F930E94DB
:10106000B10E80915804909159044DB75EB74A5F14
:101070005F4F0FB6F8945EBF0FBE4DBF892B31F0A6
:10108000E0915804F0915904C801099541145104A4
:1010900009F0F8CE7894F89420914C0430914D04E6
:1010A00040914E0450914F04CF5FDB4F288339832A
:1010B0004A835B83C150D440E0905004F0905104C7
:1010C00000915204109153046090540470905504A0
:1010D00080905604909057047894F8CE80915804EC
:1010E00090915904892B79F080915804909159047A
:1010F000892B49F0E0915804F091590482E193E082
:10110000099520E073CF20E071CFE0925004F09277
:10111000510400935204109353046092540470924B
:101120005504809256049092570480914C049091FB
:101130004D04A0914E04B0914F040196A11DB11D24
:1011400080934C0490934D04A0934E04B0934F04AD
:10115000452809F47894D1012C93C101CA5FDB4F73
:101160000FB6F894DEBF0FBECDBFDF91CF911F91B8
:101170000F91FF90EF90DF90CF90BF90AF909F9036
:101180008F907F906F905F904F903F902F90089539
:10119000AF92BF92CF92DF92EF92FF920F931F9385
:1011A000CF93DF93CDB7DEB7C050D4400FB6F894DD
:1011B000DEBF0FBECDBFFE01E25BFB4FA080B18062
:1011C0008091580490915904892B69F080915804BA
:1011D00090915904892B39F0E0915804F091590409
:1011E00086E993E00995A114B10409F4F894E0901C
:1011F0005404F0905504009156041091570408943B
:10120000E11CF11C011D111D8FE090E0A0E0B0E099
:10121000E822F9220A231B23809150049091510463
:10122000A0915204B0915304E816F9060A071B076F
:1012300009F478C08091580490915904892BE1F108
:101240008091500490915104A0915204B0915304A4
:101250002091540430915504409156045091570404
:10126000BF93AF939F938F931F930F93FF92EF9230
:101270005F934F933F932F938BEB93E09F938F93C9
:101280006E010894C11CD11CDF92CF920E94B10E56
:101290008091580490915904ADB7BEB750960FB6DF
:1012A000F894BEBF0FBEADBF892B31F0E09158045A
:1012B000F0915904C6010995F7010024F695E795C8
:1012C0000794F695E7950794FE2FE02DEE0DFF1D90
:1012D000E659F34FDE01A35FBB4F81E40D9001920D
:1012E0008150E1F7E0925404F092550400935604C3
:1012F0001093570480914C0490914D04A0914E049A
:10130000B0914F040196A11DB11D80934C049093A0
:101310004D04A0934E04B0934F04AB2809F043C092
:10132000789441C08091580490915904892B69F0B8
:101330008091580490915904892B39F0E091580418
:10134000F09159048CEA93E00995809150049091B2
:101350005104A0915204B09153040196A11DB11DF6
:101360008F709070A070B07080935004909351046F
:10137000A0935204B0935304F7010024F695E79527
:101380000794F695E7950794FE2FE02DEE0DFF1DCF
:10139000E659F34FDE01A35FBB4F81E40D9001924C
:1013A0008150E1F79FCFC050DC4F0FB6F894DEBFFD
:1013B0000FBECDBFDF91CF911F910F91FF90EF90A6
:1013C000DF90CF90BF90AF9008951F920F920FB60D
:1013D0000F9211242F933F938F939F9386E086BDA6
:1013E00080917E1090917F10019690937F10809352
:1013F0007E1080917E1090917F10049721F580914E
:101400007C1090917D10019690937D1080937C10BC
:1014100020917C1030917D1080917A1090917B10FA
:101420002817390729F010927F1010927E100BC0F8
:1014300081E090E0909381108093801080916E0005
:101440008E7F80936E009F918F913F912F910F908F
:101450000FBE0F901F901895809180109091811071
:101460000895EEE6F0E020812E7F208310927D101B
:1014700010927C1010927F1010927E1090937B102F
:1014800080937A1086E086BD85B5826085BD109216
:101490008110109280108081816080830895209156
:1014A0006E002E7F20936E0010927D1010927C10A3
:1014B00010927F1010927E1090937B1080937A1080
:1014C00086E086BD85B5826085BD80916E008160B5
:1014D00080936E0020917C1030917D1080917A1065
:1014E00090917B1028173907A8F380E090E00895C9
:1014F00090938D1080938C1070938F1060938E104A
:1015000008950F931F93CF93DF93EC01672B89F01E
:1015100000918A1010918B1068E571E1CE010E9454
:101520008D0E80918A1090918B100817190781F702
:1015300014C0F89400918A1010918B10789468E58B
:1015400071E1CE010E948D0EF89480918A109091E5
:101550008B1078940817190761F7DF91CF911F91CD
:101560000F9108956CEB71E10E948D0E8091BC117A
:10157000882339F0ECEBF1E11082818131968823E8
:10158000D9F70895282F672B69F188E090E09093B0
:1015900083108093821080918C1090918D10892BF4
:1015A00001F1E0918C10F0918D100995089524328D
:1015B000C1F410928410109285101092861010922F
:1015C00087108091841090918510A0918610B09121
:1015D000871080579F4EFC01208310928310109239
:1015E000821008958091821090918310813091052E
:1015F00071F188309105D9F2892B99F7243209F4D9
:1016000057C08091841090918510A0918610B09160
:1016100087100196A11DB11D8093841090938510B1
:10162000A0938610B09387108091841090918510BC
:10163000A0918610B091871080579F4EFC012083A7
:1016400081E090E09093831080938210089524327B
:1016500009F443C08091841090918510A091861068
:10166000B09187100196A11DB11D809384109093B5
:101670008510A0938610B09387108091841090916C
:101680008510A0918610B091871085369105A1052F
:10169000B10508F0A6CF8091841090918510A0919B
:1016A0008610B091871080579F4EFC0120830895CB
:1016B000109284101092851010928610109287104C
:1016C0008091841090918510A0918610B091871020
:1016D00080579F4EFC012083089580918410909143
:1016E0008510A0918610B09187100196A11DB11DA3
:1016F0008093841090938510A0938610B0938710E8
:101700008091841090918510A0918610B0918710DF
:1017100080579F4EFC01108246E050E06FEE73E070
:1017200080E990E10E94940E892B49F560E970E10F
:1017300084EF90E10E948D0E809188109091891025
:1017400001969093891080938810109284101092C3
:1017500085101092861010928710809184109091BD
:101760008510A0918610B091871080579F4E24E27B
:10177000FC0120831092831010928210089546E09D
:1017800050E066EF73E080E990E10E94940E892BAF
:1017900081F460E970E188E591E10E948D0E80910D
:1017A0008A1090918B10019690938B1080938A10E1
:1017B000CCCF46E050E06DEF73E080E990E10E940D
:1017C000940E892B11F660E970E18CEB91E10E9497
:1017D0008D0EBBCF0F931F93CF93DF938C01672B9D
:1017E000A9F112C080918E1090918F10892B39F041
:1017F000E0918E10F0918F1081E194E0099580E0E6
:1018000090E0892B09F05EC0C0918810D0918910BA
:1018100064EF70E1C8010E948D0E80918810909154
:1018200089108C179D07F1F680918E1090918F1082
:10183000892B39F0E0918E10F0918F1083E094E0C5
:10184000099581E090E0892BF9F23CC0F894C091B1
:101850008810D0918910789464EF70E1C8010E94DB
:101860008D0EF89480918810909189108C179D07A7
:1018700099F080918E1090918F10892BE9F0E09172
:101880008E10F0918F1081E194E0099580E090E056
:101890007894892BD9F216C080918E1090918F1078
:1018A000892B69F0E0918E10F0918F1083E094E025
:1018B000099581E090E0ECCF80E090E0E9CF81E015
:1018C00090E0E6CFDF91CF911F910F910895709333
:1018D0002B1260932A1250932D1240932C12909346
:1018E0002912809328120895282F6115710509F493
:1018F00041C0709321126093201280912A1290911E
:101900002B12892BB1F1E0912A12F0912B1209953B
:1019100008952B37E9F12D3709F484C08091241202
:1019200090912512A0912612B09127120196A11D27
:10193000B11D8093241290932512A0932612B09388
:1019400027128091241290912512A0912612B09115
:101950002712CE97A105B10560F4809124129091D1
:101960002512A0912612B0912712825D9D4EFC0196
:101970002183089580912212909123128130910544
:1019800049F18230910529F2892B99F72B3789F794
:1019900081E090E0909323128093221210922412FF
:1019A00010922512109226121092271210922112D4
:1019B0001092201281E080932E1280912412909137
:1019C0002512A0912612B0912712825D9D4EFC0136
:1019D000218308952B37F1F282E090E09093231257
:1019E000809322128091241290912512A0912612A8
:1019F000B09127120196A11DB11D809324129093DE
:101A00002512A0932612B093271280912412909150
:101A10002512A0912612B0912712825D9D4EFC01E5
:101A2000218308958091241290912512A09126126D
:101A3000B09127120196A11DB11D8093241290939D
:101A40002512A0932612B093271280912412909110
:101A50002512A0912612B0912712825D9D4EFC01A5
:101A600021838091201290912112892B29F01092CC
:101A7000231210922212089580912412909125121F
:101A8000A0912612B09127120196A11DB11D825D71
:101A90009D4EFC011182209128123091291281E083
:101AA00090E09F938F938DB79EB7815490400FB66F
:101AB000F8949EBF0FBE8DBFEDB7FEB73196AEE274
:101AC000B2E181E40D9001928150E1F7F9010995AD
:101AD000EDB7FEB7ED5BFF4F0FB6F894FEBF0FBE3C
:101AE000EDBFC5CFCF92DF92EF92FF920F931F937E
:101AF0006C017B018A018DE294E0FA010995F09274
:101B00007812E092771210937A1200937912D092A1
:101B1000BD12C092BC121F910F91FF90EF90DF9009
:101B2000CF900895282F6115710509F43FC0709377
:101B3000701260936F128091771290917812892BB6
:101B4000A1F1E0917712F09178120995089524326D
:101B500009F484C08091731290917412A09175124F
:101B6000B09176120196A11DB11D809373129093CE
:101B70007412A0937512B0937612809173129091A3
:101B80007412A0917512B0917612CF97A105B1058C
:101B900060F48091731290917412A0917512B091BB
:101BA000761285589D4EFC01218308958091711213
:101BB000909172128130910549F18230910539F28C
:101BC000892B99F7243289F781E090E09093721283
:101BD00080937112109273121092741210927512F7
:101BE000109276121092701210926F1282E080930F
:101BF0007B128091731290917412A0917512B09122
:101C0000761285589D4EFC01218308952432F1F20D
:101C100082E090E09093721280937112809173121F
:101C200090917412A0917512B09176120196A11D37
:101C3000B11D8093731290937412A0937512B09398
:101C400076128091731290917412A0917512B091D6
:101C5000761285589D4EFC012183089580916F1264
:101C600090917012892B19F181E090E0909372129B
:101C70008093711210927312109274121092751256
:101C8000109276121092701210926F1282E080936E
:101C90007B128091731290917412A0917512B09181
:101CA000761285589D4E24E2FC012183089580918F
:101CB000731290917412A0917512B09176120196E0
:101CC000A11DB11D85589D4EFC0111822091BC12B1
:101CD0003091BD1281E090E09F938F938DB79EB7B6
:101CE000815490400FB6F8949EBF0FBE8DBFEDB7E4
:101CF000FEB73196ABE7B2E181E40D9001928150DD
:101D0000E1F7F9010995EDB7FEB7ED5BFF4F0FB6AF
:101D1000F894FEBF0FBEEDBFA7CFFB01DC01019021
:101D20000D920020E1F70895FB01DC014150504085
:101D300030F08D910190801919F40020B9F7881BBB
:101D4000990B0895FB01DC014150504048F001908F
:101D50000D920020C9F701C01D9241505040E0F79C
:101D600008950F931F93CF93DF93CDB7DEB760979E
:101D70000FB6F894DEBF0FBECDBF0F89188D86E079
:101D80008E831C830B838FEF9FE798878F83AE0131
:101D9000455E5F4F5A834983698D7A8DCE010396E4
:101DA0000E94E30E29853A85020F131FF801108265
:101DB00060960FB6F894DEBF0FBECDBFDF91CF9116
:101DC0001F910F9108952F923F924F925F926F92C1
:101DD0007F928F929F92AF92BF92CF92DF92EF92BB
:101DE000FF920F931F93CF93DF93CDB7DEB7649726
:101DF0000FB6F894DEBF0FBECDBFCC24DD24760134
:101E00001C017C8B6B8B2A01FC011782168283815B
:101E100081FD03C08FEF9FEF88C2AA24BB2472C24A
:101E2000A0FE57C28A8980538A30E8F4FA89F033D9
:101E300041F42D85222329F4A3FC03C080E091E026
:101E40006FC08AE0ED85E802C0011124FA89F80F1D
:101E5000F053FD87F7FF02C02FE72D87A3FC4CC28C
:101E60003D853E8749C2C50188709070A3FE05C0BC
:101E7000ED85EE2311F4F1E0FD872A89283624F55B
:101E800025360CF05BC0233509F480C024358CF472
:101E90002B32C1F12C3234F42032C1F1233209F05B
:101EA0000DC23CC03A893D32B1F13E3209F006C262
:101EB0003AC08A89833609F449C084360CF081C05F
:101EC000883509F0FBC11BC0EA89E03709F4A3C0DB
:101ED000E13744F4EC3669F1EF3671F0E93609F098
:101EE000EDC16FC0FA89F53709F49DC0F83739F0B4
:101EF000F33709F0E3C134C028E0298B94C030E106
:101F0000398B91C080E190E0A82AB92AE0E2F0E0A4
:101F1000AE2ABF2AF1C120E830E00DC080E490E095
:101F2000A82AB92AE9C1E8E0F0E0AE2ABF2A1D8656
:101F3000E3C124E030E0A22AB32ADEC14FE3C42E7D
:101F40003E8531503E8783E68A8B44C1F201C080D2
:101F5000FE85F150FE8722E030E0420E531E3AC16A
:101F6000F201C080D180892B49F0FD856F2F772742
:101F700067FD7095C6010E94C21119C0F60101905B
:101F80000020E9F73197EC19E98B12C0F201C0800B
:101F9000D180892B49F0FD856F2F772767FD7095DC
:101FA000C6010E94B71103C0C6010E94AE11898B01
:101FB00022E030E0420E531E3E858989381B3E8761
:101FC00009C1A2FE08C0F20180819181A281B38182
:101FD00024E030E009C0F20180819181AA2797FDB9
:101FE000A095BA2F22E030E0420E531E6C017D0115
:101FF000B7FF0CC082E090E0A82AB92AF094E094E0
:10200000D094C094C11CD11CE11CF11CEFEBFFEF7C
:10201000AE22BF2221C020E430E0A22AB32A38E752
:102020003A8B80E1898BA2FE08C0F2018081918108
:10203000A281B38124E030E007C0F2018081918168
:10204000AA27BB2722E030E0420E531E6C017D011F
:102050008FEC9FEFA822B92287017601FE0131960D
:10206000F88BEF87F9896F2E772488249924C8018B
:10207000B701A40193010E94FA116A3024F02A8961
:10208000620F615201C0605DEF85F8896193F88B42
:10209000EF87C801B701A40193010E94FA117901E9
:1020A0008A01211531054105510509F7CC24DD24AC
:1020B0007601CE010196CF84C81AC5018273907053
:1020C000892B19F0FE85F150FE87A6FE09C02989EB
:1020D000203111F482E001C081E03E85381B3E874B
:1020E00038E0832E912C8A209B20A3FE1BC08D8577
:1020F000282F332727FD30958C2D9927821793079A
:1021000054F0E7EFFFEFAE22BF2228E0822E912CA1
:102110008A209B2007C0FD85FC19FD872E852F1B7B
:102120002E8703C03E853C193E87C501807891709B
:10213000892B69F48E8506C0B10180E290E00E948F
:10214000CD11812F182F11501816B4F31E87A1FE40
:1021500004C0B1018DE290E00BC0A4FE04C0B10147
:102160008BE290E005C0A5FE05C0B10180E290E0E1
:102170000E94CD11A6FE10C0B10180E390E00E9444
:10218000CD118989803141F4B101EA898E2F9927D7
:1021900087FD90950E94CD11B0FE0DC08E8506C0C2
:1021A000B10180E390E00E94CD11812F182F1150D2
:1021B0001816B4F31E87892869F02D8506C0B10171
:1021C00080E390E00E94CD11212F122F11501216A2
:1021D000B4F31D8790E8692E712C6A207B20A7FC40
:1021E0000DC08E8506C0B10180E290E00E94CD1145
:1021F000812F182F11501816B4F31E87FA89F33661
:1022000041F4B1018C2D992787FD90950E94CD1145
:1022100045C02A892337B1F446015601198909C0FE
:10222000F50181915F01B101992787FD90950E9489
:10223000CD111150A8F76401F989CF0ED11C2FEFF1
:10224000298B2CC03A89333519F00F8518891FC0A6
:1022500046018601B98808C0F8018491B101992727
:102260000E94CD110F5F1F4FBA94FFEFBF16A1F769
:1022700064012989C20ED11CF98B10C0F80182912A
:102280008F01B101992787FD90950E94CD11CE0154
:1022900001960817190791F7188B0F876728B1F077
:1022A0008E8506C0B10180E290E00E94CD11812FA1
:1022B000182F11501816B4F31E8708C0B101FA89FF
:1022C0008F2F992787FD90950E94CD11AA24BB24BA
:1022D00013C02A89253241F43AE0398B1E861D86C7
:1022E00081E0A82EB12C08C0B101EA898E2F992770
:1022F00087FD90950E94CD112B893C892F5F3F4F20
:102300003C8B2B8BF101838183FF04C0EB89FC891B
:10231000F49103C0EB89FC89F081FA8B2A8922238E
:1023200009F07ECDF1018681978164960FB6F8940D
:10233000DEBF0FBECDBFDF91CF911F910F91FF90F8
:10234000EF90DF90CF90BF90AF909F908F907F9055
:102350006F905F904F903F902F900895FC010590F3
:102360000020E9F7809590958E0F9F1F0895FC013E
:102370000590615070400110D8F7809590958E0FB0
:102380009F1F0895FC016150704001900110D8F723
:10239000809590958E0F9F1F08950F931F93CF9355
:1023A000DF938C01EB018B81992781FF1BC082FF9A
:1023B0000DC02E813F818C819D812817390764F4DF
:1023C000E881F9810193F983E88306C0E885F985FE
:1023D000802F0995892B31F48E819F8101969F83EF
:1023E0008E8302C00FEF1FEFC801DF91CF911F91C5
:1023F0000F910895A1E21A2EAA1BBB1BFD010DC06F
:10240000AA1FBB1FEE1FFF1FA217B307E407F507A4
:1024100020F0A21BB30BE40BF50B661F771F881F80
:10242000991F1A9469F760957095809590959B0116
:0A243000AC01BD01CF010895FFCFFC
:10243A000D0A52656164696E6720696E697420705D
:10244A006172616D7320696620616E79000D0A619F
:10245A00636B3D2573000D0A73656E64696E6720B0
:10246A003331330024504D544B3331332C312A321B
:10247A00450D0A000D0A73656E64696E6720333074
:10248A00310024504D544B3330312C322A32440D12
:10249A000A000D0A73656E64696E6720717565724C
:1024AA00790024504D544B3430312A33370D0A0009
:1024BA000D0A20504F5254423D2578000D0A696E8C
:1024CA00697420002441672A0021003B003B210057
:1024DA00244173000D0A73747265616D696E672019
:1024EA0064617461207468726F75676820786265C8
:1024FA0065206D73673D2573007B2800297D005890
:10250A0042454520512069732066756C6C0058421B
:10251A004545205120697320656D707479005350C8
:10252A0055205120697320656D70747900706F7041
:10253A00537761726D4D73674275733A53544152C2
:10254A0054000D0A706F70205120697320656D70F8
:10255A007479000D0A207461696C5F6964783D259D
:10256A006C642C20686561645F69783D256C640041
:10257A000D0A206F6C64207461696C206964783D6F
:10258A00256C642C206E6577207461696C206964FF
:10259A00783D256C642C68656164206964783D2502
:1025AA006C64000D0A64697363617264696E672002
:1025BA007374616C65206D6573736167652C207433
:1025CA0072792025640070757368537761726D4D56
:1025DA0073674275733A5354415254000D0A20509E
:1025EA0055534820512046554C4C000D0A206F6C1B
:1025FA00642068656164206964783D256C642C20D8
:10260A006E65772068656164206964783D256C642D
:10261A002C207461696C206964783D256C640024FF
:10262A004750474741002447505654470024504DCD
:10263A00544B000D0A676F74206D6573736167658B
:10264A00000D0A2064697363617264696E6720739E
:10265A0074616C65206D657373616765000D0A6945
:0E266A006E69745370754D6F64756C65000079
:00000001FF
