:100000000C9472000C948F000C948F000C948F0051
:100010000C948F000C948F000C948F000C948F0024
:100020000C948F000C948F000C948F000C948F0014
:100030000C948F000C948F000C948F000C948F0004
:100040000C948F000C948F000C948F000C948F00F4
:100050000C948F000C948F000C948F000C94E30B85
:100060000C948F000C94AD040C945C050C948F00E0
:100070000C948F000C948F000C948F000C948F00C4
:100080000C948F000C948F000C948F000C948F00B4
:100090000C94E9040C948F000C948F000C948F0046
:1000A0000C948F000C948F000C948F000C948F0094
:1000B0000C948F000C948F000C948F000C948F0084
:1000C0000C948F000C948F000C948F000C948F0074
:1000D0000C948F000C948F000C9471040C942505E3
:1000E0000C948F0011241FBECFEFD1E2DEBFCDBF35
:1000F00015E0A0E0B2E0E4EFFAE202C005900D9254
:10010000A839B107D9F716E1A8E9B5E001C01D92F9
:10011000AC37B107E1F70E94E7000C9479150C9415
:100120000000089585B190E4892785B9089585B1C7
:10013000805885B9089580E090E008950895FC0105
:10014000DC010D900020E9F71197A81BB90B90E096
:1001500020E030E004C090812F5F3F4F31962A1796
:100160003B0731F021153105B1F380819827F4CF99
:10017000892F99270895CF93DF93CDB7DEB72E97B8
:100180000FB6F894DEBF0FBECDBF88EB9BE00E9498
:100190004D0C80E092E00E945806CE010196DC01F1
:1001A000EDEBF3E02EE001900D922150E1F76EE0CF
:1001B00070E00E94A0052E960FB6F894DEBF0FBE29
:1001C000CDBFDF91CF9108950E9458060895C6ECE7
:1001D000DCE1DEBFCDBF03E918E02DE338E047EDF9
:1001E0005CE062E970E184E29FE00E94210685B153
:1001F00099279F938F9387E192E09F938F935AE380
:10020000C52E51E0D52ECC0EDD1EDF92CF920E947E
:100210001712C6010E94580640E050E062E970E003
:100220008CEC9AE00E94170F60E070E087E990E0A4
:100230000E94760C40E050E060E070E08CEC9AE0C8
:100240000E94851083E292E00E945806789488EB21
:100250009BE00E944D0C80E092E00E945806CE0187
:100260000196FC01ADEBB3E02EE00D900192215020
:10027000E1F76EE070E00E94A0058FEF84B988EC92
:1002800090E00E942F0C8DB79EB706960FB6F8949B
:100290009EBF0FBE8DBF4FE0A42EB12CAC0EBD1E75
:1002A00030E1832E912C8C0E9D1E8E010E581F4F17
:1002B00026EDE22EF12CEC0EFD1E95EA492E92E081
:1002C000592E8FED282E82E0382E38010894611CBB
:1002D000711C60E070E0C5010E94E9088F858130E3
:1002E00009F481C0823009F4DCC00E942A0C892BF9
:1002F00081F30E941706892BE1F760E070E08AE63F
:1003000092E00E949E0660E070E0C8010E94510EDB
:100310001F930F93F80101900020E9F73197E01B3C
:10032000F10BFF93EF938FE692E09F938F93DF9211
:10033000CF920E941712F80101900020E9F731973F
:10034000E01BF10B8DB79EB708960FB6F8949EBFD1
:100350000FBE8DBFE730F10508F07AC060E070E0B5
:10036000C2010E949E060E94ED0560E070E0C80197
:100370000E94890C1F930F93F80101900020E9F768
:100380003197E01BF10BFF93EF9389EA92E09F9383
:100390008F93DF92CF920E941712F80101900020F4
:1003A000E9F73197E01BF10B8DB79EB708960FB6B2
:1003B000F8949EBF0FBE8DBFE730F10500F560E0F9
:1003C00070E0C1010E949E060E94ED0588EC90E05D
:1003D0000E942F0C60E070E0C5010E94E9088F8543
:1003E000813009F07FCF0E941706892BE1F760E08A
:1003F00070E0C4010E949E060E94ED0576CF3697FC
:10040000AF01B301C7010E940812F801019000205A
:10041000E9F73197E01BF10BEE0DFF1D36971082C7
:10042000FF92EF9289EC92E09F938F93DF92CF92AD
:100430000E94171260E070E0C7010E949E068DB70F
:100440009EB706960FB6F8949EBF0FBE8DBFB7CF6E
:100450003697AF01B301C7010E940812F80101905D
:100460000020E9F73197E01BF10BEE0DFF1D3697E9
:100470001082FF92EF928FE892E09F938F93DF922A
:10048000CF920E94171260E070E0C7010E949E06A2
:100490008DB79EB706960FB6F8949EBF0FBE8DBF60
:1004A0005DCF9F928F928BE292E09F938F93DF922A
:1004B000CF920E9417128DB79EB706960FB6F8948A
:1004C0009EBF0FBE8DBF88898B3709F00ECFF40118
:1004D00001900020E9F73197E819F909EA0DFB1DB1
:1004E00080818D3709F001CF0E941706892BE1F733
:1004F0009F928F9285E492E09F938F93DF92CF92A9
:100500000E94171260E070E0C4010E9442070E943E
:10051000C3058DB79EB706960FB6F8949EBF0FBE63
:100520008DBFE3CE8F929F92AF92BF92CF92DF9218
:10053000EF92FF920F931F93CF93DF93CDB7DEB768
:10054000C45AD4400FB6F894DEBF0FBECDBF82EEC2
:1005500092E00E94580680ED97E00E944D0CF1E475
:10056000CF2ED12CCC0EDD1E60E070E0C6010E94C3
:10057000C00CDF92CF92EFEF8E2EE2E09E2E9F9284
:100580008F9275EAE72EF12CEC0EFD1EFF92EF9292
:100590000E941712C7010E94580688E093E00E944B
:1005A000580640E0E0E0F0E021E030E08DB79EB793
:1005B00006960FB6F8949EBF0FBE8DBF06C0E95ECB
:1005C000FC4F4081F9012F5F3F4FC9010197B9F3FB
:1005D000E95EFC4F808148272932310598F3842F4A
:1005E00099279F938F9387E193E09F938F9361E483
:1005F000A62E63E0B62EBF92AF928E010F5F1F4F03
:100600001F930F930E9417128CE493E00E945806E8
:10061000C8010E945806C8010E94930580ED97E02A
:100620000E944D0C60E070E0C6010E94C00CDF9299
:10063000CF929F928F92FF92EF920E941712C70162
:100640000E94580683E593E00E94580640E0E0E0EF
:10065000F0E021E030E08DB79EB70E960FB6F8942B
:100660009EBF0FBE8DBF06C0EF59FC4F4081F90100
:100670002F5F3F4FC9010197B9F3EF59FC4F8081BC
:1006800048272930310598F3842F99279F938F931A
:1006900081E693E09F938F93BF92AF921F930F9346
:1006A0000E9417128CE493E00E945806C8010E9431
:1006B0005806C8010E94930580ED97E00E944D0CFA
:1006C00060E070E0C6010E94C00CDF92CF929F9262
:1006D0008F92FF92EF920E941712C7010E94580654
:1006E0008BE693E00E94580640E0E0E0F0E021E075
:1006F00030E08DB79EB70E960FB6F8949EBF0FBE32
:100700008DBF06C0E758FC4F4081F9012F5F3F4F76
:10071000C9010197B9F3E758FC4F80814827293078
:10072000310598F3842F99279F938F9389E793E05E
:100730009F938F93BF92AF921F930F930E941712B4
:100740008CE493E00E945806C8010E945806C80134
:100750000E94930580ED97E00E944D0C60E070E0F0
:10076000C6010E94C00CDF92CF929F928F92FF929F
:10077000EF920E941712C7010E94580683E893E087
:100780000E94580640E0E0E0F0E021E030E08DB764
:100790009EB70E960FB6F8949EBF0FBE8DBF06C0D3
:1007A000E856FC4F4081F9012F5F3F4FC901019787
:1007B000B9F3E856FC4F808148272730310598F37C
:1007C000842F99279F938F9388E993E09F938F932A
:1007D000BF92AF921F930F930E941712C8010E94FD
:1007E000930580ED97E00E944D0C60E070E0C6013B
:1007F0000E94C00CDF92CF929F928F92FF92EF9255
:100800000E941712C7010E94580680EA93E00E94D6
:10081000580640E0E0E0F0E021E030E08DB79EB720
:100820000E960FB6F8949EBF0FBE8DBF06C0EB5458
:10083000FC4F4081F9012F5F3F4FC9010197B9F388
:10084000EB54FC4F808148272730310598F3842FE3
:1008500099279F938F9385EB93E09F938F93BF92FC
:10086000AF921F930F930E941712C8010E94930525
:1008700080ED97E00E944D0C60E070E0C6010E94A0
:10088000C00CDF92CF929F928F92FF92EF920E94C4
:100890001712C7010E9458068DB79EB70E960FB665
:1008A000F8949EBF0FBE8DBFCC55DB4F0FB6F894AA
:1008B000DEBF0FBECDBFDF91CF911F910F91FF9093
:1008C000EF90DF90CF90BF90AF909F908F90089562
:1008D00085B190E4892785B9089585B1805885B997
:1008E00008951F920F920FB60F9211242F933F93EA
:1008F0004F935F936F937F938F939F93AF93BF9328
:10090000EF93FF938091300184FF03C061E070E0BA
:100910000CC080913001682F772776956795769582
:1009200067957695679561707070E0919C05F09180
:100930009D05809136010995FF91EF91BF91AF918F
:100940009F918F917F916F915F914F913F912F91E7
:100950000F900FBE0F901F9018951F920F920FB619
:100960000F9211242F933F934F935F936F937F9335
:100970008F939F93AF93BF93EF93FF938091C000AA
:1009800084FF03C061E070E00CC08091C000682F5C
:1009900077277695679576956795769567956170D3
:1009A0007070E0919E05F0919F058091C6000995B9
:1009B000FF91EF91BF91AF919F918F917F916F9137
:1009C0005F914F913F912F910F900FBE0F901F900D
:1009D00018951F920F920FB60F9211242F933F93E9
:1009E0004F935F936F937F938F939F93AF93BF9337
:1009F000EF93FF938091C80084FF03C061E070E033
:100A00000CC08091C800682F7727769567957695FA
:100A100067957695679561707070E091A005F0918B
:100A2000A1058091CE000995FF91EF91BF91AF9103
:100A30009F918F917F916F915F914F913F912F91F6
:100A40000F900FBE0F901F9018951F920F920FB628
:100A50000F9211242F933F934F935F936F937F9344
:100A60008F939F93AF93BF93EF93FF93E091A20572
:100A7000F091A30581E090E00995882319F0809317
:100A8000360109C0809131018F7D80933101109230
:100A9000990510929805FF91EF91BF91AF919F91A9
:100AA0008F917F916F915F914F913F912F910F9017
:100AB0000FBE0F901F9018951F920F920FB60F92B6
:100AC00011242F933F934F935F936F937F938F9353
:100AD0009F93AF93BF93EF93FF93E091A405F091A1
:100AE000A50581E090E00995882319F08093C60060
:100AF00009C08091C1008F7D8093C10010929B0539
:100B000010929A05FF91EF91BF91AF919F918F91B4
:100B10007F916F915F914F913F912F910F900FBEF9
:100B20000F901F901895FC0107C08093CE00809114
:100B3000C80085FFFCCF319680818823B1F70895E6
:100B4000AC01161617068CF420E030E0F901E40F32
:100B5000F51F80818093CE008091C80085FFFCCF77
:100B60002F5F3F4F2617370789F70895FC0107C00D
:100B70008093C6008091C00085FFFCCF31968081B4
:100B80008823B1F708958091980590919905892B54
:100B900079F48091300185FFFCCF80913101806232
:100BA0008093310181E090E09093990580939805BE
:100BB00008958091980590919905892B69F080910D
:100BC00031018F7D809331018091300185FFFCCF11
:100BD0001092990510929805089580919A05909128
:100BE0009B05892B79F48091C00085FFFCCF809113
:100BF000C10080628093C10081E090E090939B05EA
:100C000080939A05089580919A0590919B05892B70
:100C100069F08091C1008F7D8093C1008091C000F8
:100C200085FFFCCF10929B0510929A050895809144
:100C30009A0590919B05089580919805909199054A
:100C400008950F931F93B8E9B0933101A6E0A093E4
:100C50003201EBE0F0E0F0933501E0933401909342
:100C60009D0580939C053093A3052093A205B09326
:100C7000C100A093C200F093C500E093C40070933C
:100C80009F0560939E051093A5050093A405B0935E
:100C9000C900A093CA00F093CD00E093CC0050931C
:100CA000A1054093A00580E090E01F910F91089569
:100CB000FC0120919A0530919B052115310531F0F9
:100CC00080919A0590919B05892B29F58081882335
:100CD00051F08093C6008091C00085FFFCCF319613
:100CE00080818823B1F7232BA9F080919A059091F8
:100CF0009B05892B79F48091C00085FFFCCF809102
:100D0000C10080628093C10081E090E090939B05D8
:100D100080939A0508958091C1008F7D8093C100D2
:100D20008091C00085FFFCCF10929B0510929A0520
:100D3000CDCF9093B3058093B2050895CF93DF9301
:100D4000EC01CB016881662309F499C0892B91F4E9
:100D500044C0F901EC53FA4F60832093BC053093F3
:100D6000BD054093BE055093BF052196688166235B
:100D700009F485C02091BC053091BD054091BE05A8
:100D80005091BF052F5F3F4F4F4F5F4F3370407003
:100D900050708091C0059091C105A091C205B0919D
:100DA000C305281739074A075B0799F68091C005E4
:100DB0009091C105A091C205B091C3050196A11DF6
:100DC000B11D9370A070B0708093C0059093C10561
:100DD000A093C205B093C305BCCFF8942091BC0585
:100DE0003091BD054091BE055091BF052F5F3F4F2B
:100DF0004F4F5F4F3370407050708091C00590919D
:100E0000C105A091C205B091C305281739074A074B
:100E10005B0791F0F901EC53FA4F60832093BC0516
:100E20003093BD054093BE055093BF05789421963D
:100E30006881662391F623C08091C0059091C10519
:100E4000A091C205B091C3050196A11DB11D93707B
:100E5000A070B0708093C0059093C105A093C205A7
:100E6000B093C305F901EC53FA4F60832093BC059E
:100E70003093BD054093BE055093BF05D7CFDF919A
:100E8000CF910895CF92DF92EF92FF920F931F932D
:100E9000CF93DF93EC012881222309F4E5C0672B6F
:100EA00009F473C09BECC92E93E0D92E11C0F70151
:100EB000EC53F64F2083E092B405F092B505009311
:100EC000B6051093B70521962881222309F4CCC0DA
:100ED000E090B405F090B5050091B6051091B70506
:100EE0000894E11CF11C011D111D8FEF93E0A0E09F
:100EF000B0E0E822F9220A231B238091B8059091E3
:100F0000B905A091BA05B091BB05E816F9060A0724
:100F10001B0769F68091B2059091B305892B61F0AA
:100F20008091B2059091B305892B31F0E091B20523
:100F3000F091B305C60109958091B8059091B90566
:100F4000A091BA05B091BB050196A11DB11D93708A
:100F5000A070B0708093B8059093B905A093BA05BE
:100F6000B093BB058881F701EC53F64F8083E09284
:100F7000B405F092B5050093B6051093B705219618
:100F80002881222309F0A4CF6FC08BECC82E83E008
:100F9000D82EF894E090B405F090B5050091B60510
:100FA0001091B7050894E11CF11C011D111D8FEF74
:100FB00093E0A0E0B0E0E822F9220A231B2380910D
:100FC000B8059091B905A091BA05B091BB05E81696
:100FD000F9060A071B0791F0F701EC53F64F20833F
:100FE000E092B405F092B5050093B6051093B705ED
:100FF000789421962881222361F636C08091B2052B
:101000009091B305892B61F08091B2059091B30561
:10101000892B31F0E091B205F091B305C601099535
:101020008091B8059091B905A091BA05B091BB0522
:101030000196A11DB11D9370A070B0708093B8058A
:101040009093B905A093BA05B093BB058881F701C9
:10105000EC53F64F8083E092B405F092B50500930F
:10106000B6051093B705C4CFDF91CF911F910F91B3
:10107000FF90EF90DF90CF900895CF93DF93EC0136
:10108000892B09F4F8942091B4053091B50540916D
:10109000B6055091B7058091B8059091B905A0911A
:1010A000BA05B091BB05281739074A075B07F9F065
:1010B0008091B8059091B905A091BA05B091BB0592
:1010C0000196A11DB11D9370A070B0708093B805FA
:1010D0009093B905A093BA05B093BB058C53964F76
:1010E000FC0180819927CD2BD9F4789419C0809187
:1010F000B2059091B305892B81F08091B205909152
:10110000B305892B51F0E091B205F091B3058AED5A
:1011100093E0099580E090E0E6CF80E090E0E3CFB7
:10112000DF91CF910895CF93DF93EC01892B09F4E0
:10113000F8942091BC053091BD054091BE055091B9
:10114000BF058091C0059091C105A091C205B091E5
:10115000C305281739074A075B07F9F08091C005D6
:101160009091C105A091C205B091C3050196A11D42
:10117000B11D9370A070B0708093C0059093C105AD
:10118000A093C205B093C3058C539A4FFC01808194
:101190009927CD2BD9F4789419C08091B2059091FC
:1011A000B305892B81F08091B2059091B305892B0D
:1011B00051F0E091B205F091B3058AEE93E0099504
:1011C00080E090E0E6CF80E090E0E3CFDF91CF9148
:1011D00008952F923F924F925F926F927F928F92DB
:1011E0009F92AF92BF92CF92DF92EF92FF920F93B6
:1011F0001F93CF93DF93CDB7DEB7C956D4400FB658
:10120000F894DEBF0FBECDBFCA59DB4F99838883E8
:10121000C656D440C859DB4F79836883C856D4403A
:101220008091B2059091B305892B69F08091B20548
:101230009091B305892B39F0E091B205F091B30597
:1012400089EF93E00995CC59DB4F19821882C45677
:10125000D440C859DB4F28813981C856D440232B4C
:1012600009F0B7C0F8942090A6053090A7054090EB
:10127000A8055090A905E090AA05F090AB05009153
:10128000AC051091AD056090AE057090AF058090F3
:10129000B0059090B10578948091B2059091B30516
:1012A000892B51F19F928F927F926F921F930F9390
:1012B000FF92EF92EFE1F4E0FF93EF9324E630E04A
:1012C0002C0F3D1F3F932F930E9417128091B20560
:1012D0009091B305EDB7FEB73C960FB6F894FEBFFC
:1012E0000FBEEDBF892B41F0E091B205F091B3053F
:1012F000CE018C599F4F09956E147F04800691068C
:1013000009F480C00894E11CF11C011D111D2FE09F
:10131000A22EB12CC12CD12CAE20BF20C022D122B4
:101320000894E108F108010911098091B205909132
:10133000B305892B71F19F928F927F926F92DF920A
:10134000CF92BF92AF921F930F93FF92EF922CE335
:1013500034E03F932F9384E690E08C0F9D1F9F9382
:101360008F930E9417128091B2059091B305EDB74B
:10137000FEB770960FB6F894FEBF0FBEEDBF892B77
:1013800041F0E091B205F091B305CE018C599F4F29
:10139000099583E690E0A89EF001A99EF00DB89E05
:1013A000F00D1124CA59DB4FA881B981C656D4402B
:1013B000EC53F24F83E601900D928150E1F7CA5948
:1013C000DB4FE881F981C656D4406081A6019501C2
:1013D00031C02090A6053090A7054090A8055090F8
:1013E000A905E090AA05F090AB050091AC0510911D
:1013F000AD056090AE057090AF058090B0059090FF
:10140000B1054ACF8091B2059091B305892B09F4BB
:101410006CC08091B2059091B305892B09F465C029
:10142000E091B205F091B3058EE094E00995A80132
:10143000970160E0C859DB4F88819981C856D44034
:10144000892B09F4F8948091A6059091A705A091A5
:10145000A805B091A90582159305A405B50509F461
:1014600048C0CC59DB4F28813981C456D4402F5F06
:101470003F4FCC59DB4F39832883C456D4408091E9
:10148000B2059091B305892B29F13F932F938FE6F5
:1014900094E09F938F93E4E6F0E0EC0FFD1FFF9341
:1014A000EF930E9417128091B2059091B3052DB76A
:1014B0003EB72A5F3F4F0FB6F8943EBF0FBE2DBF19
:1014C000892B41F0E091B205F091B305CE018C5922
:1014D0009F4F0995C859DB4F88819981C856D440E0
:1014E000892B09F0B6CE7894BDCEA401930160E0BB
:1014F000A1CF2093AA053093AB054093AC05509340
:10150000AD056092AE057092AF058092B0059092E5
:10151000B1058091A6059091A705A091A805B0916D
:10152000A9050196A11DB11D8093A6059093A7055D
:10153000A093A805B093A905C859DB4FE881F981AC
:10154000C856D440EF2B09F47894CA59DB4FE88190
:10155000F981C656D4406083CA59DB4F888199818E
:10156000C656D440C759DB4F0FB6F894DEBF0FBE46
:10157000CDBFDF91CF911F910F91FF90EF90DF9042
:10158000CF90BF90AF909F908F907F906F905F9023
:101590004F903F902F900895AF92BF92CF92DF92DD
:1015A000EF92FF920F931F93CF93DF93CDB7DEB7E8
:1015B000C050D4400FB6F894DEBF0FBECDBFFE01C1
:1015C000E059FB4FA080B1808091B2059091B305A6
:1015D000892B69F08091B2059091B305892B39F080
:1015E000E091B205F091B30582E994E00995A11468
:1015F000B10409F4F894E090AE05F090AF050091C5
:10160000B0051091B1050894E11CF11C011D111DDC
:101610008FE090E0A0E0B0E0E822F9220A231B234B
:101620008091AA059091AB05A091AC05B091AD0554
:10163000E816F9060A071B0709F475C08091B20580
:101640009091B305892BE1F18091AA059091AB05AA
:10165000A091AC05B091AD052091AE053091AF05DC
:101660004091B0055091B105BF93AF939F938F9375
:101670001F930F93FF92EF925F934F933F932F939C
:1016800087EB94E09F938F936E010894C11CD11C4B
:10169000DF92CF920E9417128091B2059091B3050C
:1016A000ADB7BEB750960FB6F894BEBF0FBEADBF74
:1016B000892B31F0E091B205F091B305C60109958F
:1016C00083E690E0E89EF001E99EF00DF89EF00DB3
:1016D0001124EC53F24FDE01A35FBB4F83E60D9064
:1016E00001928150E1F7E092AE05F092AF050093D0
:1016F000B0051093B1058091A6059091A705A09122
:10170000A805B091A9050196A11DB11D8093A6055C
:101710009093A705A093A805B093A905AB2809F05D
:1017200040C078943EC08091B2059091B305892B5A
:1017300069F08091B2059091B305892B39F0E09161
:10174000B205F091B30588EA94E009958091AA0565
:101750009091AB05A091AC05B091AD050196A11D8E
:10176000B11D8F709070A070B0708093AA05909397
:10177000AB05A093AC05B093AD0583E690E0E89E81
:10178000F001E99EF00DF89EF00D1124EC53F24F9C
:10179000DE01A35FBB4F83E60D9001928150E1F71C
:1017A000A2CFC050DC4F0FB6F894DEBF0FBECDBF46
:1017B000DF91CF911F910F91FF90EF90DF90CF902D
:1017C000BF90AF9008951F920F920FB60F92112401
:1017D0002F933F938F939F9386E086BD8091F8135C
:1017E0009091F91301969093F9138093F8138091D7
:1017F000F8139091F913049721F58091F6139091C5
:10180000F71301969093F7138093F6132091F61334
:101810003091F7138091F4139091F513281739073D
:1018200029F01092F9131092F8130BC081E090E0A8
:101830009093FB138093FA1380916E008E7F8093B8
:101840006E009F918F913F912F910F900FBE0F903F
:101850001F9018958091FA139091FB130895EEE66E
:10186000F0E020812E7F20831092F7131092F61360
:101870001092F9131092F8139093F5138093F413C8
:1018800086E086BD85B5826085BD1092FB131092FF
:10189000FA13808181608083089520916E002E7FED
:1018A00020936E001092F7131092F6131092F91312
:1018B0001092F8139093F5138093F41386E086BD8D
:1018C00085B5826085BD80916E00816080936E00D9
:1018D0002091F6133091F7138091F4139091F51342
:1018E00028173907A8F380E090E008959093071433
:1018F000809306147093091460930814109236159F
:10190000809136158093D2148091D21480936E14F6
:101910000895EF92FF920F931F93CF93DF937C0173
:10192000672B91F0C2EDD4E10091041410910514DD
:10193000BE01C7010E94F311809104149091051417
:101940008017910789F715C0C2EDD4E1F894009192
:101950000414109105147894BE01C7010E94F3117C
:10196000F89480910414909105147894081719073D
:1019700069F7DF91CF911F910F91FF90EF9008953C
:1019800066E375E10E94F31180913615882371F0AA
:1019900020E030E0F901EA5CFA4E1082F901E95CDE
:1019A000FA4E80812F5F3F4F8823A1F70895282F9B
:1019B000672B69F188E090E09093FD138093FC130E
:1019C0008091061490910714892B01F1E09106147F
:1019D000F0910714099508952432C1F41092FE1372
:1019E0001092FF1310920014109201148091FE13B4
:1019F0009091FF13A0910014B0910114865F9B4E4B
:101A0000FC0120831092FD131092FC130895809125
:101A1000FC139091FD138130910571F1883091058F
:101A2000D9F2892B99F7243209F457C08091FE131B
:101A30009091FF13A0910014B09101140196A11D83
:101A4000B11D8093FE139093FF13A0930014B093E5
:101A500001148091FE139091FF13A0910014B09196
:101A60000114865F9B4EFC01208381E090E09093FF
:101A7000FD138093FC130895243209F443C0809130
:101A8000FE139091FF13A0910014B09101140196E0
:101A9000A11DB11D8093FE139093FF13A09300141A
:101AA000B09301148091FE139091FF13A091001444
:101AB000B091011485369105A105B10508F0A6CFB6
:101AC0008091FE139091FF13A0910014B091011426
:101AD000865F9B4EFC01208308951092FE131092A6
:101AE000FF1310920014109201148091FE13909134
:101AF000FF13A0910014B0910114865F9B4EFC016E
:101B0000208308958091FE139091FF13A0910014FB
:101B1000B09101140196A11DB11D8093FE13909305
:101B2000FF13A0930014B09301148091FE139091C1
:101B3000FF13A0910014B0910114865F9B4EFC012D
:101B4000108246E050E06BEE74E08AE094E10E947F
:101B5000FA11892B09F043C06AE074E18EE694E142
:101B60000E94F311809102149091031401969093B6
:101B70000314809302148091081490910914892B06
:101B800039F0E0910814F091091482EF94E009957E
:101B90008091081490910914892B39F0E091081470
:101BA000F09109148EE694E109951092FE131092BB
:101BB000FF1310920014109201148091FE13909163
:101BC000FF13A0910014B0910114865F9B4E24E294
:101BD000FC0120831092FD131092FC13089546E03F
:101BE00050E06BE075E08AE094E10E94FA11892BE5
:101BF00059F56AE074E182ED94E10E94F31180915D
:101C00000414909105140196909305148093041484
:101C10008091081490910914892B39F0E0910814EF
:101C2000F091091482E195E0099580910814909152
:101C30000914892B09F4B9CFE0910814F091091423
:101C400082ED94E10995B1CF46E050E06BE275E09A
:101C50008AE094E10E94FA11892B09F0A6CF6AE08C
:101C600074E186E395E10E94F3118091081490914C
:101C70000914892B39F0E0910814F091091481E3DB
:101C800095E009958091081490910914892B09F425
:101C90008CCFE0910814F091091486E395E1099541
:101CA00084CF8F929F92AF92BF92CF92DF92EF92AA
:101CB000FF920F931F93CF93DF937C012CE4C22EEE
:101CC00025E0D22E0EE614E19BE7A92E95E0B92E71
:101CD0008DE6882E85E0982E672B09F44AC011C046
:101CE0008091081490910914892B31F0E091081427
:101CF000F0910914C501099580E090E0892B09F065
:101D000089C0C0910214D09103148091081490915D
:101D10000914892B31F0E0910814F0910914C601DF
:101D200009958091081490910914892B31F0E09164
:101D30000814F0910914C8010995B801C7010E945F
:101D4000F31180910214909103148C179D0741F6B2
:101D50008091081490910914892B31F0E0910814B6
:101D6000F0910914C401099581E090E0892B49F2B2
:101D700051C0F894C0910214D091031478948091CA
:101D8000081490910914892B31F0E0910814F09116
:101D90000914C60109958091081490910914892BA2
:101DA00031F0E0910814F0910914C8010995B801C7
:101DB000C7010E94F311F8948091021490910314CA
:101DC0008C179D0791F08091081490910914892B2C
:101DD000D9F0E0910814F0910914C501099580E04B
:101DE00090E07894892B29F215C080910814909185
:101DF0000914892B61F0E0910814F0910914C401D1
:101E0000099581E090E0EDCF80E090E0EACF81E0BD
:101E100090E0E7CFDF91CF911F910F91FF90EF906E
:101E2000DF90CF90BF90AF909F908F900895709368
:101E3000A5156093A4155093A7154093A6159093EC
:101E4000A3158093A2150895482F6115710509F413
:101E500042C070939B1560939A158091A415909140
:101E6000A515892BB9F1E091A415F091A515099557
:101E700008958B37F1F18D3709F48DC080919E154F
:101E800090919F15A091A015B091A1150196A11D4B
:101E9000B11D80939E1590939F15A093A015B093AC
:101EA000A11580919E1590919F15A091A015B091BC
:101EB000A11580369105A105B10560F480919E15AC
:101EC00090919F15A091A015B091A11588559A4E9B
:101ED000FC014183089520919C1530919D1521307E
:101EE000310549F12230310521F2232B99F78B3747
:101EF00089F781E090E090939D1580939C15109256
:101F00009E1510929F151092A0151092A115109277
:101F10009B1510929A1581E08093A81580919E15CB
:101F200090919F15A091A015B091A11588559A4E3A
:101F3000FC01418308958B3749F18D3709F456C070
:101F400082E090E090939D1580939C1580919E1562
:101F500090919F15A091A015B091A1150196A11D7A
:101F6000B11D80939E1590939F15A093A015B093DB
:101F7000A11580919E1590919F15A091A015B091EB
:101F8000A11588559A4EFC014183089530939D1503
:101F900020939C15B4CF80919E1590919F15A09190
:101FA000A015B091A1150196A11DB11D80939E159C
:101FB00090939F15A093A015B093A11580919E15A5
:101FC00090919F15A091A015B091A11588559A4E9A
:101FD000FC01418380919A1590919B15892B09F4FE
:101FE0005EC010929D1510929C15089580919E15CB
:101FF00090919F15A091A015B091A1150196A11DDA
:10200000B11D80939E1590939F15A093A015B0933A
:10201000A11580919E1590919F15A091A015B0914A
:10202000A11588559A4EFC01418380919A15909193
:102030009B15892BB1F680919E1590919F15A091CB
:10204000A015B091A1150196A11DB11D88559A4EFC
:10205000FC0111824091A2155091A3153F932F933B
:102060008DB79EB7835690400FB6F8949EBF0FBEB3
:102070008DBFEDB7FEB73196A8EAB5E183E60D90C6
:1020800001928150E1F7FA010995EDB7FEB7EB59DE
:10209000FF4F0FB6F894FEBF0FBEEDBFA2CF8091E9
:1020A0009E1590919F15A091A015B091A115019634
:1020B000A11DB11D88559A4EFC0111822091A215D7
:1020C0003091A31581E090E09F938F938DB79EB7D9
:1020D000835690400FB6F8949EBF0FBE8DBFEDB7EC
:1020E000FEB73196A8EAB5E183E60D9001928150E2
:1020F000E1F7F9010995EDB7FEB7EB59FF4F0FB6C0
:10210000F894FEBF0FBEEDBF6CCF709314166093B2
:102110001316509316164093151690937B168093C2
:102120007A160895482F6115710509F442C070931D
:102130000C1660930B168091131690911416892B30
:10214000B9F1E0911316F0911416099508958B37A3
:10215000F1F18D3709F48DC080910F169091101612
:10216000A0911116B09112160196A11DB11D809378
:102170000F1690931016A0931116B093121680911B
:102180000F1690911016A0911116B091121681366B
:102190009105A105B10560F480910F16909110167C
:1021A000A0911116B0911216895E994EFC014183DF
:1021B000089520910D1630910E162130310549F108
:1021C0002230310521F2232B99F78B3789F781E0F3
:1021D00090E090930E1680930D1610920F161092A9
:1021E0001016109211161092121610920C161092D0
:1021F0000B1682E08093171680910F16909110169F
:10220000A0911116B0911216895E994EFC0141837E
:1022100008958B3749F18D3709F456C082E090E07C
:1022200090930E1680930D1680910F1690911016B4
:10223000A0911116B09112160196A11DB11D8093A7
:102240000F1690931016A0931116B093121680914A
:102250000F1690911016A0911116B0911216895E6A
:10226000994EFC014183089530930E1620930D166C
:10227000B4CF80910F1690911016A0911116B091C5
:1022800012160196A11DB11D80930F169093101682
:10229000A0931116B093121680910F1690911016FC
:1022A000A0911116B0911216895E994EFC014183DE
:1022B00080910B1690910C16892B09F45EC0109238
:1022C0000E1610920D16089580910F16909110160B
:1022D000A0911116B09112160196A11DB11D809307
:1022E0000F1690931016A0931116B09312168091AA
:1022F0000F1690911016A0911116B0911216895ECA
:10230000994EFC01418380910B1690910C16892BFC
:10231000B1F680910F1690911016A0911116B09100
:1023200012160196A11DB11D895E994EFC01118204
:1023300040917A1650917B163F932F938DB79EB79D
:10234000835690400FB6F8949EBF0FBE8DBFEDB779
:10235000FEB73196A7E1B6E183E60D900192815078
:10236000E1F7FA010995EDB7FEB7EB59FF4F0FB64C
:10237000F894FEBF0FBEEDBFA2CF80910F169091D3
:102380001016A0911116B09112160196A11DB11D43
:10239000895E994EFC01118220917A1630917B164C
:1023A00081E090E09F938F938DB79EB783569040C6
:1023B0000FB6F8949EBF0FBE8DBFEDB7FEB7319636
:1023C000A7E1B6E183E60D9001928150E1F7F901B2
:1023D0000995EDB7FEB7EB59FF4F0FB6F894FEBF66
:1023E0000FBEEDBF6CCFFB01DC0101900D92002010
:1023F000E1F70895FB01DC014150504030F08D9130
:102400000190801919F40020B9F7881B990B0895E1
:10241000FB01DC014150504048F001900D9200203A
:10242000C9F701C01D9241505040E0F70895A0E166
:10243000B0E0EDE1F2E10C9450150F89188D86E0C3
:102440008E831C830B838FEF9FE798878F83AE016A
:10245000455E5F4F5A834983698D7A8DCE0103961D
:102460000E943C1229853A85020F131FF801108241
:10247000E4E060960C946C15A7E1B0E0E2E4F2E1D0
:102480000C9442158824992454012C017C8B6B8B6D
:102490003A01FC0117821682838181FD03C08FEF10
:1024A0009FEF7EC2CC24DD249E012F5F3F4F3F8BE8
:1024B0002E8B65C2C0FE48C2832D80538A30D8F46B
:1024C00030E3331641F48D85882329F4C3FC03C01F
:1024D000E0E0F1E073C08AE0FD85F802C00111245C
:1024E0008053830D8D8787FF02C02FE72D87C3FCA4
:1024F00040C22D843EC2960128703070C3FE05C0D4
:102500008D85882311F491E09D87E7E6E3156CF152
:10251000F5E63F160CF068C083E5381609F489C06B
:102520008315BCF09BE2391609F442C093154CF0B8
:10253000E0E23E1609F440C0F3E23F1609F0FCC1A8
:1025400043C02DE23216E9F13EE2331609F0F4C140
:1025500040C083E6381609F44DC083150CF481C0E1
:1025600098E5391609F0E8C120C0E0E73E1609F405
:10257000A2C0E3155CF0FCE63F1689F12FE63216A7
:1025800089F039E6331609F0D7C16BC085E73816F4
:1025900009F499C098E7391641F0E3E73E1609F0CF
:1025A000CBC130C0F8E0F88B8EC020E1288B8BC007
:1025B00080E190E0C82AD92AE0E2F0E0CE2ADF2AC2
:1025C000D8C120E830E00DC080E490E0C82AD92AC4
:1025D000D0C1E8E0F0E0CE2ADF2A1D86CAC124E09F
:1025E00030E0C22AD32AC5C13FE3832E2A9423E6D2
:1025F000322E30C1F30180802A9422E030E0620E56
:10260000731E28C1F301A081B1814D01232B49F034
:10261000FD856F2F772767FD7095CD010E94E81427
:1026200018C0FD0101900020E9F73197EA1BE88B03
:1026300011C0F301808191814C01232B41F0FD8574
:102640006F2F772767FD70950E94DD1402C00E94EE
:10265000D414888B22E030E0620E731E3889231A6E
:10266000F9C0C2FE08C0F30180819181A281B381CB
:1026700024E030E009C0F30180819181AA2797FD11
:10268000A095BA2F22E030E0620E731E4C015D016E
:10269000B7FF0CC082E090E0C82AD92AB094A09479
:1026A00090948094811C911CA11CB11CEFEBFFEF56
:1026B000CE22DF2221C020E430E0C22AD32A98E7CC
:1026C000392E30E1388BC2FE08C0F3018081918140
:1026D000A281B38124E030E007C0F30180819181C1
:1026E000AA27BB2722E030E0620E731E4C015D0179
:1026F0008FEC9FEFC822D92285017401FE0131962B
:10270000FF87EE87F8898F2E9924AA24BB24232DD6
:1027100021522D8BC801B701A50194010E942015FB
:102720006A301CF03D89630F01C0605DEE85FF8556
:102730006193FF87EE87C801B701A50194010E944C
:10274000201579018A01211531054105510511F73F
:102750008824992454014E85FE894F1B842EC6017E
:1027600082739070892B09F02A94C6FE07C02889CD
:10277000203111F482E001C081E0281AC3FE12C0AA
:102780008D85282F332727FD3095842F9927821791
:1027900093072CF0E7EFFFEFCE22DF2203C0FD8589
:1027A000F41BFD87860108701070C3FE03C02D85E1
:1027B000221A01C0241AC60180789170892B31F049
:1027C0000AC0B20180E290E00E94F3142A94822DA4
:1027D0008F5F1816B4F3C1FE04C0B2018DE290E021
:1027E0000BC0C4FE04C0B2018BE290E005C0C5FE80
:1027F00005C0B20180E290E00E94F314C6FE0FC053
:10280000B20180E390E00E94F3143889303139F44A
:10281000B201832D992787FD90950E94F314D0FC77
:1028200006C00AC0B20180E390E00E94F3142A942B
:10283000822D8F5F1816B4F3012B31F40BC0B20157
:1028400080E390E00E94F3148D8581508D878F5F27
:102850001816ACF3F601E078F070FA8BE98BC7FE3E
:1028600006C00AC0B20180E290E00E94F3142A94EC
:10287000822D8F5F1816B4F3F3E63F1641F4B201D0
:10288000882D992787FD90950E94F31445C023E772
:102890003216B1F464017401188909C0F7018191FD
:1028A0007F01B201992787FD90950E94F314115082
:1028B000A8F74601F8898F0E911C2FEF288B2CC0AA
:1028C00033E5331619F00E851F851FC0640184019E
:1028D000F88808C0F8018491B20199270E94F31486
:1028E0000F5F1F4FFA94FFEFFF16A1F746012889EB
:1028F000820E911CF88B10C0F80182918F01B201F9
:10290000992787FD90950E94F3142E893F8902171D
:10291000130791F71F870E8789899A89892B31F4CC
:1029200026C0B20180E290E00E94F3142A94822D26
:102930008F5F1816B4F31BC0B201832D992787FD52
:1029400090950E94F31413C095E2391641F4EAE021
:10295000E88B22241D8681E0C82ED12C0AC0B2014A
:10296000832D992787FD90950E94F31402C0CC24F3
:10297000DD242B893C892F5F3F4F3C8B2B8BF20151
:10298000838183FF04C0EB89FC89349003C0EB8909
:10299000FC893080332009F08DCDF201868197814A
:1029A000E2E167960C945E15FC0105900020E9F7C2
:1029B000809590958E0F9F1F0895FC0105906150A2
:1029C00070400110D8F7809590958E0F9F1F089545
:1029D000FC016150704001900110D8F780959095EE
:1029E0008E0F9F1F08950F931F93CF93DF938C013A
:1029F000EB018B81992781FF1BC082FF0DC02E81C7
:102A00003F818C819D812817390764F4E881F98121
:102A10000193F983E88306C0E885F985802F09953D
:102A2000892B31F48E819F8101969F838E8302C012
:102A30000FEF1FEFC801DF91CF911F910F91089504
:102A4000A1E21A2EAA1BBB1BFD010DC0AA1FBB1FB2
:102A5000EE1FFF1FA217B307E407F50720F0A21B24
:102A6000B30BE40BF50B661F771F881F991F1A9491
:102A700069F760957095809590959B01AC01BD01BB
:102A8000CF0108952F923F924F925F926F927F9263
:102A90008F929F92AF92BF92CF92DF92EF92FF926E
:102AA0000F931F93CF93DF93CDB7DEB7CA1BDB0B1A
:102AB0000FB6F894DEBF0FBECDBF09942A883988BF
:102AC00048885F846E847D848C849B84AA84B984C6
:102AD000C884DF80EE80FD800C811B81AA81B981D2
:102AE000CE0FD11D0FB6F894DEBF0FBECDBFED01E6
:042AF0000895FFCF77
:102AF4000D0A73656E64696E6720554258207261D1
:102B04007465206D7367000D0A20504F5254423D86
:102B14002578000D0A696E697420000D0A676F74C8
:102B2400206D6573736167652066726F6D207370C5
:102B3400753D2573000D0A73747265616D696E6766
:102B44002064617461207468726F756768207862AC
:102B54006565206D73673D2573000D0A7B28000DA4
:102B64000A205B6C656E3D256420756E2073616E72
:102B74007469697A6564206767613D25735D000D3A
:102B84000A205B73616E7469697A656420676761A2
:102B94003D25735D003B0D0A000D0A205B6C656EDC
:102BA4003D256420756E2073616E7469697A65646D
:102BB400207674673D25735D000D0A205B73616E9A
:102BC4007469697A6564207674673D25735D0029AC
:102BD4007D000D0A52656164696E6720696E6974CF
:102BE40020706172616D7320696620616E79000DD9
:102BF4000A61636B3D2573000D0A2073656E646979
:102C04006E672033313400504D544B3331342C3003
:102C14002C302C312C312C302C302C302C302C30CE
:102C24002C302C302C302C302C302C302C302C30C0
:102C3400002425732A253032580D0A000D0A636DCD
:102C4400643D000D0A73656E64696E672033313329
:102C540000504D544B3331332C31000D0A73656EE3
:102C640064696E672033303100504D544B3330313A
:102C74002C32000D0A73656E64696E672064677098
:102C84007320717565727900504D544B34303100A6
:102C94000D0A73656E64696E6720736261732071D7
:102CA4007565727900504D544B34313300B562066A
:102CB400080600FA0001000100109658424545201C
:102CC400512069732066756C6C005842454520514B
:102CD40020697320656D707479005350552051201C
:102CE400697320656D70747900706F7053776172C9
:102CF4006D4D73674275733A5354415254000D0A33
:102D0400706F70205120697320656D707479000DA7
:102D14000A207461696C5F6964783D256C642C20B9
:102D2400686561645F69783D256C64000D0A206FF5
:102D34006C64207461696C206964783D256C642C32
:102D4400206E6577207461696C206964783D256C18
:102D5400642C68656164206964783D256C64000DA9
:102D64000A64697363617264696E67207374616C69
:102D740065206D6573736167652C207472792025F5
:102D8400640070757368537761726D4D7367427533
:102D9400733A5354415254000D0A2050555348205D
:102DA400512046554C4C000D0A206F6C6420686518
:102DB4006164206964783D256C642C206E657720FD
:102DC40068656164206964783D256C642C207461B5
:102DD400696C206964783D256C640024475047473A
:102DE40041000D0A20474741206D65737361676593
:102DF40020636F6D706C6574653D002447505654B4
:102E040047000D0A20565447206D6573736167654A
:102E140020636F6D706C6574653D0024504D544B98
:102E2400000D0A20504D544B20726573706F6E7301
:102E34006520636F6D706C6574653D000D0A2063D9
:102E44006F7079696E6720696E746F20726574752E
:102E5400726E2062756666206D73673D000D0A67A9
:102E64006F74206D657373616765000D0A20646972
:102E74007363617264696E67207374616C65206D3D
:082E84006573736167650000CE
:00000001FF
