:100000000C9472000C948F000C948F000C948F0051
:100010000C948F000C948F000C948F000C948F0024
:100020000C948F000C948F000C948F000C948F0014
:100030000C948F000C948F000C948F000C948F0004
:100040000C948F000C948F000C948F000C948F00F4
:100050000C948F000C948F000C948F000C94E80A81
:100060000C948F000C94C8030C9477040C948F00AC
:100070000C948F000C948F000C948F000C948F00C4
:100080000C948F000C948F000C948F000C948F00B4
:100090000C9404040C948F000C948F000C948F002B
:1000A0000C948F000C948F000C948F000C948F0094
:1000B0000C948F000C948F000C948F000C948F0084
:1000C0000C948F000C948F000C948F000C948F0074
:1000D0000C948F000C948F000C948C030C944004AF
:1000E0000C948F0011241FBECFEFD1E2DEBFCDBF35
:1000F00014E0A0E0B2E0E8EDF7E202C005900D9256
:10010000A235B107D9F715E1A2E5B4E001C01D920F
:10011000A633B107E1F70E9438020C94EB130C945C
:100120000000089585B190E4892785B9089585B1C7
:10013000805885B9089580E090E008950895FC0105
:10014000DC010D900020E9F71197A81BB90B90E096
:1001500020E030E004C090812F5F3F4F31962A1796
:100160003B0731F021153105B1F380819827F4CF99
:10017000892F992708950E945D0508958F929F9277
:10018000AF92BF92CF92DF92EF92FF920F931F93A5
:10019000CF93DF93CDB7DEB7C45AD4400FB6F894EF
:1001A000DEBF0FBECDBF80E092E00E945D0580ED16
:1001B00097E00E94520B31E4C32ED12CCC0EDD1EF1
:1001C00060E070E0C6010E94BB0BDF92CF922DE190
:1001D000822E22E0922E9F928F9295EAE92EF12CA8
:1001E000EC0EFD1EFF92EF920E948910C7010E9443
:1001F0005D0586E292E00E945D0540E0E0E0F0E00F
:1002000021E030E08DB79EB706960FB6F8949EBFFA
:100210000FBE8DBF06C0EC5CFD4F4081F9012F5F22
:100220003F4FC9010197B9F3EC5CFD4F808148272E
:100230002930310598F3842F99279F938F9384E376
:1002400092E09F938F938EE3A82E82E0B82EBF9208
:10025000AF928E010F5F1F4F1F930F930E94891063
:10026000C8010E94AE0480ED97E00E94520B60E04E
:1002700070E0C6010E94BB0BDF92CF929F928F92DB
:10028000FF92EF920E948910C7010E945D0587E4EA
:1002900092E00E945D0540E0E0E0F0E021E030E027
:1002A0008DB79EB70E960FB6F8949EBF0FBE8DBF4A
:1002B00006C0EB5AFD4F4081F9012F5F3F4FC90146
:1002C0000197B9F3EB5AFD4F80814827293031055A
:1002D00098F3842F99279F938F9385E592E09F93BE
:1002E0008F93BF92AF921F930F930E948910C80102
:1002F0000E94AE0480ED97E00E94520B60E070E037
:10030000C6010E94BB0BDF92CF929F928F92FF9209
:10031000EF920E948910C7010E945D058FE592E06F
:100320000E945D0540E0E0E0F0E021E030E08DB7C4
:100330009EB70E960FB6F8949EBF0FBE8DBF06C037
:10034000EC58FD4F4081F9012F5F3F4FC9010197E4
:10035000B9F3EC58FD4F808148272730310598F3D9
:10036000842F99279F938F9384E792E09F938F9395
:10037000BF92AF921F930F930E948910C8010E94F1
:10038000AE0480ED97E00E94520B60E070E0C60181
:100390000E94BB0BDF92CF929F928F92FF92EF92BF
:1003A0000E948910C7010E945D058CE792E00E94BF
:1003B0005D0540E0E0E0F0E021E030E08DB79EB781
:1003C0000E960FB6F8949EBF0FBE8DBF06C0EF56B7
:1003D000FD4F4081F9012F5F3F4FC9010197B9F3EC
:1003E000EF56FD4F808148272730310598F3842F41
:1003F00099279F938F9381E992E09F938F93BF9268
:10040000AF921F930F930E948910C8010E94AE04FF
:1004100080ED97E00E94520B60E070E0C6010E9400
:10042000BB0BDF92CF929F928F92FF92EF920E942E
:100430008910C7010E945D058DB79EB70E960FB655
:10044000F8949EBF0FBE8DBFCC55DB4F0FB6F8940E
:10045000DEBF0FBECDBFDF91CF911F910F91FF90F7
:10046000EF90DF90CF90BF90AF909F908F900895C6
:10047000C4EDDCE1DEBFCDBF08E917E022E437E0E0
:1004800042ED5BE064E07FE086E99DE00E942605A6
:1004900085B199279F938F9389E992E09F938F93DA
:1004A0008CE291E08C0F9D1F9F938F930E94891087
:1004B000CE01845D9E4F0E945D0541E950E062E9F6
:1004C00070E081ED99E00E94890D61E970E087E9B3
:1004D00090E00E947B0B41E950E060E070E081ED2C
:1004E00099E00E94F70E85EA92E00E945D057894FB
:1004F0000E94BE008FEF84B988EC90E00E94340B1C
:10050000EDB7FEB736960FB6F894FEBF0FBEEDBF3F
:100510002E010894411C511C72E0272E312C2C0E08
:100520003D1E64E6662E712C6C0E7D1E58EC852EE9
:10053000912C8C0E9D1E4CE2C42E41E0D42ECC0E8C
:10054000DD1E53010894A11CB11C60E070E0C201E3
:100550000E94EE078981813009F480C0823009F45D
:1005600089C00E942F0B892B81F30E941C05892BC7
:10057000E1F760E070E08CEE92E00E94A30560E09D
:1005800070E0C3010E94FA0C74018401F801119219
:100590008F01EC15FD05D1F7F50101900020E9F779
:1005A0003197AF014A195B0980818C3249F0F30120
:1005B000E40FF51F41505040808131978C32D1F7C4
:1005C000B501C4010E947A1060E070E0C4010E948D
:1005D000A30560E070E08FEE92E00E94A3050E9408
:1005E000F20460E070E0C3010E94840BF7011192F5
:1005F0007F01E017F107D1F7F50101900020E9F73D
:100600003197AF014A195B0980818C3249F0F301BF
:10061000E40FF51F41505040808131978C32D1F763
:10062000B501C4010E947A1060E070E0C4010E942C
:10063000A30560E070E081EF92E00E94A3050E94B4
:10064000F20488EC90E00E94340B60E070E0C2019C
:100650000E94EE078981813009F080CF0E941C053D
:10066000892BE1F760E070E0C1010E94A3050E94C0
:10067000F20477CF3F922F928DEA92E09F938F936F
:10068000ECE2F1E0EC0FFD1FFF93EF930E94891065
:100690008DB79EB706960FB6F8949EBF0FBE8DBF5E
:1006A0008A818B3709F05DCFF10101900020E9F7D5
:1006B0003197E219F309E40DF51D80818D3709F0BA
:1006C00050CF0E941C05892BE1F73F922F92E7EC57
:1006D000F2E0FF93EF938CE291E08C0F9D1F9F93CC
:1006E0008F930E94891060E070E0C1010E9447066C
:1006F0000E94C804EDB7FEB736960FB6F894FEBF59
:100700000FBEEDBF2ECF85B190E4892785B908953E
:1007100085B1805885B908951F920F920FB60F9238
:1007200011242F933F934F935F936F937F938F93F6
:100730009F93AF93BF93EF93FF938091300184FF1A
:1007400003C061E070E00CC080913001682F772712
:1007500076956795769567957695679561707070D3
:10076000E0915604F0915704809136010995FF916C
:10077000EF91BF91AF919F918F917F916F915F9119
:100780004F913F912F910F900FBE0F901F90189592
:100790001F920F920FB60F9211242F933F934F93F6
:1007A0005F936F937F938F939F93AF93BF93EF93D9
:1007B000FF938091C00084FF03C061E070E00CC033
:1007C0008091C000682F7727769567957695679515
:1007D0007695679561707070E0915804F0915904B6
:1007E0008091C6000995FF91EF91BF91AF919F91C4
:1007F0008F917F916F915F914F913F912F910F90CA
:100800000FBE0F901F9018951F920F920FB60F9268
:1008100011242F933F934F935F936F937F938F9305
:100820009F93AF93BF93EF93FF938091C80084FF92
:1008300003C061E070E00CC08091C800682F77278A
:1008400076956795769567957695679561707070E2
:10085000E0915A04F0915B048091CE000995FF91DC
:10086000EF91BF91AF919F918F917F916F915F9128
:100870004F913F912F910F900FBE0F901F901895A1
:100880001F920F920FB60F9211242F933F934F9305
:100890005F936F937F938F939F93AF93BF93EF93E8
:1008A000FF93E0915C04F0915D0481E090E0099594
:1008B000882319F08093360109C0809131018F7D22
:1008C000809331011092530410925204FF91EF91E2
:1008D000BF91AF919F918F917F916F915F914F9158
:1008E0003F912F910F900FBE0F901F9018951F9260
:1008F0000F920FB60F9211242F933F934F935F9354
:100900006F937F938F939F93AF93BF93EF93FF93D7
:10091000E0915E04F0915F0481E090E00995882306
:1009200019F08093C60009C08091C1008F7D80932B
:10093000C1001092550410925404FF91EF91BF91A1
:10094000AF919F918F917F916F915F914F913F9167
:100950002F910F900FBE0F901F901895FC0107C0AC
:100960008093CE008091C80085FFFCCF31968081B6
:100970008823B1F70895FC0107C08093C6008091D9
:10098000C00085FFFCCF319680818823B1F70895A0
:100990008091520490915304892B79F48091300115
:1009A00085FFFCCF8091310180628093310181E02D
:1009B00090E09093530480935204089580915204E0
:1009C00090915304892B69F0809131018F7D809340
:1009D00031018091300185FFFCCF109253041092B9
:1009E000520408958091540490915504892B79F410
:1009F0008091C00085FFFCCF8091C1008062809310
:100A0000C10081E090E090935504809354040895D0
:100A10008091540490915504892B69F08091C10014
:100A20008F7D8093C1008091C00085FFFCCF109224
:100A300055041092540408958091540490915504E3
:100A40000895809152049091530408950F931F9339
:100A5000B8E9B0933101A6E0A0933201EBE0F0E0F9
:100A6000F0933501E093340190935704809356043A
:100A700030935D0420935C04B093C100A093C20046
:100A8000F093C500E093C400709359046093580438
:100A900010935F0400935E04B093C900A093CA0052
:100AA000F093CD00E093CC0050935B0440935A0444
:100AB00080E090E01F910F910895FC012091540473
:100AC000309155042115310531F0809154049091F5
:100AD0005504892B29F58081882351F08093C60025
:100AE0008091C00085FFFCCF319680818823B1F7CB
:100AF000232BA9F08091540490915504892B79F40B
:100B00008091C00085FFFCCF8091C10080628093FE
:100B1000C10081E090E090935504809354040895BF
:100B20008091C1008F7D8093C1008091C00085FFBE
:100B3000FCCF1092550410925404CDCF90936D04C5
:100B400080936C040895CF93DF93EC01CB0168810F
:100B5000662309F499C0892B91F444C0F901E25845
:100B6000FB4F60832093760430937704409378049E
:100B70005093790421966881662309F485C02091F9
:100B800076043091770440917804509179042F5F76
:100B90003F4F4F4F5F4F33704070507080917A04D9
:100BA00090917B04A0917C04B0917D0428173907B3
:100BB0004A075B0799F680917A0490917B04A09193
:100BC0007C04B0917D040196A11DB11D9370A070AD
:100BD000B07080937A0490937B04A0937C04B093CC
:100BE0007D04BCCFF8942091760430917704409135
:100BF0007804509179042F5F3F4F4F4F5F4F337010
:100C00004070507080917A0490917B04A0917C0494
:100C1000B0917D04281739074A075B0791F0F90165
:100C2000E258FB4F6083209376043093770440931F
:100C3000780450937904789421966881662391F61C
:100C400023C080917A0490917B04A0917C04B091A0
:100C50007D040196A11DB11D9370A070B0708093AA
:100C60007A0490937B04A0937C04B0937D04F901F3
:100C7000E258FB4F608320937604309377044093CF
:100C8000780450937904D7CFDF91CF910895CF9214
:100C9000DF92EF92FF920F931F93CF93DF93EC01BC
:100CA0002881222309F4E5C0672B09F473C094EF6F
:100CB000C92E92E0D92E11C0F701E258F74F2083D8
:100CC000E0926E04F0926F0400937004109371042C
:100CD00021962881222309F4CCC0E0906E04F09084
:100CE0006F0400917004109171040894E11CF11CD0
:100CF000011D111D8FEF93E0A0E0B0E0E822F92282
:100D00000A231B238091720490917304A0917404B0
:100D1000B0917504E816F9060A071B0769F6809179
:100D20006C0490916D04892B61F080916C0490911A
:100D30006D04892B31F0E0916C04F0916D04C601D3
:100D400009958091720490917304A0917404B091FC
:100D500075040196A11DB11D9370A070B0708093B1
:100D6000720490937304A0937404B0937504888103
:100D7000F701E258F74F8083E0926E04F0926F041F
:100D8000009370041093710421962881222309F0A6
:100D9000A4CF6FC084EFC82E82E0D82EF894E090E4
:100DA0006E04F0906F040091700410917104089427
:100DB000E11CF11C011D111D8FEF93E0A0E0B0E0DC
:100DC000E822F9220A231B23809172049091730474
:100DD000A0917404B0917504E816F9060A071B0780
:100DE00091F0F701E258F74F2083E0926E04F09201
:100DF0006F040093700410937104789421962881F5
:100E0000222361F636C080916C0490916D04892B89
:100E100061F080916C0490916D04892B31F0E09128
:100E20006C04F0916D04C601099580917204909153
:100E30007304A0917404B09175040196A11DB11DB5
:100E40009370A070B0708093720490937304A09319
:100E50007404B09375048881F701E258F74F8083DA
:100E6000E0926E04F0926F0400937004109371048A
:100E7000C4CFDF91CF911F910F91FF90EF90DF9042
:100E8000CF900895CF93DF93EC01892B09F4F89468
:100E900020916E0430916F04409170045091710460
:100EA0008091720490917304A0917404B0917504C0
:100EB000281739074A075B07F9F08091720490916F
:100EC0007304A0917404B09175040196A11DB11D25
:100ED0009370A070B0708093720490937304A09389
:100EE0007404B09375048258974FFC018081992750
:100EF000CD2BD9F4789419C080916C0490916D0435
:100F0000892B81F080916C0490916D04892B51F0B4
:100F1000E0916C04F0916D0483E093E0099580E02A
:100F200090E0E6CF80E090E0E3CFDF91CF910895AD
:100F3000CF93DF93EC01892B09F4F8942091760488
:100F400030917704409178045091790480917A042B
:100F500090917B04A0917C04B0917D0428173907FF
:100F60004A075B07F9F080917A0490917B04A09185
:100F70007C04B0917D040196A11DB11D9370A070F9
:100F8000B07080937A0490937B04A0937C04B09318
:100F90007D0482589B4FFC0180819927CD2BD9F489
:100FA000789419C080916C0490916D04892B81F024
:100FB00080916C0490916D04892B51F0E0916C0448
:100FC000F0916D0483E193E0099580E090E0E6CF35
:100FD00080E090E0E3CFDF91CF9108952F923F9290
:100FE0004F925F926F927F928F929F92AF92BF9239
:100FF000CF92DF92EF92FF920F931F93CF93DF93E5
:10100000CDB7DEB7C956D4400FB6F894DEBF0FBED9
:10101000CDBFCA59DB4F99838883C656D440C8597F
:10102000DB4F79836883C856D44080916C049091DB
:101030006D04892B69F080916C0490916D04892B6B
:1010400039F0E0916C04F0916D0482E293E009952F
:10105000CC59DB4F19821882C456D440C859DB4F93
:1010600028813981C856D440232B09F0B7C0F894A1
:1010700020906004309061044090620450906304BA
:10108000E0906404F0906504009166041091670498
:10109000609068047090690480906A0490906B047A
:1010A000789480916C0490916D04892B51F19F92FA
:1010B0008F927F926F921F930F93FF92EF92E8E4CB
:1010C000F3E0FF93EF9324E630E02C0F3D1F3F93B6
:1010D0002F930E94891080916C0490916D04EDB75C
:1010E000FEB73C960FB6F894FEBF0FBEEDBF892B3E
:1010F00041F0E0916C04F0916D04CE018C599F4F4A
:1011000009956E147F048006910609F480C0089446
:10111000E11CF11C011D111D2FE0A22EB12CC12CD0
:10112000D12CAE20BF20C022D1220894E108F108C2
:101130000109110980916C0490916D04892B71F162
:101140009F928F927F926F92DF92CF92BF92AF92D7
:101150001F930F93FF92EF9225E633E03F932F9377
:1011600084E690E08C0F9D1F9F938F930E948910BF
:1011700080916C0490916D04EDB7FEB770960FB638
:10118000F894FEBF0FBEEDBF892B41F0E0916C04D7
:10119000F0916D04CE018C599F4F099583E690E044
:1011A000A89EF001A99EF00DB89EF00D1124CA5919
:1011B000DB4FA881B981C656D440E258F34F83E68D
:1011C00001900D928150E1F7CA59DB4FE881F98116
:1011D000C656D4406081A601950131C020906004BC
:1011E000309061044090620450906304E090640485
:1011F000F0906504009166041091670460906804A3
:101200007090690480906A0490906B044ACF80913A
:101210006C0490916D04892B09F46CC080916C046E
:1012200090916D04892B09F465C0E0916C04F091F4
:101230006D0487E393E00995A801970160E0C85920
:10124000DB4F88819981C856D440892B09F4F894E2
:101250008091600490916104A0916204B091630454
:1012600082159305A405B50509F448C0CC59DB4F98
:1012700028813981C456D4402F5F3F4FCC59DB4F72
:1012800039832883C456D44080916C0490916D04B6
:10129000892B29F13F932F9388E993E09F938F93B4
:1012A000E4E6F0E0EC0FFD1FFF93EF930E9489103E
:1012B00080916C0490916D042DB73EB72A5F3F4F2B
:1012C0000FB6F8943EBF0FBE2DBF892B41F0E091C1
:1012D0006C04F0916D04CE018C599F4F0995C8594B
:1012E000DB4F88819981C856D440892B09F0B6CE4E
:1012F0007894BDCEA401930160E0A1CF2093640453
:1013000030936504409366045093670460926804C8
:101310007092690480926A0490926B0480916004D8
:1013200090916104A0916204B09163040196A11DA3
:10133000B11D8093600490936104A0936204B09304
:101340006304C859DB4FE881F981C856D440EF2BBC
:1013500009F47894CA59DB4FE881F981C656D44024
:101360006083CA59DB4F88819981C656D440C759DA
:10137000DB4F0FB6F894DEBF0FBECDBFDF91CF912C
:101380001F910F91FF90EF90DF90CF90BF90AF90A3
:101390009F908F907F906F905F904F903F902F9095
:1013A0000895AF92BF92CF92DF92EF92FF920F9388
:1013B0001F93CF93DF93CDB7DEB7C050D4400FB6A5
:1013C000F894DEBF0FBECDBFFE01E059FB4FA080F9
:1013D000B18080916C0490916D04892B69F08091AB
:1013E0006C0490916D04892B39F0E0916C04F091BC
:1013F0006D048BEB93E00995A114B10409F4F89402
:10140000E0906804F090690400916A0410916B0404
:101410000894E11CF11C011D111D8FE090E0A0E07B
:10142000B0E0E822F9220A231B2380916404909102
:101430006504A0916604B0916704E816F9060A07EE
:101440001B0709F475C080916C0490916D04892B81
:10145000E1F18091640490916504A0916604B091DB
:101460006704209168043091690440916A045091A6
:101470006B04BF93AF939F938F931F930F93FF9230
:10148000EF925F934F933F932F9380EE93E09F9360
:101490008F936E010894C11CD11CDF92CF920E94E1
:1014A000891080916C0490916D04ADB7BEB75096D1
:1014B0000FB6F894BEBF0FBEADBF892B31F0E091DF
:1014C0006C04F0916D04C601099583E690E0E89EF6
:1014D000F001E99EF00DF89EF00D1124E258F34F53
:1014E000DE01A35FBB4F83E60D9001928150E1F7CF
:1014F000E0926804F092690400936A0410936B040C
:101500008091600490916104A0916204B0916304A1
:101510000196A11DB11D8093600490936104A09376
:101520006204B0936304AB2809F040C078943EC0D5
:1015300080916C0490916D04892B69F080916C040A
:1015400090916D04892B39F0E0916C04F0916D0459
:1015500081ED93E009958091640490916504A091D8
:101560006604B09167040196A11DB11D8F70907043
:10157000A070B0708093640490936504A093660497
:10158000B093670483E690E0E89EF001E99EF00DD9
:10159000F89EF00D1124E258F34FDE01A35FBB4F1C
:1015A00083E60D9001928150E1F7A2CFC050DC4F4D
:1015B0000FB6F894DEBF0FBECDBFDF91CF911F9164
:1015C0000F91FF90EF90DF90CF90BF90AF90089574
:1015D0001F920F920FB60F9211242F933F938F9368
:1015E0009F9386E086BD8091B2129091B3120196CE
:1015F0009093B3128093B2128091B2129091B31271
:10160000049721F58091B0129091B11201969093B8
:10161000B1128093B0122091B0123091B11280912A
:10162000AE129091AF122817390729F01092B31219
:101630001092B2120BC081E090E09093B5128093AB
:10164000B41280916E008E7F80936E009F918F9177
:101650003F912F910F900FBE0F901F901895809182
:10166000B4129091B5120895EEE6F0E020812E7F3D
:1016700020831092B1121092B0121092B3121092F5
:10168000B2129093AF128093AE1286E086BD85B5FC
:10169000826085BD1092B5121092B4128081816073
:1016A0008083089520916E002E7F20936E0010920B
:1016B000B1121092B0121092B3121092B212909313
:1016C000AF128093AE1286E086BD85B5826085BD7F
:1016D00080916E00816080936E002091B0123091F5
:1016E000B1128091AE129091AF1228173907A8F36A
:1016F00080E090E008959093C1128093C01270939F
:10170000C3126093C2120895EF92FF920F931F933A
:10171000CF93DF937C01672B91F0CCE8D3E100916C
:10172000BE121091BF12BE01C7010E9465108091C8
:10173000BE129091BF128017910789F715C0CCE8AF
:10174000D3E1F8940091BE121091BF127894BE01BB
:10175000C7010E946510F8948091BE129091BF124B
:1017600078940817190769F7DF91CF911F910F91AE
:10177000FF90EF90089560EF73E10E9465108091F3
:10178000F013882371F020E030E0F901E051FC4EC5
:101790001082F901EF50FC4E80812F5F3F4F88236C
:1017A000A1F70895282F672B69F188E090E09093C6
:1017B000B7128093B6128091C0129091C112892BFA
:1017C00001F1E091C012F091C112099508952432FF
:1017D000C1F41092B8121092B9121092BA1210926B
:1017E000BB128091B8129091B912A091BA12B09127
:1017F000BB128C539D4EFC0120831092B7121092A5
:10180000B61208958091B6129091B7128130910569
:1018100071F188309105D9F2892B99F7243209F4B6
:1018200057C08091B8129091B912A091BA12B0919C
:10183000BB120196A11DB11D8093B8129093B912ED
:10184000A093BA12B093BB128091B8129091B912C2
:10185000A091BA12B091BB128C539D4EFC01208313
:1018600081E090E09093B7128093B61208952432ED
:1018700009F443C08091B8129091B912A091BA12A4
:10188000B091BB120196A11DB11D8093B812909327
:10189000B912A093BA12B093BB128091B812909172
:1018A000B912A091BA12B091BB1285369105A1056B
:1018B000B10508F0A6CF8091B8129091B912A0910D
:1018C000BA12B091BB128C539D4EFC012083089537
:1018D0001092B8121092B9121092BA121092BB1252
:1018E0008091B8129091B912A091BA12B091BB1226
:1018F0008C539D4EFC01208308958091B8129091E5
:10190000B912A091BA12B091BB120196A11DB11DDE
:101910008093B8129093B912A093BA12B093BB12ED
:101920008091B8129091B912A091BA12B091BB12E5
:101930008C539D4EFC01108246E050E064E174E05F
:1019400084EC92E10E946C10892B49F564EC72E101
:1019500088E293E10E9465108091BC129091BD12C3
:1019600001969093BD128093BC121092B8121092FF
:10197000B9121092BA121092BB128091B8129091C3
:10198000B912A091BA12B091BB128C539D4E24E2B1
:10199000FC0120831092B7121092B612089546E00F
:1019A00050E06BE174E084EC92E10E946C10892BB2
:1019B00081F464EC72E18CE893E10E9465108091FF
:1019C000BE129091BF1201969093BF128093BE12E7
:1019D000CCCF46E050E062E274E084EC92E10E94F9
:1019E0006C10892B11F664EC72E180EF93E10E9498
:1019F0006510BBCFAF92BF92CF92DF92EF92FF9272
:101A00000F931F93CF93DF938C0128E2E22E23E103
:101A1000F22E96E3C92E94E0D92E88E2A82E84E017
:101A2000B82E672B91F111C08091C2129091C31210
:101A3000892B31F0E091C212F091C312C6010995D1
:101A400080E090E0892B09F059C0C091BC12D09180
:101A5000BD12B701C8010E9465108091BC1290911F
:101A6000BD128C179D0701F78091C2129091C3128D
:101A7000892B31F0E091C212F091C312C501099592
:101A800081E090E0892B09F339C0F894C091BC1231
:101A9000D091BD127894B701C8010E946510F894E6
:101AA0008091BC129091BD128C179D0791F080918E
:101AB000C2129091C312892BD9F0E091C212F09119
:101AC000C312C601099580E090E07894892BE9F271
:101AD00015C08091C2129091C312892B61F0E091E0
:101AE000C212F091C312C501099581E090E0EDCFDB
:101AF00080E090E0EACF81E090E0E7CFDF91CF9106
:101B00001F910F91FF90EF90DF90CF90BF90AF901B
:101B1000089570935F1460935E1450936114409322
:101B2000601490935D1480935C140895482F6115A0
:101B3000710509F442C07093551460935414809158
:101B40005E1490915F14892BB9F1E0915E14F091CD
:101B50005F14099508958B37F1F18D3709F48DC025
:101B60008091581490915914A0915A14B0915B141B
:101B70000196A11DB11D8093581490935914A09300
:101B80005A14B0935B148091581490915914A091F9
:101B90005A14B0915B1480369105A105B10560F42B
:101BA0008091581490915914A0915A14B0915B14DB
:101BB0008E599B4EFC01418308952091561430911B
:101BC00057142130310549F12230310521F2232B00
:101BD00099F78B3789F781E090E0909357148093C1
:101BE0005614109258141092591410925A141092BC
:101BF0005B14109255141092541481E08093621477
:101C00008091581490915914A0915A14B0915B147A
:101C10008E599B4EFC01418308958B3749F18D37D6
:101C200009F456C082E090E09093571480935614C4
:101C30008091581490915914A0915A14B0915B144A
:101C40000196A11DB11D8093581490935914A0932F
:101C50005A14B0935B148091581490915914A09128
:101C60005A14B0915B148E599B4EFC014183089528
:101C70003093571420935614B4CF809158149091F8
:101C80005914A0915A14B0915B140196A11DB11D75
:101C90008093581490935914A0935A14B0935B14E2
:101CA0008091581490915914A0915A14B0915B14DA
:101CB0008E599B4EFC014183809154149091551490
:101CC000892B09F45EC0109257141092561408958F
:101CD0008091581490915914A0915A14B0915B14AA
:101CE0000196A11DB11D8093581490935914A0938F
:101CF0005A14B0935B148091581490915914A09188
:101D00005A14B0915B148E599B4EFC014183809113
:101D1000541490915514892BB1F6809158149091D8
:101D20005914A0915A14B0915B140196A11DB11DD4
:101D30008E599B4EFC01118240915C1450915D14B0
:101D40003F932F938DB79EB7835690400FB6F8946C
:101D50009EBF0FBE8DBFEDB7FEB73196A2E6B4E1D0
:101D600083E60D9001928150E1F7FA010995EDB7F4
:101D7000FEB7EB59FF4F0FB6F894FEBF0FBEEDBF95
:101D8000A2CF8091581490915914A0915A14B091F7
:101D90005B140196A11DB11D8E599B4EFC01118251
:101DA00020915C1430915D1481E090E09F938F93BB
:101DB0008DB79EB7835690400FB6F8949EBF0FBE66
:101DC0008DBFEDB7FEB73196A2E6B4E183E60D9084
:101DD00001928150E1F7F9010995EDB7FEB7EB5992
:101DE000FF4F0FB6F894FEBF0FBEEDBF6CCF7093E0
:101DF000CE146093CD145093D0144093CF1490938D
:101E00003515809334150895482F6115710509F42F
:101E100042C07093C6146093C5148091CD14909104
:101E2000CE14892BB9F1E091CD14F091CE1409951F
:101E300008958B37F1F18D3709F48DC08091C91465
:101E40009091CA14A091CB14B091CC140196A11D0D
:101E5000B11D8093C9149093CA14A093CB14B0936E
:101E6000CC148091C9149091CA14A091CB14B09154
:101E7000CC1481369105A105B10560F48091C91497
:101E80009091CA14A091CB14B091CC148F529B4E58
:101E9000FC01418308952091C7143091C81421306A
:101EA000310549F12230310521F2232B99F78B3787
:101EB00089F781E090E09093C8148093C714109242
:101EC000C9141092CA141092CB141092CC14109210
:101ED000C6141092C51482E08093D1148091C91465
:101EE0009091CA14A091CB14B091CC148F529B4EF8
:101EF000FC01418308958B3749F18D3709F456C0B1
:101F000082E090E09093C8148093C7148091C91424
:101F10009091CA14A091CB14B091CC140196A11D3C
:101F2000B11D8093C9149093CA14A093CB14B0939D
:101F3000CC148091C9149091CA14A091CB14B09183
:101F4000CC148F529B4EFC01418308953093C814EA
:101F50002093C714B4CF8091C9149091CA14A09152
:101F6000CB14B091CC140196A11DB11D8093C9145E
:101F70009093CA14A093CB14B093CC148091C9143D
:101F80009091CA14A091CB14B091CC148F529B4E57
:101F9000FC0141838091C5149091C614892B09F4EA
:101FA0005EC01092C8141092C71408958091C9148D
:101FB0009091CA14A091CB14B091CC140196A11D9C
:101FC000B11D8093C9149093CA14A093CB14B093FD
:101FD000CC148091C9149091CA14A091CB14B091E3
:101FE000CC148F529B4EFC0141838091C51490917B
:101FF000C614892BB1F68091C9149091CA14A0918E
:10200000CB14B091CC140196A11DB11D8F529B4EE3
:10201000FC01118240913415509135153F932F9357
:102020008DB79EB7835690400FB6F8949EBF0FBEF3
:102030008DBFEDB7FEB73196A1EDB4E183E60D900B
:1020400001928150E1F7FA010995EDB7FEB7EB591E
:10205000FF4F0FB6F894FEBF0FBEEDBFA2CF809129
:10206000C9149091CA14A091CB14B091CC140196CC
:10207000A11DB11D8F529B4EFC0111822091341580
:102080003091351581E090E09F938F938DB79EB787
:10209000835690400FB6F8949EBF0FBE8DBFEDB72C
:1020A000FEB73196A1EDB4E183E60D900192815027
:1020B000E1F7F9010995EDB7FEB7EB59FF4F0FB600
:1020C000F894FEBF0FBEEDBF6CCFFB01DC010190A9
:1020D0000D920020E1F70895FB01DC0141505040D2
:1020E00030F08D910190801919F40020B9F7881B08
:1020F000990B0895FB01DC014150504048F00190DC
:102100000D920020C9F701C01D9241505040E0F7E8
:102110000895A0E1B0E0EFE8F0E10C94C2130F895C
:10212000188D86E08E831C830B838FEF9FE7988743
:102130008F83AE01455E5F4F5A834983698D7A8DE7
:10214000CE0103960E94AE1029853A85020F131F17
:10215000F8011082E4E060960C94DE13A7E1B0E091
:10216000E4EBF0E10C94B4138824992454012C017D
:102170007C8B6B8B3A01FC0117821682838181FD77
:1021800003C08FEF9FEF7EC2CC24DD249E012F5F22
:102190003F4F3F8B2E8B65C2C0FE48C2832D8053BC
:1021A0008A30D8F430E3331641F48D85882329F43E
:1021B000C3FC03C0E0E0F1E073C08AE0FD85F802F3
:1021C000C00111248053830D8D8787FF02C02FE744
:1021D0002D87C3FC40C22D843EC29601287030700A
:1021E000C3FE05C08D85882311F491E09D87E7E645
:1021F000E3156CF1F5E63F160CF068C083E5381680
:1022000009F489C08315BCF09BE2391609F442C079
:1022100093154CF0E0E23E1609F440C0F3E23F169D
:1022200009F0FCC143C02DE23216E9F13EE233165B
:1022300009F0F4C140C083E6381609F44DC0831597
:102240000CF481C098E5391609F0E8C120C0E0E738
:102250003E1609F4A2C0E3155CF0FCE63F1689F1D6
:102260002FE6321689F039E6331609F0D7C16BC074
:1022700085E7381609F499C098E7391641F0E3E785
:102280003E1609F0CBC130C0F8E0F88B8EC020E1DB
:10229000288B8BC080E190E0C82AD92AE0E2F0E0E8
:1022A000CE2ADF2AD8C120E830E00DC080E490E0DB
:1022B000C82AD92AD0C1E8E0F0E0CE2ADF2A1D865C
:1022C000CAC124E030E0C22AD32AC5C13FE3832E2D
:1022D0002A9423E6322E30C1F30180802A9422E032
:1022E00030E0620E731E28C1F301A081B1814D015F
:1022F000232B49F0FD856F2F772767FD7095CD0162
:102300000E945A1318C0FD0101900020E9F731978F
:10231000EA1BE88B11C0F301808191814C01232BD2
:1023200041F0FD856F2F772767FD70950E944F1351
:1023300002C00E944613888B22E030E0620E731EBA
:102340003889231AF9C0C2FE08C0F3018081918147
:10235000A281B38124E030E009C0F3018081918142
:10236000AA2797FDA095BA2F22E030E0620E731ED7
:102370004C015D01B7FF0CC082E090E0C82AD92A69
:10238000B094A09490948094811C911CA11CB11CC9
:10239000EFEBFFEFCE22DF2221C020E430E0C22AA3
:1023A000D32A98E7392E30E1388BC2FE08C0F301FA
:1023B00080819181A281B38124E030E007C0F301E4
:1023C00080819181AA27BB2722E030E0620E731E34
:1023D0004C015D018FEC9FEFC822D9228501740169
:1023E000FE013196FF87EE87F8898F2E9924AA2463
:1023F000BB24232D21522D8BC801B701A5019401C7
:102400000E9492136A301CF03D89630F01C0605D29
:10241000EE85FF856193FF87EE87C801B701A501AF
:1024200094010E94921379018A0121153105410519
:10243000510511F78824992454014E85FE894F1BBC
:10244000842EC60182739070892B09F02A94C6FEEF
:1024500007C02889203111F482E001C081E0281AE8
:10246000C3FE12C08D85282F332727FD3095842F7A
:102470009927821793072CF0E7EFFFEFCE22DF2298
:1024800003C0FD85F41BFD87860108701070C3FE34
:1024900003C02D85221A01C0241AC60180789170CC
:1024A000892B31F00AC0B20180E290E00E946513EE
:1024B0002A94822D8F5F1816B4F3C1FE04C0B201B6
:1024C0008DE290E00BC0C4FE04C0B2018BE290E04C
:1024D00005C0C5FE05C0B20180E290E00E94651310
:1024E000C6FE0FC0B20180E390E00E9465133889F8
:1024F000303139F4B201832D992787FD90950E94E0
:102500006513D0FC06C00AC0B20180E390E00E94CF
:1025100065132A94822D8F5F1816B4F3012B31F4C2
:102520000BC0B20180E390E00E9465138D8581505D
:102530008D878F5F1816ACF3F601E078F070FA8B98
:10254000E98BC7FE06C00AC0B20180E290E00E949B
:1025500065132A94822D8F5F1816B4F3F3E63F16A5
:1025600041F4B201882D992787FD90950E9465134B
:1025700045C023E73216B1F464017401188909C01B
:10258000F70181917F01B201992787FD90950E9403
:1025900065131150A8F74601F8898F0E911C2FEF93
:1025A000288B2CC033E5331619F00E851F851FC00C
:1025B00064018401F88808C0F8018491B201992768
:1025C0000E9465130F5F1F4FFA94FFEFFF16A1F7EC
:1025D00046012889820E911CF88B10C0F801829167
:1025E0008F01B201992787FD90950E9465132E896E
:1025F0003F890217130791F71F870E8789899A89E8
:10260000892B31F426C0B20180E290E00E9465136C
:102610002A94822D8F5F1816B4F31BC0B201832D4C
:10262000992787FD90950E94651313C095E239168E
:1026300041F4EAE0E88B22241D8681E0C82ED12CEB
:102640000AC0B201832D992787FD90950E946513DA
:1026500002C0CC24DD242B893C892F5F3F4F3C8B6B
:102660002B8BF201838183FF04C0EB89FC893490BA
:1026700003C0EB89FC893080332009F08DCDF20155
:1026800086819781E2E167960C94D013FC01059056
:102690000020E9F7809590958E0F9F1F0895FC010B
:1026A0000590615070400110D8F7809590958E0F7D
:1026B0009F1F0895FC016150704001900110D8F7F0
:1026C000809590958E0F9F1F08950F931F93CF9322
:1026D000DF938C01EB018B81992781FF1BC082FF67
:1026E0000DC02E813F818C819D812817390764F4AC
:1026F000E881F9810193F983E88306C0E885F985CB
:10270000802F0995892B31F48E819F8101969F83BB
:102710008E8302C00FEF1FEFC801DF91CF911F9191
:102720000F910895A1E21A2EAA1BBB1BFD010DC03B
:10273000AA1FBB1FEE1FFF1FA217B307E407F50771
:1027400020F0A21BB30BE40BF50B661F771F881F4D
:10275000991F1A9469F760957095809590959B01E3
:10276000AC01BD01CF0108952F923F924F925F922D
:102770006F927F928F929F92AF92BF92CF92DF9291
:10278000EF92FF920F931F93CF93DF93CDB7DEB7F6
:10279000CA1BDB0B0FB6F894DEBF0FBECDBF09948A
:1027A0002A88398848885F846E847D848C849B84E1
:1027B000AA84B984C884DF80EE80FD800C811B81EF
:1027C000AA81B981CE0FD11D0FB6F894DEBF0FBE1E
:0827D000CDBFED010895FFCF1C
:1027D8000D0A52656164696E6720696E69742070BC
:1027E8006172616D7320696620616E79000D0A61FE
:1027F800636B3D2573000D0A73656E64696E67200F
:1028080033313300504D544B3331332C31002425B0
:10281800732A25780D0A000D0A73656E64696E6760
:102828002033303100504D544B3330312C32000DB1
:102838000A73656E64696E672064677073207175CA
:1028480065727900504D544B343031000D0A736570
:102858006E64696E67207362617320717565727941
:1028680000504D544B343133000D0A20504F525410
:10287800423D2578000D0A696E697420000D0A67CB
:102888006F74206D6573736167652066726F6D2064
:102898007370753D2573000D0A73747265616D69F7
:1028A8006E672064617461207468726F7567682050
:1028B80078626565206D73673D2573007B28003B52
:1028C80000297D00584245452051206973206675CE
:1028D8006C6C0058424545205120697320656D7025
:1028E800747900535055205120697320656D7074B8
:1028F8007900706F70537761726D4D7367427573AD
:102908003A5354415254000D0A706F702051206997
:102918007320656D707479000D0A207461696C5FAD
:102928006964783D256C642C20686561645F69780A
:102938003D256C64000D0A206F6C64207461696C1D
:10294800206964783D256C642C206E65772074615D
:10295800696C206964783D256C642C686561642025
:102968006964783D256C64000D0A6469736361725B
:1029780064696E67207374616C65206D657373613B
:1029880067652C207472792025640070757368530C
:102998007761726D4D73674275733A53544152545F
:1029A800000D0A205055534820512046554C4C00E4
:1029B8000D0A206F6C642068656164206964783D45
:1029C800256C642C206E65772068656164206964D5
:1029D800783D256C642C207461696C206964783DAD
:1029E800256C6400244750474741002447505654FB
:1029F800470024504D544B000D0A676F74206D65D5
:102A08007373616765000D0A20646973636172649A
:102A1800696E67207374616C65206D657373616797
:022A2800650047
:00000001FF
