:1000000029C043C042C041C040C03FC03EC03DC007
:100010003CC075C63AC06FC390C337C036C035C048
:1000200034C033C032C03BC666C5A6C543C642C64F
:1000300042C557C56AC53EC63DC6E5C510C63AC6E7
:1000400039C638C637C636C63FC534C689C532C676
:1000500071C5E5C511241FBECFE5D4E0DEBFCDBF1D
:1000600012E0A0E6B0E0E4E7FBE102C005900D92EB
:10007000AE3FB107D9F713E0AEEFB2E001C01D9279
:10008000A93BB107E1F7D7D174CDBACF2F923F92F8
:100090004F925F926F927F928F929F92AF92BF9298
:1000A000CF92DF92EF92FF920F931F93CF93DF9344
:1000B000CDB7DEB726970FB6F894DEBF0FBECDBF23
:1000C000E62E5E834D833A8329831C830B8302C013
:1000D0008856914021E089369207D4F7FC01BF0190
:1000E000882777FD8095982F0ADA20E030E040E7F6
:1000F00052E41FD95B016C0164D63B014C01162F01
:10010000663009F4AEC0673008F042C07727882710
:1001100077FD8095982FF3D99B01AC01C601B501FD
:100120009DD75B016C019B01AC0160E070E080E851
:100130009FE394D79B01AC01123009F44DC01330FA
:1001400028F4662029F11130A1F42FC0143031F0C9
:10015000143008F458C0153061F46CC00F2EF0E074
:100160006F2EF0E07F2EF0E08F2EF0E09F2EF02D2E
:1001700056C00F2EF0E0AF2EF0E0BF2EF0E8CF2EED
:10018000FFE3DF2EF02D35014601150126017AC06F
:10019000350146010F2EF0E0AF2EF0E0BF2EF0E863
:1001A000CF2EFFE3DF2EF02D0CC05B016C010F2E74
:1001B000F0E06F2EF0E07F2EF0E88F2EFFE39F2E11
:1001C000F02D0F2EF0E02F2EF0E03F2EF0E04F2E1E
:1001D000F0E05F2EF02D56C0150126010F2EF0E045
:1001E000AF2EF0E0BF2EF0E0CF2EF0E0DF2EF02DAE
:1001F0000F2EF0E06F2EF0E07F2EF0E88F2EFFE361
:100200009F2EF02D3FC03B014C010F2EF0E0AF2E92
:10021000F0E0BF2EF0E0CF2EF0E0DF2EF02D0F2E1D
:10022000F0E02F2EF0E03F2EF0E84F2EFFE35F2EA0
:10023000F02D28C019012A010F2EF0E0AF2EF0E0BA
:10024000BF2EF0E8CF2EFFE3DF2EF02D0F2EF0E0D3
:100250006F2EF0E07F2EF0E08F2EF0E09F2EF02D3D
:1002600011C020E030E040EA50E4C601B501F6D606
:100270009B01AC0160E070E080E89FE3EFD69B015A
:10028000AC01D8CF6E2D7727882777FD8095982FE2
:1002900036D97B018C019B01AC01C601B50130D779
:1002A00090D5ED81FE816083A8019701C401B3015F
:1002B00027D787D5E981FA816083A8019701C20118
:1002C000B1011ED77ED5EB81FC81608326960FB6E7
:1002D000F894DEBF0FBECDBFDF91CF911F910F917C
:1002E000FF90EF90DF90CF90BF90AF909F908F9056
:1002F0007F906F905F904F903F902F900895CF9395
:10030000DF93EC0148D58091B6039091B7038C1729
:100310009D07C8F340D5DF91CF910895CF93DF9328
:10032000EC011D861E861F868E899F896A85892B12
:1003300031F46C838B858D838C858E8379C0772790
:100340008C81681B7109161617061CF481E08D87D5
:1003500009C06115710551F08FEF8D87709561951A
:100360007F4F21F080E091E0BADB02C060E070E0F6
:100370008E899F899B01289FB001299F700D389F0E
:10038000700D1124798B688B8091FE02882311F007
:10039000CB012CD28B85682F77278D81681B710943
:1003A000161617061CF481E08E8709C061157105C9
:1003B00051F08FEF8E87709561957F4F21F080E02F
:1003C00091E08DDB02C060E070E08E899F899C0126
:1003D000629FC001639F900D729F900D11249B8BB3
:1003E0008A8B8C85682F77278E81681B710916167A
:1003F00017061CF481E08F8709C06115710551F063
:100400008FEF8F87709561957F4F21F080E091E0AD
:1004100066DB02C060E070E08E899F899C01629F6C
:10042000C001639F900D729F900D11249D8B8C8B4A
:10043000DF91CF910895EF92FF920F931F93CF9387
:10044000DF9382EF81BB8BE090E043D185D4789439
:10045000B99ABA9ABB9AB2D48F708093A003809154
:10046000FE02882351F080E690E080D28091A003C4
:100470009927BCD189E790E079D210928703109236
:1004800086031092890310928803109290031092B1
:10049000910310929203E091A003FF27EC55FF4FC8
:1004A000808182958695877080938A03E091A0036E
:1004B000FF27EB54FF4F808182958695877080934C
:1004C0008B03E091A003FF27EA53FF4F80818295C1
:1004D0008695877080938C031092970310929603F1
:1004E000109299031092980310929B0310929A0312
:1004F00010929303109294031092950310929D030F
:1005000010929C0310929F0310929E031092A103DD
:100510001092A2031092A3031092A403EE24FF24CE
:1005200000E010E0C0E0D0E02DD1882321F036D1EA
:1005300049D2811168D28091B803882309F442C05E
:100540001092B8038091A2038823E1F19091A30354
:100550008091A203981789F58091A4039091FE02DF
:10056000882391F0992319F08AE890E0FFD1109246
:10057000A4038091A400809390038091B5008093A0
:1005800091038091C60012C0992319F086E990E08A
:10059000EDD181E08093A4038091A5008093900326
:1005A0008091B600809391038091C700809392035D
:1005B00086E893E0B3DE1092A3038091A3038F5FDC
:1005C0008093A30380919303882311F190918A0370
:1005D000809190039817E1F0809196039091970392
:1005E000E816F90620F40894E11CF11C11C0809172
:1005F0008A0390919303890F80938A0390918A03D1
:1006000080919003981711F410929303EE24FF2425
:1006100080919403882309F190918B038091910339
:100620009817D9F0809198039091990308171907AA
:1006300018F40F5F1F4F11C080918B0390919403AA
:10064000890F80938B0390918B038091910398176E
:1006500011F41092940300E010E080919503882338
:1006600001F190918C03809192039817D1F08091C1
:100670009A0390919B03C817D90710F4219611C0D3
:1006800080918C0390919503890F80938C039091B6
:100690008C0380919203981711F410929503C0E097
:1006A000D0E0E0918C03FF27E952FF4F808183BDAA
:1006B0001BBCE0918A03FF27E952FF4F80818ABD6E
:1006C00019BCE0918B03FF27E952FF4F808188BD61
:1006D0002BCF292F332720BD89B988E18AB98EE82D
:1006E00080BD109242031092410310928403109235
:1006F0008303579A08951F920F920FB60F921124F9
:100700002F938F939F93EF93FF939CB1809141031D
:100710008F5F8F738093410320914203E1E0F3E008
:10072000E80FF11D9083FF91EF919F918F912F9191
:100730000F900FBE0F901F9018951F920F920FB63B
:100740000F9211248F939F93EF93FF9390918303C4
:1007500080918403981761F0E0918403EF5FEF7359
:10076000E0938403FF27ED5BFC4F80818CB901C0CF
:100770005598FF91EF919F918F910F900FBE0F9021
:100780001F901895909141038091420320E030E042
:10079000981711F021E030E0C901089590914103CC
:1007A000809142039817D1F3E0914203EF5FEF731A
:1007B000E0934203FF27EF5FFC4F80819927089564
:1007C000282F8091FE02882381F0909183039F5F00
:1007D0009F73809184039817E1F3E92FFF27ED5B66
:1007E000FC4F208390938303559A0895DF92EF92F4
:1007F000FF920F931F93CF93DF93EC0197FD04C0FB
:100800004BE2D42E80E009C0D095C195DF4F3DE288
:10081000D32EF8CFC051D7428F5F27E2C031D20725
:10082000CCF720E3E22EE80E80E003C0C85ED340A0
:100830008F5F33E0C83ED307CCF790E3F92EF80E74
:1008400080E003C0C456D0408F5FC436D105D4F7D2
:10085000082F005D10E002C02A971F5FCA30D10543
:10086000DCF780E2ADDF8D2DABDF8E2DA9DF8F2D84
:10087000A7DF802FA5DF812F805DA2DF9E01205D95
:10088000822F9EDFDF91CF911F910F91FF90EF900C
:10089000DF900895EF92FF920F931F93CF93DF9312
:1008A000EC0180E003C0C051D7428F5F27E2C03126
:1008B000D207CCF760E3E62EE80E80E003C0C85E06
:1008C000D3408F5F33E0C83ED307CCF750E3F52E1B
:1008D000F80E80E003C0C456D0408F5FC436D10507
:1008E000D4F7082F005D10E002C02A971F5FCA30BE
:1008F000D105DCF780E264DF8E2D62DF8F2D60DFB3
:10090000802F5EDF812F805D5BDF9E01205D822F67
:1009100057DFDF91CF911F910F91FF90EF900895D6
:10092000FF920F931F93182F20E002C014562F5FE1
:10093000812F992784369105CCF770E3F72EF20EBC
:1009400000E002C01A500F5F812F99270A97D4F751
:1009500080E236DF8F2D34DF802F805D31DF812F05
:10096000805D2EDF1F910F91FF900895CF93DF934D
:10097000EC0102C025DF219688818823D9F7DF9119
:10098000CF910895682F20E030E00FC0C901E3E067
:10099000880F991FEA95E1F7220F331F280F391F9F
:1009A000240F351F205330406F5FE62FFF27EA5595
:1009B000FC4F8081482F5527CA01C0970A9730F312
:1009C000C9010895282F8C3331F48093A60381E068
:1009D0008093850304C090918503992319F480E0E6
:1009E00090E00895903140F4E92FFF27EA55FC4F3D
:1009F00080839F5F9093850380E090E02E3311F415
:100A000081E090E008950F931F93CF93DF9380913F
:100A1000A7038C3449F08091FE02882309F453C166
:100A200087ED91E0A3DF4FC11091A803212F332759
:100A3000205330402A303105C0F48091A00399271B
:100A40002817390711F423E011C08091FE02882392
:100A500009F439C187EE91E089DF812FB1DE8AEF99
:100A600091E084DF8091A00339C022E0022F11279A
:100A7000F801EA55FC4F81819927C0970A9718F031
:100A8000C0E0D0E004C0822F8F5F7CDFEC010A550C
:100A90001C4FF8011081812F9927AA27BB27FC0141
:100AA000E154F040E731F10508F004C1ED5EFF4F7D
:100AB0008091FE020994882319F08FEF91E056DFB0
:100AC00086E893E02BDCFFC0C0939003882309F4F1
:100AD000FAC082E192E04ADF80919003992786DE96
:100AE000F2C0882329F08EE192E040DFCE017EDE65
:100AF000C0939103E8C0882329F08AE292E036DFB0
:100B0000CE0174DEC0939203DEC0882329F087E310
:100B100092E02CDFCE016ADED0938703C093860378
:100B200002E913E021E933E040E953E060918803F2
:100B3000CE0114C0882329F083E492E017DFCE01B0
:100B400055DEC093880302E913E021E933E040E970
:100B500053E06C2F809186039091870397DAB3C09E
:100B6000882329F08FE492E001DFCE013FDED093AD
:100B70009D03C0939C03A7C0882361F08CE592E09D
:100B8000F5DECE0133DE8BE692E0F0DE8091A0034D
:100B900099272CDEC0E0D0E020C013BC1BBC1ABCDF
:100BA00019BC18BC8091FE02882319F084E792E0FA
:100BB000DDDE86E990E0A3DB8091FE02882319F058
:100BC00086E892E0D3DE8FEF83BD1BBC8ABD19BCE3
:100BD00088BD86E990E093DB21962091A003822FC7
:100BE00099278F709070C817D907BCF2222309F09B
:100BF0006AC08FEF83BD1BBC8ABD19BC88BD84EF62
:100C000091E07DDB60C0882329F087E992E0AEDEC9
:100C1000CE01ECDDC093A203C093A30354C088238C
:100C200029F085EA92E0A2DECE01E0DD8091A3000A
:100C300099278C179D0708F4EC01FE01EC55FF4F36
:100C4000809190038083FE01EB54FF4F80919103CC
:100C50008083CA53DF4F80919203888334C08823F6
:100C600029F08AEB92E082DECE01C0DD8091A30004
:100C700099278C179D0708F4EC01FE01EC55FF4FF6
:100C8000808180939003FE01EB54FF4F808180931D
:100C90009103CA53DF4F88818093920314C0882345
:100CA00029F08BEC92E062DECE01A0DD8091A00302
:100CB0000FD009C08091FE02882329F08BED92E0CD
:100CC00055DE812F7DDDDF91CF911F910F9108952A
:100CD000282FE199FECF81E090E09FBB8EBB2DBB1A
:100CE000F894E29AE19A78940895E199FECF81E030
:100CF00090E09FBB8EBBE09A8DB3992708951F9219
:100D00000F920FB60F9211245F936F937F938F937F
:100D10009F93AF93BF938091B6039091B7030196D1
:100D20009093B7038093B6038091B6039091B70375
:100D300064E270E0C0D6892B19F481E08093B80397
:100D4000BF91AF919F918F917F916F915F910F9024
:100D50000FBE0F901F9018951092B7031092B60314
:100D60001092B80383B7836083BF12BE89B78160D6
:100D700089BF9CE695BD8FEF83BD95BD80EF83BD98
:100D800085EA8FBD8BE08EBD1BBC19BC80E88ABD97
:100D90001BBC8ABD089589B78E7F89BF1092B703A7
:100DA0001092B60389B7816089BF089589B78160C1
:100DB00089BF089589B78E7F89BF089582E090E04A
:100DC0000895EF92FF920F931F937B018C0120E017
:100DD00030E040E05FE462D388236CF020E030E054
:100DE00040E05FE4C801B70139D1EFD360507040F3
:100DF0008040904803C0C801B701E7D31F910F910D
:100E0000FF90EF900895A0E0B0E0E8E0F7E07EC644
:100E1000FC016A019081923008F41BC1DB018C91C6
:100E2000823080F0943061F4843009F012C19181F5
:100E3000EB018981981709F40CC1E5EFF2E009C1D3
:100E4000843011F4FB0105C1823091F4923009F035
:100E500000C1EA01DF0188E00D9009928150E1F7BD
:100E60008181FB0191818923E6018983F601F1C02B
:100E7000923041F362807380EB018A809B80E48032
:100E8000F580068117812C813D814E815F81530160
:100E9000A818B908C501B7FCABC080970CF457C0BF
:100EA000861497040CF4BEC03401EE24FF2487019D
:100EB0009181FB018181981709F4A6C0992309F457
:100EC0009CC02E193F09400B510B57FDB0C0E601E5
:100ED00019827B826A82F601248335834683578395
:100EE000E6012C813D814E815F8179018A01DA0121
:100EF000C9010197A109B1098F5F9F4FAF4FBF4350
:100F0000F8F4E6016A817B81A8019701220F331F63
:100F1000441F551F6150704079018A01DA01C901EF
:100F20000197A109B1098F5F9F4FAF4FBF4360F396
:100F3000E6017B836A83F6012483358346835783E6
:100F400083E0D6018C9357FD39C0F60182C0861428
:100F50009704B4F4C0E0D0E0DA01C9018170907068
:100F6000A070B0705695479537952795282B392B4B
:100F70004A2B5B2B2196AC16BD0671F78A0C9B1C85
:100F8000681479040CF094CFC0E0D0E05401A618A6
:100F9000B708D801C70181709070A070B070169525
:100FA0000795F794E794E82AF92A0A2B1B2B219638
:100FB000AC16BD0671F76A0C7B1C7ACFDA01C90149
:100FC000B695A795979587952170307040705070B1
:100FD000282B392B4A2B5B2BE6012C833D834E8338
:100FE0005F838A819B8101969B838A83F60131C04E
:100FF000882799278A199B0950CFE21AF30A040B14
:10100000150BA801970161CFE60199837B826A8263
:101010002E0D3F1D401F511FF6012483358346834B
:1010200057838ECF20E030E040E050E041CF81E0B8
:10103000E60189837B826A8250954095309521959F
:101040003F4F4F4F5F4FF6012483358346835783CD
:1010500047CFCF01EEE0CDB7DEB774C5A0E2B0E078
:10106000E3E3F8E05BC569837A838B839C832D83FC
:101070003E834F83588789E1E82EF12CEC0EFD1E4C
:10108000B701CE01019610D48E010F5E1F4FB8013B
:10109000CE01059609D48A8991E089278A8BAE0111
:1010A000475F5F4FB801C701AEDEDCD2E6E0A09635
:1010B00051C5A0E2B0E0EEE5F8E030C569837A837F
:1010C0008B839C832D833E834F83588799E1E92E40
:1010D000F12CEC0EFD1EB701CE010196E5D38E0179
:1010E0000F5E1F4FB801CE010596DED3AE01475FFC
:1010F0005F4FB801C70187DEB5D2E6E0A0962AC5EA
:10110000A0E2B0E0E5E8F8E0FDC469837A838B8370
:101110009C832D833E834F8358878E01075E1F4F2C
:10112000B801CE010196C0D3F1E1EF2EF12CEC0E07
:10113000FD1EB701CE010596B7D3898D823078F0B8
:101140009989923040F420E09A8D8A89981321E0A1
:101150002A8BB701E9C0843051F4923061F020E06D
:101160009A8D8A89981321E02A8FB801DDC09430C6
:1011700029F4823041F765EF72E0D6C0823079F30E
:10118000923009F32D8D3E8D4F8D58A18D899E890A
:10119000AF89B88D222433242101AA24BB24650100
:1011A000EE24FF24870160E070E00DC06F5F7F4F89
:1011B0006032710599F1880F991FAA1FBB1F5695C0
:1011C00047953795279520FF19C0280E391E4A1ECE
:1011D0005B1E662477244301281639064A065B06FF
:1011E00028F4E1E06E2E712C812C912CAE0CBF1CEA
:1011F000C01ED11EA60CB71CC81CD91CEE0CFF1CAF
:10120000001F111FB7FFD2CFE1E06E2E712C812C91
:10121000912CE628F72808291929C8CF8B8D9C8D99
:101220002B893C89820F931F02969C878B871A8695
:101230009A8D8A89981711F081E08A87D7FE17C0A6
:101240008B859C85A0FE0CC05694479437942794B8
:1012500020E030E040E050E8222A332A442A552A90
:10126000D694C794B794A79401969C878B8730E057
:10127000A31630E0B30630E0C30630E4D30618F519
:101280008B859C850EC0220C331C441C551C019779
:1012900020E0A21620E0B20620E0C20620E4D2063A
:1012A00080F4AA0CBB1CCC1CDD1C57FEECCF31E03B
:1012B000632E712C812C912CA628B728C828D928F8
:1012C000E2CF9C878B87D601C5018F779070A07085
:1012D000B07080349105A105B10551F0AD86BE8690
:1012E000CF86D88A83E08987BE01675F7F4F1CC0A5
:1012F000A7FCF4CF211431044104510479F380E4B4
:1013000090E0A0E0B0E0A80EB91ECA1EDB1E80E887
:10131000682E8FEF782E8FEF882E8FEF982EA620D5
:10132000B720C820D920DACFCB019CD1E2E1A0962A
:1013300005C4A8E1B0E0EEE9F9E0EAC369837A8385
:101340008B839C832D833E834F835887B1E18B2E03
:10135000912C8C0E9D1EB401CE010196A5D28E015A
:10136000075F1F4FB801CE0105969ED22989223012
:1013700008F46AC03985323008F468C08A899A85D1
:1013800089278A8B243009F463C0223009F460C0B5
:10139000343041F41D8A1E8A1F8A188E1C8A1B8ACB
:1013A000B40177C0323009F458C06B897C898B85D1
:1013B0009C85681B790B7C8B6B8B2D893E894F89B3
:1013C000588DED84FE840F8518892E153F05400742
:1013D000510740F4220F331F441F551F61507040C6
:1013E0007C8B6B8B80E090E0A0E0B0E4AA24BB246F
:1013F000650160E070E02E153F054007510740F0A1
:10140000A82AB92ACA2ADB2A2E193F09400B510BF8
:10141000B695A79597958795220F331F441F551FA3
:101420006F5F7F4F6F31710531F7D601C5018F773F
:101430009070A070B07080349105A105B10589F05D
:10144000AD8ABE8ACF8AD88EB40123C0B80121C02C
:101450003217D1F765EF72E01CC084E0898BB401CC
:1014600018C0A7FCEDCF211531054105510541F309
:1014700080E490E0A0E0B0E0A80EB91ECA1EDB1E1A
:1014800080E89FEFAFEFBFEFA822B922CA22DB228C
:10149000D7CFCB01E7D0ECE0689656C3A8E1B0E027
:1014A000E3E5FAE03BC369837A838B839C832D83D6
:1014B0003E834F83588781E1E82EF12CEC0EFD1E10
:1014C000B701CE010196F0D18E01075F1F4FB80121
:1014D000CE010596E9D18989823018F42FEF3FEFCC
:1014E0000AC089858230D0F3B801C7017CD2282F89
:1014F000332727FD3095C901E6E068962BC3A8E0A5
:10150000B0E0E4E8FAE00DC39B01AC0183E089831D
:101510001A8257FD50C0211531054105510531F49E
:1015200082E08983CE0101969DD04CC0EEE1F0E0CF
:10153000FC83EB838A818823C9F1203010E03107D6
:1015400010E0410710E85107C9F188279927DC010D
:10155000821B930BA40BB50B8D839E83AF83B8873F
:101560002D813E814F815885203080E0380780E012
:10157000480780E45807B0F6EB81FC81DA01C90125
:10158000880F991FAA1FBB1F31979C01AD018030A6
:1015900010E0910710E0A10710E4B10778F3FC8395
:1015A000EB838D839E83AF83B887BCCF2D833E832F
:1015B0004F835887D5CF81E08A83ADCF60E070E05C
:1015C00080E09FECE3E02896C8C2ACE0B0E0EAEE31
:1015D000FAE0A8C269837A838B839C83BE016B5F28
:1015E0007F4FCE01019660D18D81823061F08230D3
:1015F00050F0843069F48E81882359F52FEF3FEF46
:101600004FEF5FE72AC020E030E040E050E025C027
:101610002F81388537FDF7CF2F31310564F78EE103
:1016200090E0821B930B29853A854B855C8504C02D
:1016300056954795379527958A95D2F78E818823B9
:1016400061F050954095309521953F4F4F4F5F4F3A
:1016500004C020E030E040E050E8CA01B901E2E017
:101660002C967CC24F925F926F927F928F929F9244
:10167000AF92BF92DF92EF92FF920F931F9320E001
:1016800030E040E050E0FC01E480F5800681178105
:10169000D1808081823038F4D801C701A061AF7752
:1016A000B0706FEFD9C0843009F46EC0823009F495
:1016B00071C0E114F1040105110509F46BC08281C8
:1016C00093816FEF823896070CF06AC062E87FEF73
:1016D000681B790B6A3171050CF080C04701580115
:1016E000062E04C0B694A794979487940A94D2F7D0
:1016F00044245524320181E090E0A0E0B0E004C031
:10170000880F991FAA1FBB1F6A95D2F70197A109DD
:10171000B109E822F9220A231B23E114F10401058F
:10172000110529F061E0462E512C612C712C8501A8
:101730007401E428F52806291729D801C7018F77F5
:101740009070A070B07080349105A105B10509F4C6
:1017500057C0D801C701CF96A11DB11D60E070E050
:101760008030E0E09E07E0E0AE07E0E4BE0710F066
:1017700061E070E027E0B695A795979587952A9543
:10178000D1F7AF77B07068C080E090E0A0E0B0E043
:101790006FEF62C080E090E0A0E0B0E060E05CC08D
:1017A000803891058CF7BC0161587F4FD801C70183
:1017B0008F779070A070B07080349105A105B1054D
:1017C000A1F08FE390E0A0E0B0E0E80EF91E0A1F60
:1017D0001B1F17FD28C0D801C701CCCF60E070E007
:1017E00080E090E0A0E0B0E0CCCFE7FEF2CF80E474
:1017F00090E0A0E0B0E0E80EF91E0A1F1B1FE9CF41
:10180000E7FC18C080E090E060E0E61660E0F606D5
:1018100060E0060760E4160710F081E090E0BC018C
:10182000D801C701A7CF16950795F794E7946F5F86
:101830007F4FD1CFD801C701805C9F4FAF4FBF4FC3
:1018400060E070E08030E0E09E07E0E0AE07E0E4BA
:10185000BE0708F48FCF8CCF282F392F9A2F9F7770
:10186000842F8078892B962F9795992797958F7736
:10187000482F492B6695852F8078862BD794DD24B9
:10188000D7948F77582F5D29CA01B9011F910F9105
:10189000FF90EF90DF90BF90AF909F908F907F90E0
:1018A0006F905F904F900895FC01DB0120813181A2
:1018B0009281492F4F7750E0991F9927991F838173
:1018C000682F660F692B881F8827881FFD01818379
:1018D000662309F049C0211531054105510509F478
:1018E00070C082E89FEFFD0193838283220F331F34
:1018F000441F551F220F331F441F551F220F331F34
:10190000441F551F220F331F441F551F220F331F23
:10191000441F551F220F331F441F551F220F331F13
:10192000441F551F83E08C932030F0E03F07F0E028
:101930004F07F0E45F0790F482E89FEF220F331F18
:10194000441F551F0197203060E0360760E04607CE
:1019500060E4560798F3FD0193838283FD0124839D
:1019600035834683578308956F3F71F1862F9927FA
:101970008F579040FD019383828383E08C93220FE5
:10198000331F441F551F220F331F441F551F220FA3
:10199000331F441F551F220F331F441F551F220F93
:1019A000331F441F551F220F331F441F551F220F83
:1019B000331F441F551F5064248335834683578348
:1019C000089582E08C930895211531054105510554
:1019D00019F484E08C93089544FD02C01C92BECF9C
:1019E00081E08C93BBCFEF92FF920F931F93CF9325
:1019F000DF93FC01DB018081823050F09C919230BA
:101A000038F0843041F49430B1F08181882381F43E
:101A100061E070E04BC09430E9F18230A1F0923087
:101A2000A1F36181ED018981681791F0662381F34B
:101A30006FEF7FEF3BC0EB018981682F77278181B2
:101A4000681B710933C0923059F560E070E02EC018
:101A500022813381ED018A819B818217930734F3C0
:101A6000281739079CF0E480F58006811781FD0175
:101A700024813581468157812E153F054007510746
:101A8000A8F2E216F30604071507F8F6662309F034
:101A9000BFCFCECFFB018181882309F0B9CFC8CF5A
:101AA000EB018981882309F0B3CFC2CFCB01E6E0F7
:101AB000CDB7DEB74FC0AA1BBB1B51E107C0AA1FA1
:101AC000BB1FA617B70710F0A61BB70B881F991FDF
:101AD0005A95A9F780959095BC01CD01089597FB83
:101AE000092E07260AD077FD04D0E5DF06D00020B6
:101AF0001AF4709561957F4F0895F6F7909581954A
:101B00009F4F08952F923F924F925F926F927F92D4
:101B10008F929F92AF92BF92CF92DF92EF92FF92FD
:101B20000F931F93CF93DF93CDB7DEB7CA1BDB0BA9
:101B30000FB6F894DEBF0FBECDBF09942A8839884E
:101B400048885F846E847D848C849B84AA84B98455
:101B5000C884DF80EE80FD800C811B81AA81B98161
:101B6000CE0FD11D0FB6F894DEBF0FBECDBFED0175
:041B70000895FFCF06
:101B74000D0A2E2E2E496C6C756D696E61746F7230
:101B840020402061646472200020736179732068AE
:101B9400656C6C6F2E2E2E0D0A000D0A20626C6986
:101BA4006E6B206F6E000D0A20626C696E6B206F85
:101BB4006666000FFEFE0000FEFE00FE00FE000052
:101BC400FEFE00FE00FE00FE0000FEFEFE0000FE23
:101BD4000000FEFEFE00FE0000FEFE00FEFE000011
:101BE40000FEFE00FEFE00000000000000000001F8
:101BF40001010101010102020202020303030304C1
:101C0400040404050505060606070708080809096B
:101C14000A0A0A0B0B0C0C0D0D0E0E0F0F101011EF
:101C240011121213131415151616171818191A1A57
:101C34001B1C1C1D1E1E1F2020212223232425269D
:101C440026272829292A2B2C2D2E2E2F30313233CA
:101C5400343535363738393A3B3C3D3E3F404142D6
:101C6400434445464748494A4B4C4D4E4F505152C8
:101C74005354565758595A5B5C5D5F6061626364A4
:101C8400666768696B6C6D6E6F7172737476777862
:101C94007A7B7C7E7F808183848687888A8B8C8E06
:101CA4008F919293959698999A9C9D9FA0A2A3A593
:101CB400A6A8A9ABACAEAFB1B2B4B5B7B8BABCBD07
:101CC400BFC0C2C3C5C7C8CACCCDCFD0D2D4D5D764
:101CD400D9DADCDEE0E1E3E5E6E8EAECEDEFF1F3A6
:101CE400F4F6F8FAFBFDFF0D0A206E6F204C20631A
:101CF4006F6D6D616E64000D0A77726F6E6720619F
:101D04006464726573733A20200020213D20000D25
:101D14000A476F74206661646520636F6D6D616E40
:101D240064000D0A476F74207265643A20000D0A3E
:101D3400476F742067726E3A20000D0A476F742053
:101D4400626C75653A20000D0A476F7420687565EA
:101D54003A20000D0A476F742076616C3A20000D1A
:101D64000A476F742074696D653A20000D0A436850
:101D740065636B206D6F64653A20000D0A416464ED
:101D8400723A20000D0A63686B20626C696E6B20E6
:101D94006F66662020000D0A63686B20626C696EB2
:101DA4006B206F6E2020000D0A426C696E6B2076EA
:101DB400616C3A20000D0A777269746520636F6C58
:101DC4006F7220696E64657820000D0D6561646929
:101DD4006E6720696E6465783A20000D0A476F7457
:101DE40020616464726573733A20000D0A756E7223
:101DF40065636F6720636F6D6D616E6420636861F6
:0E1E0400723A0A2000000000000000000000FA
:00000001FF
