:1000000012C02CC02BC02AC029C028C027C026C0BF
:1000100025C0FFC123C035C056C020C01FC01EC0B0
:100020001DC01CC01BC011241FBECFE5D4E0DEBF25
:10003000CDBF12E0A0E6B0E0ECE0F9E102C005902F
:100040000D92A833B107D9F712E0A8E3B2E001C0DE
:100050001D92A23BB107E1F728D657CCD1CF292F6B
:10006000332720BD89B988E18AB986E880BD10921E
:1000700059021092580210927B0210927A02579AFB
:1000800008951F920F920FB60F9211242F938F9302
:100090009F93EF93FF939CB1809158028F5F8F7174
:1000A0008093580220915902E8E3F2E0E80FF11D35
:1000B0009083FF91EF919F918F912F910F900FBEA1
:1000C0000F901F9018951F920F920FB60F92112448
:1000D0008F939F93EF93FF9390917A0280917B028D
:1000E000981761F0E0917B02EF5FEF71E0937B0284
:1000F000FF27E65AFD4F80818CB901C05598FF91CA
:10010000EF919F918F910F900FBE0F901F901895B8
:10011000909158028091590220E030E0981711F038
:1001200021E030E0C9010895909158028091590270
:100130009817D1F3E0915902EF5FEF71E093590204
:10014000FF27E85CFD4F808199270895282F909123
:100150007A029F5F9F7180917B029817E1F3E92FEC
:10016000FF27E65AFD4F208390937A02559A08950F
:100170001F93CF93DF93EC0197FD2CC027E2C03192
:10018000D20734F0C051D74237E2C031D307D4F799
:1001900083E0C83ED80734F0C85ED34023E0C83EB1
:1001A000D207D4F7C436D105DCF080E0C456D04085
:1001B0008F5FC436D105D4F7982F905DCA30D10532
:1001C0009CF080E02A978F5FCA30D105DCF7182FAA
:1001D000105D0BC08DE2BADFD095C195DF4FCECF59
:1001E00090E3CA30D1056CF710E3892FAFDF812F80
:1001F000ADDF9E01205D822FA9DFDF91CF911F919E
:100200000895EF92FF920F931F93CF93DF93EC012A
:1002100097FD3FC090E027E2C031D2070CF442C006
:1002200080E0C051D7428F5F37E2C031D307CCF7AF
:1002300040E3E42EE80E83E0C83ED807CCF180E02E
:10024000C85ED3408F5F23E0C83ED207CCF720E3DF
:10025000F22EF80EC436D10584F180E0C456D040A9
:100260008F5FC436D105D4F7082F005DCA30D105A1
:1002700044F180E02A978F5FCA30D105DCF7182F50
:10028000105D992319F08DE261DF1DC080E25EDF11
:100290001AC0D095C195DF4F9FEF27E2C031D2073A
:1002A0000CF0BECF50E3E52E83E0C83ED8073CF605
:1002B00030E3F32EC436D10584F600E3CA30D1050D
:1002C000C4F610E3DECF8E2D41DF8F2D3FDF802F70
:1002D0003DDF812F3BDF9E01205D822F37DFDF91E5
:1002E000CF911F910F91FF90EF9008950F931F935F
:1002F000182F8095881F8827881F01E3902F981B4F
:10030000892F24DF110F812F8095881F8827881F50
:10031000902F981B892F1ADF110F812F8095881F2E
:100320008827881F902F981B892F10DF110F812F8E
:100330008095881F8827881F902F981B892F06DF9C
:10034000110F812F8095881F8827881F902F981B59
:10035000892FFCDE110F812F8095881F8827881F29
:10036000902F981B892FF2DE110F812F8095881F07
:100370008827881F902F981B892FE8DE110F109572
:10038000111F1127111F802F811BE0DE1F910F917C
:1003900008950F931F93182F882319F1282F3327BF
:1003A000243631051CF180E014568F5F212F33274E
:1003B00024363105CCF7482F405D2A303105A4F0B2
:1003C00020E01A502F5F812F99270A97D4F7022F28
:1003D000005D842FBBDE802FB9DE812F805DB6DE0D
:1003E00007C080E3B3DE04C000E3F3CF40E3E5CF12
:1003F0001F910F910895CF93DF93EC01888188239B
:1004000029F0A4DE219688818823D9F7DF91CF9146
:1004100008951F920F920FB60F9211245F936F935E
:100420007F938F939F93AF93BF938091AF029091EF
:10043000B00201969093B0028093AF028091AF0218
:100440009091B00263E370E015DA892B19F481E032
:100450008093B102BF91AF919F918F917F916F91E6
:100460005F910F900FBE0F901F9018951092B002E1
:100470001092AF021092B10283B7836083BF12BEA5
:1004800089B7816089BF089589B78E7F89BF10922F
:10049000B0021092AF0289B7816089BF089589B711
:1004A000816089BF089589B78E7F89BF0895E199DA
:1004B000FECF9FBB8EBB6DBBF894E29AE19A789415
:1004C0000895E199FECF9FBB8EBBE09A8DB399272B
:1004D000089580E991E090937D0280937C0290934F
:1004E0007F0280937E02909381028093800290939A
:1004F000830280938202909385028093840290937A
:100500008702809386029093890280938802909359
:100510008B0280938A0286E086B983E487B9379A92
:10052000369A089536991FC047B14770E42FFF27C8
:1005300064B175B1EE0FFF1FE458FD4F208131818A
:10054000C901880F991F820F931F860F971F9695D9
:10055000879596958795918380834F5F483020F0EB
:1005600043E447B9369A089547704064FACF88301B
:1005700048F4E82FFF27EE0FFF1FE458FD4F80815E
:100580009181089580E090E00895282F8E33B1F096
:1005900090919102992379F09C3040F4E92FFF2744
:1005A000EE56FD4F80839F5F9093910280E090E034
:1005B0002C3361F0089580E090E0089580939202DA
:1005C00081E08093910280E090E0089581E090E0E6
:1005D000089580919402803291F092E0E2E0F0E0A0
:1005E00023E0EE56FD4F80818D3291F09F5FE92F21
:1005F000FF27EE56FD4F80818C33C1F70BC093E08F
:10060000E3E0F0E024E0EE56FD4F80818D3271F79B
:10061000922FECCF109291020895982FE82FFF2788
:10062000EE56FD4F80818D3239F1492F50E020E0A8
:1006300030E0A42FBB27C901880F991F880F991F8D
:10064000880F991F220F331F280F391FAE56BD4F39
:100650008C91280F311D205330404F5FA42FBB27B2
:10066000FD01EE56FD4F80818C3329F7552341F073
:10067000309521953F4F04C0492F4F5F51E0D7CFB0
:10068000C9010895382F662361F422B381E090E018
:1006900002C0880F991F3A95E2F78095282322BB64
:1006A000089522B381E090E002C0880F991F3A9527
:1006B000E2F7282B22BB08958F929F92AF92BF92B0
:1006C000CF92DF92EF92FF920F931F93CF93DF931E
:1006D0004B010091260210912702E8018017910733
:1006E0000CF4EC01A0902402B0902502BE018827F2
:1006F00077FD8095982F4AD66B017C011C161D064C
:1007000034F4B801882777FD8095982F05C0B5018E
:10071000882777FD8095982F39D69B01AC01C701BA
:10072000B6017FD57B018C01B401882777FD8095C8
:10073000982F2CD69B01AC01C801B70159D48CD697
:10074000DC01CB01DF91CF911F910F91FF90EF90D2
:10075000DF90CF90BF90AF909F908F900895CF93F0
:10076000DF93EC0191DE8091AF029091B0028C1783
:100770009D07C8F389DEDF91CF9108951F93CF9332
:10078000DF93182FEB0180E690E035DE812F805D4E
:10079000DDDC83E690E02FDE209719F0CE012BDE22
:1007A00003C088E690E027DE8CE690E024DEDF914F
:1007B000CF911F910895EF92FF920F931F93182FDF
:1007C000062FE42EF22E80E690E015DE812F805D6C
:1007D000BDDC83E790E00FDE0F3F19F0802F805DD6
:1007E000B5DC8E2DB3DC8FEFF81611F08F2DD1DD37
:1007F00087E790E000DE1F910F91FF90EF90089542
:100800000F931F93CF93DF93082F162FC42FDD274D
:10081000C7FDD095FE01EA5FFD4F208142E5CBDFA9
:10082000FE01E25FFD4F208147E4612F802FC3DF8F
:10083000CA5EDD4F288142E4612F802FBCDF2FEF9D
:1008400046E4612F802FB7DFDF91CF911F910F9189
:1008500008951F9380EC87BB8FE388BB14BA83E0B5
:1008600085BB8EE081BB80EF82BB8BE090E0F7DB45
:1008700030DEFCDD789480B3992780959095807F59
:10088000907095958795959587959595879595956C
:1008900087958F7080939E0280918C02882329F522
:1008A00080919E0218165CF510E09398EDDD809122
:1008B000AF029091B00288379105C8F3E5DD939AB5
:1008C000E3DD8091AF029091B00288379105C8F3C3
:1008D000DBDD1F5F212F332780919E02992787FD43
:1008E0009095281739070CF30AC08AE790E083DD5A
:1008F00080919E024EDD80E990E07DDDD1CF939A1C
:10090000929A1F910895FF920F931F93CF93DF93B5
:10091000EC018091AF029091B0028050924008F4B7
:1009200008C1B2DD80918C028881882309F085C0DE
:10093000929881E0888380918E02882309F4F9C01F
:100940008881882309F07CC0F0909E020F2D11272A
:1009500007FD1095F801EA5FFD4F208142E560E058
:100960008F2D29DFF801E25FFD4F208147E460E031
:100970008F2D21DF0A5E1D4FF801208142E460E0E7
:100980008F2D19DF2FEF46E460E08F2D14DF1091DB
:100990009E0220910D0242E561E0812F0CDF209143
:1009A000150247E461E0812F06DF20911D0242E439
:1009B00061E0812F00DF2FEF46E461E0812FFBDE55
:1009C000F0909E020F2D112707FD1095F801EA5FA8
:1009D000FD4F208142E562E08F2DEDDEF801E25F00
:1009E000FD4F208147E462E08F2DE5DE0A5E1D4F5A
:1009F000F801208142E462E08F2DDDDE2FEF46E436
:100A000062E08F2DD8DE10919E0220910D0242E50A
:100A100063E0812FD0DE2091150247E463E0812F4F
:100A2000CADE20911D0242E463E0812FC4DE2FEF75
:100A300046E463E0812FBFDE7CC0929A18827BCFB0
:100A400010919E0220910D0242E560E0812FB3DEFD
:100A50002091150247E460E0812FADDE20911D0258
:100A600042E460E0812FA7DE2FEF46E460E0812FB3
:100A7000A2DEF0909E020F2D112707FD1095F801C0
:100A8000EA5FFD4F208142E561E08F2D94DEF801A1
:100A9000E25FFD4F208147E461E08F2D8CDE0A5E2E
:100AA0001D4FF801208142E461E08F2D84DE2FEF9D
:100AB00046E461E08F2D7FDE10919E0220910D02B1
:100AC00042E562E0812F77DE2091150247E462E083
:100AD000812F71DE20911D0242E462E0812F6BDEE6
:100AE0002FEF46E462E0812F66DEF0909E020F2D2C
:100AF000112707FD1095F801EA5FFD4F208142E5BF
:100B000063E08F2D58DEF801E25FFD4F208147E45E
:100B100063E08F2D50DE0A5E1D4FF801208142E414
:100B200063E08F2D48DE2FEF46E463E08F2D43DE38
:100B30000BCFDF91CF911F910F91FF900895EF920E
:100B4000FF920F931F93CF93DF93F82E062F182F4A
:100B50001095162380918C028823A1F4E12EFF24A6
:100B6000E0FC20C0E1FC3DC0E2FC44C0E3FC72C0FC
:100B7000E4FE03C081E080938E02E5FE8FC01092F8
:100B80008E028CC083E990E036DC00958F2D8023A7
:100B9000ADDB8CE990E02FDC812FA8DBE12EFF2478
:100BA000E0FEE0CF80919002E82FFF27EE0FFF1FBD
:100BB000E653FE4F608171818F5F80939002809138
:100BC0009E02DCDD8091900299272091C100309136
:100BD000C200821793070CF057C010928E02E1FEFC
:100BE000C3CF60E070E080919E02C8DD10928E025B
:100BF000E2FEBCCF20918F022F5F20938F02215005
:100C000010919E02C22FDD27C7FDD095FE01EA5F3D
:100C1000FD4F208142E56FEF812FCDDDFE01E25FC8
:100C2000FD4F208147E46FEF812FC5DDCA5EDD4FA8
:100C3000288142E46FEF812FBEDD2FEF46E46FEF96
:100C4000812FB9DD80918F02863018F510928E02C7
:100C5000E3FE8ECF10919E0220910D0242E56FEFD0
:100C6000812FA9DD2091150247E46FEF812FA3DDCD
:100C700020911D0242E46FEF812F9DDD2FEF46E4AE
:100C80006FEF812F98DD74CF1092900210928E0238
:100C9000A6CF10928F0210928E02DACFDF91CF9101
:100CA0001F910F91FF90EF9008952F923F924F92D6
:100CB0005F926F927F928F929F92AF92BF92CF92EC
:100CC000DF92EF92FF920F931F93CF93DF93CDB7F5
:100CD000DEB721970FB6F894DEBF0FBECDBF1982E5
:100CE000B8DDEFE9F2E01192119282E0EF3AF807F5
:100CF000D1F7AA24BB24EE24FF24BFE9CB2EB2E017
:100D0000DB2E00E010E00EDC0F5F1F4FEFE1003440
:100D10001E07C9F7F601008111818E2D28DC080F0E
:100D2000191FF601019311936F010894E11CF11C46
:100D3000F8E0EF16F10429F70894A11CB11C88E033
:100D4000A816B104C1F60FE912E0F8018081918183
:100D50009695879596958795969587958193919386
:100D60008F0106DA84EA90E046DBF2E00F3A1F07D3
:100D700061F71E010894211C311CD4DBC101C3DDC5
:100D8000C7D9882369F1D0D98E3309F410C1909165
:100D90009102992329F19C3040F4E92FFF27EE5668
:100DA000FD4F80839F5F909391028C33C9F48091B3
:100DB0009402803209F417C192E0E2E0F0E023E00F
:100DC000EE56FD4F80818D3209F40BC19F5FE92FF4
:100DD000FF27EE56FD4F80818C33C1F710929102B0
:100DE0008091B102882349F21092B10285E0BFDB05
:100DF0002091A9023091AA024C01821A930A809193
:100E00002A0290912B029401281B390B37FDD9C07F
:100E10008091280290912902821793070CF04AC012
:100E200080E690E0E8DA80919E02805D8FD986EAC4
:100E300090E0E1DA40901E0250901F02E0902602FE
:100E4000F09027028401E814F9040CF48701609003
:100E5000240270902502B801882777FD8095982F8D
:100E600095D25B016C01101611060CF0AEC0B701F3
:100E7000882777FD8095982F89D29B01AC01C60108
:100E8000B501CFD17B018C01B201882777FD809518
:100E9000982F7CD29B01AC01C801B701A9D0DCD24C
:100EA000DC01CB0165D98AEA90E0A5DA90922B02A9
:100EB00080922A0284E05BDB2091A7023091A80295
:100EC0004C01821A930A80912C0290912D02940178
:100ED000281B390B37FD71C080912802909129029F
:100EE000821793070CF04DC080E690E084DA809181
:100EF0009E02805D2BD980EB90E07DDA409020024D
:100F000050902102E0902602F09027028401E8141C
:100F1000F9040CF487016090240270902502B80156
:100F2000882777FD8095982F31D25B016C011016D0
:100F300011060CF050C0B701882777FD8095982FD7
:100F400025D29B01AC01C601B5016BD17B018C019F
:100F50006627772764197509882777FD8095982F6C
:100F600015D29B01AC01C801B70142D075D2DC019A
:100F7000CB01FED88AEA90E03EDA90922D02809270
:100F80002C0206B360912E02061711F0802FD7DDD8
:100F900000932E0213B380918C02882309F4EDCEC6
:100FA00084EB90E028DA812F8370A0D9E6CE80937D
:100FB000920281E08093910213CF309521953F4FAB
:100FC0008BCF309521953F4F23CFB301882777FDF5
:100FD0008095982F51CFB301882777FD8095982F62
:100FE000AFCF922FF3CE93E0E3E0F0E024E0E8CE41
:100FF000A0E2B0E0EDEFF7E051C469837A838B8320
:101000009C832D833E834F8358878E01075E1F4F3D
:10101000B801CE0101968FD3F1E1EF2EF12CEC0E49
:10102000FD1EB701CE01059686D3898D823078F0FA
:101030009989923040F420E09A8D8A89981321E0B2
:101040002A8BB701E9C0843051F4923061F020E07E
:101050009A8D8A89981321E02A8FB801DDC09430D7
:1010600029F4823041F76FE272E0D6C0823079F322
:10107000923009F32D8D3E8D4F8D58A18D899E891B
:10108000AF89B88D222433242101AA24BB24650111
:10109000EE24FF24870160E070E00DC06F5F7F4F9A
:1010A0006032710599F1880F991FAA1FBB1F5695D1
:1010B00047953795279520FF19C0280E391E4A1EDF
:1010C0005B1E662477244301281639064A065B0610
:1010D00028F4E1E06E2E712C812C912CAE0CBF1CFB
:1010E000C01ED11EA60CB71CC81CD91CEE0CFF1CC0
:1010F000001F111FB7FFD2CFE1E06E2E712C812CA3
:10110000912CE628F72808291929C8CF8B8D9C8DAA
:101110002B893C89820F931F02969C878B871A86A6
:101120009A8D8A89981711F081E08A87D7FE17C0B7
:101130008B859C85A0FE0CC05694479437942794C9
:1011400020E030E040E050E8222A332A442A552AA1
:10115000D694C794B794A79401969C878B8730E068
:10116000A31630E0B30630E0C30630E4D30618F52A
:101170008B859C850EC0220C331C441C551C01978A
:1011800020E0A21620E0B20620E0C20620E4D2064B
:1011900080F4AA0CBB1CCC1CDD1C57FEECCF31E04C
:1011A000632E712C812C912CA628B728C828D92809
:1011B000E2CF9C878B87D601C5018F779070A07096
:1011C000B07080349105A105B10551F0AD86BE86A1
:1011D000CF86D88A83E08987BE01675F7F4F1CC0B6
:1011E000A7FCF4CF211431044104510479F380E4C5
:1011F00090E0A0E0B0E0A80EB91ECA1EDB1E80E899
:10120000682E8FEF782E8FEF882E8FEF982EA620E6
:10121000B720C820D920DACFCB016BD1E2E1A0966C
:1012200059C3A8E1B0E0E6E1F9E03EC369837A83FF
:101230008B839C832D833E834F835887B1E18B2E14
:10124000912C8C0E9D1EB401CE01019674D28E019C
:10125000075F1F4FB801CE0105966DD22989223054
:1012600008F46AC03985323008F468C08A899A85E2
:1012700089278A8B243009F463C0223009F460C0C6
:10128000343041F41D8A1E8A1F8A188E1C8A1B8ADC
:10129000B40177C0323009F458C06B897C898B85E2
:1012A0009C85681B790B7C8B6B8B2D893E894F89C4
:1012B000588DED84FE840F8518892E153F05400753
:1012C000510740F4220F331F441F551F61507040D7
:1012D0007C8B6B8B80E090E0A0E0B0E4AA24BB2480
:1012E000650160E070E02E153F054007510740F0B2
:1012F000A82AB92ACA2ADB2A2E193F09400B510B0A
:10130000B695A79597958795220F331F441F551FB4
:101310006F5F7F4F6F31710531F7D601C5018F7750
:101320009070A070B07080349105A105B10589F06E
:10133000AD8ABE8ACF8AD88EB40123C0B80121C03D
:101340003217D1F76FE272E01CC084E0898BB401E0
:1013500018C0A7FCEDCF211531054105510541F31A
:1013600080E490E0A0E0B0E0A80EB91ECA1EDB1E2B
:1013700080E89FEFAFEFBFEFA822B922CA22DB229D
:10138000D7CFCB01B6D0ECE06896AAC2A8E0B0E017
:10139000EBECF9E092C29B01AC0183E089831A82F5
:1013A00057FD50C0211531054105510531F482E04A
:1013B0008983CE0101969DD04CC0EEE1F0E0FC8324
:1013C000EB838A818823C9F1203010E0310710E0D7
:1013D000410710E85107C9F188279927DC01821BD2
:1013E000930BA40BB50B8D839E83AF83B8872D81A0
:1013F0003E814F815885203080E0380780E04807E3
:1014000080E45807B0F6EB81FC81DA01C901880F4E
:10141000991FAA1FBB1F31979C01AD01803010E0BE
:10142000910710E0A10710E4B10778F3FC83EB8388
:101430008D839E83AF83B887BCCF2D833E834F833C
:101440005887D5CF81E08A83ADCF60E070E080E03F
:101450009FECE3E028964DC2ACE0B0E0E1E3FAE0B7
:101460002DC269837A838B839C83BE016B5F7F4F20
:10147000CE01019660D18D81823061F0823050F0D2
:10148000843069F48E81882359F52FEF3FEF4FEFB9
:101490005FE72AC020E030E040E050E025C02F8127
:1014A000388537FDF7CF2F31310564F78EE190E0B5
:1014B000821B930B29853A854B855C8504C0569524
:1014C0004795379527958A95D2F78E81882361F0C5
:1014D00050954095309521953F4F4F4F5F4F04C039
:1014E00020E030E040E050E8CA01B901E2E02C968B
:1014F00001C24F925F926F927F928F929F92AF92B2
:10150000BF92DF92EF92FF920F931F9320E030E0A3
:1015100040E050E0FC01E480F58006811781D18035
:101520008081823038F4D801C701A061AF77B070F4
:101530006FEFD9C0843009F46EC0823009F471C0F5
:10154000E114F1040105110509F46BC08281938156
:101550006FEF823896070CF06AC062E87FEF681B75
:10156000790B6A3171050CF080C047015801062ED5
:1015700004C0B694A794979487940A94D2F744240D
:101580005524320181E090E0A0E0B0E004C0880F73
:10159000991FAA1FBB1F6A95D2F70197A109B1092C
:1015A000E822F9220A231B23E114F10401051105A5
:1015B00029F061E0462E512C612C712C85017401BB
:1015C000E428F52806291729D801C7018F779070DC
:1015D000A070B07080349105A105B10509F457C021
:1015E000D801C701CF96A11DB11D60E070E0803029
:1015F000E0E09E07E0E0AE07E0E4BE0710F061E047
:1016000070E027E0B695A795979587952A95D1F72D
:10161000AF77B07068C080E090E0A0E0B0E06FEF1E
:1016200062C080E090E0A0E0B0E060E05CC08038A4
:1016300091058CF7BC0161587F4FD801C7018F77A6
:101640009070A070B07080349105A105B105A1F033
:101650008FE390E0A0E0B0E0E80EF91E0A1F1B1F28
:1016600017FD28C0D801C701CCCF60E070E080E052
:1016700090E0A0E0B0E0CCCFE7FEF2CF80E490E0D5
:10168000A0E0B0E0E80EF91E0A1F1B1FE9CFE7FC3F
:1016900018C080E090E060E0E61660E0F60660E0EA
:1016A000060760E4160710F081E090E0BC01D80165
:1016B000C701A7CF16950795F794E7946F5F7F4F03
:1016C000D1CFD801C701805C9F4FAF4FBF4F60E0C3
:1016D00070E08030E0E09E07E0E0AE07E0E4BE07A7
:1016E00008F48FCF8CCF282F392F9A2F9F77842FF4
:1016F0008078892B962F9795992797958F77482FE4
:10170000492B6695852F8078862BD794DD24D79436
:101710008F77582F5D29CA01B9011F910F91FF9052
:10172000EF90DF90BF90AF909F908F907F906F90E1
:101730005F904F900895FC01DB01208131819281FF
:10174000492F4F7750E0991F9927991F8381682F60
:10175000660F692B881F8827881FFD0181836623F8
:1017600009F049C0211531054105510509F470C042
:1017700082E89FEFFD0193838283220F331F441F72
:10178000551F220F331F441F551F220F331F441FA5
:10179000551F220F331F441F551F220F331F441F95
:1017A000551F220F331F441F551F220F331F441F85
:1017B000551F83E08C932030F0E03F07F0E04F07A7
:1017C000F0E45F0790F482E89FEF220F331F441F7D
:1017D000551F0197203060E0360760E0460760E45F
:1017E000560798F3FD0193838283FD01248335839B
:1017F0004683578308956F3F71F1862F99278F573E
:101800009040FD019383828383E08C93220F331FEA
:10181000441F551F220F331F441F551F220F331F14
:10182000441F551F220F331F441F551F220F331F04
:10183000441F551F220F331F441F551F220F331FF4
:10184000441F551F5064248335834683578308956E
:1018500082E08C930895211531054105510519F455
:1018600084E08C93089544FD02C01C92BECF81E0B9
:101870008C93BBCFAA1BBB1B51E107C0AA1FBB1F88
:10188000A617B70710F0A61BB70B881F991F5A950C
:10189000A9F780959095BC01CD0108952F923F92B4
:1018A0004F925F926F927F928F929F92AF92BF9270
:1018B000CF92DF92EF92FF920F931F93CF93DF931C
:1018C000CDB7DEB7CA1BDB0B0FB6F894DEBF0FBE79
:1018D000CDBF09942A88398848885F846E847D84C6
:1018E0008C849B84AA84B984C884DF80EE80FD80C8
:1018F0000C811B81AA81B981CE0FD11D0FB6F8943E
:0C190000DEBF0FBECDBFED010895FFCF8C
:10190C007B3600203C4D2000565046002E6D703327
:10191C003E7D00203C4C003E7D0052656D6F746531
:10192C002076312E3020617420616464723A20007C
:10193C000D0A000A0D206B75703A2000206B64773D
:10194C006E3A20002000202473002A7D0A0D20000E
:10195C00202470000D0A2053776974636865733A0C
:10196C00001D0030303830383232390030373135E4
:10197C003239383500343134353538353100353578
:10198C003036313630380039313331363630330079
:10199C00343835373439303500343632353832381E
:1019AC003400323236353136333700373838313748
:1019BC003932360037363439333339390032313233
:1019CC003539363639003033373339383332003025
:1019DC0038383339343532003836373731353735D6
:1019EC00003137353632343935003233313238390B
:1019FC0038390034363933333537340032393331F2
:101A0C0039333731003733333939303131003931EB
:101A1C0031373139343600333734343330353000E4
:101A2C0036323131343537360038313132313132AA
:101A3C0033003739343737343133003835363836AC
:101A4C0037353200303733343138373200343431B3
:101A5C0034393730380031353131353031340038A4
:101A6C0038383439313731000000C300CC00D50090
:101A7C00DE00E700F000F90002010B0114011D016A
:101A8C0026012F01380141014A0153015C01650116
:101A9C006E0177018001890192019B01A401AD01C6
:101AAC00B601BF01C801FE0000FEFE00FE0000FEF4
:101ABC000000FEFEFE000000FEFE00FEFE006400C4
:101ACC0028003C0012022C0105009CFF9CFFFF002B
:081ADC00000000000000000002
:00000001FF
