:1000000012C02BC02AC029C028C027C026C025C0C6
:1000100024C07CC122C034C055C01FC01EC01DC03A
:100020001CC01BC01AC011241FBECFE5D4E0DEBF28
:10003000CDBF12E0A0E6B0E0E4EDF5E102C005902E
:100040000D92AC3DB107D9F713E0ACEDB2E001C0C1
:100050001D92A035B107E1F7F5C4D2CF292F332780
:1000600020BD89B988E18AB986E880BD1092DF0297
:100070001092DE021092210310922003579A0895E5
:100080001F920F920FB60F9211242F938F939F936D
:10009000EF93FF939CB18091DE028F5F817080931C
:1000A000DE022091DF02ECEDF2E0E80FF11D90831B
:1000B000FF91EF919F918F912F910F900FBE0F9015
:1000C0001F9018951F920F920FB60F9211248F93C5
:1000D0009F93EF93FF9390912003809121039817B2
:1000E00061F0E0912103EF5FEF73E0932103FF27BD
:1000F000E052FD4F80818CB901C05598FF91EF917E
:100100009F918F910F900FBE0F901F901895909117
:10011000DE028091DF0220E030E0981711F021E04C
:1001200030E0C90108959091DE028091DF029817B6
:10013000D1F3E091DF02EF5FE170E093DF02FF2790
:10014000E452FD4F808199270895282F9091200334
:100150009F5F9F73809121039817E1F3E92FFF2799
:10016000E052FD4F208390932003559A08951F93EA
:10017000CF93DF93EC0197FF08C08DE2E6DFD095C7
:10018000C195DF4F02C0C051D74227E2C031D2072C
:10019000D4F702C0C85ED34033E0C83ED307D4F7DB
:1001A00080E003C0C456D0408F5FC436D105D4F779
:1001B000805D10E002C02A971F5FCA30D105DCF7CE
:1001C000C4DF812F805DC1DF9E01205D822FBDDFF6
:1001D000DF91CF911F910895EF92FF920F931F939C
:1001E000CF93DF93EC0197FD03C090E080E008C05F
:1001F000D095C195DF4F9FEFF9CFC051D7428F5FA8
:1002000027E2C031D207CCF730E3E32EE80E80E0DE
:1002100003C0C85ED3408F5F33E0C83ED307CCF73E
:1002200020E3F22EF80E80E003C0C456D0408F5F6A
:10023000C436D105D4F7082F005D10E002C02A971C
:100240001F5FCA30D105DCF7992311F08DE201C0A0
:1002500080E27BDF8E2D79DF8F2D77DF802F75DFBA
:10026000812F805D72DF9E01205D822F6EDFDF9126
:10027000CF911F910F91FF90EF9008951F93CF930F
:10028000DF93182FC0E0D0E0912F9095991F992708
:10029000991F81E3891B59DF2196C830D10511F0E0
:1002A000110FF2CFDF91CF911F9108950F931F93FC
:1002B000182F882311F020E004C080E317C01456E3
:1002C0002F5F812F992784369105CCF7205D00E0C0
:1002D00002C01A500F5F812F99270A97D4F7822FF7
:1002E00034DF802F805D31DF812F805D2EDF1F9115
:1002F0000F910895CF93DF93EC0102C026DF219682
:1003000088818823D9F7DF91CF9108951F920F92AA
:100310000FB60F9211245F936F937F938F939F93E8
:10032000AF93BF9380914D0390914E0301969093AC
:100330004E0380934D0380914D0390914E0362E3F1
:1003400070E0FDD8892B19F481E080934F03BF91B1
:10035000AF919F918F917F916F915F910F900FBEA1
:100360000F901F90189510924E0310924D0310920B
:100370004F0383B7836083BF12BE89B7816089BF93
:10038000089589B78E7F89BF10924E0310924D0356
:1003900089B7816089BF089589B7816089BF089551
:1003A00089B78E7F89BF0895E199FECF9FBB8EBB31
:1003B0006DBBF894E29AE19A78940895E199FECFA2
:1003C0009FBB8EBBE09A8DB399270895E2E2F3E0DC
:1003D00080E991E08193919323E0E233F207D1F732
:1003E00086E086B983E487B9379A369A08953699B4
:1003F00021C047B14770E42FFF2764B175B1EE0FFC
:10040000FF1FEE5DFC4F20813181C901880F991FCC
:10041000820F931F860F971F9695879596958795C0
:10042000918380834F5F483008F043E04770406419
:1004300047B9369A0895883018F080E090E0089522
:10044000E82FFF27EE0FFF1FEE5DFC4F80819181AB
:100450000895482F5527662359F422B381E090E090
:1004600002C0880F991F4A95E2F78095282309C09A
:1004700022B381E090E002C0880F991F4A95E2F70D
:10048000282B22BB08958F929F92AF92BF92CF925A
:10049000DF92EF92FF920F931F93CF93DF934B0165
:1004A0000091C6021091C702E801801791070CF471
:1004B000EC01A090C402B090C502BE01882777FD70
:1004C0008095982FC8D56B017C011C161D0634F44D
:1004D000B801882777FD8095982F05C0B50188273A
:1004E00077FD8095982FB7D59B01AC01C701B60168
:1004F000FDD47B018C01B401882777FD8095982F6E
:10050000AAD59B01AC01C801B701D7D30AD6DC013B
:10051000CB01DF91CF911F910F91FF90EF90DF9072
:10052000CF90BF90AF909F908F900895CF93DF931F
:10053000EC0127DF80914D0390914E038C179D07AE
:10054000C8F31FDFDF91CF910895CF93DF93EC01C4
:1005500020914D0330914E03999903C084E690E0B9
:1005600002C08AEF90E082179307C0F40ADF888107
:10057000882349F460E082E06CDF81E0888361E0F9
:1005800083E067DF0BC061E082E063DF80913903C5
:10059000882319F060E083E05CDF1882DF91CF915F
:1005A00008951F93182F80E690E0A4DE812F805DD0
:1005B000CCDD80E2CADD1F9108950F931F93CF9386
:1005C000DF93EB0198991AC000E010E0802FE9DF7B
:1005D00083E690E08FDE209741F087E690E08ADEA8
:1005E000CE0188DE8CE690E002C083E790E082DEF8
:1005F0000F5F1F4F0630110591F0E8CFD2DF83E681
:1006000090E078DE209741F087E690E073DECE013F
:1006100071DE8CE690E002C083E790E06BDEDF9154
:10062000CF911F910F910895FF920F931F93162F53
:10063000F42E022FB6DF89E790E05CDE1F3F19F051
:10064000812F805D82DD8F2D80DD0F3F11F0802FA7
:100650002DDE8CE790E04EDE1F910F91FF90089504
:10066000FF920F931F93CF93DF93082F162FF42E33
:1006700022E344E5D9DFCF2DDD27FE01EA55FD4F0A
:10068000208142E5612F802FCFDFFE01E255FD4F33
:10069000208147E4612F802FC7DFCA54DD4F2881B6
:1006A00042E4612F802FC0DF2FEF46E4612F802FBF
:1006B000BBDFDF91CF911F910F91FF900895FF92C3
:1006C0000F931F93CF93DF93F82E062FEA01122F7B
:1006D0002F3F09F41EEF8F2D64DF89E790E00ADEDB
:1006E0000F3F19F0802F805D30DD88E42EDDCE01D4
:1006F0003EDD8CE790E0FEDD212F46E5602F8F2D5B
:1007000093DF2FEF46E4602F8F2D8EDFDF91CF91A7
:100710001F910F91FF900895CF93DF93EC01CB01D0
:1007200064E170E0B0DE2091330330913403280F90
:10073000391F309334032093330381E0293638077F
:1007400034F02856314030933403209333038091A2
:1007500033039091340397FF06C088599E4F9093BE
:1007600034038093330366EF7FEFCE018CDE20915C
:10077000350330913603280F391F30933603209309
:1007800035032E3F31051CF08EEF90E005C022307E
:10079000310534F481E090E0909336038093350383
:1007A000989913C010923C0380E04091330350911C
:1007B0003403209135036FEF82DF80913C038F5F1C
:1007C00080933C0386306CF4F0CF809132034091EB
:1007D000330350913403209135036FEF80913C0334
:1007E0006EDFDF91CF910895FF920F931F93F82E44
:1007F000162F082F0095062380913203882361F07D
:100800008FE790E077DD1095812F8F2137DD88E825
:1008100090E070DD802F32DD112701FF1CC0809138
:100820003B03E82FFF27EE0FFF1FE25BFD4F6081C8
:1008300071818F5F80933B0380913C03BEDE80918A
:100840003B0399272091DA003091DB008217930750
:1008500014F010923B0300FF20C080913B03E82F6F
:10086000FF27EE0FFF1FE25BFD4F6081718181501A
:1008700080933B0380913C03A0DE2091DA0030910D
:10088000DB0080913B0399278217930724F0822F86
:10089000815080933B031092380302FF12C04091B5
:1008A0003A034F5F40933A0341506FEF80913C030E
:1008B000D7DE80913A03863010F010923A031092FE
:1008C000380303FF11C020E046E56FEF80913C0341
:1008D000ABDE2FEF46E46FEF80913C03A5DE60E0D6
:1008E00070E080913C0369DE05FF0CC080913C0301
:1008F00058DE80E990E0FEDC80913C0352DE87E91F
:1009000090E0F8DC04FF22C02EEF40E050E060E011
:1009100080913C03D4DE2EEF40E050E061E0809116
:100920003C03CDDE2EEF40EF50E062E080913C03CF
:10093000C6DE2EEF40EF50E063E080913C03BFDE67
:100940002FEF43E46FEF80913C036EDE1F910F9118
:10095000FF900895CF93DF9380EC87BB8FE388BB34
:1009600014BA87E085BB8EE081BB80EF82BB8BE051
:1009700090E074DB2BDDF7DC789480B399278095C9
:100980009095807F907034E0959587953A95E1F742
:100990008F7080933C032CE38202900111242C5E23
:1009A0003F4F30933403209333038FE790E09093CD
:1009B00036038093350380913203882349F08EE912
:1009C00090E098DC80913C0371DC84EB90E002C005
:1009D00087EB90E08FDC2091330348E46FEF809148
:1009E0003C0322DE2091350346E56FEF80913C0306
:1009F0001BDE2FEF46E46FEF80913C0315DEC0E075
:100A0000D0E00CC060E083E024DD84E690E08EDD81
:100A100061E083E01EDD84E690E088DD2C2F332743
:100A2000219680913C03992787FD909528173907D7
:100A30004CF361E083E00DDD61E082E00ADDDF91EF
:100A4000CF910895AF92BF92CF92DF92EF92FF9233
:100A50000F931F93CF93DF93CDB7DEB721970FB6D8
:100A6000F894DEBF0FBECDBF198274DFEDE3F3E073
:100A70001192119223E0ED34F20709F415C1F8CF79
:100A8000B6DC0F5F1F4F3FE100341307C9F7F601D3
:100A9000008111818E2DCFDC080F191FF601019303
:100AA00011936F010894E11CF11CF8E0EF16F104BA
:100AB00009F0F7C00894A11CB11C28E0A216B104EB
:100AC00009F0F4C0EDE3F3E08081918153E0969565
:100AD00087955A95E1F78193919333E0ED34F307CD
:100AE00099F785DCCE01019630DD80914F03882394
:100AF000C1F310924F0383E09EDC8C01809132039E
:100B000080FF05C085EC90E0F5DBC80130DB095DB6
:100B1000134024F081E08093390302C0109239031E
:100B200085E089DC20914703309148038C01021B4A
:100B3000130B8091CA029091CB02F801E81BF90BCC
:100B4000CF01F7FF03C0909581959F4F18161906A6
:100B50000CF580913C0325DD8EEC90E0CBDB980119
:100B600017FF04C022273327201B310B8091C802B6
:100B70009091C902281739071CF480E3E6DA07C010
:100B80006091BE027091BF02C8017DDCF0DA81ED98
:100B900090E0B0DB1093CB020093CA0284E04BDC00
:100BA00020914503309146038C01021B130B809169
:100BB000CC029091CD02209132039801281B390B71
:100BC000C90137FF03C0909581959F4F18161906EC
:100BD00084F580913C03E5DC87ED90E08BDB9801A8
:100BE00017FF04C022273327201B310B8091C80236
:100BF0009091C902281739071CF480E3A6DA16C0C1
:100C000099990AC06091C2027091C3027095619572
:100C10007F4FC80138DC09C06091C0027091C102E9
:100C2000709561957F4FC8012EDCA1DA81ED90E0CF
:100C300061DB1093CD020093CC0286E0FCDB2091B7
:100C4000490330914A038C01021B130B87E0F3DB4D
:100C500020914B0330914C03821B930B980117FF9B
:100C600004C022273327201B310B2630310554F4D2
:100C70009C0197FF04C022273327281B390B2630FD
:100C8000310514F0B80148DD16B36091D202161791
:100C900011F0812FA9DD1093D20283B3809132032A
:100CA00020CF00E010E0ECCEAA24BB24EE24FF24E9
:100CB0004DE3C42E43E0D42EF4CFA0E2B0E0E2E650
:100CC000F6E051C469837A838B839C832D833E83B2
:100CD0004F8358878E01075E1F4FB801CE010196E2
:100CE0008FD3F1E1EF2EF12CEC0EFD1EB701CE01FA
:100CF000059686D3898D823078F09989923040F4B8
:100D000020E09A8D8A89981321E02A8BB701E9C0E7
:100D1000843051F4923061F020E09A8D8A899813E2
:100D200021E02A8FB801DDC0943029F4823041F7E8
:100D300063ED72E0D6C0823079F3923009F32D8DE5
:100D40003E8D4F8D58A18D899E89AF89B88D222403
:100D500033242101AA24BB246501EE24FF2487014A
:100D600060E070E00DC06F5F7F4F6032710599F1F8
:100D7000880F991FAA1FBB1F569547953795279532
:100D800020FF19C0280E391E4A1E5B1E66247724D8
:100D90004301281639064A065B0628F4E1E06E2E68
:100DA000712C812C912CAE0CBF1CC01ED11EA60C28
:100DB000B71CC81CD91CEE0CFF1C001F111FB7FF6D
:100DC000D2CFE1E06E2E712C812C912CE628F728F1
:100DD00008291929C8CF8B8D9C8D2B893C89820FBE
:100DE000931F02969C878B871A869A8D8A899817FB
:100DF00011F081E08A87D7FE17C08B859C85A0FE05
:100E00000CC0569447943794279420E030E040E09B
:100E100050E8222A332A442A552AD694C794B794F4
:100E2000A79401969C878B8730E0A31630E0B30629
:100E300030E0C30630E4D30618F58B859C850EC0E0
:100E4000220C331C441C551C019720E0A21620E004
:100E5000B20620E0C20620E4D20680F4AA0CBB1C35
:100E6000CC1CDD1C57FEECCF31E0632E712C812CA5
:100E7000912CA628B728C828D928E2CF9C878B8731
:100E8000D601C5018F779070A070B0708034910545
:100E9000A105B10551F0AD86BE86CF86D88A83E024
:100EA0008987BE01675F7F4F1CC0A7FCF4CF211468
:100EB00031044104510479F380E490E0A0E0B0E013
:100EC000A80EB91ECA1EDB1E80E8682E8FEF782E92
:100ED0008FEF882E8FEF982EA620B720C820D9201C
:100EE000DACFCB016BD1E2E1A09659C3A8E1B0E023
:100EF000EBE7F7E03EC369837A838B839C832D8382
:100F00003E834F835887B1E18B2E912C8C0E9D1E12
:100F1000B401CE01019674D28E01075F1F4FB80154
:100F2000CE0105966DD22989223008F46AC0398530
:100F3000323008F468C08A899A8589278A8B2430E0
:100F400009F463C0223009F460C0343041F41D8AD2
:100F50001E8A1F8A188E1C8A1B8AB40177C0323001
:100F600009F458C06B897C898B859C85681B790B3B
:100F70007C8B6B8B2D893E894F89588DED84FE8447
:100F80000F8518892E153F054007510740F4220FA1
:100F9000331F441F551F615070407C8B6B8B80E06A
:100FA00090E0A0E0B0E4AA24BB24650160E070E01A
:100FB0002E153F054007510740F0A82AB92ACA2A32
:100FC000DB2A2E193F09400B510BB695A795979533
:100FD0008795220F331F441F551F6F5F7F4F6F315F
:100FE000710531F7D601C5018F779070A070B07090
:100FF00080349105A105B10589F0AD8ABE8ACF8AFA
:10100000D88EB40123C0B80121C03217D1F763EDE7
:1010100072E01CC084E0898BB40118C0A7FCEDCF3E
:10102000211531054105510541F380E490E0A0E030
:10103000B0E0A80EB91ECA1EDB1E80E89FEFAFEF1E
:10104000BFEFA822B922CA22DB22D7CFCB01B6D06C
:10105000ECE06896AAC2A8E0B0E0E0E3F8E092C253
:101060009B01AC0183E089831A8257FD50C0211592
:1010700031054105510531F482E08983CE010196A5
:101080009DD04CC0EEE1F0E0FC83EB838A818823A5
:10109000C9F1203010E0310710E0410710E8510796
:1010A000C9F188279927DC01821B930BA40BB50B90
:1010B0008D839E83AF83B8872D813E814F81588574
:1010C000203080E0380780E0480780E45807B0F619
:1010D000EB81FC81DA01C901880F991FAA1FBB1F90
:1010E00031979C01AD01803010E0910710E0A1071D
:1010F00010E4B10778F3FC83EB838D839E83AF8389
:10110000B887BCCF2D833E834F835887D5CF81E0EE
:101110008A83ADCF60E070E080E09FECE3E028964A
:101120004DC2ACE0B0E0E6E9F8E02DC269837A8315
:101130008B839C83BE016B5F7F4FCE01019660D194
:101140008D81823061F0823050F0843069F48E817C
:10115000882359F52FEF3FEF4FEF5FE72AC020E0DC
:1011600030E040E050E025C02F81388537FDF7CFD3
:101170002F31310564F78EE190E0821B930B2985B6
:101180003A854B855C8504C05695479537952795DC
:101190008A95D2F78E81882361F0509540953095DD
:1011A00021953F4F4F4F5F4F04C020E030E040E0BB
:1011B00050E8CA01B901E2E02C9601C24F925F9259
:1011C0006F927F928F929F92AF92BF92DF92EF9237
:1011D000FF920F931F9320E030E040E050E0FC01CD
:1011E000E480F58006811781D1808081823038F4D7
:1011F000D801C701A061AF77B0706FEFD9C084305C
:1012000009F46EC0823009F471C0E114F1040105E3
:10121000110509F46BC0828193816FEF82389607C4
:101220000CF06AC062E87FEF681B790B6A317105C8
:101230000CF080C047015801062E04C0B694A79454
:10124000979487940A94D2F744245524320181E07C
:1012500090E0A0E0B0E004C0880F991FAA1FBB1F58
:101260006A95D2F70197A109B109E822F9220A2368
:101270001B23E114F1040105110529F061E0462E5C
:10128000512C612C712C85017401E428F528062964
:101290001729D801C7018F779070A070B070803483
:1012A0009105A105B10509F457C0D801C701CF9632
:1012B000A11DB11D60E070E08030E0E09E07E0E03D
:1012C000AE07E0E4BE0710F061E070E027E0B695FD
:1012D000A795979587952A95D1F7AF77B07068C095
:1012E00080E090E0A0E0B0E06FEF62C080E090E0CE
:1012F000A0E0B0E060E05CC0803891058CF7BC01F4
:1013000061587F4FD801C7018F779070A070B0707F
:1013100080349105A105B105A1F08FE390E0A0E034
:10132000B0E0E80EF91E0A1F1B1F17FD28C0D801E8
:10133000C701CCCF60E070E080E090E0A0E0B0E0DA
:10134000CCCFE7FEF2CF80E490E0A0E0B0E0E80E82
:10135000F91E0A1F1B1FE9CFE7FC18C080E090E0D0
:1013600060E0E61660E0F60660E0060760E4160757
:1013700010F081E090E0BC01D801C701A7CF16951D
:101380000795F794E7946F5F7F4FD1CFD801C701DE
:10139000805C9F4FAF4FBF4F60E070E08030E0E077
:1013A0009E07E0E0AE07E0E4BE0708F48FCF8CCFE5
:1013B000282F392F9A2F9F77842F8078892B962F6B
:1013C0009795992797958F77482F492B6695852F65
:1013D0008078862BD794DD24D7948F77582F5D297A
:1013E000CA01B9011F910F91FF90EF90DF90BF905C
:1013F000AF909F908F907F906F905F904F900895E7
:10140000FC01DB01208131819281492F4F7750E02F
:10141000991F9927991F8381682F660F692B881F51
:101420008827881FFD018183662309F049C02115A3
:1014300031054105510509F470C082E89FEFFD01B7
:1014400093838283220F331F441F551F220F331FA4
:10145000441F551F220F331F441F551F220F331FD8
:10146000441F551F220F331F441F551F220F331FC8
:10147000441F551F220F331F441F551F83E08C93B9
:101480002030F0E03F07F0E04F07F0E45F0790F412
:1014900082E89FEF220F331F441F551F0197203012
:1014A00060E0360760E0460760E4560798F3FD0108
:1014B00093838283FD012483358346835783089574
:1014C0006F3F71F1862F99278F579040FD019383CD
:1014D000828383E08C93220F331F441F551F220FFA
:1014E000331F441F551F220F331F441F551F220F48
:1014F000331F441F551F220F331F441F551F220F38
:10150000331F441F551F220F331F441F551F5064A4
:101510002483358346835783089582E08C9308950E
:10152000211531054105510519F484E08C93089586
:1015300044FD02C01C92BECF81E08C93BBCFAA1B9E
:10154000BB1B51E107C0AA1FBB1FA617B70710F0AE
:10155000A61BB70B881F991F5A95A9F780959095E0
:10156000BC01CD0108952F923F924F925F926F92EE
:101570007F928F929F92AF92BF92CF92DF92EF9223
:10158000FF920F931F93CF93DF93CDB7DEB7CA1BA4
:10159000DB0B0FB6F894DEBF0FBECDBF09942A88CF
:1015A000398848885F846E847D848C849B84AA8477
:1015B000B984C884DF80EE80FD800C811B81AA8104
:1015C000B981CE0FD11D0FB6F894DEBF0FBECDBFCF
:0415D000ED0108958C
:1015D4007B36003C4D200056504620002E6D703363
:1015E4003E7D005653543E7D003C4C003E7D000A37
:1015F4000D206B75703A2000206B64776E3A2000E2
:10160400247030302A7D00247330302A7D005265E6
:101614006D6F74652076312E3220617420616464AC
:10162400723A20000D0A0052656D6F7465207631A0
:101634002E320D0A000D0A20565245463A002473F4
:10164400002A7D0A0D20002470002B003030323037
:1016540038303732003030363831373237003032B4
:1016640033353534383200303531323630343500A4
:101674003036393733303837003133353334383551
:101684003100333735353835380031313930393276
:101694003932003037383633363231003038383565
:1016A4003737383800303939333939363800313939
:1016B4003938363338340030303830383232390043
:1016C4003037313532393835003431343535383501
:1016D4003100353530363136303800393133313632
:1016E4003630330034383537343930350034363217
:1016F4003538323834003232363531363337003704
:1017040038383137393236003736343933333939AA
:1017140000323132353936363900303337333938DF
:1017240033320030383833393435320038363737CD
:1017340031353735003137353632343935003233C7
:1017440031323839383900343639333335373400A7
:101754003239333139333731003733333939303172
:101764003100393131373139343600333734343399
:101774003035300036323131343537360038313196
:10178400323131323300373934373734313300387A
:10179400353638363735320030373334313837322E
:1017A4000034343134393730380031353131353063
:1017B4003134003838383439313731000000DC0036
:1017C400E500EE00F7000001090112011A012301EE
:1017D4002C0135013E0109013E0147015001590127
:1017E40062016B0174017D0186018F019801A101E1
:1017F400AA01B301BC01C501CE01D701E001E90191
:10180400F201FB0104020D0216021F02280231023A
:101814003A0243024C02FE0000FEFE00FE0000FEFF
:101824000000FEFEFE000000FEFE00FEFE0064005E
:1018340028003C0012022C0103009CFF9CFF9CFF2B
:0C1844009CFFFF000000000000000000FE
:00000001FF
