:1000000012C02CC02BC02AC029C028C027C026C0BF
:1000100025C07DC123C035C056C020C01FC01EC032
:100020001DC01CC01BC011241FBECFE5D4E0DEBF25
:10003000CDBF12E0A0E6B0E0E8E0FCE102C0059030
:100040000D92A83DB107D9F713E0A8EDB2E001C0C9
:100050001D92A734B107E1F7D2D5D5CDD1CF292F45
:10006000332720BD89B988E18AB986E880BD10921E
:10007000DB021092DA0210921D0310921C03579AB1
:1000800008951F920F920FB60F9211242F938F9302
:100090009F93EF93FF939CB18091DA028F5F817001
:1000A0008093DA022091DB02E8EDF2E0E80FF11D27
:1000B0009083FF91EF919F918F912F910F900FBEA1
:1000C0000F901F9018951F920F920FB60F92112448
:1000D0008F939F93EF93FF9390911C0380911D0347
:1000E000981761F0E0911D03EF5FEF73E0931D033C
:1000F000FF27E452FD4F80818CB901C05598FF91D4
:10010000EF919F918F910F900FBE0F901F901895B8
:100110009091DA028091DB0220E030E0981711F034
:1001200021E030E0C90108959091DA028091DB026C
:100130009817D1F3E091DB02EF5FE170E093DB020F
:10014000FF27E852FD4F808199270895282F90912D
:100150001C039F5F9F7380911D039817E1F3E92FA4
:10016000FF27E452FD4F208390931C03559A089576
:100170001F93CF93DF93EC0197FF08C08DE2E6DF7A
:10018000D095C195DF4F02C0C051D74227E2C031A0
:10019000D207D4F702C0C85ED34033E0C83ED307CD
:1001A000D4F780E003C0C456D0408F5FC436D10579
:1001B000D4F7805D10E002C02A971F5FCA30D105D6
:1001C000DCF7C4DF812F805DC1DF9E01205D822FBF
:1001D000BDDFDF91CF911F910895EF92FF920F93B2
:1001E0001F93CF93DF93EC0197FD03C090E080E075
:1001F00008C0D095C195DF4F9FEFF9CFC051D742CE
:100200008F5F27E2C031D207CCF730E3E32EE80E50
:1002100080E003C0C85ED3408F5F33E0C83ED307A1
:10022000CCF720E3F22EF80E80E003C0C456D04095
:100230008F5FC436D105D4F7082F005D10E002C0EF
:100240002A971F5FCA30D105DCF7992311F08DE2A0
:1002500001C080E27BDF8E2D79DF8F2D77DF802F4D
:1002600075DF812F805D72DF9E01205D822F6EDF42
:10027000DF91CF911F910F91FF90EF9008951F9301
:10028000CF93DF93182FC0E0D0E0912F9095991F66
:100290009927991F81E3891B59DF2196C830D10521
:1002A00011F0110FF2CFDF91CF911F9108950F93AD
:1002B0001F93182F882311F020E004C080E317C09B
:1002C00014562F5F812F992784369105CCF7205D36
:1002D00000E002C01A500F5F812F99270A97D4F7C8
:1002E000822F34DF802F805D31DF812F805D2EDF14
:1002F0001F910F910895CF93DF93EC0102C026DF89
:10030000219688818823D9F7DF91CF9108951F9294
:100310000F920FB60F9211245F936F937F938F9379
:100320009F93AF93BF9380914403909145030196AF
:100330009093450380934403809144039091450337
:1003400064E670E015DC892B19F481E080934603A4
:10035000BF91AF919F918F917F916F915F910F901E
:100360000FBE0F901F9018951092450310924403F2
:100370001092460383B7836083BF12BE89B7816042
:1003800089BF089589B78E7F89BF10924503109267
:10039000440389B7816089BF089589B7816089BFA7
:1003A000089589B78E7F89BF0895E199FECF9FBBDD
:1003B0008EBB6DBBF894E29AE19A78940895E19926
:1003C000FECF9FBB8EBBE09A8DB399270895EEE1D7
:1003D000F3E080E991E08193919323E0EE32F2071C
:1003E000D1F786E086B983E487B9379A369A0895BB
:1003F000369921C047B14770E42FFF2764B175B12A
:10040000EE0FFF1FE25EFC4F20813181C901880F92
:10041000991F820F931F860F971F96958795969524
:100420008795918380834F5F483008F043E04770A1
:10043000406447B9369A0895883018F080E090E01B
:100440000895E82FFF27EE0FFF1FE25EFC4F80812B
:1004500091810895482F5527662359F422B381E0EE
:1004600090E002C0880F991F4A95E2F780952823F3
:1004700009C022B381E090E002C0880F991F4A951D
:10048000E2F7282B22BB08958F929F92AF92BF92E2
:10049000CF92DF92EF92FF920F931F93CF93DF9350
:1004A0004B010091C3021091C402E801801791072B
:1004B0000CF4EC01A090C102B090C202BE018827EA
:1004C00077FD8095982F78D86B017C011C161D064E
:1004D00034F4B801882777FD8095982F05C0B501C1
:1004E000882777FD8095982F67D89B01AC01C701BD
:1004F000B6017CD77B018C01B401882777FD8095FC
:10050000982F5AD89B01AC01C801B70156D6BAD86A
:10051000DC01CB01DF91CF911F910F91FF90EF9004
:10052000DF90CF90BF90AF909F908F9008952F92C3
:100530003F924F925F926F927F928F929F92AF9273
:10054000BF92CF92DF92EF92FF920F931F93CF93C0
:10055000DF93CDB7DEB726970FB6F894DEBF0FBE98
:10056000CDBFE62E5E834D833A8329831C830B83A4
:1005700002C08856914021E089369207D4F7FC01E9
:10058000BF01882777FD8095982F16D820E030E0AE
:1005900040E752E42BD75B016C0170D43B014C0166
:1005A000162F663009F4AEC0673008F042C07727D6
:1005B000882777FD8095982FFFD79B01AC01C60156
:1005C000B501A9D55B016C019B01AC0160E070E055
:1005D00080E89FE3A0D59B01AC01123009F44DC027
:1005E000133028F4662029F11130A1F42FC0143003
:1005F00031F0143008F458C0153061F46CC00F2E7F
:10060000F0E06F2EF0E07F2EF0E08F2EF0E09F2ED6
:10061000F02D56C00F2EF0E0AF2EF0E0BF2EF0E828
:10062000CF2EFFE3DF2EF02D350146011501260107
:100630007AC0350146010F2EF0E0AF2EF0E0BF2E5C
:10064000F0E8CF2EFFE3DF2EF02D0CC05B016C0134
:100650000F2EF0E06F2EF0E07F2EF0E88F2EFFE3FC
:100660009F2EF02D0F2EF0E02F2EF0E03F2EF0E029
:100670004F2EF0E05F2EF02D56C0150126010F2EF3
:10068000F0E0AF2EF0E0BF2EF0E0CF2EF0E0DF2E56
:10069000F02D0F2EF0E06F2EF0E07F2EF0E88F2E81
:1006A000FFE39F2EF02D3FC03B014C010F2EF0E0E9
:1006B000AF2EF0E0BF2EF0E0CF2EF0E0DF2EF02DD9
:1006C0000F2EF0E02F2EF0E03F2EF0E84F2EFFE34C
:1006D0005F2EF02D28C019012A010F2EF0E0AF2E59
:1006E000F0E0BF2EF0E8CF2EFFE3DF2EF02D0F2E2F
:1006F000F0E06F2EF0E07F2EF0E08F2EF0E09F2EE6
:10070000F02D11C020E030E040EA50E4C601B50110
:1007100002D59B01AC0160E070E080E89FE3FBD470
:100720009B01AC01D8CF6E2D7727882777FD809568
:10073000982F42D77B018C019B01AC01C601B5010A
:100740003CD59CD3ED81FE816083A8019701C40153
:10075000B30133D593D3E981FA816083A80197016E
:10076000C201B1012AD58AD3EB81FC816083269630
:100770000FB6F894DEBF0FBECDBFDF91CF911F91B2
:100780000F91FF90EF90DF90CF90BF90AF909F9030
:100790008F907F906F905F904F903F902F90089533
:1007A000CF93DF93EC01EEDD8091440390914503FC
:1007B0008C179D07C8F3E6DDDF91CF9108951F9355
:1007C000CF93DF93182FEB0180E690E094DD812F2B
:1007D000805DBCDC83E690E08EDD209741F088E60A
:1007E00090E089DDCE0187DD8DE690E002C084E7F0
:1007F00090E081DDDF91CF911F910895EF92FF92FC
:100800000F931F93182F062FE42EF22E80E690E010
:1008100072DD812F805D9ADC8AE790E06CDD0F3F0E
:1008200019F0802F805D92DC8E2D90DC8FEFF81612
:1008300011F08F2D3CDD8EE790E05DDD1F910F9173
:10084000FF90EF900895EF92FF920F931F93CF9335
:10085000DF93CDB7DEB723970FB6F894DEBF0FBE98
:10086000CDBFE82EF62ECA01622F2F3F09F46EEF9E
:100870008E010E5F1F4F9E012F5F3F4FAE014D5FF8
:100880005F4F55DE2B8142E56F2D8E2DB7DF29811D
:1008900047E46F2D8E2DB2DF2A8142E46F2D8E2D1D
:1008A000ADDF2FEF46E46F2D8E2DA8DF23960FB618
:1008B000F894DEBF0FBECDBFDF91CF911F910F9196
:1008C000FF90EF900895FF920F931F93CF93DF93C4
:1008D000082F162FF42E22E344E590DFCF2DDD27DD
:1008E000FE01ED55FD4F208142E5612F802F86DF0F
:1008F000FE01E555FD4F208147E4612F802F7EDF0B
:10090000CD54DD4F288142E4612F802F77DF2FEF18
:1009100046E4612F802F72DFDF91CF911F910F91FD
:10092000FF900895CF93DF93EC0180914403909161
:10093000450380509240E8F125DD8881882331F419
:1009400060E082E087DD81E0888304C061E082E0CE
:1009500081DD188280913003882359F188818823B2
:10096000A1F047E060E080913303ADDF8091330375
:10097000482F61E0A8DF47E062E080913303A3DF06
:1009800080913303482F63E09EDF80913303482F2B
:1009900060E099DF47E061E08091330394DF80916C
:1009A0003303482F62E08FDF47E063E08091330339
:1009B0008ADFDF91CF910895FF920F931F93F82E56
:1009C000162F082F0095062380912E03882361F0AF
:1009D00081E890E090DC1095812F8F2150DC8AE82F
:1009E00090E089DC802F4BDC112701FF1EC0809135
:1009F0003203E82FFF27EE0FFF1FE55BFD4F6081FD
:100A000071818F5F8093320380913303D8DE8091B0
:100A1000320399272091D7003091D800821793078D
:100A200014F0109232031092300300FF07C060E010
:100A300070E080913303C3DE1092300302FF12C0D6
:100A4000409131034F5F4093310341506FEF8091EC
:100A5000330339DF80913103863010F01092310377
:100A60001092300303FF05C047E06FEF809133031E
:100A70002ADF04FF03C081E08093300305FF02C03A
:100A8000109230031F910F91FF900895CF93DF9341
:100A900080EC87BB8FE388BB14BA83E085BB8EE014
:100AA00081BB80EF82BB8BE090E0D9DA90DC5CDC2C
:100AB000789480B3992780959095807F907024E0FA
:100AC000959587952A95E1F78F70809333038091F0
:100AD0002E03882349F082E990E00DDC80913303F6
:100AE000E6DB88EA90E002C08BEA90E004DC2DEFC0
:100AF00042E56FEF8091330381DE2DEF47E46FEF26
:100B0000809133037BDE2DEF42E46FEF809133035E
:100B100075DE2FEF46E46FEF809133036FDEB299FD
:100B20004BC02CEF42E56FEF8091330367DE2CEF73
:100B300047E46FEF8091330361DE2CEF42E46FEF07
:100B4000809133035BDE2FEF46E46FEF8091330338
:100B500055DE88E790E024DE20E042E460E080910A
:100B600033034CDE20E047E460E08091330346DE4F
:100B700020E042E561E08091330340DE20E042E482
:100B800061E0809133033ADE20E042E562E080914B
:100B9000330334DE20E047E462E0809133032EDE4D
:100BA00020E047E463E08091330328DE2FEF46E442
:100BB0006FEF8091330322DEC0E0D0E00CC060E034
:100BC00083E048DC88E790E0EBDD61E083E042DC35
:100BD00088E790E0E5DD2C2F3327219680913303C1
:100BE000992787FD9095281739074CF361E083E03A
:100BF00031DC61E082E02EDCDF91CF910895AF928D
:100C0000BF92CF92DF92EF92FF920F931F93CF93F9
:100C1000DF93CDB7DEB721970FB6F894DEBF0FBED6
:100C2000CDBF198233DFE4E3F3E01192119243E088
:100C3000E434F40709F419C1F8CFDADB0F5F1F4F72
:100C40005FE100341507C9F7F601008111818E2D8F
:100C5000F3DB080F191FF601019311936F0108943C
:100C6000E11CF11CF8E0EF16F10409F0FBC0089458
:100C7000A11CB11C48E0A416B10409F0F8C0E4E3DB
:100C8000F3E08081918153E0969587955A95E1F73D
:100C90008193919353E0E434F50799F7A9DBCE01F2
:100CA000019640DE809146038823C1F310924603EB
:100CB00085E0C2DB20913E0330913F038C01021B93
:100CC000130B8091C7029091C8029801281B390B21
:100CD00037FF03C0309521953F4F8091C502909119
:100CE000C60282179307C4F480E690E004DB80918B
:100CF0003303805D2BDA89EB90E0FDDA6091BB0273
:100D00007091BC02C801C0DB33DA8DEB90E0F3DAFE
:100D10001093C8020093C70284E08EDB20913C034D
:100D200030913D038C01021B130B8091C9029091FD
:100D3000CA029801281B390B37FF03C03095219553
:100D40003F4F8091C5029091C60282179307DCF451
:100D500080E690E0D0DA80913303805DF7D983ECB0
:100D600090E0C9DA6091BD027091BE027095619504
:100D70007F4FC80189DBFCD98DEB90E0BCDA109382
:100D8000CA020093C90286E057DB209140033091EC
:100D900041037C01E21AF30A87E04EDB2091420313
:100DA000309143038C01021B130B2091C50230913B
:100DB000C6028091CB029091CC02F701E81BF90B9F
:100DC000CF01F7FF03C0909581959F4F28173907F2
:100DD00084F08091CD029091CE02A801481B590B5E
:100DE000CA0157FF03C0909581959F4F2817390777
:100DF00064F5F092CC02E092CB021093CE02009305
:100E0000CD0264EB70E0C7013FDB44EBE42EF12C34
:100E1000E80EF91E6FE770E0C80136DB8C0101585F
:100E20001F4F80912E03882351F087EC90E063DA06
:100E3000C7019ED980ED90E05EDAC80199D9202FD4
:100E4000A7016FEF80913303FEDC16B36091CF02F0
:100E5000161711F0812FB0DD1093CF0283B380916C
:100E60002E031CCF00E010E0E8CEAA24BB24EE2421
:100E7000FF2434E3C32E33E0D32EF4CFEF92FF925E
:100E80000F931F937B018C0120E030E040E05FE492
:100E900062D388236CF020E030E040E05FE4C801DA
:100EA000B70139D1EFD3605070408040904803C003
:100EB000C801B701E7D31F910F91FF90EF900895FC
:100EC000A0E0B0E0E5E6F7E06BC6FC016A019081C6
:100ED000923008F41BC1DB018C91823080F0943099
:100EE00061F4843009F012C19181EB018981981776
:100EF00009F40CC1E0EDF2E009C1843011F4FB010A
:100F000005C1823091F4923009F000C1EA01DF019D
:100F100088E00D9009928150E1F78181FB01918178
:100F20008923E6018983F601F1C0923041F36280A2
:100F30007380EB018A809B80E480F58006811781B5
:100F40002C813D814E815F815301A818B908C501EC
:100F5000B7FCABC080970CF457C0861497040CF410
:100F6000BEC03401EE24FF2487019181FB01818101
:100F7000981709F4A6C0992309F49CC02E193F09BB
:100F8000400B510B57FDB0C0E60119827B826A828B
:100F9000F6012483358346835783E6012C813D8106
:100FA0004E815F8179018A01DA01C9010197A109A6
:100FB000B1098F5F9F4FAF4FBF43F8F4E6016A81DD
:100FC0007B81A8019701220F331F441F551F6150D9
:100FD000704079018A01DA01C9010197A109B109BB
:100FE0008F5F9F4FAF4FBF4360F3E6017B836A8300
:100FF000F601248335834683578383E0D6018C939F
:1010000057FD39C0F60182C086149704B4F4C0E0DD
:10101000D0E0DA01C90181709070A070B07056956F
:10102000479537952795282B392B4A2B5B2B2196F3
:10103000AC16BD0671F78A0C9B1C681479040CF081
:1010400094CFC0E0D0E05401A618B708D801C7017A
:1010500081709070A070B07016950795F794E79422
:10106000E82AF92A0A2B1B2B2196AC16BD0671F72C
:101070006A0C7B1C7ACFDA01C901B695A7959795C2
:1010800087952170307040705070282B392B4A2B77
:101090005B2BE6012C833D834E835F838A819B819A
:1010A00001969B838A83F60131C0882799278A1984
:1010B0009B0950CFE21AF30A040B150BA801970104
:1010C00061CFE60199837B826A822E0D3F1D401F0E
:1010D000511FF60124833583468357838ECF20E04A
:1010E00030E040E050E041CF81E0E60189837B823F
:1010F0006A8250954095309521953F4F4F4F5F4FF5
:10110000F601248335834683578347CFCF01EEE032
:10111000CDB7DEB761C5A0E2B0E0E0E9F8E048C5D0
:1011200069837A838B839C832D833E834F83588787
:1011300089E1E82EF12CEC0EFD1EB701CE010196DF
:1011400010D48E010F5E1F4FB801CE01059609D451
:101150008A8991E089278A8BAE01475F5F4FB8018A
:10116000C701AEDEDCD2E6E0A0963EC5A0E2B0E06C
:10117000EBEBF8E01DC569837A838B839C832D8319
:101180003E834F83588799E1E92EF12CEC0EFD1E2A
:10119000B701CE010196E5D38E010F5E1F4FB80156
:1011A000CE010596DED3AE01475F5F4FB801C701A0
:1011B00087DEB5D2E6E0A09617C5A0E2B0E0E2EE89
:1011C000F8E0EAC469837A838B839C832D833E8312
:1011D0004F8358878E01075E1F4FB801CE010196DD
:1011E000C0D3F1E1EF2EF12CEC0EFD1EB701CE01C4
:1011F0000596B7D3898D823078F09989923040F482
:1012000020E09A8D8A89981321E02A8BB701E9C0E2
:10121000843051F4923061F020E09A8D8A899813DD
:1012200021E02A8FB801DDC0943029F4823041F7E3
:1012300060ED72E0D6C0823079F3923009F32D8DE3
:101240003E8D4F8D58A18D899E89AF89B88D2224FE
:1012500033242101AA24BB246501EE24FF24870145
:1012600060E070E00DC06F5F7F4F6032710599F1F3
:10127000880F991FAA1FBB1F56954795379527952D
:1012800020FF19C0280E391E4A1E5B1E66247724D3
:101290004301281639064A065B0628F4E1E06E2E63
:1012A000712C812C912CAE0CBF1CC01ED11EA60C23
:1012B000B71CC81CD91CEE0CFF1C001F111FB7FF68
:1012C000D2CFE1E06E2E712C812C912CE628F728EC
:1012D00008291929C8CF8B8D9C8D2B893C89820FB9
:1012E000931F02969C878B871A869A8D8A899817F6
:1012F00011F081E08A87D7FE17C08B859C85A0FE00
:101300000CC0569447943794279420E030E040E096
:1013100050E8222A332A442A552AD694C794B794EF
:10132000A79401969C878B8730E0A31630E0B30624
:1013300030E0C30630E4D30618F58B859C850EC0DB
:10134000220C331C441C551C019720E0A21620E0FF
:10135000B20620E0C20620E4D20680F4AA0CBB1C30
:10136000CC1CDD1C57FEECCF31E0632E712C812CA0
:10137000912CA628B728C828D928E2CF9C878B872C
:10138000D601C5018F779070A070B0708034910540
:10139000A105B10551F0AD86BE86CF86D88A83E01F
:1013A0008987BE01675F7F4F1CC0A7FCF4CF211463
:1013B00031044104510479F380E490E0A0E0B0E00E
:1013C000A80EB91ECA1EDB1E80E8682E8FEF782E8D
:1013D0008FEF882E8FEF982EA620B720C820D92017
:1013E000DACFCB019CD1E2E1A096F2C3A8E1B0E054
:1013F000EBEFF9E0D7C369837A838B839C832D83DA
:101400003E834F835887B1E18B2E912C8C0E9D1E0D
:10141000B401CE010196A5D28E01075F1F4FB8011E
:10142000CE0105969ED22989223008F46AC03985FA
:10143000323008F468C08A899A8589278A8B2430DB
:1014400009F463C0223009F460C0343041F41D8ACD
:101450001E8A1F8A188E1C8A1B8AB40177C03230FC
:1014600009F458C06B897C898B859C85681B790B36
:101470007C8B6B8B2D893E894F89588DED84FE8442
:101480000F8518892E153F054007510740F4220F9C
:10149000331F441F551F615070407C8B6B8B80E065
:1014A00090E0A0E0B0E4AA24BB24650160E070E015
:1014B0002E153F054007510740F0A82AB92ACA2A2D
:1014C000DB2A2E193F09400B510BB695A79597952E
:1014D0008795220F331F441F551F6F5F7F4F6F315A
:1014E000710531F7D601C5018F779070A070B0708B
:1014F00080349105A105B10589F0AD8ABE8ACF8AF5
:10150000D88EB40123C0B80121C03217D1F760EDE5
:1015100072E01CC084E0898BB40118C0A7FCEDCF39
:10152000211531054105510541F380E490E0A0E02B
:10153000B0E0A80EB91ECA1EDB1E80E89FEFAFEF19
:10154000BFEFA822B922CA22DB22D7CFCB01E7D036
:10155000ECE0689643C3A8E1B0E0E0EBFAE028C312
:1015600069837A838B839C832D833E834F83588743
:1015700081E1E82EF12CEC0EFD1EB701CE010196A3
:10158000F0D18E01075F1F4FB801CE010596E9D15A
:101590008989823018F42FEF3FEF0AC089858230A5
:1015A000D0F3B801C7017CD2282F332727FD30950F
:1015B000C901E6E0689618C3A8E0B0E0E1EEFAE001
:1015C000FAC29B01AC0183E089831A8257FD50C0A7
:1015D000211531054105510531F482E08983CE01A1
:1015E00001969DD04CC0EEE1F0E0FC83EB838A8154
:1015F0008823C9F1203010E0310710E0410710E8DE
:101600005107C9F188279927DC01821B930BA40B92
:10161000B50B8D839E83AF83B8872D813E814F812B
:101620005885203080E0380780E0480780E458077C
:10163000B0F6EB81FC81DA01C901880F991FAA1F5E
:10164000BB1F31979C01AD01803010E0910710E085
:10165000A10710E4B10778F3FC83EB838D839E83AD
:10166000AF83B887BCCF2D833E834F835887D5CFB8
:1016700081E08A83ADCF60E070E080E09FECE3E042
:101680002896B5C2ACE0B0E0E7E4FBE095C2698320
:101690007A838B839C83BE016B5F7F4FCE01019663
:1016A00060D18D81823061F0823050F0843069F4F5
:1016B0008E81882359F52FEF3FEF4FEF5FE72AC068
:1016C00020E030E040E050E025C02F81388537FD34
:1016D000F7CF2F31310564F78EE190E0821B930B39
:1016E00029853A854B855C8504C056954795379585
:1016F00027958A95D2F78E81882361F05095409581
:10170000309521953F4F4F4F5F4F04C020E030E0B0
:1017100040E050E8CA01B901E2E02C9669C24F925C
:101720005F926F927F928F929F92AF92BF92DF9261
:10173000EF92FF920F931F9320E030E040E050E0E3
:10174000FC01E480F58006811781D18080818230A0
:1017500038F4D801C701A061AF77B0706FEFD9C07E
:10176000843009F46EC0823009F471C0E114F104D0
:101770000105110509F46BC0828193816FEF8238F6
:1017800096070CF06AC062E87FEF681B790B6A313C
:1017900071050CF080C047015801062E04C0B694B4
:1017A000A794979487940A94D2F74424552432013D
:1017B00081E090E0A0E0B0E004C0880F991FAA1F6C
:1017C000BB1F6A95D2F70197A109B109E822F92256
:1017D0000A231B23E114F1040105110529F061E03E
:1017E000462E512C612C712C85017401E428F528BA
:1017F00006291729D801C7018F779070A070B070A3
:1018000080349105A105B10509F457C0D801C7017D
:10181000CF96A11DB11D60E070E08030E0E09E0732
:10182000E0E0AE07E0E4BE0710F061E070E027E022
:10183000B695A795979587952A95D1F7AF77B0700C
:1018400068C080E090E0A0E0B0E06FEF62C080E0B0
:1018500090E0A0E0B0E060E05CC0803891058CF7DB
:10186000BC0161587F4FD801C7018F779070A0707D
:10187000B07080349105A105B105A1F08FE390E02F
:10188000A0E0B0E0E80EF91E0A1F1B1F17FD28C0DC
:10189000D801C701CCCF60E070E080E090E0A0E02C
:1018A000B0E0CCCFE7FEF2CF80E490E0A0E0B0E083
:1018B000E80EF91E0A1F1B1FE9CFE7FC18C080E0E5
:1018C00090E060E0E61660E0F60660E0060760E49F
:1018D000160710F081E090E0BC01D801C701A7CF46
:1018E00016950795F794E7946F5F7F4FD1CFD80196
:1018F000C701805C9F4FAF4FBF4F60E070E080300A
:10190000E0E09E07E0E0AE07E0E4BE0708F48FCF1A
:101910008CCF282F392F9A2F9F77842F8078892B6F
:10192000962F9795992797958F77482F492B6695EE
:10193000852F8078862BD794DD24D7948F77582FE6
:101940005D29CA01B9011F910F91FF90EF90DF90BF
:10195000BF90AF909F908F907F906F905F904F90CF
:101960000895FC01DB01208131819281492F4F775D
:1019700050E0991F9927991F8381682F660F692B63
:10198000881F8827881FFD018183662309F049C0CD
:10199000211531054105510509F470C082E89FEF1A
:1019A000FD0193838283220F331F441F551F220F93
:1019B000331F441F551F220F331F441F551F220F73
:1019C000331F441F551F220F331F441F551F220F63
:1019D000331F441F551F220F331F441F551F83E021
:1019E0008C932030F0E03F07F0E04F07F0E45F0712
:1019F00090F482E89FEF220F331F441F551F019779
:101A0000203060E0360760E0460760E4560798F350
:101A1000FD0193838283FD012483358346835783AD
:101A200008956F3F71F1862F99278F579040FD01E0
:101A30009383828383E08C93220F331F441F551FAF
:101A4000220F331F441F551F220F331F441F551FE2
:101A5000220F331F441F551F220F331F441F551FD2
:101A6000220F331F441F551F220F331F441F551FC2
:101A700050642483358346835783089582E08C9392
:101A80000895211531054105510519F484E08C9321
:101A9000089544FD02C01C92BECF81E08C93BBCF61
:101AA000EF92FF920F931F93CF93DF93FC01DB0123
:101AB0008081823050F09C91923038F0843041F433
:101AC0009430B1F08181882381F461E070E04BC0F3
:101AD0009430E9F18230A1F09230A1F36181ED01FF
:101AE0008981681791F0662381F36FEF7FEF3BC028
:101AF000EB018981682F77278181681B710933C0C9
:101B0000923059F560E070E02EC022813381ED0102
:101B10008A819B818217930734F3281739079CF039
:101B2000E480F58006811781FD012481358146819D
:101B300057812E153F0540075107A8F2E216F3061C
:101B400004071507F8F6662309F0BFCFCECFFB01D7
:101B50008181882309F0B9CFC8CFEB01898188231F
:101B600009F0B3CFC2CFCB01E6E0CDB7DEB73CC0C2
:101B7000AA1BBB1B51E107C0AA1FBB1FA617B707B3
:101B800010F0A61BB70B881F991F5A95A9F78095CF
:101B90009095BC01CD0108952F923F924F925F9294
:101BA0006F927F928F929F92AF92BF92CF92DF926D
:101BB000EF92FF920F931F93CF93DF93CDB7DEB7D2
:101BC000CA1BDB0B0FB6F894DEBF0FBECDBF099466
:101BD0002A88398848885F846E847D848C849B84BD
:101BE000AA84B984C884DF80EE80FD800C811B81CB
:101BF000AA81B981CE0FD11D0FB6F894DEBF0FBEFA
:081C0000CDBFED010895FFCFF7
:101C08007B3600203C4D200056504620002E6D703B
:101C1800333E7D005653543E7D00203C4C003E7DB3
:101C2800000A0D206B75703A2000206B64776E3ABD
:101C3800200052656D6F74652076312E31206174F5
:101C480020616464723A20000D0A0052656D6F7459
:101C5800652076312E310D0A00202473002A7D0A72
:101C68000D2000202470000D0A206875653A2000B8
:101C78002076616C3A20002B003030323038303713
:101C8800320030303638313732370030323335357C
:101C98003438320030353132363034350030363968
:101CA8003733303837003133353334383531003352
:101CB8003735353835380031313930393239320035
:101CC80030373836333632310030383835373738F0
:101CD80038003039393339393638003139393836FE
:101CE8003338340030303830383232390030373118
:101CF80035323938350034313435353835310035F9
:101D080035303631363038003931333136363033C4
:101D180000343835373439303500343632353832D6
:101D280038340032323635313633370037383831C7
:101D380037393236003736343933333939003231AE
:101D480032353936363900303337333938333200A3
:101D5800303838333934353200383637373135375B
:101D6800350031373536323439350032333132388F
:101D7800393839003436393333353734003239336A
:101D8800313933373100373333393930313100396C
:101D98003131373139343600333734343330353034
:101DA800003632313134353736003831313231315D
:101DB8003233003739343737343133003835363831
:101DC800363735320030373334313837320034342F
:101DD800313439373038003135313135303134002C
:101DE8003838383439313731000000D900E200EB97
:101DF80000F400FD0006010F01170120012901323E
:101E0800013B0106013B0144014D0156015F016898
:101E18000171017A0183018C0195019E01A701B02E
:101E280001B901C201CB01D401DD01E601EF01F8DE
:101E38000101020A0213021C0225022E0237024087
:101E4800024902FE0000FEFE00FE0000FE0000FE49
:101E5800FEFE000000FEFE00FEFE00640028003CBE
:101E68000012022C0105009CFF9CFF9CFF9CFFFFB9
:081E7800000000000000000062
:00000001FF
