:1000000012C02CC02BC02AC029C028C027C026C0BF
:1000100025C078C123C033C054C020C01FC01EC03B
:100020001DC01CC01BC011241FBECFE5D4E0DEBF25
:10003000CDBF12E0A0E6B0E0E0E7F4E102C0059039
:100040000D92A03AB107D9F713E0A0EAB2E001C0DF
:100050001D92A631B107E1F7D6D408CAD1CF90BD21
:1000600089B988E18AB986E880BD1092A30210920E
:10007000A2021092E5021092E402579A08951F928C
:100080000F920FB60F9211242F938F939F93EF939C
:10009000FF939CB18091A2028F5F81708093A20236
:1000A0002091A302E0EAF2E0E80FF11D9083FF91B6
:1000B000EF919F918F912F910F900FBE0F901F90F6
:1000C00018951F920F920FB60F9211248F939F9342
:1000D000EF93FF939091E4028091E502981761F00D
:1000E000E091E502EF5FEF73E093E502F0E0EC559D
:1000F000FD4F80818CB901C05598FF91EF919F9180
:100100008F910F900FBE0F901F9018959091A202A3
:100110008091A30220E0981321E0822F089590910E
:10012000A2028091A3029817D1F3E091A302EF5F9E
:10013000E170E093A302F0E0E056FD4F8081089566
:10014000282F9091E4029F5F9F738091E50298179A
:10015000E1F3E92FF0E0EC55FD4F20839093E402AA
:10016000559A08951F93CF93DF93EC0197FF08C032
:100170008DE2E6DFD095C195DF4F02C0C051D74276
:1001800027E2C031D207D4F702C0C85ED34033E0C3
:10019000C83ED307D4F790E002C0C456D040892FA0
:1001A0009F5FC436D105CCF790E001C02A97192F84
:1001B0009F5FCA30D105D4F7805DC2DF812F805D9B
:1001C000BFDF9E01205D822FBBDFDF91CF911F91AA
:1001D0000895EF92FF920F931F93CF93DF93EC015B
:1001E00097FD02C090E004C0D095C195DF4F9FEF0E
:1001F00080E002C0C051D742E82E8F5F27E2C031B5
:10020000D207C4F780E002C0C85ED340F82E8F5FEB
:1002100033E0C83ED307C4F780E002C0C456D040E4
:10022000082F8F5FC436D105CCF780E001C02A9734
:10023000182F8F5FCA30D105D4F7992311F08DE2C2
:1002400001C080E27DDF8E2D805D7ADF8F2D805DA5
:1002500077DF802F805D74DF812F805D71DF9E01ED
:10026000205D822F6DDFDF91CF911F910F91FF9065
:10027000EF9008951F93CF93DF93182FC0E0D0E045
:10028000812F881F8827881F805D5ADF2196C830FC
:10029000D10511F0110FF4CFDF91CF911F91089587
:1002A0000F931F93182F882311F020E003C080E3E1
:1002B00019C01456322F2F5F812F90E0843691059C
:1002C000C4F720E001C01A50022F2F5F812F90E069
:1002D0000A97CCF7832F805D33DF802F805D30DF7E
:1002E000812F805D2DDF1F910F910895CF93DF93B4
:1002F000EC0102C025DF219688818823D9F7DF91A0
:10030000CF9108951F920F920FB60F9211245F9311
:100310006F937F938F939F93AF93BF9380911303BA
:10032000909114030196909314038093130380918A
:1003300013039091140362E370E04DD8892B19F4F4
:1003400081E080931503BF91AF919F918F917F9131
:100350006F915F910F900FBE0F901F9018951092A4
:100360001403109213031092150383B7836083BFA5
:1003700012BE89B7816089BF089589B78E7F89BF12
:10038000109214031092130389B7816089BF0895F6
:1003900089B7816089BF089589B78E7F89BF089525
:1003A000E199FECF9FBB8EBB6DBBF894E29AE19AB8
:1003B00078940895E199FECF9FBB8EBBE09A8DB3F0
:1003C0000895E6EEF2E080E991E08193919322E0D6
:1003D000E63FF207D1F786E086B983E487B9379A1A
:1003E000369A0895369921C047B14770E42FF0E05E
:1003F00064B175B1EE0FFF1FEA51FD4F20813181CD
:10040000C901880F991F820F931F860F971F96951A
:10041000879596958795918380834F5F483009F43F
:1004200043E04770406447B9369A0895883018F021
:10043000E0E0F0E009C0E82FF0E0EE0FFF1FEA5126
:10044000FD4F0190F081E02DCF010895382F6623F4
:1004500061F422B381E090E002C0880F991F3A95C1
:10046000E2F78095822382BB089522B381E090E079
:1004700002C0880F991F3A95E2F7282B22BB0895F6
:100480008F929F92AF92BF92CF92DF92EF92FF92A4
:100490000F931F93CF93DF934B0100917201109143
:1004A0007301EC01081719070CF4E801A090700122
:1004B000B0907101BE01882777FD8095982F44D5B3
:1004C0006B017C011C161D0634F4B801882777FDEA
:1004D0008095982F05C0B501882777FD8095982FC6
:1004E00033D59B01AC01C701B60189D47B018C01D6
:1004F000B401882777FD8095982F26D59B01AC0104
:10050000C801B70187D37AD5CB01DF91CF911F9175
:100510000F91FF90EF90DF90CF90BF90AF909F90A2
:100520008F900895CF93DF93EC0127DF8091130321
:10053000909114038C179D07C8F31FDFDF91CF91B3
:100540000895CF93DF93EC012091130330911403AE
:10055000999B03C08AEF90E002C084E690E0821786
:10056000930778F40ADF8881882329F4929881E040
:100570008883939A06C0929A8091FD028111939884
:100580001882DF91CF9108951F93182F80E690E095
:10059000ADDE812F805DD4DD80E2D2DD1F91089534
:1005A000EF92FF921F93CF93DF93EC017B0110E05A
:1005B000812FEADF83E690E099DEC336D10519F496
:1005C00087E690E00FC08DE690E090DEC7018EDEFA
:1005D000CE01C8DD82E790E089DE812F805DB0DD4D
:1005E00084E790E083DE1F5F163011F7DF91CF9133
:1005F0001F91FF90EF900895EF92FF920F931F933A
:10060000CF93DF93062FEA017901182F16C0812FAF
:10061000BBDF83E690E06ADEC336D10519F487E6D6
:1006200090E009C08DE690E061DEC7015FDECE019B
:1006300099DD84E790E05ADE1F5F011744F7DF91F0
:10064000CF911F910F91FF90EF900895FF920F931C
:100650001F93162FF42E022F97DF8BE790E046DED4
:100660001F3F19F0812F805D6BDD8F2D69DD0F3FFE
:1006700011F0802F15DE8EE790E038DE1F910F918C
:10068000FF900895EF92FF920F931F93E82E989991
:1006900003C010E006E003C010910203012F8E2D6D
:1006A00080958623F82E81FF13C0E2FC09C080915B
:1006B000FF028F5F8093FF02803110F01092FF02E3
:1006C0004091FF0221E830E050E0602F812F94DF5D
:1006D000F0FE0CC0E2FC02C0109200034091000347
:1006E00023E830E050E0602F812F86DFF3FE25C045
:1006F000E2FC0DC020E046E56FEF80910203A6DF2B
:100700002FEF46E46FEF80910203A0DF16C09899A7
:100710000FC0809101038F5F80930103883010F038
:100720001092010365E870E08091010390E004C03D
:1007300060E070E083E690E033DFF5FE12C0809168
:10074000020322DF8AE890E0D1DD809102031CDF02
:1007500081E990E0CBDD8091020316DF88E990E02B
:10076000C5DDF4FE26C02FEF43E46FEF8091020356
:100770006DDF8091020308DF82EA90E0B7DD8E2D05
:1007800090E0809590958C7090708830910541F044
:100790008C30910541F0049749F489EA90E008C053
:1007A0008DEA90E005C081EB90E002C085EB90E01F
:1007B0009DDD1F910F91FF90EF900895FF920F9391
:1007C0001F93CF93DF93F82E062FEA01122F2F3FAE
:1007D00009F41EEF8F2DD8DE8BE790E087DD0F3F09
:1007E00019F0802F805DACDC88E4AADCCE01BADC95
:1007F0008EE790E07BDD212F46E5602F8F2D26DFF1
:100800002FEF46E4602F8F2D21DFDF91CF911F91D5
:100810000F91FF9008951F93CF93DF93EC01CB01CD
:1008200064E170E02DDE2091F7023091F802280F8C
:10083000391F3093F8022093F70281E029363807F8
:1008400034F0285631403093F8022093F70280911B
:10085000F7029091F80297FF06C088599E4F909337
:10086000F8028093F70266EF7FEFCE0109DE209158
:10087000F9023091FA02280F391F3093FA022093BF
:10088000F9022E3F310534F08EEF90E09093FA029A
:100890008093F9028091F9029091FA02029734F460
:1008A00081E090E09093FA028093F90298990EC04B
:1008B00010E04091F7025091F8022091F9026FEF99
:1008C000812F7CDF1F5F1630A1F70AC04091F7022D
:1008D0005091F8022091F9026FEF809102036EDFD0
:1008E000DF91CF911F910895FF920F931F93CF93A4
:1008F000DF93082F162FF42E22E344E5A7DECF2D39
:10090000D0E0FE01EC58FE4F208142E5612F802FA0
:100910009DDEFE01E458FE4F208147E4612F802FC9
:1009200095DECC57DE4F288142E4612F802F8EDE8A
:100930002FEF46E4612F802F89DEDF91CF911F9149
:100940000F91FF9008951F9380EC87BB8FE388BBC6
:1009500014BA87E085BB8EE081BB80EF82BB8BE061
:1009600090E07DDB2EDDFBDC789480B390E0809519
:100970009095807F907024E0959587952A95E1F772
:100980008F70809302032CE38202900111242C5E6D
:100990003F4F3093F8022093F7028FE790E0909357
:1009A000FA028093F90289EB90E0A0DC2091F70233
:1009B00048E46FEF8091020349DE2091F90246E599
:1009C0006FEF8091020342DE2FEF46E46FEF8091DC
:1009D00002033CDE10E009C0939884E690E0A2DDBB
:1009E000939A84E690E09EDD1F5F212F30E0809196
:1009F0000203992787FD9095281739076CF3939A7E
:100A0000929A1F9108957F928F929F92AF92BF9278
:100A1000CF92DF92EF92FF920F931F93DF93CF93CA
:100A20000F92CDB7DEB719828EDF53E0C52E53E0AB
:100A3000D52EF6011192119223E0E331F207D1F79E
:100A4000AA24BB2420C0CEDC0F5F1F4F3FE100343F
:100A50001307C9F7F70100811181892DE7DC080F21
:100A6000191FF701019311937F019394F8E09F16EA
:100A700019F000E010E0E7CF0894A11CB11C28E0B9
:100A8000A216B10431F043E0E42E43E0F42E9924A1
:100A9000F0CFF6018081918133E0969587953A9564
:100AA000E1F7819391936F01F3E1CF16F3E0DF0655
:100AB00081F74E010894811C911C7724739492DC79
:100AC000C4013FDD809115038823C9F310921503FB
:100AD00083E0ACDC895D93401CF07092FD0202C0A3
:100AE0001092FD0285E0A2DC20910D0330910E03EF
:100AF0008C01021B130B80918E0190918F01F801E4
:100B0000E81BF90BCF01F7FF03C0909581959F4F2C
:100B100006970CF18091020337DD87EC90E0E6DB6D
:100B2000980117FF04C022273327201B310B809127
:100B30008C0190918D01281739071CF480E300DBAC
:100B400007C060916A0170916B01C80199DC0ADBF2
:100B50008AEC90E0CBDB10938F0100938E0184E050
:100B600065DC20910B0330910C035C01A21AB30ADF
:100B7000B0929101A092900186E058DC20910F0381
:100B8000309110037C01E21AF30A87E04FDC2091D8
:100B90001103309112036C01C21AD30A8091F6023C
:100BA0008823A1F080ED90E0A1DBC501DBDA85EDC3
:100BB00090E09CDBC801D6DA89ED90E097DBC701B5
:100BC000D1DA8DED90E092DBC601CCDAF7FC02C001
:100BD000960104C0222733272C193D09C701F7FECF
:100BE00004C0882799278E199F0906971CF4263080
:100BF00031051CF0B701C6010EDE16B360919601F7
:100C0000161711F0812F3EDD1093960183B380916A
:100C1000F60255CFA0E2B0E0EFE0F6E0F0C3698362
:100C20007A838B839C832D833E834F835887BE01B9
:100C3000675F7F4FCE01019656D3BE016F5E7F4F37
:100C4000CE01059650D39985923088F089898230FB
:100C5000C8F0943019F4823051F404C0843029F47F
:100C6000923081F487E991E0C6C0923049F420E0E7
:100C70009A858A89981321E02A87CE010996BBC0FC
:100C8000823049F420E09A858A89981321E02A8BE2
:100C9000CE014196B0C02D843E844F8458886D8823
:100CA0007E888F88988CEE24FF248701AA24BB2499
:100CB000650140E050E060E070E0E0E0F0E0C1019C
:100CC00081709070892BE9F0E60CF71C081D191D46
:100CD0009A01AB012A0D3B1D4C1D5D1D80E090E08B
:100CE000A0E0B0E0E614F7040805190520F481E05F
:100CF00090E0A0E0B0E0BA01A901480F591F6A1FB7
:100D00007B1FAA0CBB1CCC1CDD1C97FE08C081E01D
:100D100090E0A0E0B0E0A82AB92ACA2ADB2A3196DE
:100D2000E032F10549F0660C771C881C991C56943A
:100D3000479437942794C3CFFA85EA892B893C8955
:100D40008B859C85280F391F2E5F3F4F17C0CA0126
:100D500081709070892B61F016950795F794E79450
:100D600080E090E0A0E0B0E8E82AF92A0A2B1B2BEB
:100D700076956795579547952F5F3F4F77FDE7CF5E
:100D80000CC0440F551F661F771F17FD4160EE0C06
:100D9000FF1C001F111F21503040403090E05907C8
:100DA00090E0690790E4790760F32B8F3C8FDB01BB
:100DB000CA018F779070A070B07080349105A10542
:100DC000B10561F447FD0AC0E114F1040105110504
:100DD00029F0405C5F4F6F4F7F4F40781A8EFE17AF
:100DE00011F081E08A8F4D8F5E8F6F8F78A383E043
:100DF000898FCE014996A2D1A096E2E11CC3A8E159
:100E0000B0E0E4E0F7E003C369837A838B839C83DB
:100E10002D833E834F835887B9E0EB2EF12CEC0EE7
:100E2000FD1EB701CE0101965ED28E010F5E1F4FEF
:100E3000B801CE01059657D22985223008F47CC02E
:100E40003989323010F4B8017AC08A859A898927A5
:100E50008A87243011F0223031F4231709F06CC056
:100E600067E971E06CC0343039F41D861E861F8638
:100E7000188A1C861B8604C0323021F484E08987DE
:100E8000B7015DC02B853C858B899C89281B390B5C
:100E90003C872B87ED84FE840F851889AD88BE883A
:100EA000CF88D88CEA14FB040C051D0540F4EE0C29
:100EB000FF1C001F111F215030403C872B8720E072
:100EC00030E040E050E080E090E0A0E0B0E46FE18E
:100ED00070E0EA14FB040C051D0540F0282B392BAB
:100EE0004A2B5B2BEA18FB080C091D09B695A79540
:100EF00097958795EE0CFF1C001F111F61507040E5
:100F000041F7DA01C9018F779070A070B07080341A
:100F10009105A105B10561F427FD0AC0E114F104B2
:100F20000105110529F0205C3F4F4F4F5F4F20789E
:100F30002D873E874F87588BBE01675F7F4FCB0160
:100F4000FDD06896EAE07FC2A8E0B0E0E9EAF7E009
:100F50005FC29B01AC0183E08983DA01C901882764
:100F6000B7FD83959927AA27BB27B82E21153105F0
:100F70004105510519F482E0898339C08823A9F01D
:100F8000203080E0380780E0480780E8580729F4DF
:100F900060E070E080E09FEC2EC0EE24FF2487012B
:100FA000E21AF30A040B150B02C079018A018EE1E3
:100FB000C82ED12CDC82CB82ED82FE820F83188773
:100FC000C801B7016CD001971816190684F4082ED1
:100FD00004C0EE0CFF1C001F111F0A94D2F7ED8213
:100FE000FE820F831887C81AD90ADC82CB82BA82A4
:100FF000CE010196A3D02896E9E026C2ACE0B0E08D
:10100000E3E0F8E00CC269837A838B839C83BE01A2
:101010006B5F7F4FCE01019666D18D81823061F189
:10102000823050F1843021F48E81882351F12EC01A
:101030002F81388537FD20C06E812F3131051CF09E
:101040006623F9F023C08EE190E0821B930B298583
:101050003A854B855C8504C056954795379527950D
:101060008A95D2F76623B1F0509540953095219539
:101070003F4F4F4F5F4F0EC020E030E040E050E068
:1010800009C02FEF3FEF4FEF5FE704C020E030E0F3
:1010900040E050E8B901CA012C96E2E0DCC1EF92D1
:1010A000FF920F931F937B018C0180E0E81680E094
:1010B000F80681E0080780E0180788F48FEFE8164B
:1010C000F1040105110531F028F088E090E0A0E07E
:1010D000B0E017C080E090E0A0E0B0E012C080E097
:1010E000E81680E0F80680E0080781E0180728F09D
:1010F00088E190E0A0E0B0E004C080E190E0A0E0F2
:10110000B0E020E230E040E050E0281B390B4A0B11
:101110005B0B04C016950795F794E7948A95D2F770
:10112000F701E156FE4F8081281B31094109510921
:10113000C9011F910F91FF90EF900895DF92EF92F8
:10114000FF920F931F93FC01E480F58006811781C5
:10115000D1808081823048F480E090E0A0E1B0E06E
:10116000E82AF92A0A2B1B2BA5C0843009F49FC05A
:10117000823021F4EE24FF24870105C0E114F1043C
:101180000105110519F4E0E0F0E096C06281738179
:101190009FEF623879070CF05BC022E83FEF261B17
:1011A000370B2A3131052CF020E030E040E050E0F0
:1011B0002AC0B801A701022E04C0769567955795FD
:1011C00047950A94D2F781E090E0A0E0B0E004C037
:1011D000880F991FAA1FBB1F2A95D2F70197A10953
:1011E000B1098E219F21A023B1230097A105B1054C
:1011F00021F081E090E0A0E0B0E09A01AB01282B63
:10120000392B4A2B5B2BDA01C9018F779070A070C4
:10121000B07080349105A105B10539F427FF09C0EC
:10122000205C3F4F4F4F5F4F04C0215C3F4F4F4FFB
:101230005F4FE0E0F0E02030A0E03A07A0E04A078E
:10124000A0E45A0710F0E1E0F0E079018A0127C03C
:101250006038710564F5FB01E158FF4FD801C70103
:101260008F779070A070B07080349105A105B105A2
:1012700039F4E7FE0DC080E490E0A0E0B0E004C0E7
:101280008FE390E0A0E0B0E0E80EF91E0A1F1B1FFC
:1012900017FF05C016950795F794E794319687E0F8
:1012A00016950795F794E7948A95D1F705C0EE2433
:1012B000FF248701EFEFF0E06E2F679566276795B3
:1012C000902F9F77D794DD24D7948E2F8695492F22
:1012D000462B582F5D29B701CA011F910F91FF902E
:1012E000EF90DF900895FC01DB0140815181228164
:1012F000622F6F7770E0221F2227221F9381892F90
:10130000880F822B282F30E0991F9927991F11965B
:101310009C93119721153105A9F5411551056105DA
:10132000710511F482E037C082E89FEF13969C9319
:101330008E9312979A01AB0167E0220F331F441F6F
:10134000551F6A95D1F783E08C930DC0220F331F90
:10135000441F551F12968D919C91139701971396D8
:101360009C938E931297203080E0380780E04807E6
:1013700080E4580758F314962D933D934D935C9356
:10138000179708952F3F310579F4411551056105EF
:10139000710519F484E08C93089564FF03C081E023
:1013A0008C9312C01C9210C02F57304013963C9360
:1013B0002E93129783E08C9387E0440F551F661F8E
:1013C000771F8A95D1F7706414964D935D936D9352
:1013D0007C9317970895AA1BBB1B51E107C0AA1F56
:1013E000BB1FA617B70710F0A61BB70B881F991FC6
:1013F0005A95A9F780959095BC01CD0108952F923B
:101400003F924F925F926F927F928F929F92AF9294
:10141000BF92CF92DF92EF92FF920F931F93CF93E1
:10142000DF93CDB7DEB7CA1BDB0B0FB6F894DEBF78
:101430000FBECDBF09942A88398848885F846E849E
:101440007D848C849B84AA84B984C884DF80EE80E8
:10145000FD800C811B81AA81B981CE0FD11D0FB6F1
:10146000F894DEBF0FBECDBFED010895F894FFCF15
:101470007B36003C4D20005653543E7D005650466E
:1014800020005F002E6D70333E7D003C4C003E7DA1
:101490000068006100736F6E6700247030302A7D31
:1014A00000247330302A7D005B48414C5420305D6D
:1014B0007D005B4D4F44452000315D7D00325D7DF8
:1014C00000335D7D00305D7D0052656D6F74652079
:1014D00076312E330D0A002473002A7D0A0D200078
:1014E0000A0D443A0020533A0020483A0020563A68
:1014F000000C00303032303830373200303036387F
:101500003137323700303233353534383200303508
:1015100031323630343500303639373330383700F1
:1015200031333533343835310033373535383538A4
:1015300000313139303932393200303738363336CC
:1015400032310030383835373738380030393933B0
:1015500039393638003139393836333834000000FB
:10156000E300EC00F500FE00070110011901210164
:101570002A0133013C0145014E016400460064002C
:10158000F401F401FE0000FEFE00FE0000FE00007B
:10159000FEFEFE000000FEFE00FEFE0003009CFFBB
:1015A0009CFF9CFF9CFFFF0000000000000000006B
:1015B00001020203030303040404040404040405F5
:1015C00005050505050505050505050505050506CA
:1015D00006060606060606060606060606060606AB
:1015E000060606060606060606060606060606079A
:1015F000070707070707070707070707070707077B
:10160000070707070707070707070707070707076A
:10161000070707070707070707070707070707075A
:101620000707070707070707070707070707070849
:10163000080808080808080808080808080808082A
:10164000080808080808080808080808080808081A
:10165000080808080808080808080808080808080A
:1016600008080808080808080808080808080808FA
:1016700008080808080808080808080808080808EA
:1016800008080808080808080808080808080808DA
:1016900008080808080808080808080808080808CA
:1016A00008080808080808080808080808080800C2
:00000001FF
