:1000000012C02CC02BC02AC029C028C027C026C0BF
:1000100025C0B1C123C035C056C020C01FC01EC0FE
:100020001DC01CC01BC011241FBECFE5D4E0DEBF25
:10003000CDBF11E0A0E6B0E0ECEDF7E102C0059025
:100040000D92A437B107D9F711E0A4E7B1E001C0E0
:100050001D92A23FB107E1F7ACD5BFCBD1CF292F7D
:10006000332720BD89B988E18AB986E880BD10921E
:100070009501109294011092B7011092B601579A0F
:1000800008951F920F920FB60F9211242F938F9302
:100090009F93EF93FF939CB1809194018F5F8F7139
:1000A0008093940120919501E4E7F1E0E80FF11DC0
:1000B0009083FF91EF919F918F912F910F900FBEA1
:1000C0000F901F9018951F920F920FB60F92112448
:1000D0008F939F93EF93FF939091B6018091B70117
:1000E000981761F0E091B701EF5FEF71E093B7010E
:1000F000FF27EA56FE4F80818CB901C05598FF91C9
:10010000EF919F918F910F900FBE0F901F901895B8
:10011000909194018091950120E030E0981711F0C2
:1001200021E030E0C90108959091940180919501FA
:100130009817D1F3E0919501EF5FEF71E09395018E
:10014000FF27EC58FE4F808199270895282F909122
:10015000B6019F5F9F718091B7019817E1F3E92F76
:10016000FF27EA56FE4F20839093B601559A0895D3
:100170000F931F93CF93DF93EC0197FD2DC09BE26C
:1001800027E2C031D20734F0C051D74237E2C03144
:10019000D307D4F783E0C83ED80734F0C85ED34015
:1001A00023E0C83ED207D4F7C436D105E4F080E09E
:1001B000C456D0408F5FC436D105D4F7082F005DF8
:1001C000CA30D10574F080E02A978F5FCA30D1051C
:1001D000DCF7182F105D09C0D095C195DF4F9DE267
:1001E000CFCF10E302C000E3EBCF892FAFDF802F2A
:1001F000ADDF812FABDF9E01205D822FA7DFDF9176
:10020000CF911F910F910895EF92FF920F931F933B
:10021000CF93DF93EC0197FD3FC090E027E2C03120
:10022000D2070CF442C080E0C051D7428F5F37E262
:10023000C031D307CCF740E3E42EE80E83E0C83E9C
:10024000D807CCF180E0C85ED3408F5F23E0C83E82
:10025000D207CCF720E3F22EF80EC436D10584F194
:1002600080E0C456D0408F5FC436D105D4F7082F44
:10027000005DCA30D10544F180E02A978F5FCA3013
:10028000D105DCF7182F105D992319F08DE25EDFA0
:100290001DC080E25BDF1AC0D095C195DF4F9FEF94
:1002A00027E2C031D2070CF0BECF50E3E52E83E049
:1002B000C83ED8073CF630E3F32EC436D10584F6A9
:1002C00000E3CA30D105C4F610E3DECF8E2D3EDF49
:1002D0008F2D3CDF802F3ADF812F38DF9E01205D9C
:1002E000822F34DFDF91CF911F910F91FF90EF901C
:1002F0000895FF920F931F93182F282F332724362A
:100300003105C4F080E014568F5F212F3327243647
:100310003105CCF760E3F62EF80E2A3031057CF07B
:1003200020E01A502F5F812F99270A97D4F7022FC8
:10033000005D06C070E3F72E2A3031058CF700E32C
:1003400080E204DF8F2D02DF802F00DF812F805DB0
:10035000FDDE1F910F91FF900895CF93DF93EC0185
:100360008881882329F0F2DE219688818823D9F7B5
:10037000DF91CF9108951F920F920FB60F92112423
:100380005F936F937F938F939F93AF93BF9380916E
:10039000EE019091EF0101969093EF018093EE01B1
:1003A0008091EE019091EF0163E370E0B8D9892B61
:1003B00019F481E08093F001BF91AF919F918F91EB
:1003C0007F916F915F910F900FBE0F901F901895C6
:1003D0001092EF011092EE011092F00183B783604A
:1003E00083BF12BE89B7816089BF089589B78E7FA8
:1003F00089BF1092EF011092EE0189B7816089BF29
:10040000089589B7816089BF089589B78E7F89BFB4
:100410000895E199FECF9FBB8EBB6DBBF894E29A25
:10042000E19A78940895E199FECF9FBB8EBBE09A44
:100430008DB39927089580E991E09093B901809355
:10044000B8019093BB018093BA019093BD01809352
:10045000BC019093BF018093BE019093C101809332
:10046000C0019093C3018093C2019093C501809312
:10047000C4019093C7018093C60186E086B980E4E9
:1004800087B9379A369A089536991EC047B1477092
:10049000E42FFF2764B175B1EE0FFF1FE854FE4F44
:1004A00020813181C901880F991F820F931F860F08
:1004B000971F9695879596958795918380834F5F33
:1004C0004770406447B9369A0895883048F4E82F59
:1004D000FF27EE0FFF1FE854FE4F808191810895A2
:1004E00080E090E00895282F8E33B1F09091C801FC
:1004F000992379F09C3040F4E92FFF27E753FE4F12
:1005000080839F5F9093C80180E090E02C3361F07E
:10051000089580E090E008958093C90181E0809380
:10052000C80180E090E0089581E090E00895982F60
:10053000E82FFF27E753FE4F80818D3239F1492F95
:1005400050E020E030E0A42FBB27C901880F991F9D
:10055000880F991F880F991F220F331F280F391FEB
:10056000A753BE4F8C91280F311D205330404F5F51
:10057000A42FBB27FD01E753FE4F80818C3329F761
:10058000552341F0309521953F4F04C0492F4F5FCF
:1005900051E0D7CFC9010895382F662361F422B303
:1005A00081E090E002C0880F991F3A95E2F78095AC
:1005B000282322BB089522B381E090E002C0880F77
:1005C000991F3A95E2F7282B22BB08958F929F92AC
:1005D000AF92BF92CF92DF92EF92FF920F931F9351
:1005E000CF93DF934B010091640110916501E80105
:1005F000801791070CF4EC01A0906201B0906301A8
:10060000BE01882777FD8095982F15D66B017C0158
:100610001C161D0634F4B801882777FD8095982FA5
:1006200005C0B501882777FD8095982F04D69B01DA
:10063000AC01C701B6014AD57B018C01B401882702
:1006400077FD8095982FF7D59B01AC01C801B701C4
:1006500024D457D6DC01CB01DF91CF911F910F91AC
:10066000FF90EF90DF90CF90BF90AF909F908F90D2
:100670000895FF920F931F93CF93DF939C018B01FB
:1006800097FD49C0F2E0FF2EE2E0F0E084E0213087
:1006900038072CF42A3031050CF44BC032C020E06E
:1006A00034E068EE73E0E801CF0DD11D1882C90176
:1006B000861B970B97FD17C0EE27FF27E61BF70B4E
:1006C0009C01261B370BAC01A0E02E0F3F1FAF5F34
:1006D0004E0F5F1FC901860F971F97FFF6CFA883A4
:1006E0009A01260F371F8881805D8883F394CB01A0
:1006F0006AE070E028D862307105ACF6EF2DFF2774
:1007000018C02436310594F0E3E0283E3E074CF64D
:1007100064E670E0C8CF8DE2FB01828330952195BD
:100720003F4FE3E0FE2EE3E0F0E0B0CF6AE070E0A0
:10073000BACFE00FF11F822F805D8083F3940F0DFD
:10074000111DF8011082DF91CF911F910F91FF9041
:100750000895EF92FF920F931F9381E090E063DE84
:10076000E82E82E090E05FDEF82E83E090E05BDE32
:10077000082F84E090E057DE182F85E090E053DEEC
:10078000202F210F9E2D9F0D980F290FC9F48E2D1C
:1007900099279093D6018093D5018F2D9927909317
:1007A000D8018093D701802F99279093DA01809305
:1007B000D901812F99279093DC018093DB0117C029
:1007C00080E690E0CADD88E790E09093D6018093C0
:1007D000D5019093D8018093D7011092DA0110923D
:1007E000D9018CE390E09093DC018093DB011F91B1
:1007F0000F91FF90EF9008951F936091D501109194
:10080000D701160F8091D9019091DB01890F180F44
:10081000119581E090E0FDDD6091D70182E090E0EC
:10082000F8DD6091D90183E090E0F3DD6091DB01B8
:1008300084E090E0EEDD612F85E090E0EADD1F913D
:100840000895CF93DF93EC01D1DD8091EE0190917B
:10085000EF018C179D07C8F3C9DDDF91CF91089593
:10086000CF93DF938091CB01803209F460C022E006
:10087000E2E0F0E093E0E753FE4F80818D3209F42F
:1008800053C030E0C0E0D0E0A22FBB27CE01880FDC
:10089000991F880F991F880F991FCC0FDD1FC80F54
:1008A000D91FA753BE4F8C91C80FD11DE0972F5F62
:1008B000A22FBB27FD01E753FE4F80818C3331F718
:1008C000332319F0D095C195DF4F8091CA0182364C
:1008D000F1F0833688F08436B1F1843668F5D09330
:1008E000DA01C093D9018DEA90E037DDCE0140DC1A
:1008F00082E990E032DD37C0883561F1813699F5C3
:10090000D093D601C093D5018BE790E006C0D09379
:10091000D801C093D70185E990E01FDDCE0128DC26
:1009200082E990E01ADD1FC0292F31E0ABCF23E030
:10093000E3E0F0E094E09FCF8737A9F48EEC90E0FD
:100940000CDD5ADF10C0D093DC01C093DB0182ECD8
:1009500090E0E3CF8FED90E000DDCE0109DC82E98D
:1009600090E0FBDCC1BF1092C801DF91CF910895E8
:100970001F9380EC87BB8FE388BB14BA8EE081BBEA
:1009800080EF82BB8BE090E06ADB55DD21DD78945F
:100990008AEE90E0E2DC80B3992780959095807F85
:1009A000907095958795959587959595879595954B
:1009B00087958F708093DD0182E091E0CEDC80919D
:1009C000DD0197DC82E990E0C8DC8091DD018823BD
:1009D000D1F010E093980ADD8091EE019091EF0143
:1009E00088379105C8F302DD939A00DD8091EE010E
:1009F0009091EF0188379105C8F3F8DC1F5F809173
:100A0000DD01181738F3939A929A1F9108958F92E7
:100A10009F92AF92BF92CF92DF92EF92FF920F938D
:100A20001F93CF93DF935C018091EE019091EF01D2
:100A30008050924008F4B0C0D9DC8091F101882345
:100A400061F4F5018081882321F4929881E080830C
:100A5000A3C0929AF50110829FC08DE091E07DDCE9
:100A600085E033DD2091E8013091E90100916401D6
:100A700010916501EC01C21BD30B0C171D070CF480
:100A8000E8018090620190906301BE01882777FDA4
:100A90008095982FD0D36B017C011C161D060CF09D
:100AA00063C0B801882777FD8095982FC4D39B0138
:100AB000AC01C701B6010AD320E030E040E853E4BE
:100AC000ECD11FD4DC01CB0153DB84E0FEDC2091B0
:100AD000E6013091E7010091640110916501EC019C
:100AE000C21BD30B0C171D070CF4E80180906201A8
:100AF00090906301BE01882777FD8095982F9BD346
:100B00006B017C011C161D06DCF5B801882777FDFA
:100B10008095982F90D39B01AC01C701B601D6D226
:100B200020E030E040E853E4B8D1EBD3DC01CB0166
:100B30001FDB8FE191E011DC86E0C7DC2091EA0148
:100B40003091EB01821B930B13DB87E0BEDC20911D
:100B5000EC013091ED01821B930B0ADB81E391E004
:100B6000FCDB86B3C6DB6DCFB401882777FD8095AB
:100B7000982F61D39B01AC01C701B601A7D29CCFCE
:100B8000B401882777FD8095982F55D39B01AC0140
:100B9000C701B6019BD2C4CFDF91CF911F910F91B6
:100BA000FF90EF90DF90CF90BF90AF909F908F908D
:100BB00008952F923F924F925F926F927F928F9201
:100BC0009F92AF92BF92CF92DF92EF92FF920F93DC
:100BD0001F93CF93DF93CDB7DEB721970FB6F8946D
:100BE000DEBF0FBECDBF1982C3DEB3DDEEEDF1E097
:100BF0001192119281E0EE3EF807D1F7AA24BB24AE
:100C0000EE24FF247EEDC72E71E0D72E00E010E029
:100C10003BDC0F5F1F4FEFE100341E07C9F7F60101
:100C2000008111818E2D51DC080F191FF6010193EF
:100C300011936F010894E11CF11CF8E0EF16F10428
:100C400029F70894A11CB11C88E0A816B104C1F6CC
:100C50000EED11E0F801808191819695879596952A
:100C6000879596958795819391938F0181DA87E394
:100C700091E073DBF1E00E3E1F0761F789E391E03D
:100C80006CDB1E010894211C311CFEDBC101BFDEA0
:100C90003FDA8823A9F048DA8E3309F4E2C0909154
:100CA000C801992369F09C3040F4E92FFF27E753EE
:100CB000FE4F80839F5F9093C8018C3309F4DFC09F
:100CC0008091F001882309F31092F00185E0FDDBAB
:100CD0002091E8013091E9014C01821A930A809138
:100CE0006801909169019401281B390B37FDC3C03D
:100CF0008091660190916701821793070CF04AC0BA
:100D00008BE491E02ADB8091DD01805D1FDA8EE4C7
:100D100091E023DB40905C0150905D01E090640124
:100D2000F09065018401E814F9040CF487016090E7
:100D3000620170906301B801882777FD8095982F34
:100D40007AD25B016C01101611060CF09AC0B70143
:100D5000882777FD8095982F6ED29B01AC01C60144
:100D6000B501B4D17B018C01B201882777FD809554
:100D7000982F61D29B01AC01C801B7018ED0C1D2BE
:100D8000DC01CB01F5D982E591E0E7DA90926901C7
:100D90008092680184E099DB2091E6013091E701BF
:100DA0004C01821A930A80916A0190916B0194011F
:100DB000281B390B37FD5BC080916601909167015C
:100DC000821793070CF061CF8BE491E0C6DA809133
:100DD000DD01805DBBD988E591E0BFDA40905E011E
:100DE00050905F01E0906401F09065018401E81487
:100DF000F9040CF487016090620170906301B801FE
:100E0000882777FD8095982F16D25B016C0110160C
:100E10001106ECF5B701882777FD8095982F0BD246
:100E20009B01AC01C601B50151D17B018C01662744
:100E3000772764197509882777FD8095982FFBD14E
:100E40009B01AC01C801B70128D05BD2DC01CB010A
:100E50008FD982E591E081DA90926B0180926A01EC
:100E600014CF8093C90181E08093C80129CF3095C8
:100E700021953F4FA1CF309521953F4F39CFF0DCE1
:100E80001FCFB301882777FD8095982F65CFB301D9
:100E9000882777FD8095982FC2CFA0E2B0E0E2E5E9
:100EA000F7E064C469837A838B839C832D833E83BC
:100EB0004F8358878E01075E1F4FB801CE01019600
:100EC0008FD3F1E1EF2EF12CEC0EFD1EB701CE0118
:100ED000059686D3898D823078F09989923040F4D6
:100EE00020E09A8D8A89981321E02A8BB701E9C006
:100EF000843051F4923061F020E09A8D8A89981301
:100F000021E02A8FB801DDC0943029F4823041F706
:100F10006CE671E0D6C0823079F3923009F32D8D02
:100F20003E8D4F8D58A18D899E89AF89B88D222421
:100F300033242101AA24BB246501EE24FF24870168
:100F400060E070E00DC06F5F7F4F6032710599F116
:100F5000880F991FAA1FBB1F569547953795279550
:100F600020FF19C0280E391E4A1E5B1E66247724F6
:100F70004301281639064A065B0628F4E1E06E2E86
:100F8000712C812C912CAE0CBF1CC01ED11EA60C46
:100F9000B71CC81CD91CEE0CFF1C001F111FB7FF8B
:100FA000D2CFE1E06E2E712C812C912CE628F7280F
:100FB00008291929C8CF8B8D9C8D2B893C89820FDC
:100FC000931F02969C878B871A869A8D8A89981719
:100FD00011F081E08A87D7FE17C08B859C85A0FE23
:100FE0000CC0569447943794279420E030E040E0BA
:100FF00050E8222A332A442A552AD694C794B79413
:10100000A79401969C878B8730E0A31630E0B30647
:1010100030E0C30630E4D30618F58B859C850EC0FE
:10102000220C331C441C551C019720E0A21620E022
:10103000B20620E0C20620E4D20680F4AA0CBB1C53
:10104000CC1CDD1C57FEECCF31E0632E712C812CC3
:10105000912CA628B728C828D928E2CF9C878B874F
:10106000D601C5018F779070A070B0708034910563
:10107000A105B10551F0AD86BE86CF86D88A83E042
:101080008987BE01675F7F4F1CC0A7FCF4CF211486
:1010900031044104510479F380E490E0A0E0B0E031
:1010A000A80EB91ECA1EDB1E80E8682E8FEF782EB0
:1010B0008FEF882E8FEF982EA620B720C820D9203A
:1010C000DACFCB016BD1E2E1A0966CC3A8E1B0E02E
:1010D000EBE6F8E051C369837A838B839C832D838D
:1010E0003E834F835887B1E18B2E912C8C0E9D1E31
:1010F000B401CE01019674D28E01075F1F4FB80173
:10110000CE0105966DD22989223008F46AC039854E
:10111000323008F468C08A899A8589278A8B2430FE
:1011200009F463C0223009F460C0343041F41D8AF0
:101130001E8A1F8A188E1C8A1B8AB40177C032301F
:1011400009F458C06B897C898B859C85681B790B59
:101150007C8B6B8B2D893E894F89588DED84FE8465
:101160000F8518892E153F054007510740F4220FBF
:10117000331F441F551F615070407C8B6B8B80E088
:1011800090E0A0E0B0E4AA24BB24650160E070E038
:101190002E153F054007510740F0A82AB92ACA2A50
:1011A000DB2A2E193F09400B510BB695A795979551
:1011B0008795220F331F441F551F6F5F7F4F6F317D
:1011C000710531F7D601C5018F779070A070B070AE
:1011D00080349105A105B10589F0AD8ABE8ACF8A18
:1011E000D88EB40123C0B80121C03217D1F76CE604
:1011F00071E01CC084E0898BB40118C0A7FCEDCF5E
:10120000211531054105510541F380E490E0A0E04E
:10121000B0E0A80EB91ECA1EDB1E80E89FEFAFEF3C
:10122000BFEFA822B922CA22DB22D7CFCB01B6D08A
:10123000ECE06896BDC2A8E0B0E0E0E2F9E0A5C24B
:101240009B01AC0183E089831A8257FD50C02115B0
:1012500031054105510531F482E08983CE010196C3
:101260009DD04CC0EEE1F0E0FC83EB838A818823C3
:10127000C9F1203010E0310710E0410710E85107B4
:10128000C9F188279927DC01821B930BA40BB50BAE
:101290008D839E83AF83B8872D813E814F81588592
:1012A000203080E0380780E0480780E45807B0F637
:1012B000EB81FC81DA01C901880F991FAA1FBB1FAE
:1012C00031979C01AD01803010E0910710E0A1073B
:1012D00010E4B10778F3FC83EB838D839E83AF83A7
:1012E000B887BCCF2D833E834F835887D5CF81E00D
:1012F0008A83ADCF60E070E080E09FECE3E0289669
:1013000060C2ACE0B0E0E6E8F9E040C269837A830D
:101310008B839C83BE016B5F7F4FCE01019660D1B2
:101320008D81823061F0823050F0843069F48E819A
:10133000882359F52FEF3FEF4FEF5FE72AC020E0FA
:1013400030E040E050E025C02F81388537FDF7CFF1
:101350002F31310564F78EE190E0821B930B2985D4
:101360003A854B855C8504C05695479537952795FA
:101370008A95D2F78E81882361F0509540953095FB
:1013800021953F4F4F4F5F4F04C020E030E040E0D9
:1013900050E8CA01B901E2E02C9614C24F925F9264
:1013A0006F927F928F929F92AF92BF92DF92EF9255
:1013B000FF920F931F9320E030E040E050E0FC01EB
:1013C000E480F58006811781D1808081823038F4F5
:1013D000D801C701A061AF77B0706FEFD9C084307A
:1013E00009F46EC0823009F471C0E114F104010502
:1013F000110509F46BC0828193816FEF82389607E3
:101400000CF06AC062E87FEF681B790B6A317105E6
:101410000CF080C047015801062E04C0B694A79472
:10142000979487940A94D2F744245524320181E09A
:1014300090E0A0E0B0E004C0880F991FAA1FBB1F76
:101440006A95D2F70197A109B109E822F9220A2386
:101450001B23E114F1040105110529F061E0462E7A
:10146000512C612C712C85017401E428F528062982
:101470001729D801C7018F779070A070B0708034A1
:101480009105A105B10509F457C0D801C701CF9650
:10149000A11DB11D60E070E08030E0E09E07E0E05B
:1014A000AE07E0E4BE0710F061E070E027E0B6951B
:1014B000A795979587952A95D1F7AF77B07068C0B3
:1014C00080E090E0A0E0B0E06FEF62C080E090E0EC
:1014D000A0E0B0E060E05CC0803891058CF7BC0112
:1014E00061587F4FD801C7018F779070A070B0709E
:1014F00080349105A105B105A1F08FE390E0A0E053
:10150000B0E0E80EF91E0A1F1B1F17FD28C0D80106
:10151000C701CCCF60E070E080E090E0A0E0B0E0F8
:10152000CCCFE7FEF2CF80E490E0A0E0B0E0E80EA0
:10153000F91E0A1F1B1FE9CFE7FC18C080E090E0EE
:1015400060E0E61660E0F60660E0060760E4160775
:1015500010F081E090E0BC01D801C701A7CF16953B
:101560000795F794E7946F5F7F4FD1CFD801C701FC
:10157000805C9F4FAF4FBF4F60E070E08030E0E095
:101580009E07E0E0AE07E0E4BE0708F48FCF8CCF03
:10159000282F392F9A2F9F77842F8078892B962F89
:1015A0009795992797958F77482F492B6695852F83
:1015B0008078862BD794DD24D7948F77582F5D2998
:1015C000CA01B9011F910F91FF90EF90DF90BF907A
:1015D000AF909F908F907F906F905F904F90089505
:1015E000FC01DB01208131819281492F4F7750E04E
:1015F000991F9927991F8381682F660F692B881F70
:101600008827881FFD018183662309F049C02115C1
:1016100031054105510509F470C082E89FEFFD01D5
:1016200093838283220F331F441F551F220F331FC2
:10163000441F551F220F331F441F551F220F331FF6
:10164000441F551F220F331F441F551F220F331FE6
:10165000441F551F220F331F441F551F83E08C93D7
:101660002030F0E03F07F0E04F07F0E45F0790F430
:1016700082E89FEF220F331F441F551F0197203030
:1016800060E0360760E0460760E4560798F3FD0126
:1016900093838283FD012483358346835783089592
:1016A0006F3F71F1862F99278F579040FD019383EB
:1016B000828383E08C93220F331F441F551F220F18
:1016C000331F441F551F220F331F441F551F220F66
:1016D000331F441F551F220F331F441F551F220F56
:1016E000331F441F551F220F331F441F551F5064C3
:1016F0002483358346835783089582E08C9308952D
:10170000211531054105510519F484E08C930895A4
:1017100044FD02C01C92BECF81E08C93BBCFAA1BBC
:10172000BB1B51E107C0AA1FBB1FA617B70710F0CC
:10173000A61BB70B881F991F5A95A9F780959095FE
:10174000BC01CD01089597FB092E07260AD077FD2D
:1017500004D0E5DF06D000201AF4709561957F4F24
:101760000895F6F7909581959F4F08952F923F9297
:101770004F925F926F927F928F929F92AF92BF92A1
:10178000CF92DF92EF92FF920F931F93CF93DF934D
:10179000CDB7DEB7CA1BDB0B0FB6F894DEBF0FBEAA
:1017A000CDBF09942A88398848885F846E847D84F7
:1017B0008C849B84AA84B984C884DF80EE80FD80F9
:1017C0000C811B81AA81B981CE0FD11D0FB6F8946F
:0C17D000DEBF0FBECDBFED010895FFCFBE
:1017DC00496E697469616C697A6520454550524F50
:1017EC004D2056616C7565730D0A0053657420535A
:1017FC0074656572696E67204C6566742D4D6178F1
:10180C0020000D0A00536574205374656572696E6F
:10181C00672052696768742D4D6178200053657498
:10182C00205374656572696E672043656E746572CA
:10183C002000536574204D61782050574D00536142
:10184C00766520746F20454550524F4D0D0A00535C
:10185C006574204F5343414C20000D0A2D2D2D2033
:10186C0072656D6F74652076312E30202D2D2D0D07
:10187C000A00476F7420616464723A20000D0A20DC
:10188C004A4F5952582C204A4F595259203D007CEE
:10189C007C204A4F594C582C204A4F594C59203DCA
:1018AC00002050494E420020000D0A2D2D2D2052B3
:1018BC0045414459202D2D2D0D0A007B3600202446
:1018CC0073002A7D0A0D200020247000640028007B
:1018DC003C0012022C0105009CFF9CFF0000000044
:0418EC0000000000F8
:00000001FF
