:1000000012C02BC02AC029C028C027C026C025C0C6
:1000100024C07CC122C034C055C01FC01EC01DC03A
:100020001CC01BC01AC011241FBECFE5D4E0DEBF28
:10003000CDBF12E0A0E6B0E0E4E2F5E102C0059039
:100040000D92A23DB107D9F713E0A2EDB2E001C0D5
:100050001D92A534B107E1F796C4D2CF292F3327DB
:1000600020BD89B988E18AB986E880BD1092D502A1
:100070001092D4021092170310921603579A089503
:100080001F920F920FB60F9211242F938F939F936D
:10009000EF93FF939CB18091D4028F5F8170809326
:1000A000D4022091D502E2EDF2E0E80FF11D908339
:1000B000FF91EF919F918F912F910F900FBE0F9015
:1000C0001F9018951F920F920FB60F9211248F93C5
:1000D0009F93EF93FF9390911603809117039817C6
:1000E00061F0E0911703EF5FEF73E0931703FF27D1
:1000F000EA52FD4F80818CB901C05598FF91EF9174
:100100009F918F910F900FBE0F901F901895909117
:10011000D4028091D50220E030E0981711F021E060
:1001200030E0C90108959091D4028091D5029817CA
:10013000D1F3E091D502EF5FE170E093D502FF27A4
:10014000EE52FD4F808199270895282F9091160334
:100150009F5F9F73809117039817E1F3E92FFF27A3
:10016000EA52FD4F208390931603559A08951F93EA
:10017000CF93DF93EC0197FF08C08DE2E6DFD095C7
:10018000C195DF4F02C0C051D74227E2C031D2072C
:10019000D4F702C0C85ED34033E0C83ED307D4F7DB
:1001A00080E003C0C456D0408F5FC436D105D4F779
:1001B000805D10E002C02A971F5FCA30D105DCF7CE
:1001C000C4DF812F805DC1DF9E01205D822FBDDFF6
:1001D000DF91CF911F910895EF92FF920F931F939C
:1001E000CF93DF93EC0197FD03C090E080E008C05F
:1001F000D095C195DF4F9FEFF9CFC051D7428F5FA8
:1002000027E2C031D207CCF730E3E32EE80E80E0DE
:1002100003C0C85ED3408F5F33E0C83ED307CCF73E
:1002200020E3F22EF80E80E003C0C456D0408F5F6A
:10023000C436D105D4F7082F005D10E002C02A971C
:100240001F5FCA30D105DCF7992311F08DE201C0A0
:1002500080E27BDF8E2D79DF8F2D77DF802F75DFBA
:10026000812F805D72DF9E01205D822F6EDFDF9126
:10027000CF911F910F91FF90EF9008951F93CF930F
:10028000DF93182FC0E0D0E0912F9095991F992708
:10029000991F81E3891B59DF2196C830D10511F0E0
:1002A000110FF2CFDF91CF911F9108950F931F93FC
:1002B000182F882311F020E004C080E317C01456E3
:1002C0002F5F812F992784369105CCF7205D00E0C0
:1002D00002C01A500F5F812F99270A97D4F7822FF7
:1002E00034DF802F805D31DF812F805D2EDF1F9115
:1002F0000F910895CF93DF93EC0102C026DF219682
:1003000088818823D9F7DF91CF9108951F920F92AA
:100310000FB60F9211245F936F937F938F939F93E8
:10032000AF93BF93809142039091430301969093C2
:10033000430380934203809142039091430362E31D
:1003400070E0A5D8892B19F481E080934403BF9114
:10035000AF919F918F917F916F915F910F900FBEA1
:100360000F901F9018951092430310924203109221
:10037000440383B7836083BF12BE89B7816089BF9E
:10038000089589B78E7F89BF10924303109242036C
:1003900089B7816089BF089589B7816089BF089551
:1003A00089B78E7F89BF0895E199FECF9FBB8EBB31
:1003B0006DBBF894E29AE19A78940895E199FECFA2
:1003C0009FBB8EBBE09A8DB399270895E8E1F3E0D7
:1003D00080E991E08193919323E0E832F207D1F72D
:1003E00086E086B983E487B9379A369A08953699B4
:1003F00021C047B14770E42FFF2764B175B1EE0FFC
:10040000FF1FE85EFC4F20813181C901880F991FD1
:10041000820F931F860F971F9695879596958795C0
:10042000918380834F5F483008F043E04770406419
:1004300047B9369A0895883018F080E090E0089522
:10044000E82FFF27EE0FFF1FE85EFC4F80819181B0
:100450000895482F5527662359F422B381E090E090
:1004600002C0880F991F4A95E2F78095282309C09A
:1004700022B381E090E002C0880F991F4A95E2F70D
:10048000282B22BB08958F929F92AF92BF92CF925A
:10049000DF92EF92FF920F931F93CF93DF934B0165
:1004A0000091BD021091BE02E801801791070CF483
:1004B000EC01A090BB02B090BC02BE01882777FD82
:1004C0008095982F70D56B017C011C161D0634F4A5
:1004D000B801882777FD8095982F05C0B50188273A
:1004E00077FD8095982F5FD59B01AC01C701B601C0
:1004F000A5D47B018C01B401882777FD8095982FC6
:1005000052D59B01AC01C801B7017FD3B2D5DC0144
:10051000CB01DF91CF911F910F91FF90EF90DF9072
:10052000CF90BF90AF909F908F900895CF93DF931F
:10053000EC0127DF80914203909143038C179D07C4
:10054000C8F31FDFDF91CF910895CF93DF93EC01C4
:1005500080914203909143038B3F910570F011DF2E
:100560008881882331F460E082E073DF81E0888352
:1005700004C061E082E06DDF1882DF91CF910895C1
:100580001F93182F80E690E0B5DE812F805DDDDDC2
:1005900080E2DBDD1F910895CF93DF93EB01F0DF65
:1005A00083E690E0A7DE209741F087E690E0A2DEA8
:1005B000CE01A0DE8CE690E002C083E790E09ADEF8
:1005C000DF91CF910895FF920F931F93162FF42E72
:1005D000022FD6DF89E790E08DDE1F3F19F0812FD3
:1005E000805DB3DD8F2DB1DD0F3F11F0802F5EDE1A
:1005F0008CE790E07FDE1F910F91FF900895FF92AE
:100600000F931F93CF93DF93082F162FF42E22E31F
:1006100044E5D9DFCF2DDD27FE01E356FD4F2081D4
:1006200042E5612F802FCFDFFE01EB55FD4F20818A
:1006300047E4612F802FC7DFC355DD4F288142E497
:10064000612F802FC0DF2FEF46E4612F802FBBDFAB
:10065000DF91CF911F910F91FF900895FF920F931B
:100660001F93CF93DF93F82E062FEA01122F2F3F0F
:1006700009F41EEF8F2D84DF89E790E03BDE0F3F0A
:1006800019F0802F805D61DD88E45FDDCE016FDDD4
:100690008CE790E02FDE212F46E5602F8F2D93DF32
:1006A0002FEF46E4602F8F2D8EDFDF91CF911F91CA
:1006B0000F91FF900895EF92FF920F931F93CF93A6
:1006C000DF938C01CB0164EB70E0DDDEEC01CC54F8
:1006D000DF4F80912B0390912C03C80FD91F81E02D
:1006E000C936D80714F0C856D14061E87FEFC80179
:1006F000CADE2FE7E22EF12CE80EF91E98990DC004
:1007000000E010E02E2DAE016FEF802FA7DF0F5F0E
:100710001F4F0630110549F0F5CF809128032E2D8B
:10072000AE016FEF8091310399DFDF91CF911F917F
:100730000F91FF90EF900895FF920F931F93F82E63
:10074000162F082F0095062380912803882361F037
:100750008FE790E0CFDD1095812F8F218FDD88E826
:1007600090E0C8DD802F8ADD112701FF1CC0809139
:100770003003E82FFF27EE0FFF1FEB5BFD4F60817B
:1007800071818F5F809330038091310305DF809109
:10079000300399272091D1003091D200821793071E
:1007A00014F01092300300FF20C080913003E82F36
:1007B000FF27EE0FFF1FEB5BFD4F608171818150C2
:1007C0008093300380913103E7DE2091D100309196
:1007D000D2008091300399278217930724F0822F4B
:1007E00081508093300310922E0302FF12C040917B
:1007F0002F034F5F40932F0341506FEF80913103E0
:10080000FEDE80912F03863010F010922F0310929D
:100810002E0303FF11C020E046E56FEF8091310306
:10082000D2DE2FEF46E46FEF80913103CCDE60E043
:1008300070E080913103B0DE05FF0CC08091310380
:100840009FDE80E990E056DD8091310399DE87E9F3
:1008500090E050DD04FF22C02EEF40E050E060E069
:1008600080913103FBDE2EEF40E050E061E08091AB
:100870003103F4DE2EEF40EF50E062E0809131036F
:10088000EDDE2EEF40EF50E063E080913103E6DED5
:100890002FEF43E46FEF8091310395DE1F910F91AD
:1008A000FF900895CF93DF9380EC87BB8FE388BBE5
:1008B00014BA87E085BB8EE081BB80EF82BB8BE002
:1008C00090E0CCDB83DD4FDD789480B39927809571
:1008D0009095807F907054E0959587955A95E1F7B3
:1008E0008F70809331032CE38202900111242C5EDF
:1008F0003F4F30932C0320932B03809128038823B0
:1009000049F08EE990E0F6DC80913103CFDC84EB96
:1009100090E002C087EB90E0EDDC20912B0348E4EF
:100920006FEF809131034FDE2DEF46E56FEF809141
:10093000310349DE2FEF46E46FEF8091310343DE50
:10094000C0E0D0E00CC060E083E083DD84E690E0AE
:10095000EDDD61E083E07DDD84E690E0E7DD2C2FD6
:100960003327219680913103992787FD9095281789
:1009700039074CF361E083E06CDD61E082E069DD22
:10098000DF91CF910895AF92BF92CF92DF92EF9215
:10099000FF920F931F93CF93DF93CDB7DEB72197CD
:1009A0000FB6F894DEBF0FBECDBF19827BDFE2E346
:1009B000F3E01192119223E0E234F20709F41CC132
:1009C000F8CF15DD0F5F1F4F3FE100341307C9F764
:1009D000F601008111818E2D2EDD080F191FF60101
:1009E000019311936F010894E11CF11CF8E0EF16DC
:1009F000F10409F0FEC00894A11CB11C28E0A21665
:100A0000B10409F0FBC0E2E3F3E08081918173E07F
:100A1000969587957A95E1F78193919333E0E23447
:100A2000F30799F7E4DCCE0101968FDD8091440352
:100A30008823C1F31092440385E0FDDC20913C0340
:100A400030913D038C01021B130B8091C1029091E8
:100A5000C2029801281B390B37FF03C0309521953E
:100A60003F4F8091290390912A03821793070CF539
:100A70008091310385DD85EC90E03CDC980117FF27
:100A800004C022273327201B310B8091BF02909195
:100A9000C002281739071CF480E357DB07C06091B8
:100AA000B5027091B602C801EEDC61DB88EC90E023
:100AB00021DC1093C2020093C10284E0BCDC2091CF
:100AC0003A0330913B038C01021B130B8091C3024C
:100AD0009091C40220912803A801481B590BCA0118
:100AE00057FF03C0909581959F4F029784F18091A5
:100AF000310346DD8EEC90E0FDDB980117FF04C06A
:100B000022273327201B310B8091BF029091C00216
:100B1000281739071CF480E318DB16C099990AC01E
:100B20006091B9027091BA02709561957F4FC801CA
:100B3000AADC09C06091B7027091B8027095619506
:100B40007F4FC801A0DC13DB88EC90E0D3DB10936F
:100B5000C4020093C30286E06EDC20913E03309114
:100B60003F037C01E21AF30A87E065DC2091400331
:100B7000309141038C01021B130B2091290330910A
:100B80002A038091C5029091C602F701E81BF90B78
:100B9000CF01F7FF03C0909581959F4F2817390724
:100BA00084F08091C7029091C802A801481B590B9C
:100BB000CA0157FF03C0909581959F4F28173907A9
:100BC0001CF4B701C80177DDF092C602E092C502BD
:100BD0001093C8020093C70216B36091C90216179A
:100BE00011F0812FA9DD1093C90283B380912803EE
:100BF00019CF00E010E0E5CEAA24BB24EE24FF24A8
:100C000062E3C62E63E0D62EF4CFA0E2B0E0EAE0C5
:100C1000F6E051C469837A838B839C832D833E8362
:100C20004F8358878E01075E1F4FB801CE01019692
:100C30008FD3F1E1EF2EF12CEC0EFD1EB701CE01AA
:100C4000059686D3898D823078F09989923040F468
:100C500020E09A8D8A89981321E02A8BB701E9C098
:100C6000843051F4923061F020E09A8D8A89981393
:100C700021E02A8FB801DDC0943029F4823041F799
:100C80006AEC72E0D6C0823079F3923009F32D8D90
:100C90003E8D4F8D58A18D899E89AF89B88D2224B4
:100CA00033242101AA24BB246501EE24FF248701FB
:100CB00060E070E00DC06F5F7F4F6032710599F1A9
:100CC000880F991FAA1FBB1F5695479537952795E3
:100CD00020FF19C0280E391E4A1E5B1E6624772489
:100CE0004301281639064A065B0628F4E1E06E2E19
:100CF000712C812C912CAE0CBF1CC01ED11EA60CD9
:100D0000B71CC81CD91CEE0CFF1C001F111FB7FF1D
:100D1000D2CFE1E06E2E712C812C912CE628F728A1
:100D200008291929C8CF8B8D9C8D2B893C89820F6E
:100D3000931F02969C878B871A869A8D8A899817AB
:100D400011F081E08A87D7FE17C08B859C85A0FEB5
:100D50000CC0569447943794279420E030E040E04C
:100D600050E8222A332A442A552AD694C794B794A5
:100D7000A79401969C878B8730E0A31630E0B306DA
:100D800030E0C30630E4D30618F58B859C850EC091
:100D9000220C331C441C551C019720E0A21620E0B5
:100DA000B20620E0C20620E4D20680F4AA0CBB1CE6
:100DB000CC1CDD1C57FEECCF31E0632E712C812C56
:100DC000912CA628B728C828D928E2CF9C878B87E2
:100DD000D601C5018F779070A070B07080349105F6
:100DE000A105B10551F0AD86BE86CF86D88A83E0D5
:100DF0008987BE01675F7F4F1CC0A7FCF4CF211419
:100E000031044104510479F380E490E0A0E0B0E0C3
:100E1000A80EB91ECA1EDB1E80E8682E8FEF782E42
:100E20008FEF882E8FEF982EA620B720C820D920CC
:100E3000DACFCB016BD1E2E1A09659C3A8E1B0E0D3
:100E4000E3E2F7E03EC369837A838B839C832D833F
:100E50003E834F835887B1E18B2E912C8C0E9D1EC3
:100E6000B401CE01019674D28E01075F1F4FB80105
:100E7000CE0105966DD22989223008F46AC03985E1
:100E8000323008F468C08A899A8589278A8B243091
:100E900009F463C0223009F460C0343041F41D8A83
:100EA0001E8A1F8A188E1C8A1B8AB40177C03230B2
:100EB00009F458C06B897C898B859C85681B790BEC
:100EC0007C8B6B8B2D893E894F89588DED84FE84F8
:100ED0000F8518892E153F054007510740F4220F52
:100EE000331F441F551F615070407C8B6B8B80E01B
:100EF00090E0A0E0B0E4AA24BB24650160E070E0CB
:100F00002E153F054007510740F0A82AB92ACA2AE2
:100F1000DB2A2E193F09400B510BB695A7959795E3
:100F20008795220F331F441F551F6F5F7F4F6F310F
:100F3000710531F7D601C5018F779070A070B07040
:100F400080349105A105B10589F0AD8ABE8ACF8AAA
:100F5000D88EB40123C0B80121C03217D1F76AEC92
:100F600072E01CC084E0898BB40118C0A7FCEDCFEF
:100F7000211531054105510541F380E490E0A0E0E1
:100F8000B0E0A80EB91ECA1EDB1E80E89FEFAFEFCF
:100F9000BFEFA822B922CA22DB22D7CFCB01B6D01D
:100FA000ECE06896AAC2A8E0B0E0E8EDF7E092C2F3
:100FB0009B01AC0183E089831A8257FD50C0211543
:100FC00031054105510531F482E08983CE01019656
:100FD0009DD04CC0EEE1F0E0FC83EB838A81882356
:100FE000C9F1203010E0310710E0410710E8510747
:100FF000C9F188279927DC01821B930BA40BB50B41
:101000008D839E83AF83B8872D813E814F81588524
:10101000203080E0380780E0480780E45807B0F6C9
:10102000EB81FC81DA01C901880F991FAA1FBB1F40
:1010300031979C01AD01803010E0910710E0A107CD
:1010400010E4B10778F3FC83EB838D839E83AF8339
:10105000B887BCCF2D833E834F835887D5CF81E09F
:101060008A83ADCF60E070E080E09FECE3E02896FB
:101070004DC2ACE0B0E0EEE3F8E02DC269837A83C4
:101080008B839C83BE016B5F7F4FCE01019660D145
:101090008D81823061F0823050F0843069F48E812D
:1010A000882359F52FEF3FEF4FEF5FE72AC020E08D
:1010B00030E040E050E025C02F81388537FDF7CF84
:1010C0002F31310564F78EE190E0821B930B298567
:1010D0003A854B855C8504C056954795379527958D
:1010E0008A95D2F78E81882361F05095409530958E
:1010F00021953F4F4F4F5F4F04C020E030E040E06C
:1011000050E8CA01B901E2E02C9601C24F925F9209
:101110006F927F928F929F92AF92BF92DF92EF92E7
:10112000FF920F931F9320E030E040E050E0FC017D
:10113000E480F58006811781D1808081823038F487
:10114000D801C701A061AF77B0706FEFD9C084300C
:1011500009F46EC0823009F471C0E114F104010594
:10116000110509F46BC0828193816FEF8238960775
:101170000CF06AC062E87FEF681B790B6A31710579
:101180000CF080C047015801062E04C0B694A79405
:10119000979487940A94D2F744245524320181E02D
:1011A00090E0A0E0B0E004C0880F991FAA1FBB1F09
:1011B0006A95D2F70197A109B109E822F9220A2319
:1011C0001B23E114F1040105110529F061E0462E0D
:1011D000512C612C712C85017401E428F528062915
:1011E0001729D801C7018F779070A070B070803434
:1011F0009105A105B10509F457C0D801C701CF96E3
:10120000A11DB11D60E070E08030E0E09E07E0E0ED
:10121000AE07E0E4BE0710F061E070E027E0B695AD
:10122000A795979587952A95D1F7AF77B07068C045
:1012300080E090E0A0E0B0E06FEF62C080E090E07E
:10124000A0E0B0E060E05CC0803891058CF7BC01A4
:1012500061587F4FD801C7018F779070A070B07030
:1012600080349105A105B105A1F08FE390E0A0E0E5
:10127000B0E0E80EF91E0A1F1B1F17FD28C0D80199
:10128000C701CCCF60E070E080E090E0A0E0B0E08B
:10129000CCCFE7FEF2CF80E490E0A0E0B0E0E80E33
:1012A000F91E0A1F1B1FE9CFE7FC18C080E090E081
:1012B00060E0E61660E0F60660E0060760E4160708
:1012C00010F081E090E0BC01D801C701A7CF1695CE
:1012D0000795F794E7946F5F7F4FD1CFD801C7018F
:1012E000805C9F4FAF4FBF4F60E070E08030E0E028
:1012F0009E07E0E0AE07E0E4BE0708F48FCF8CCF96
:10130000282F392F9A2F9F77842F8078892B962F1B
:101310009795992797958F77482F492B6695852F15
:101320008078862BD794DD24D7948F77582F5D292A
:10133000CA01B9011F910F91FF90EF90DF90BF900C
:10134000AF909F908F907F906F905F904F90089597
:10135000FC01DB01208131819281492F4F7750E0E0
:10136000991F9927991F8381682F660F692B881F02
:101370008827881FFD018183662309F049C0211554
:1013800031054105510509F470C082E89FEFFD0168
:1013900093838283220F331F441F551F220F331F55
:1013A000441F551F220F331F441F551F220F331F89
:1013B000441F551F220F331F441F551F220F331F79
:1013C000441F551F220F331F441F551F83E08C936A
:1013D0002030F0E03F07F0E04F07F0E45F0790F4C3
:1013E00082E89FEF220F331F441F551F01972030C3
:1013F00060E0360760E0460760E4560798F3FD01B9
:1014000093838283FD012483358346835783089524
:101410006F3F71F1862F99278F579040FD0193837D
:10142000828383E08C93220F331F441F551F220FAA
:10143000331F441F551F220F331F441F551F220FF8
:10144000331F441F551F220F331F441F551F220FE8
:10145000331F441F551F220F331F441F551F506455
:101460002483358346835783089582E08C930895BF
:10147000211531054105510519F484E08C93089537
:1014800044FD02C01C92BECF81E08C93BBCFAA1B4F
:10149000BB1B51E107C0AA1FBB1FA617B70710F05F
:1014A000A61BB70B881F991F5A95A9F78095909591
:1014B000BC01CD0108952F923F924F925F926F929F
:1014C0007F928F929F92AF92BF92CF92DF92EF92D4
:1014D000FF920F931F93CF93DF93CDB7DEB7CA1B55
:1014E000DB0B0FB6F894DEBF0FBECDBF09942A8880
:1014F000398848885F846E847D848C849B84AA8428
:10150000B984C884DF80EE80FD800C811B81AA81B4
:10151000B981CE0FD11D0FB6F894DEBF0FBECDBF7F
:04152000ED0108953C
:101524007B36003C4D200056504620002E6D703313
:101534003E7D005653543E7D003C4C003E7D000AE7
:101544000D206B75703A2000206B64776E3A200092
:10155400247030302A7D00247330302A7D00526597
:101564006D6F74652076312E32206174206164645D
:10157400723A20000D0A0052656D6F746520763151
:101584002E320D0A002473002A7D0A0D20002470D7
:10159400002B0030303230383037320030303638BB
:1015A4003137323700303233353534383200303564
:1015B400313236303435003036393733303837004D
:1015C4003133353334383531003337353538353800
:1015D4000031313930393239320030373836333628
:1015E400323100303838353737383800303939330C
:1015F40039393638003139393836333834003030F7
:1016040038303832323900303731353239383500F4
:1016140034313435353835310035353036313630BE
:1016240038003931333136363033003438353734D5
:1016340039303500343632353832383400323236C7
:1016440035313633370037383831373932360037A9
:101654003634393333393900323132353936363963
:101664000030333733393833320030383833393493
:10167400353200383637373135373500313735367E
:10168400323439350032333132383938390034366E
:101694003933333537340032393331393337310064
:1016A4003733333939303131003931313731393425
:1016B4003600333734343330353000363231313458
:1016C400353736003831313231313233003739343D
:1016D4003737343133003835363836373532003021
:1016E40037333431383732003434313439373038E1
:1016F400003135313135303134003838383439310E
:101704003731000000D300DC00E500EE00F70000F4
:1017140001090111011A0123012C013501000135D0
:10172400013E0147015001590162016B0174017DC1
:101734000186018F019801A101AA01B301BC01C571
:1017440001CE01D701E001E901F201FB0104020D20
:101754000216021F02280231023A024302FE00006E
:10176400FEFE00FE0000FE0000FEFEFE000000FE85
:10177400FE00FEFE0064002800320012022C010369
:10178400009CFF9CFF9CFF9CFFFF000000000000EA
:02179400000053
:00000001FF
