:1000000066C00AC37FC07EC0D0C27CC07BC07AC03D
:1000100079C077C277C098C0B9C074C073C072C0CD
:1000200071C070C06FC0AECA8FCA8ECA8DCA8CCA6A
:100030008BCA8ACA89CA88CA87CA86CA85CA84CA34
:1000400083CA82CA81CA80CA7FCA7ECA7DCA7CCA64
:100050007BCA7ACA79CA78CA77CA76CA75CA74CA94
:1000600073CA96CA71CA70CA6FCA6ECA6DCA6CCAA0
:1000700063CA6ACA69CA68CA67CA8DCAA4CA64CA96
:1000800063CA62CA61CAAECA5FCAC0CA5DCA5CCA74
:100090005BCAD3CA59CA58CA57CA56CA55CA54CADB
:1000A00053CA52CA51CA50CA4FCA4ECA4DCA4CCA84
:1000B0004BCA4ACA49CA48CA47CA46CA45CA44CAB4
:1000C00043CA42CAC6CA40CACCCAD1CA52CA1124FB
:1000D0001FBECFE5D4E0DEBFCDBF12E0A0E6B0E0AA
:1000E000E0ECF8E102C005900D92A83CB107D9F709
:1000F00013E0A8ECB2E001C01D92A237B107E1F70E
:100100004EDBDCCB7DCFE199FECF9FBB8EBB6DBBC1
:10011000F894E29AE19A78940895E199FECF9FBB12
:100120008EBBE09A8DB3089590BD89B988E18AB9F4
:100130008EE880BD1092E9021092E80210920B0343
:1001400010920A03579A08951F920F920FB60F92BA
:1001500011242F938F939F93EF93FF939CB18091E2
:10016000E8028F5F8F718093E8022091E902E8EC4A
:10017000F2E0E80FF11D9083FF91EF919F918F9135
:100180002F910F900FBE0F901F9018951F920F92F6
:100190000FB60F9211248F939F93EF93FF9390913B
:1001A0000A0380910B039817A1F0E0910B03EF5F16
:1001B000EF71E0930B03F0E0E651FD4F80818CB9C5
:1001C000FF91EF919F918F910F900FBE0F901F9015
:1001D00018955598F5CF9091E8028091E90220E0BA
:1001E000981321E0822F08959091E8028091E9020E
:1001F0009817D1F3E091E902EF5FEF71E093E90224
:10020000F0E0E853FD4F80810895282F90910A0374
:100210009F5F9F7180910B039817E1F3E92FF0E046
:10022000E651FD4F208390930A03559A0895DF927B
:10023000EF92FF920F931F93CF93DF93EC0197FD03
:1002400081C0BBE2DB2E27E2C031D2070CF482C0B2
:10025000FE01E051F742CF0160E177E21BDB20EFC6
:1002600038ED629FE001639FD00D729FD00D112485
:10027000CE0FDF1FE1E3EE2EE60E33E0C83ED307DC
:100280000CF46BC0FE01E85EF340CF0168EE73E052
:1002900001DBCB0128E13CEF629FE001639FD00DC1
:1002A000729FD00D1124CE0FDF1F61E3F62EF80EE2
:1002B000C436D1050CF454C0FE01E456F040CF0121
:1002C00064E670E0E7DA2CE93FEF629FE001639FAC
:1002D000D00D729FD00D1124CE0FDF1F062F0F5CA3
:1002E000CA30D105ACF1FE013A97CF016AE070E067
:1002F000D1DACB019B01220F331F220F331F220FB4
:10030000331F880F991F280F391FEF01C21BD30B12
:10031000162F1F5C80E279DF8D2D77DF8E2D75DF44
:100320008F2D73DF802F71DF812F6FDF9E01205DA6
:10033000822F6BDFDF91CF911F910F91FF90EF9094
:10034000DF900895D095C195DF4FFDE2DF2E7BCF82
:1003500010E3E0CFA0E3EA2E90CF70E3F72EA8CF12
:1003600000E3BECFEF92FF920F931F93CF93DF93E3
:10037000EC0127E2803192070CF477C0FC01E051D8
:10038000F742CF0160E177E285DACB0120EF38ED6B
:10039000629FE001639FD00D729FD00D1124CE0F9C
:1003A000DF1F71E3E72EE80E33E0C83ED3070CF4FD
:1003B0005FC0FE01E85EF340CF0168EE73E06ADAE9
:1003C00028E13CEF629FE001639FD00D729FD00D4A
:1003D0001124CE0FDF1F51E3F52EF60EC436D105E2
:1003E0000CF449C0FE01E456F040CF0164E670E031
:1003F00051DA2CE93FEF629FE001639FD00D729FBD
:10040000D00D1124CE0FDF1F062F0F5CCA30D1058F
:10041000A4F1FE013A97CF016AE070E03BDACB012C
:100420009B01220F331F220F331F220F331F880F10
:10043000991F280F391FEF01C21BD30B162F1F5C0A
:1004400080E2E3DE8E2DE1DE8F2DDFDE802FDDDE2C
:10045000812FDBDE9E01205D822FD7DEDF91CF91E1
:100460001F910F91FF90EF900895E0E3EE2E9CCF47
:1004700060E3F62EB3CF00E3C9CF10E3E1CFFF92E4
:100480000F931F93182F282F30E02436310534F1B5
:1004900091E01456892F212F30E09F5F24363105DB
:1004A000C4F7F0E3FF2EF80E2A303105D4F021E036
:1004B0001A50322F2F5F812F90E00A97CCF7032F2D
:1004C000005D80E2A2DE8F2DA0DE802F9EDE812FD8
:1004D000805D9BDE1F910F91FF900895A0E3FA2E9F
:1004E000E3CF00E3EECFCF93DF93EC018881882345
:1004F00029F08BDE219688818823D9F7DF91CF916F
:1005000008951F920F920FB60F9211242F938F937D
:100510009F9380916103909162030196909362038F
:10052000809361038091610390916203849718F036
:1005300081E0809363038091640390916503019649
:1005400090936503809364038091640390916503A5
:1005500089569140B0F080916C0390916D03909317
:1005600067038093660380916E0390916F03892BDC
:1005700081F410926D0310926C0310926503109237
:1005800064039F918F912F910F900FBE0F901F903A
:1005900018958091660390916703909581959F4F80
:1005A0009093670380936603E4CF1F920F920FB678
:1005B0000F9211240F900FBE0F901F90189510925C
:1005C0006203109261031092630313BE83B78260CB
:1005D00083BF12BE89B7816089BF089589B78E7FB6
:1005E00089BF109262031092610389B7816089BF4D
:1005F000089589B7816089BF089589B78E7F89BFC3
:10060000089589B78E7F89BF1092650310926403A5
:1006100089B7816089BF08951F920F920FB60F921C
:1006200011248F939F93AF93BF9380B390E0887012
:10063000907090936F0380936E0380916C03909100
:100640006D03019690936D0380936C038091680312
:1006500090916903A0916A03B0916B030196A11D6B
:10066000B11D8093680390936903A0936A03B093CC
:100670006B03BF91AF919F918F910F900FBE0F9021
:100680001F90189510926D0310926C0310926703DF
:100690001092660310926F0310926E03109268031B
:1006A0001092690310926A0310926B0385B78360FE
:1006B00085BF8BB78F778BBF1BBE8BB780648BBF1B
:1006C0000895FC0181E087831482138216821582CB
:1006D00010861486138689E1808384E081832AE072
:1006E000228383E090E09287818784E68687218B4E
:1006F00086E9828B80EA9FE0908B878784E190E097
:10070000948B838B089519BC88BD08951BBC8ABD4A
:10071000089590931203809311030895982F609386
:10072000150380931603882351F0613061F0949A89
:100730008FB580638FBD19BC98BD95980895959A23
:1007400019BC18BC089594988FB58F7E8FBD8FB556
:1007500080628FBD19BC98BD95980895982F882305
:1007600051F0613061F0969A8FB5806C8FBD1BBCE3
:100770009ABD97980895979A1BBC1ABC08959698AD
:100780008FB58F7B8FBD8FB580688FBD1BBC9ABD29
:100790009798089590931E0380931D030895809366
:1007A0001F03089580932003089590931803809366
:1007B0001703089590930D0380930C03089580937D
:1007C0000E03089580930F030895809310030895F6
:1007D000FC0180819181861797074CF0BC01461778
:1007E00057071CF451834083BA01CB0108957183EC
:1007F0006083F5CFDF92EF92FF920F931F9381E01A
:1008000090E08BDCD82E82E090E087DCE82E83E05D
:1008100090E083DCF82E84E090E07FDC082F80E617
:1008200090E061DE8E2D992787FD90952D2D332741
:1008300027FD3095820F931F2F2D332727FD3095ED
:10084000820F931F112707FD10958017910761F004
:100850008FE690E048DE83E890E045DE1F910F913F
:10086000FF90EF90DF900895D0920E03E0920F0377
:10087000F0921003F0CF1F9360910E0310910F03BD
:10088000160F80911003180F81E090E03CDC60911E
:100890000F0382E090E037DC6091100383E090E08A
:1008A00032DC612F84E090E02EDC1F91089586E811
:1008B00090E019DE8091110390911203B8DC8091D1
:1008C000660390916703B3DC8091160390E0AFDC80
:1008D0008DE990E008DE8091680390916903A09112
:1008E0006A03B0916B03A3DC83EA90E0FCDD8091A6
:1008F0000E03992787FD90959ADC80910F03992725
:1009000087FD909594DC80911003992787FD909541
:100910008EDC8AEA90E0E7DD80E0A0D488DC85EB1D
:1009200090E0E1DD809117039091180380DC8091C5
:100930001F0390E07CDC8091200390E078DC8091C4
:100940001C0390E074DC83E890E0CDDD089581ED38
:1009500090E0C9DD809111039091120368DC8BED6A
:1009600090E0C1DD809166039091670360DC88EEC2
:1009700090E0B9DD8091160390E059DC83EF90E0C0
:10098000B2DD8091680390916903A0916A03B091F0
:100990006B034DDC8BEF90E0A6DD80E05FD447DC9D
:1009A00083E890E0A0DD08951092120310921103E5
:1009B000109214031092130310921A031092190349
:1009C00089E180930E0384E080930F032AE0209353
:1009D000100383E090E0909318038093170384E65C
:1009E00080931C0320931F0386E98093200380EAF1
:1009F0009FE090931E0380931D0384E190E0909309
:100A000022038093210387B3866087BB81B3806F05
:100A100081BB959A979A8FB5806C8FBD8FB5806397
:100A20008FBD8FB581608FBD8EB588608EBD8EB550
:100A300081608EBD81E08093150310921603959A14
:100A400019BC18BC979A1BBC1ABC0895CF92DF92B0
:100A5000EF92FF920F931F93CF93DF932091110397
:100A6000309112036091170370911803C90137FD8B
:100A7000F1C068177907ACF01092120310921103BD
:100A800081E08093150310921603959A19BC18BC47
:100A9000DF91CF911F910F91FF90EF90DF90CF905A
:100AA0000895809166039091670390931403809357
:100AB0001303A901481B590BCA0157FDDEC0861755
:100AC000970744F480917003813011F785E091E03D
:100AD0000ADDDECF80910E03992787FD9095849FD4
:100AE0006001859FD00C949FD00C11242091190394
:100AF00030911A03241B350B80911003992787FD31
:100B00009095289F7001299FF00C389FF00C1124BC
:100B100050931A034093190320910C0330910D0355
:100B2000240F351F30930D0320930C0340911D03B8
:100B300050911E0388279927841B950B2817390786
:100B40002CF490930D0380930C039C0142175307E0
:100B50000CF489C080910F03992787FD9095829F9F
:100B6000A001839F500D929F500D112457FD93C0FB
:100B7000EA01D595C795D595C795D595C795C70170
:100B80008C0F9D1F8C0D9D1D97FD83C08C011595AD
:100B9000079515950795159507951595079515953D
:100BA00007950093160380917003813009F476C095
:100BB00017FD68C081E08093150380911F03C82F43
:100BC000D0E00C171D070CF04AC0809170038823F9
:100BD00009F446C085E491E086DC209120038091F1
:100BE0001F03682F70E0C617D7070CF0BE01822FD5
:100BF00090E09C01A901621773070CF4AB012091EE
:100C00001B0330E080911C0390E0BC01620F731F56
:100C1000F901E81BF90B9A014E175F070CF49F01CD
:100C200080911503621773070CF49B01922F809338
:100C30001503209316032223E1F0813009F455C0F7
:100C4000949A8FB580638FBD19BC28BD95989093F9
:100C50001B031ECF88279927821B930B0ACFE8011D
:100C600020912003C3CF50930D0340930C039A01AE
:100C700071CF959A19BC18BCEACF88279927841B95
:100C8000950B1DCF8FEF80931503109501951F4F86
:100C900094CF4F967BCF495F5F4F6ACF85E191E05C
:100CA00022DC8091110390911203C1DA8091130329
:100CB00090911403BCDA89E291E015DCC801B7DA3F
:100CC00085E391E010DCC601B2DACE01B0DAC701EB
:100CD000AEDA8FE391E007DC80910C0390910D0375
:100CE000A6DA83E890E0FFDB63CF94988FB58F7E20
:100CF0008FBD8FB580628FBD19BC28BDA7CF109264
:100D00002A031092290388E090E0909330038093A7
:100D10002F03109232031092310310923403109279
:100D200033038AE090E090932E0380932D038CE3AD
:100D300090E0909336038093350388EC90E0909395
:100D40003803809337038FEF90E090933A038093BA
:100D5000390310923C0310923B031092240310922B
:100D6000230384EF91E09093260380932503109250
:100D70002C0310922B03089590932A038093290348
:100D8000089590932E0380932D0308959093260346
:100D90008093250308959093300380932F03089543
:100DA000909332038093310308959093340380939A
:100DB00033030895909336038093350308959093F9
:100DC000380380933703089590933A03809339034F
:100DD00008959093240380932303089586E591E07A
:100DE00082DB8091290390912A0321DA80912703E5
:100DF000909128031CDA8CE691E075DB80912F033B
:100E00009091300314DA80913303909134030FDA18
:100E100080913103909132030ADA8DE791E063DB30
:100E2000809135039091360302DA809137039091D7
:100E30003803FDD98091390390913A03F8D9809114
:100E40002D0390912E03F3D988E991E04CDB0895AE
:100E50008BE991E048DB8091290390912A03E7D93F
:100E600089EA91E040DB8091270390912803DFD944
:100E700089EB91E038DB80913B0390913C03D7D91B
:100E800080EC91E030DB8091230390912403CFD953
:100E900087EC91E028DB089581E0E0D120E032E0AA
:100EA000281B390B3093280320932703C901089589
:100EB000FF920F931F93DF93CF93CDB7DEB72897A1
:100EC0000FB6F894DEBF0FBECDBF8AE090E025D903
:100ED000182F89838BE090E020D98A83180F8CE04B
:100EE00090E01BD98B83180F8DE090E016D98C838E
:100EF000180F8EE090E011D98D83180F8FE090E0ED
:100F00000CD98E83180F80E190E007D9F82E8F83DB
:100F1000180F81E190E001D9082F8AEC91E0E3DA23
:100F2000101791F08CED91E0DEDA88E991E0DBDAE0
:100F300028960FB6F894DEBF0FBECDBFCF91DF91DC
:100F40001F910F91FF900895898180932F03109234
:100F500030038A8180933103109232038B81809316
:100F60003303109234038C8180932D0310922E034F
:100F70008D8180933503109236038E8180933703E1
:100F800010923803F092390310923A03CECF1F9398
:100F900060912F0310913103160F80913303180FC6
:100FA00080912D03180F80913503180F809137031E
:100FB000180F80913903180F8AE090E0A4D860914F
:100FC00031038BE090E09FD8609133038CE090E098
:100FD0009AD860912D038DE090E095D8609135030B
:100FE0008EE090E090D8609137038FE090E08BD84E
:100FF0006091390380E190E086D8612F81E190E033
:1010000082D81F910895CF92DF92EF92FF920F93B3
:101010001F93DF93CF9300D0CDB7DEB781E01ED111
:1010200020E032E0281B390B30932803209327035C
:101030004091290350912A03421B530B9A0157FDFB
:1010400090C080912D0390912E0328173907B4F496
:1010500061E080E083DB10923C0310923B0310922E
:101060002403109223030F900F90CF91DF911F91D3
:101070000F91FF90EF90DF90CF90089580912F0314
:1010800090913003489F6001499FD00C589FD00C2D
:10109000112480912B0390912C03841B950B20919C
:1010A000330330913403829F7001839FF00C929F31
:1010B000F00C112450932C0340932B0380912303B5
:1010C00090912403840F951F90932403809323030E
:1010D000409125035091260366277727641B750BE3
:1010E00083E293E075DB2091230330912403809108
:1010F000310390913203289F8001299F100D389F62
:10110000100D11241595079515950795C601800FAB
:10111000911F8E0D9F1D97FD3EC0959587959595C6
:1011200087959595879589839A8380933B039093C0
:101130003C0380917103813081F129813A8112163B
:101140001306A4F44091370350913803609135039E
:1011500070913603CE0101963BDB61E08981FEDAB6
:1011600082CF22273327241B350B6BCF8827992763
:10117000821B930B9A8389834091370350913803E4
:101180006091350370913603CE01019621DB6FEF3C
:101190008981E4DA68CF0796C0CF80EF91E0A3D9C8
:1011A0008091290390912A0342D88091270390913E
:1011B00028033DD886E092E096D989819A8137D874
:1011C0008FE092E090D9C60132D8C80130D8C7016B
:1011D0002ED882E292E087D9809123039091240354
:1011E00026D888E991E07FD9A8CF10923E031092CB
:1011F0003D031092400310923F031092420310925D
:10120000410310924403109243031092460310923C
:101210004503109248031092470310924A0310921C
:10122000490310924C0310924B0386E086B917B81D
:10123000379A369A0895369910C087B1877024B1CD
:1012400035B1E82FF0E0EE0FFF1FE35CFC4F318378
:1012500020838F5F877087B9369A0895883058F455
:10126000E82FF0E0EE0FFF1FE35CFC4F0190F081F0
:10127000E02DCF010895E0E0F0E0CF010895EF9276
:10128000FF920F931F938FE292E02DD986E0E6DF65
:101290002FEFE22E23E0F22E9701281B390BC90114
:1012A000C6D706E312E0C8011ED989E392E01BD934
:1012B00087E0D4DF9701281B390BC901B8D7C801D3
:1012C00012D980E492E00FD983E0C8DFB0D7C8011B
:1012D0000AD986E492E007D984E0C0DF9701281B91
:1012E000390BC901A4D7C801FED88CE492E0FBD821
:1012F00082E0B4DF9CD7C801F6D882E592E0F3D84B
:10130000809166039091670392D7C801ECD81F9132
:101310000F91FF90EF900895282F8432A1F09091C3
:101320005203992371F09C3040F4E92FF0E0EB5A1E
:10133000FC4F80839F5F9093520380E02A3251F0EC
:10134000089580E008958093550381E080935203CF
:1013500080E0089581E008951F93CF93DF93A82F35
:10136000B0E0FD01EB5AFC4FE081ED32B1F1682FA6
:10137000AD0110E0C0E0D0E0EA32D9F120E030E089
:10138000C901880F991F880F991F880F991F220F75
:10139000331F280F391F2E0F311D205330406F5F30
:1013A000462F50E0FA01EB5AFC4FE081EA3241F758
:1013B000B901112321F066277727621B730B4C1BA1
:1013C0005D0B4A1B5B0B1416150614F060E070E011
:1013D000CB01DF91CF911F910895682F6F5F462F4A
:1013E00050E0FA01EB5AFC4FE08111E0C1E0D0E09F
:1013F000C3CF20E030E060E070E0DBCF382F613019
:1014000059F028B381E090E002C0880F991F3A9507
:10141000E2F7282B28BB089528B381E090E002C0B2
:10142000880F991F3A95E2F78095822388BB08952B
:10143000D5D8809161039091620380519E40C8F39A
:10144000CDD8089580914E03833370F080914F037F
:101450008823F1F0C09A10924F0310924E038091AE
:101460005003882341F408958F5F80934E03809149
:1014700050038823C1F3809151038739A0F361E0C1
:1014800080E04CD910924D038DE592E02CD8089560
:10149000C09881E080934F03E0CF1F93CF93DF93F9
:1014A00010915703103209F45BC0E12F22E062E093
:1014B00070E043E083E090E0ED3209F449C0422F50
:1014C000CB0150E0A0E0B0E0EA3209F4D6C020E061
:1014D00030E0C901880F991F880F991F880F991F45
:1014E000220F331F280F391F2E0F311D205330407C
:1014F0004F5F842F90E0FC01EB5AFC4FE081EA3211
:1015000041F7E901552321F0CC27DD27C21BD30B7E
:101510008A1B9B0B861B970B1816190614F0C0E04C
:10152000D0E08091560390E0FC01B197E435F105DD
:1015300058F4ED5EFF4F0994219709F4D5C010923D
:10154000500389E992E0CFD7DF91CF911F910895A1
:10155000FC01EB5AFC4FE08151E0A1E0B0E0B4CFD8
:10156000E091580323E063E070E044E084E090E021
:10157000A3CF80E090E01ED9CE01CBD881E080934C
:101580004D03E2CF61E080E0C9D810924D03DCCF7B
:101590008ED924DCD9CF80915803803209F49CC0C5
:1015A00083E0DADE1C3609F4B9C01D3608F46AC0DF
:1015B000103709F4ADC0183709F4A7C01D3609F477
:1015C0007DC075D9C1CF1092710310927003C0FF16
:1015D00003C081E080937003C1FFB6CF81E08093A8
:1015E0007103B2CF193481F01A3408F062C0143498
:1015F00009F481C0153408F0A7CF112319F01A326D
:1016000009F0A2CFA4D924DC3ADE9ECF8091580302
:10161000803209F459C083E09FDE193609F47BC09B
:101620001A36E0F1103709F48BC0183709F485C079
:101630001D3609F446C0D2DB87CF143409F45DC0EF
:10164000133509F081CF8CE792E04DD7A0DCC6DBE3
:101650007BCF10924D03D7FD39C061E08C2F5ED84F
:1016600073CFD7FD3BC061E08C2F78D86DCF80E081
:1016700090E0AFDBCE0180DB67CF20E030E0C0E060
:10168000D0E040CF143609F44FC0193609F449C0F0
:10169000123609F096CF89D80AD956CF123609F4F6
:1016A00049C0143609F443C0113629F68DDB96DBA8
:1016B0004BCF133509F048CFCBDB46CF70D8F7D8E6
:1016C00043CF78DB8BDB40CF84E0A6CF6FEF9E016A
:1016D0002195822F23D838CF84E063CF6FEF9E010E
:1016E0002195822F3BD830CF81E0809350038AE848
:1016F00092E0F9D629CF2BD927CF8EE692E0F3D608
:10170000BAD8D5D8109157039BCF4CD8D0D81CCF7E
:1017100056D8CDD819CF44DB61DB16CF3BD8C7D81C
:1017200013CF50D8C4D810CF50D8C1D80DCF3DDB7F
:1017300055DB0ACF26DB52DB07CF41DB4FDB04CF83
:101740002ADB4CDB01CF8FEF87BB14BA82EF81BB62
:10175000929A939A8BE090E0E7D426D946DD2FD772
:10176000CEDA90D7789489EA92E0BDD68EEB92E0FB
:10177000BAD684EC92E0B7D631D7809161039091CC
:10178000620380519E40C8F329D7C09A109271031A
:1017900010927003109251031092500308951F93FA
:1017A000D2DF28D885DB109253031092540311E046
:1017B00004C0809163038823E9F43DDD0CD58823C0
:1017C000C1F312D5843209F456C090915203992383
:1017D00081F39C3040F4E92FF0E0EB5AFC4F80831A
:1017E0009F5F909352038A3221F757DE8091630303
:1017F000882319F3F3D680914E03833308F440C055
:1018000080914F03882309F03FC0C09810934F0385
:1018100010924E0380915003882351F1809151031F
:101820008739F0F4109263038F5F809351038091A6
:1018300053038F5F809353038A3030F080914D03C0
:10184000882331F510925303809154038F5F809366
:101850005403853008F4B1CFD6DB10925403ADCFDA
:1018600061E080E05BD710924D038DE592E03BD6BE
:1018700080915103D7CF809355031093520399CF92
:101880008F5F80934E03C6CFC09A10924F03C0CF94
:10189000DDD8D8CFAA1BBB1B51E107C0AA1FBB1FB5
:1018A000A617B70710F0A61BB70B881F991F5A95EC
:1018B000A9F780959095BC01CD010895F894FFCFCC
:1018C000496E69742044726976652050494400204D
:1018D0006E6F20636B73756D2C2064656661756C2B
:1018E0007473000D0A0044726976653A20287461A9
:1018F0007267206375722050574D292000206F6455
:101900006F200020205049443A0020204953656E42
:1019100073653A20000A2020202020202064656181
:1019200064206D696E50206D6178502064656C4153
:1019300000445461726765743A20000D0A204463C4
:10194000757272656E743A000D0A20637572505795
:101950004D20000D0A206F646F20000D0A49736549
:101960006E73653A0044524956452073706565644C
:10197000204F4B20004452495645737064207461D7
:101980007267206375727220002044726976655018
:10199000574D3A20002020502C492C443A2000205A
:1019A000696E742000445249564520756E64657214
:1019B000206D696E0A0053746565723A2074617215
:1019C0006765742063757272656E74002047616983
:1019D0006E3A204B70204B64204B6920000D0A208A
:1019E0006D696E6472206D61786472206D617861DA
:1019F00020646561643A20000D0A005374656572C5
:101A00005461726765743A20000A205374656572E8
:101A100041637475616C3A20000A2050574D2000D4
:101A20000A20696E7420000A2000496E69742053F0
:101A300074656572696E672050494400206E6F209E
:101A4000636B73756D2C2064656661756C747300CF
:101A500053544545522050494420746172672063B5
:101A60007572723A20002044726976653A20000D42
:101A70000A20535445455220502C20492C20443AEA
:101A8000200020696E7465677261746F7220005265
:101A9000415445583D000D0A00524154455A3D00FD
:101AA000414343583D00414343593D004143435A5C
:101AB0003D00454E435F53504545443D00466169F6
:101AC0006C2D536166652D53544F500D0A004472BE
:101AD0006976652D3E454550524F4D0053746565FE
:101AE000722D3E454550524F4D004661696C205362
:101AF000616665204F4E0D0A004661696C20536196
:101B00006665204F46460D0A000D0A535741524D57
:101B1000202064626F617264204D4355200076324C
:081B2000302E30000D0A000018
:00000001FF
